:020000040001F9
:10200000D02E00204D22010055220100192201008E
:10201000592201005B2201005D2201000000000046
:102020000000000000000000000000005F2201002E
:10203000612201000000000063220100652201000E
:1020400067220100672201006722010011320100AE
:102050006722010067220100752801009D30010000
:102060006722010067220100672201006722010048
:102070006722010067220100672201006722010038
:102080006722010001300100672201006722010080
:10209000F9320100B9350100D13501006722010094
:1020A0006722010067220100672201006722010008
:1020B000672201006722010000000000000000000C
:1020C00067220100672201006722010067220100E8
:1020D0006722010067220100672201000000000062
:1020E00000000000000000000000000000000000F0
:1020F00000000000000000000000000000000000E0
:1021000000000000000000000000000000000000CF
:1021100000000000000000000000000000000000BF
:1021200000000000000000000000000000000000AF
:10213000000000000000000000000000000000009F
:10214000000000000000000000000000000000008F
:10215000000000000000000000000000000000007F
:10216000000000000000000000000000000000006F
:10217000000000000000000000000000000000005F
:10218000000000000000000000000000000000004F
:10219000000000000000000000000000000000003F
:1021A000000000000000000000000000000000002F
:1021B000000000000000000000000000000000001F
:1021C000000000000000000000000000000000000F
:1021D00000000000000000000000000000000000FF
:1021E00000000000000000000000000000000000EF
:1021F00000000000000000000000000000000000DF
:10220000DFF810D000F024FB00480047BD45010076
:10221000AFF30080D02E0020094B1EF0040F1CBF2E
:10222000EFF309801847EFF308800649064A884211
:1022300001D8904202D88D464FF0000018470000A8
:10224000292A0100D02E0020D00E00200648804709
:1022500006480047FEE7FEE7FEE7FEE7FEE7FEE78B
:10226000FEE7FEE7FEE7FEE705360100012201007A
:10227000D2B201E000F8012B491EFBD270470022C8
:10228000F6E710B513460A4604461946FFF7F0FF75
:10229000204610BD2DE9FE4F804681EA0300C00FA5
:1022A0000C46009021F0004123F00045B8EB0200FD
:1022B000A94105D24046214690461C460B4602469F
:1022C00023F00040104347D0270DC7F30A00C3F3A3
:1022D0000A510290401A019040286BDAC3F31300B0
:1022E00040F4801B0098924620B10023D2EB030AF1
:1022F00063EB0B0B01985946C0F14002504600F0C9
:1023000091F906460D4650465946019A00F0A9F942
:1023100010EB08006141002487EA115284EAE77358
:102320001A4340D0009A62B3019A012A4FEA075239
:1023300015DC001B61EB02014FF0004202EA07527C
:10234000CDE90042001C41F5801132462B4600F0D9
:10235000E0F903B0BDE8F08F40462146F9E7001BE5
:1023600061EB0201001C41F5801300185B4120184D
:10237000A2F5001747EB030140EAD570B6196D418D
:1023800011E06D084FEA360645EAC0754FEA07527C
:10239000001B61EB0201001C41F5801149084FEA66
:1023A00030000019514132462B4603B0BDE8F04FD2
:1023B00000F0A0B90098012240000023D0EB0202F7
:1023C00063EBE073009821464FEAE074B8EB00003D
:1023D00061EB0401E9E783F000435BE781F0004132
:1023E00058E72DE9FE4F81EA030404F0004421F090
:1023F000004100944FF0000B23F0004350EA010429
:102400005ED052EA03045BD0C3F30A54C1F30A5509
:102410002C44A4F2F3340194A0FB0254C1F3130141
:1024200041F48011C3F3130343F4801301FB02440E
:1024300000FB034E840A970A44EA815447EA835713
:10244000A4FB076802958D0A05FB07854FEA932CCC
:1024500004FB0C542705029D4FEA065847EA16373D
:10246000B5EB08056EEB070C870E920E47EA811755
:1024700042EA8312A7FB0201B6EB0B0164EB0004F6
:102480002B0D43EA0C335E1844EB1C50DA465146E0
:10249000E7FB0201C5F313044FEA0B3343EA14537D
:1024A0004FEA0432019C43EA0603A4F10C040294AF
:1024B000009CCDE900B400F02CF903B0BDE8F08F2A
:1024C00000200146F9E72DE9F04D81EA030404F00C
:1024D000004B21F0004514464FF0000A23F0004164
:1024E00050EA050220D054EA01021DD0C5F30A5774
:1024F0000246C5F31303C1F31300C1F30A5640F4B7
:10250000801543F48013A7EB0608101BD64608F28B
:10251000FD3873EB050002D308F1010801E09218C1
:102520005B41B8F1000F03DA00200146BDE8F08DF1
:1025300000204FF48011064684460EE0171B73EB13
:10254000050705D3121B63EB050306434CEA010C98
:1025500049084FEA300092185B4150EA0107EDD17B
:1025600052EA030012D082EA040083EA050108431C
:1025700005D0101BAB4106D20122002306E0002249
:102580004FF0004302E06FF0010253101AEB060017
:102590004CEB085110EB0A0041EB0B01BDE8F04D8C
:1025A00000F0A8B80EB5C10F80EAE0700844CA0771
:1025B000002140F233438DE80E000A460B4600F03E
:1025C000A8F803B000BD00F0004230F000400AD08F
:1025D000C10D01F56071C0F3160042EA0151C20855
:1025E00040071143704700200146704701F0004347
:1025F00030B421F0004150EA010206D00A0DA2F5E4
:102600006072C1F31301002A02DC30BC0020704765
:10261000440F44EAC104C100E01830BC00EBC250D2
:1026200000F031B8202A04DB203A00FA02F1002041
:1026300070479140C2F1200320FA03F31943904000
:102640007047202A04DB203A21FA02F0002170476B
:1026500021FA02F3D040C2F120029140084319460A
:102660007047202A06DBCB17203A41FA02F043EAF2
:10267000E07306E041FA02F3D040C2F1200291403B
:102680000843194670470029A8BF7047401C4900FD
:1026900008BF20F00100704710B4B0FA80FC00FAC7
:1026A0000CF050EA010404BF10BC704749B1CCF1F2
:1026B000200421FA04F411FA0CF118BF012121437E
:1026C0000843A3EB0C01CB1D4FEA00614FEA102039
:1026D00042BF002010BC704700EBC35010440029DB
:1026E000A4BF10BC7047401C490008BF20F0010087
:1026F00010BC704710B5141E73F1000408DA401CBA
:1027000041F1000192185B411A4301D120F0010010
:1027100010BD2DE9F04D92469B4611B1B1FA81F200
:1027200002E0B0FA80F220329046FFF77BFF0446C9
:102730000F4640EA0A0041EA0B0153465A46084355
:1027400013D0114653EA010019D0C8F14002504697
:10275000FFF777FF05460E46504659464246FFF7BB
:1027600061FF084305D0012004E020463946BDE85A
:10277000F08D0020054346EAE0762C4337430A9863
:102780006305E40AA0EB08000022FD0A44EA47546E
:102790000A3002D500200146E9E701051019694118
:1027A000DDE9084500196941BDE8F04DA2E72DE9D2
:1027B000F04D00231A461B1A8A4103DB0020014614
:1027C000BDE8F08DC1F30A52C1F3130141F4801545
:1027D0004FF0000BD10702D100186D41521E0027A7
:1027E000044640F2FF11384601EB620A3E4680463D
:1027F000024600204FF48011FFF723FFC2197141F8
:10280000BB1846EB0100B4EB030C75EB000C04D3D2
:10281000E41A65EB000517460E46241908F101007D
:102820006D4180463428E3DDF91946EB0600091BAB
:10283000A84103D24FF0FF32134601E000221346B5
:102840001BEB070046EB0A51BDE8F04DFFF752BF06
:10285000064C074D06E0E06840F0010394E80700ED
:1028600098471034AC42F6D3FFF7CEFCBC5A0100B7
:10287000DC5A01002DE9F04F00268DB00122664C94
:10288000B0464FF4807033461746089600F18041F9
:1028900001F5C041D1F800C0BCF1010F09D1D4F855
:1028A00004C31CEA020F04D0C1F800800968164373
:1028B0000391001D52005B1C80B2082BE6D35748E1
:1028C000DFF85CB1016801290AD1C0F80080006816
:1028D0000090DBF8000046F00046D0F810050890A4
:1028E000504D16F0FF0F1CBF4FF00109002419D006
:1028F00019EA060F11D0A00000F1804101F5C04196
:10290000D1F81005D1F81015C0F3042055F8242093
:10291000C1F30141002A18BF90474FEA4909641CDE
:10292000082CE5D316F0004F19BF4FF0FF30CDE96A
:102930000A800DB0BDE8F08F002634462A1992F8BF
:1029400050104AB221F0C000B2F1FF3F3AD00BABB9
:10295000C20800F0070C9B5C07FA0CFA1AEA030F96
:1029600030D02B18890993F9303055F823C0BCF1C9
:10297000000F02D0032902D008E0032922D10AABBC
:1029800013F8028048EA0A0803F802804FF0A043D7
:1029900003EB8003D3F800870DF12009C8F3014849
:1029A00019F802201AEA020F03D0B8F1020F03D07F
:1029B00008E0B8F1030F05D1032919D0BCF1000FCD
:1029C00018BFE047641C042CB8D3002E04BF0DB020
:1029D000BDE8F08FDBF80000D0F8100508998842B8
:1029E00004BF0DB0BDE8F08F08900A980B90A3E7E4
:1029F000B8F1020F14BF02220322D3F8008728F493
:102A00004038C3F80087D3F8008748EA0242C3F889
:102A10000027721CD6B2D1E7006000407C61004004
:102A2000045A01007C0C002010B500F001F810BD24
:102A3000BFF34F8F05480168054A01F4E061114377
:102A40000160BFF34F8F00BFFDE700000CED00E019
:102A50000400FA0510B520217F2001F0C7FF0221F4
:102A6000BDE81040142001F0C1BF10B520217F2027
:102A700001F0BCFF0221BDE81040012001F0B6BF0B
:102A800010B500217F2001F0B1FF0021BDE810400A
:102A9000072001F0ABBF10B500217F2001F0A6FF99
:102AA0008021BDE81040062001F0A0BF08B501213B
:102AB000322001F075FF01226946322001F0E4FE68
:102AC00008BD10B500217F2001F090FF0121BDE875
:102AD0001040062001F08ABF10B5044620217F2057
:102AE00001F084FFC4F30321102001F07FFF04F004
:102AF0000F01BDE81040112001F078BF70B5054608
:102B000020217F2001F072FF04462946002001F0B9
:102B10006DFF204670BD000010B52DED0A0B2DEDA8
:102B2000108BF0EE60AA9EB0F0EE64EAB0EE43BA0D
:102B3000B0EE62FAF0EE42FAB0EE41AA9FEDFCEA86
:102B40009FEDFD0B00F00CFFFD4CB0EE000AD4ED44
:102B5000009A94ED019AD4ED028A94ED038A69EE0D
:102B6000800A69EE00CA28EE80CA28EE000ACDED80
:102B7000060ACDED100A8DED140A20EEA80A29EE02
:102B800009DA68EEA8BA8DED0A0A2CEE080A68EE9A
:102B900008DA8DED0C0A29EEA90A8DED110A29EE4D
:102BA000890A8DED150A29EEA80A8DED090A29EE8C
:102BB000880A8DED180A29EE280A8DED170A29EEEC
:102BC000080A8DED080A28EE880A8DED160A9DED9B
:102BD0002E0A60EE000A4AEEAA0A4AEE0A0AB1EE8E
:102BE000E00AB4EE400AF1EE10FA1CBFB0EE600A43
:102BF00000F0F3FEB5EEC00AF1EE10FA01BF1EB010
:102C0000BDEC108B0AB010BDB7EE001AC1EE000A81
:102C10009DED2E0A20EE200A8DED2E0A2AEEA00A46
:102C20008DED2F0A2AEE200A8DED300A2BEE0B0ACD
:102C3000DDED350A00EEA00ADDED360A00EEA00A51
:102C4000F0EE400AB1EEE00AB4EE400AF1EE10FAFE
:102C50001CBFB0EE600A00F0C0FEB5EEC00AF1EE97
:102C600010FA7CD0B7EE001AC1EE000A9DED350ACD
:102C700060EE20AA9DED360A2BEE20BA20EE20AAA7
:102C80009DED060A60EE0B1A20EE2A0ACDED071A1A
:102C90008DED050A9DED060A20EE0A1AB0EE6C0ACB
:102CA00060EE0B1ACDED041A9DED110ADDED071A49
:102CB0006BEE000A9DED050A40EE480A2CEEAA0ACA
:102CC00041EE280A4BEE0D0A40EE280A2CEE8A0A45
:102CD00040EE080A21EE880ADDED111A0AEEA10A7B
:102CE000DDED041A4BEE6B0A01EE490A2CEE0A1ACE
:102CF0004BEE6D0A01EEA80A60EEA00A0AEECD0ABC
:102D00000AEEAB0A01EE080A0AEEED0A40EE000AEE
:102D100010EE900AFFF757FC41EC100B00F020FE7C
:102D200051EC100BFFF762FC9DED050ADDED071A73
:102D30009DED111A20EE090A00EE900A01EEE80A54
:102D4000DDED041A0AEE010A2CEE2A1A01EE880AB9
:102D50000AEE4D0A01EE080A0AEE6B0A00E04AE1AB
:102D60000AEE2D0AB0EE001ADDED151A60EE814A6A
:102D7000B0EE001AB0EE002A20EE015A9DED0C1ABA
:102D8000DDED082AB0EE003A01EE821A9DED0A2A26
:102D9000B6EE004ADDED093A12EE832ADDED2E2A69
:102DA0009DED083ADDED2F1ADDED186A33EE633A3A
:102DB00032EE622A74EE6B2ADDED173A71EE611A7B
:102DC0009DED167A72EEED2A73EEE63ADDED156AA8
:102DD00021EEAC1A62EEA02A63EEA03A76EE876A84
:102DE0000CEE421A40EE032A20EE093A60EE285A11
:102DF00040EE263ADDED086AB0EE436A72EECB2A69
:102E000000EEC86A34EE4D4A73EEEA3A05EEE21A75
:102E100034EE6B4A06EE231A9DED096A36EE266AF9
:102E2000F0EE006A26EE206A00EE046A36EE4A4AA8
:102E300020EEA86A06EE041A00EE296AB0EE41AA56
:102E40009DED141A62EE01AA9DED101A41EE21AA21
:102E5000B7EE001A0DEE661AF0EE006A0BEEE61AF7
:102E6000DDED306A31EE661AF1EE006A29EE267A5F
:102E700047EE41AA20EE087A47EE22AA46EE23AAA0
:102E800020EE886A05EE496A46EE04AA9DED146AB2
:102E900062EE2CBA04EEC83A21EE86BA9DED106AB5
:102EA0004CEE21BA40EEE95A06EE42BA28EEA66A86
:102EB00043EE22BA06EE41BA24EEE81A45EEA3BA72
:102EC00000EE691A01EE22BA20EE891AB0EE416ACC
:102ED00041EE04BA00EE086A20EEA90A6AEE0A0A78
:102EE00005EE680A06EE23BA4AEEAA0A00EE04BA14
:102EF0004BEE0B0A4BEEAB0AB1EEE00AB4EE400A21
:102F0000F1EE10FA1CBFB0EE600A00F066FDB7EEFD
:102F100000CA8CEE001A6AEE011A2AEE810A6BEEE4
:102F2000010A2BEE812A9DED311A69EE412A09E052
:102F3000CDCCCC3D00000000000000000000E83FC8
:102F4000C00B002048EEEF2AB6EE001A9DED313A94
:102F500048EE4F2A62EE812A4EEE612ADDED311AEB
:102F600069EEA11A48EE8F1A48EE6F1A61EE811AC7
:102F70004EEE401A29EEAF0A09EE4F0A08EE030A98
:102F800020EE010A0EEE600A69EE8F0A42EEAE9A5A
:102F900049EE2F0A01EEAE9A48EEC30A40EE2E8AA1
:102FA00060EE810A4EEE420A00EEAE8A69EEA90A90
:102FB00049EE090A48EEA80A48EE080AB1EEE00A0E
:102FC000B4EE400AF1EE10FA1CBFB0EE600A00F059
:102FD00004FDCCEE000A29EEA00A84ED000A29EED9
:102FE000200A84ED010A28EEA00A84ED020A28EEE8
:102FF000200A84ED030A1EB0BDEC108B0AB010BD90
:103000002DE9F04121484FF00008C0F84081C0F898
:103010004481C0F84881C0F84C81C0F80081C0F8F4
:1030200004811B4F7C68002C08BFBDE8F08100269E
:1030300018480068B968401A20F07F452068A84207
:103040000CD821462D1A0644E469087C20B181F889
:103050001080886949698847002CEFD139787878E1
:10306000814206D1401CC0B27870022808BF87F8A0
:1030700001800948797840F821604FF0E0214FF451
:103080008010C1F80002BDE8F0810000001001408E
:103090000C0C002004150140180C00202DE9F04311
:1030A000544C85B0D4F80401DFF84C810026534D10
:1030B000012718B3C8F80060D8F80000009095F810
:1030C0002E2012B195F82F00D8B18DF800606868F5
:1030D00001902889ADF80800E868002808BF2E7420
:1030E00007D0298B698368602981EE60002A08BFB8
:1030F000276068462968884785F82F6095F82E0074
:1031000088B3D4F8000170B33D48066000680090B1
:103110006A8B95F82D003B4B824203F1040C0DD9CC
:10312000A2EB000189B269832A89A2EB01016A68D6
:1031300002EB41011960CCF800000EE008D1E9680B
:1031400031B185F82F706E831960CCF8000004E06F
:10315000824204BF85F82F706E83C8F80060D8F8EB
:10316000000000906760D4F8100150B12648066056
:10317000006803902E7402208DF8000029686846CC
:103180008847D4F8140138B12048066000680090E0
:103190002E7405B0BDE8F0836C69002C19BF4FF0A8
:1031A00000484FF48C7905B0BDE8F083B4FA84F0A0
:1031B00028FA00F18C4309EB800000F1804101F511
:1031C000E0410A6882B10E6009680391A0F58C7035
:1031D000C1088DF8041027EA90008DF800708DF872
:1031E0000500296868468847002CDFD105B0BDE896
:1031F000F08300000070004004710040FC0C0020CF
:10320000007100402C7600401071004014710040A5
:1032100030B5384C85B0364894F8212094F8201009
:10322000CDE9001204F126020546D11EE36902F041
:10323000C8FA00281CBF05B030BD94F8230048BB75
:10324000207B022818BF032824D12169E069884225
:1032500020D16069E061E07B84F82000207EC0F32B
:10326000401084F82100217B032909D094F82030F4
:10327000E26905B029462046BDE8304002F033BA85
:10328000009094F8203029462046E26902F023FBA2
:1032900005B030BDD4E9030162690392CDE90101B3
:1032A00094F823000021002808BF8DF800100BD0EF
:1032B000D5F8C404C5F8C40410F0020F18BF0120EB
:1032C00010D000BF8DF8000084F82410207E10F08C
:1032D000040F1CBF05B030BDD4E9002168469047FB
:1032E00005B030BD10F0040F18BF0220EAD1EBE7A3
:1032F00000300040D40C00202DE9F04F83B0A74EE1
:1033000000270097D6E9011430787278B8469042C9
:103310002FD0401CC0B23070022808BF86F8008051
:103320009F48327850F82220101920F07F40002367
:10333000B060E1B170680168914202D9891A0160F8
:1033400015E0C0F80080C5697560521AD0F80C907D
:103350000B440146B9F1000F07D004EB030A2AF031
:103360007F4AC0E901A9CF610746002DE2D10120C3
:10337000009070684FF0000901909BE089490A783D
:1033800002EB4200521CD2B20A7001EBC0008B78F3
:10339000001D9A4208BF81F8008001784468012925
:1033A0003DD0022902D0032977D12DE0D6F804B010
:1033B00021465D465FEA050A23D08D4204D0AA4625
:1033C000ED69002DF9D11CE0DDB1AA450CD1DBF887
:1033D0001C00706040B9744901208860C6F80880FC
:1033E000F0702F2001F0D0F92968E869CAF81C00B4
:1033F00010B10268114401607068834518BF4FF036
:10340000010984F810805AE07068002857D000BF86
:1034100080F81080C069011EFAD171604FE0217CF4
:1034200000294CD181686160C168A1600169E160D7
:103430004069A061F078002818BFC4F80480616872
:10344000B0685A4B0A1A22F07F429A423CBFA068E9
:10345000104409D3401AA16820F07F4081428CBFFC
:10346000081AC4F8008000D92060C4F80480012044
:10347000C4F808802074C4F81C807068002808BF55
:10348000746017D021680268914288BF024609D84B
:10349000511A0160E06174600CE010E00246C069FE
:1034A000C91A20B103688B42F8D35B1A036021600C
:1034B000E061D461002F1CBF3C46FF69BFD1394891
:1034C0000178407881427FF459AFB9F1000F06D1FD
:1034D00071680198814204BF0098002858D0716833
:1034E0004FF480304FF400354FF0E027D9B3D1F8D6
:1034F00000A02F490C68D6F808B0A4EB0B0121F00E
:103500007F4101F10309B17889B92749C1F8440322
:10351000C1F80403C7F88052C7F800514FF001000A
:1035200008604FF02F0001F02FF90120B070D14555
:1035300038BFD14609EB0B0020F07F411D480160E8
:103540001B4B1A68091B121B22F07F4221F07F419E
:10355000D21C8A421CD9196801602F2001F014F98D
:10356000C7F8005214E0FFE70124C7F880510E4D60
:10357000C5F84803C5F808036C602F2001F004F972
:10358000AC602F20C6F8088001F0FEF886F80280B3
:1035900086F8038003B0BDE8F08F00000C0C00201B
:1035A000180C00202C0D002000100140FFFF7F00B0
:1035B00004150140401501400449044A00230988CC
:1035C00001201380921C126810470000060C002096
:1035D00000B583B00A49684601F008FE0298002849
:1035E00004BF03B000BD00BFD0E9001088476846A3
:1035F00001F00DFE02980028F6D103B000BD0000D6
:10360000685A010070B4AE480023021D0178101DF5
:103610004FF080544FF0010C062904BF157815F0C7
:103620000F0F06D0062904BF157815F00F0F13D120
:103630000DE0057805F0F005302D1CBF402D502D14
:10364000F0D1B4F824539F4EC5F3042535600578B6
:1036500005F0F005302D0CD0062904BF157815F0C3
:103660000F0F0AD0062904BF157815F00F0F17D1D8
:1036700011E0964E944D756707E0057805F0F0056A
:10368000302D1CBF402D502DECD1D4F84452904E1B
:10369000C5F342353560057805F0F005302D0CD0C6
:1036A000062904BF157815F00F0F0CD0062904BFAA
:1036B000157815F00F0F1BD115E0864D2E6826F0FA
:1036C00080762E6007E0057805F0F005302D1CBFF0
:1036D000402D502DEAD14FF08045C5F80C31C5F88A
:1036E00010317D4D2B60057805F0F005302D06D0AA
:1036F000062904BF157815F00F0F0AD104E0774EA4
:103700004FF0030535600BE0057805F0F005302D2E
:1037100006D0062904BF157815F00F0F13D10DE060
:103720006F4E4FF0050535606E4DC5F800C06E4D0B
:103730002B6006F104064FF03F053560057805F073
:10374000F005502D0CD0062904BF157815F00F0F89
:1037500058D0062904BF117811F00F0F70D15FE027
:10376000624D2D68624E3560624D2D6806F104068B
:103770003560614D2D6806F1040635605F4D2D689A
:1037800006F1040635605E4D2D6806F104063560CD
:103790005C4D2D6806F1040635605B4D2D685B4E6F
:1037A00035605B4D2D6806F104063560594D2D6876
:1037B00006F104063560584D2D6806F104063560A3
:1037C000564D2D6806F104063560554D2D6806F1FD
:1037D00004063560534D2D68534E3560534D2D68AA
:1037E00006F104063560524D2D6806F10406356079
:1037F000504D2D6806F1040635604F4D2D6806F1D9
:1038000004063560057805F0F005302D1CBF402D0D
:10381000502D9ED1D4F85812484A01F04F01116042
:10382000007800F0F00030281CBF4028502807D155
:103830004348016811F0010F1CBF6FF001010160E6
:103840004048016841F470010160BFF34F8FBFF33E
:103850006F8F4FF01022D2F8000210F0004F04BF1B
:10386000D2F8040210F0004F24D0374CC4F800C046
:10387000364801680029FCD04FF0150CC2F800C290
:1038800001680029FCD0C2F804C201680029FCD0FC
:10389000236001680029FCD0BFF34F8F2C480168DA
:1038A0002C4A01F4E06141EA02010160BFF34F8F4D
:1038B00000BFFDE729492848086070BC7047000038
:1038C000E00F00F0403501400DF0ADBA00C00740F8
:1038D0003C050040FCED00E038050040A00500403C
:1038E000105600408856004018560040040400104E
:1038F00020C50040080400100C0400101004001043
:1039000014040010180400101C04001040C50040EE
:103910002004001024040010280400102C040010BF
:10392000300400103404001060C50040380400105A
:103930003C0400104004001044040010E40E004059
:103940000004004088ED00E004E5014000E401408F
:103950000CED00E00400FA050090D0032C0C0020D0
:1039600000B52DED048BB0EE409AF0EE609A83B076
:1039700051EC190BFEF71BFF41EC180B18EE100A67
:1039800018EE901A8DED008B002818BF0120084317
:1039900020F00040C0F17F6000F1E040C00F14D083
:1039A00019EE101A19EE900A8DED009B002918BF30
:1039B0000121084320F00040C0F17F6000F1E040A9
:1039C000C00F04BF012000F035F8B0EE480A03B084
:1039D000F0EE680ABDEC048B00BD10B52DED028B36
:1039E000B1EEC08A18EE100A20F00040C0F1FF408E
:1039F000C00F0AD010EE100A20F00040C0F1FF40C6
:103A0000C00F04BF012000F015F8B0EE480ABDEC6D
:103A1000028B10BD02E008C8121F08C1002AFAD1AB
:103A200070477047002001E001C1121F002AFBD13E
:103A3000704700000149086070470000300C00200A
:103A400030B404468378827A41780078C2DF002857
:103A50001CBF30BC704723796279E1882078D3DFBE
:103A600000281CBF30BC7047E1782078CDDF0028EB
:103A700007BFA17811F0010F30BC704721890029E0
:103A80001CBF2078D1DF30BC704700002DE9F04129
:103A9000044690F82C008CB000281CBF0CB0BDE888
:103AA000F081474E7069002807BF94F82D008028E8
:103AB0000CB0BDE8F08160784E2807BFE0780028A0
:103AC0000CB0BDE8F081A07A4FF0A0474FF00005A0
:103AD0004FF0010880280CD1B5600001C7F8080537
:103AE00000210846CADFE07800281CBF0CB0BDE802
:103AF000F081A07A80B900210846CADF4FF4006047
:103B0000C7F80C057560F560C6F80880E0780028F5
:103B10001CBF0CB0BDE8F081A07AFF2807BF306958
:103B200000280CB0BDE8F081C6F81080B56000F048
:103B3000FBF94FF48934204601F0D6F9214D0021DC
:103B400005F10C0303F10C006A4600F10C0C01E0D6
:103B5000022907DC05EB810696ED000A02EB8106DF
:103B600086ED000ACE1E022E07D803EB810616ED65
:103B7000030A02EB810686ED000A8E1F022E07D88B
:103B800000EB810616ED060A02EB810686ED000ABF
:103B9000A1F10906022E07D80CEB810616ED090AE1
:103BA00002EB810686ED000A491C0B29D0DD0C22B0
:103BB0006946204601F0B0F90CB0BDE8F081000084
:103BC000800B0020D00B00200948006810F0010F86
:103BD00000D000BEBFF34F8F06480168064A01F4CB
:103BE000E06111430160BFF34F8F00BFFDE70000AC
:103BF000F0ED00E00CED00E00400FA0500B583B044
:103C000000210091CDE901106A4644F20100FFF75E
:103C1000DBFF03B000BD00F01BBE38B50446002139
:103C20007F2000F0E3FE012269460F2000F068FECD
:103C3000002818BF38BD9DF80000002140F00200A8
:103C40008DF800007F2000F0D1FE9DF800100F20BD
:103C500000F0CCFE002818BF38BD2178312000F0DC
:103C60009FFE38BD10B5044682B000217F2000F0D1
:103C7000BDFE062269462D2000F042FE00281CBF32
:103C800002B010BD611E002003226B46C0F1050C7E
:103C900013F80CC081F801C0C0F1040C801C13F8AB
:103CA0000CC001F802CF521EF0D102B0002010BDAE
:103CB00010B5044682B000217F2000F097FE062256
:103CC0006946332000F01CFE00281CBF02B010BD66
:103CD000611E002003226B46C0F1050C13F80CC0D6
:103CE00081F801C0C0F1040C801C13F80CC001F86D
:103CF00002CF521EF0D102B0002010BD38B50C46E4
:103D000001460622112000F0BFFD002818BF38BD73
:103D10004FF001022CB12146BDE83840182000F0D8
:103D2000B3BD6946182000F0AFFD38BD0A4B9B7843
:103D30003BB1002A12BF0028072070470068037CAF
:103D400013B14FF0080070474FF000030374417443
:103D500042611846704700002C0D00202DE9F0410B
:103D6000012778044FF0E0260024C6F88001174DA3
:103D70004010C5F84803C5F808036F602F2006F50A
:103D8000C07600F001FDAF60114D2F20AC6000F057
:103D9000FBFC1048AC700B210470447081706C60A7
:103DA0002C706C703805C6F800010B4AE02182F8CF
:103DB000001446F8800C09480460D01E80F80014F6
:103DC00007480068A8600020BDE8F08100100140AD
:103DD0000C0C00202C0D002014E000E00815014020
:103DE000041501402DE9F843284CA378002B18BF97
:103DF000002841D005293CBF0720BDE8F88343696E
:103E0000002B39D0437C012B0CBF0F460027814685
:103E10004FF000080D4616468DF80080684600F009
:103E200039F86078411C01F0FF0CA178614508BFAA
:103E30004FF0000C2178614521D000EB400004EBED
:103E4000C000031D1BD0012018701148C3F8049056
:103E50000068C3E90205C3E9047684F801C09DF84F
:103E6000000000F045F84FF0E0214FF48010C1F859
:103E700000024046BDE8F8830820BDE8F8834FF013
:103E800004089DF8000000F033F8F2E72C0D002044
:103E90000415014010B4EFF3108172B6124AD2F843
:103EA00008C00123BCF1000F18BF037006D0002921
:103EB0001CBF10BC704762B610BC704793604FF0D7
:103EC000E023D3F88041DFF824C004EA0C04146036
:103ED000C3F880C1D3F884C1C2F804C05A17C3F82C
:103EE000842100220270E2E7380E0020FC06FFBDAC
:103EF0000C498A68002A08BF7047002818BF70471D
:103F0000EFF3108072B60B684FF0E022C2F8003178
:103F10004B68C2F8043100228A60002818BF70473D
:103F200062B67047380E00202DE9F04FDFF8089494
:103F300001202DED0A8B83B0C9F814004FF0000A60
:103F40009FEDFE0A09F1680101F10C0081ED000A04
:103F500080ED000A81ED010A80ED010A81ED020A7F
:103F600080ED020A9FEDF6BB9FEDF78B9FEDF89B6E
:103F70009FEDF9ABFA48FFF775FEC9F82800002855
:103F800018BFFFF73BFEDFF8D8B3BBF90400FEF71C
:103F900009FB53EC1B2BFEF724FA0BF13C0841EC18
:103FA0001C0B98ED000A10EE100AFEF70CFB53EC08
:103FB0001C2BFEF76FF9FEF719FB00EE100A88EDD7
:103FC000000ABBF90200FEF7EDFA53EC1B2BFEF7DB
:103FD00008FA98ED010A41EC1C0B10EE100AFEF7EE
:103FE000F2FA53EC1C2BFEF755F9FEF7FFFA00EE40
:103FF000100A88ED010ABBF90000FEF7D3FA53EC72
:104000001B2BFEF7EEF998ED020A41EC1C0B10EEAB
:10401000100AFEF7D8FA53EC1C2BFEF73BF9FEF71B
:10402000E5FA00EE100AA8F1300088ED020AFFF769
:104030003FFEC9F82800002818BFFFF7DFFDDFF8B2
:1040400024B3BBF90400FEF7ADFA53EC182BFEF7CE
:104050003AFA53EC192BFEF7C4F953EC1A2BFEF77E
:1040600032FA0BF13C0841EC1C0B98ED000A10EE03
:10407000100AFEF7A8FA53EC1C2BFEF70BF9FEF71B
:10408000B5FA00EE100A88ED000ABBF90200FEF74F
:1040900089FA53EC182BFEF716FA53EC192BFEF79E
:1040A000A0F953EC1A2BFEF70EFA98ED010A41EC39
:1040B0001C0B10EE100AFEF786FA53EC1C2BFEF7D1
:1040C000E9F8FEF793FA00EE100A88ED010ABBF951
:1040D0000000FEF767FA53EC182BFEF7F4F953ECE7
:1040E000192BFEF77EF953EC1A2BFEF7ECF998ED3D
:1040F000020A41EC1C0B10EE100AFEF764FA53ECB6
:104100001C2BFEF7C7F8FEF771FA00EE100A4FF00D
:10411000A04088ED020AD0F804154FF400628A43EB
:10412000C0F8082501F40061C0F80C158E49DFF8CD
:104130003CB246F2A8100A680AF1010A00BF00BFAB
:1041400000BF00BF00BF00BF00BF00BF5A452FD057
:1041500000BF00BF00BF00BF00BF00BF00BF00BF67
:1041600000BF00BF00BF00BF00BF00BF00BF00BF57
:1041700000BF00BF00BF00BF00BF00BF00BF00BF47
:1041800000BF00BF00BF00BF00BF00BF00BF00BF37
:1041900000BF00BF00BF00BF00BF00BF00BF00BF27
:1041A00000BF00BF00BF00BF00BF00BF00BF00BF17
:1041B0000138C3D140F2AA508245FFF6DBAEC306F8
:1041C0004FF40062C3F80C25694AD2ED000A9FED56
:1041D000690A4FF0000880EE801A82ED001AD2EDD5
:1041E000010A80EE801A82ED011AD2ED020A80EEF9
:1041F000801A82ED021A0C32D2ED000A80EE801A8B
:1042000082ED001AD2ED010A80EE801A82ED011AC9
:10421000D2ED020A80EE801A82ED021A4FF400629B
:10422000C3F80825DFF850A100215348FFF766FDC9
:10423000C9F82800002818BFFFF7E0FCB8F1000F0C
:104240001AD0BAF90000B042D6BF0199064688429A
:10425000B8BF0190BAF90200A842D6BF009905463E
:104260008842B8BF0090BAF90400A042CCBF04460F
:10427000B842B8BF074608E0BAF900600196BAF93B
:1042800002500095BAF904402746374946F2A81073
:1042900008F10108096800BF00BF00BF00BF00BFF0
:1042A00000BF00BF00BF59452FD000BF00BF00BFF7
:1042B00000BF00BF00BF00BF00BF00BF00BF00BF06
:1042C00000BF00BF00BF00BF00BF00BF00BF00BFF6
:1042D00000BF00BF00BF00BF00BF00BF00BF00BFE6
:1042E00000BF00BF00BF00BF00BF00BF00BF00BFD6
:1042F00000BF00BF00BF00BF00BF00BF00BF00BFC6
:1043000000BF00BF00BF00BF00BF0138C3D140F2F3
:10431000AA50804588DB0198DFF86080304400EBCC
:10432000D070401000EE100AB8EEC00A88ED000A06
:1043300098ED000A24E00000800B0020000000003F
:10434000000000000000103FC3F5285C8F62504061
:1043500000000060FB210940000000000080664072
:10436000AC0B0020B80B00202C0C00200024F40023
:10437000E80B00200040B544B20B0020D00B002019
:1043800010EE100AFEF71FF99FED3F8B53EC182B30
:10439000FEF727F8FEF72AF900EE100A88ED000A6A
:1043A0000098284400EBD070401000EE100AB8EEE0
:1043B000C00A88ED010A98ED010A10EE100AFEF716
:1043C00002F953EC182BFEF70CF8FEF70FF900EE8C
:1043D000100AE01900EBD07088ED010A401000EEE1
:1043E000100AB8EEC00A88ED020A98ED020A10EE33
:1043F000100AFEF7E8F853EC182BFDF7F2FFFEF772
:10440000F5F800EE100AF0EE082A88ED020A01988D
:104410004FF0A041301A00EBD070401000EE100AAF
:104420000098281A00EBD070F8EEC00A401000EE99
:10443000100AE01B00EBD070B8EEC01A401000EE7E
:10444000100A08F10C00F8EEC01A30EE810A30EEC6
:10445000212A82EE220A80EE202AC0EE010A80ED97
:10446000002AC0ED010AC0EE210AC0ED020A4FF495
:104470000060C1F80C050020C9F8140003B0BDECC1
:104480000A8BBDE8F08F0000333333333333C33F3F
:104490002DE9F04198B04FF48930012269464FF080
:1044A0000C0C00BF50F8043B41F8043BB3F1FF3F54
:1044B00008BF0022BCF1010CF4D13F4F002A07F1E4
:1044C0000C0404F10C0504F118061CBF0020694619
:1044D00002D131E0022807DC01EB800292ED000AF4
:1044E00007EB800282ED000AC21E022A07D801EB08
:1044F000800292ED000A04EB800202ED030A821FA3
:10450000022A07D801EB800292ED000A05EB800237
:1045100002ED060AA0F10902022A07D801EB800287
:1045200092ED000A06EB800202ED090A401C0B28FE
:10453000D0DD18B0BDE8F0814FF48938404600F076
:10454000D3FC00210CAA01E0022907DC07EB810063
:1045500090ED000A02EB810080ED000AC81E0228DF
:1045600007D804EB810010ED030A02EB810080ED17
:10457000000A881F022807D805EB810010ED060A03
:1045800002EB810080ED000AA1F10900022807D8A2
:1045900006EB810010ED090A02EB810080ED000AB4
:1045A000491C0B29D0DD0C220CA9404600F0B4FCBC
:1045B00018B0BDE8F0810000D00B00204A4986B059
:1045C00003204FF0A044C1F800074FF40060C4F886
:1045D000080500F069FD002818BFFFF70FFB00F089
:1045E0002DFD002818BFFFF709FB404DD5E9040158
:1045F000AA69CDE9000102926846FFF721FA002876
:1046000018BFFFF7FBFA00210846C4DF002818BFD7
:10461000FFF7F4FAFFF7FFFA002818BFFFF7EEFAEA
:10462000FEF739FAFEF74DFAFEF72AFAFEF712FA0C
:10463000FEF71BFA1520FEF761FA1520FEF74CFA7B
:10464000FEF734FA08208DF8040001A8FFF7E5FA18
:10465000002818BFFFF7D2FAD5E90101EA68CDE9D1
:10466000000102922249002000F020FA002818BF21
:10467000FFF7C4FA6946002000F0DEF9002818BFF1
:10468000FFF7BCFA0222082104A8FDF7F1FD002281
:1046900004211046CFDF082104AA0020C7DFFFF75E
:1046A0005DFB144A01211148FFF740FB002818BFA9
:1046B000FFF7A4FA4FF40060C4F80C05FFF7E8FE1A
:1046C00000F050FC002818BFFFF798FA002240F2D3
:1046D00033312868FFF786FB002818BFFFF78EFAF2
:1046E00000F054FCFCE700002C000050D059010001
:1046F000E556010049520100002808BF70472049D3
:10470000204A096800BF00BF00BF00BF00BF00BF54
:1047100000BF00BF91422FD000BF00BF00BF00BF4D
:1047200000BF00BF00BF00BF00BF00BF00BF00BF91
:1047300000BF00BF00BF00BF00BF00BF00BF00BF81
:1047400000BF00BF00BF00BF00BF00BF00BF00BF71
:1047500000BF00BF00BF00BF00BF00BF00BF00BF61
:1047600000BF00BF00BF00BF00BF00BF00BF00BF51
:1047700000BF00BF00BF00BF0138C3D170470000B9
:104780002C0C00200024F400002808BF70472049AA
:10479000204A096800BF00BF00BF00BF00BF00BFC4
:1047A00000BF00BF91422FD000BF00BF00BF00BFBD
:1047B00000BF00BF00BF00BF00BF00BF00BF00BF01
:1047C00000BF00BF00BF00BF00BF00BF00BF00BFF1
:1047D00000BF00BF00BF00BF00BF00BF00BF00BFE1
:1047E00000BF00BF00BF00BF00BF00BF00BF00BFD1
:1047F00000BF00BF00BF00BF00BF00BF00BF00BFC1
:1048000000BF00BF00BF00BF0138C3D17047000028
:104810002C0C00200024F4004907090E0028BDBF1D
:1048200000F00F0202F1E02282F8141D00F1E022F4
:10483000A8BF82F8001400F01F0201219140400936
:10484000800000F1E020C0F88012C0F8001170472D
:1048500000B50A4A85B00FCA8DE80F000023084A48
:104860006946084800F01EFA00281CBF05B000BDCC
:10487000044800F007FA05B0002000BDF45901001B
:1048800079490100EC5901002DE9F74181B0174643
:10489000884600264FF6FF75012301AA0C21164811
:1048A000009600F0B5FA00280EBF144C04B0BDE825
:1048B000F0812078B8B1DDB12670FBB242460C2100
:1048C0000D4800F08FFA00280EBF4FF6FF7104B0BC
:1048D000BDE8F08162784AB1002918BF667007D040
:1048E00004B0BDE8F0816D1EE3D101E0491EF1D1B5
:1048F00004B00D20BDE8F081EC590100000C00204F
:104900002DE9F74181B01746884600264FF6FF751E
:10491000012301AA68211648009600F079FA0028C0
:104920000EBF144C04B0BDE8F0812078B8B1DDB101
:104930002670FBB2424668210D4800F053FA002869
:104940000EBF4FF6FF7104B0BDE8F08162784AB146
:10495000002918BF667007D004B0BDE8F0816D1E55
:10496000E3D101E0491EF1D104B00D20BDE8F08192
:10497000EC590100000C00200178002918BF704795
:104980000279012005493AB1012A12BF022A487072
:104990007047032A18BF704708707047000C00204A
:1049A00030B583B000258DF804008DF805104FF662
:1049B000FF74022301AA0C210A48009500F028FA8E
:1049C00000280EBF084903B030BD0A782AB1002C78
:1049D00018BF0D7003D003B030BD641EF5D103B015
:1049E0000D2030BDEC590100000C002030B583B023
:1049F00000258DF804008DF805104FF6FF74022392
:104A000001AA68210A48009500F002FA00280EBFAA
:104A1000084903B030BD0A782AB1002C18BF0D70C8
:104A200003D003B030BD641EF5D103B00D2030BDFE
:104A3000EC590100000C002070B50C4619490546E0
:104A4000087C00281CBF112070BD2079164E00285C
:104A500012BF01280020306001EB4500027F2AB917
:104A600091F82D2002F1010281F82D20E1790177E2
:104A7000217A41772146284600F0AAFA2A0102F15C
:104A8000804202F5E042E079217AC2F81415C2F8BA
:104A900010052079002812BF0128012030604FF056
:104AA000000070BDFC0C002000750040F8B5204CE3
:104AB00094F82C20002A1CBF0820F8BD002904BF50
:104AC0000720F8BD002808BF1A4821601A4A01785B
:104AD0001160121D41781160C17884F82E100126F2
:104AE00084F82C600021217484F82D10134D61612D
:104AF00084F82F106FF00042C5F80823104A1160A7
:104B0000126800920F4A11601168009181780720A5
:104B1000FFF782FE0220C5F8040394F82E00002857
:104B20001CBF0120C5F80403074806600020F8BD3B
:104B3000FC0C0020145A0100F07500400070004089
:104B4000047100400071004000750040F8B4414D10
:104B50000346287C00281EBF1120F8BC70470124A2
:104B60002C7403203C4AC2F808033C480160001D35
:104B7000046095F82DC00020BCF1010F26D9C2F8C1
:104B80001405C2F810053649C1F81405C1F810051E
:104B90003449C1F81405C1F810053349C1F81405AA
:104BA000C1F810053149C1F81405C1F810053049A4
:104BB000C1F81405C1F810052E49C1F81405C1F853
:104BC00010052D49C1F81405C1F8100505EB430186
:104BD0000E7F4F7F190101F1804101F5E041C1F8DD
:104BE0001475C1F810651460546042F2107100BF72
:104BF000D2F804311BB9002918BF491EF8D11F494A
:104C00000860096800911E49086009680091BCF1BC
:104C1000010F88BF002112D94FEA016C05EB410456
:104C20004FEA1C5C0CF1804C237F0CF5E04C647F58
:104C3000CCF81445CCF81035491C0829ECD395F86C
:104C40002E10002914BF03210221C2F80413287476
:104C5000F8BC7047FC0C0020007000402C7600402F
:104C600010700040207000403070004040700040E4
:104C70005070004060700040707000400071004053
:104C8000047100400179064A01EB8101006802EBE2
:104C9000C1010522C0F80025022081F822007047DA
:104CA000D40C00202DE9F04782460C4600794C498F
:104CB00000EB800001EBC00898F8220000281CBF20
:104CC0000820BDE8F0870020C8E90023C8F80800E4
:104CD00088F8250088F82400A07B88F82700607BEE
:104CE000012740F20C69002853D02068800000F1B1
:104CF000A040C0F800976068800000F1A040C0F8B4
:104D0000009720784FF0A04507FA00F0C5F8080595
:104D1000207907FA00F0C5F80805216840F20D6017
:104D2000890001F1A041C1F800076168890001F123
:104D3000A041C1F800070420FFF7DEFC002620791F
:104D4000D5F8101521FA00F010F0010F01D006B3CC
:104D500012E0207807FA00F0C5F80C050420FFF7F0
:104D6000CBFC207807FA00F0C5F808050420FFF70F
:104D7000C3FC761C092EE2DB207907FA00F0C5F8A7
:104D80000C050420FFF7B8FC207907FA00F0C5F8FD
:104D900008052068800000F1A040C0F80097606816
:104DA000800000F1A040C0F80097D4E90012DAF8C2
:104DB0000000C0F80815C0F80C25A168C0F824153B
:104DC000D8F8000030B1DAF80000217B000B40B2C7
:104DD000FFF722FD88F822700020BDE8F087000070
:104DE000D40C002010B5094C84B0D4F800C0A468DD
:104DF000CDF800C08DF80110019202948DF80230B8
:104E00000022694600F01AF804B010BD085A0100EB
:104E100010B584B00024DDF818C000948DF801109E
:104E200002948DF802300192BCF1000F14BF2022D1
:104E30000022694600F002F804B010BD38B50379CD
:104E4000DFF8A0C003EB83030CEBC30412F0030FE5
:104E500014D100684FF0FF33C0F8083394F82430C1
:104E600023B1A168C0F80413112038BD012323EA3F
:104E7000920384F8243012F0080F01D0062038BDC8
:104E8000A261D1E90035D1F808C0C4F814C0C4E962
:104E900003358B7884F820304B68E3614B78C0F899
:104EA00088350B780025012B0ED002F020021A4322
:104EB00018BF012284F8212000928B784A680146AD
:104EC000204600F008FD07E084F821508B784A68FE
:104ED0000146204600F007FC2168002908BF84F83D
:104EE000245038BDD40C0020094A02211160BFF3C0
:104EF0006F8FBFF34F8F111D0860064801680029AE
:104F0000FCD000201060BFF36F8FBFF34F8F70474E
:104F100004E5014000E4014030B4104D01232B6052
:104F2000BFF36F8FBFF34F8F0023002A88BFDFF8D6
:104F300030C00AD951F8234040F82340DCF8004043
:104F4000002CFBD05B1C9342F4D300202860BFF3FD
:104F50006F8FBFF34F8F30BC7047000004E50140F6
:104F600000E40140064910B500204870091D0860A2
:104F7000BFF35F8F0349044800F038F9002010BDEB
:104F8000200C0020305A0100440E002008B50020FB
:104F90008DF800006846FEF77DFFF1EE100A20F064
:104FA0009F00E1EE100ABFF35F8F08494020C1F86F
:104FB00080029DF80000FEF79BFF00F011F908B198
:104FC00041DF08BD20BF40BF20BF08BD04E000E0B6
:104FD0000A784B784FF0300C02F003020CEA03130E
:104FE0001A438B784FF4E06C0CEA03231A43CB7816
:104FF0004FF4805C0CEA03331A430B794FF4E02C36
:105000000CEA03431A434B794FF4801C0CEA035318
:105010001A438B794FF0807C0CEA03631A4300013A
:1050200000F1804000F5E040C0F81825CA79097AFF
:10503000C0F81415C0F8102570470000054A84B068
:10504000D2E903015269CDE9000102926846FADF14
:1050500004B07047A45A010010B590B06C4604F13A
:105060002D016A46481EC1DF40B1052804BF10B0BB
:1050700010BD10B0BDE81040FEF7C0BD09490CA836
:1050800000F0B4F80E980028E9D000BFD0E9002164
:10509000684690470CA800F0BAF80E980028F5D1A1
:1050A000DDE70000A45A0100F0B53C4D85B028783A
:1050B00000281EBF082005B0F0BD0124AC700026FA
:1050C000374901A800F092F8039868B10268416876
:1050D00030469047002804BF05B0F0BD01A800F09D
:1050E00096F803980028F1D1002637462D4901A8EB
:1050F00000F07CF8039848B1026841683846904750
:1051000001A800F084F803980028F5D1264827A2CA
:10511000304900680090684610DF00281CBF05B0C9
:10512000F0BD2C702C48AE706E70E0224FF4800100
:1051300080F80024431E83F8002490F800044009FE
:10514000082812D204FA00F010F0EC0F0DD023481A
:105150008268002A04BF4FF0E020C0F8001108D098
:10516000016841F48001016003E042F20200FEF7B1
:1051700045FD01240B4901A800F038F8039848B117
:10518000026841682046904701A800F040F8039863
:105190000028F5D105B00020F0BD0000280C00204B
:1051A000505A01005C5A01004C5A01003338333127
:1051B0002D353231642D376466392D323464382D03
:1051C000656666332D343637622D323235662D6191
:1051D00030306500C93B010016E000E0380E0020C9
:1051E0000148007870470000280C002001600A6820
:1051F00042604B689A4208BF002106D0D2E9003CC9
:10520000634508BF0832F3D0116881607047816838
:10521000002908BF7047026893680B4483604168A7
:10522000D1F804C0634518BF704708314160536826
:10523000994208BF002104D0D1E9003C6345F4D075
:1052400019468160704700002DE9F04FFE4C2DEDAE
:10525000088B83B0606900281EBF03B0BDEC088BCB
:10526000BDE8F08FF948FEF7FDFCA062002818BFEA
:10527000FEF7C4FCDFF8D89399ED000A10EE100A8F
:10528000FDF7A1F9A9F13C0741EC180BB7F904505F
:105290002846FDF787F99FEDF09B53EC192BFDF79E
:1052A000A0F853EC182BFCF7F5FFFDF79FF9EC4E37
:1052B000B06099ED010A10EE100AFDF784F941EC97
:1052C000180BB7F902008046FDF76CF953EC192B67
:1052D000FDF787F853EC182BFCF7DCFFFDF786F998
:1052E000706099ED020A10EE100AFDF76CF941ECBE
:1052F000180BB7F900000746FDF754F953EC192BCA
:10530000FDF76FF853EC182BFCF7C4FFFDF76EF9AF
:1053100030604FF0A046002D08BFB8F1000F05D156
:10532000002F04BF4FF40060C6F80805CD48FEF713
:10533000BFFCA062002818BFFEF760FCDFF828A3BE
:105340009AED000A10EE100AFDF73DF9AAF13C09AA
:1053500041EC180BB9F904008046FDF723F99FEDE5
:10536000C49B53EC192BFDF7AEF89FEDC3AB53EC88
:105370001A2BFDF736F89FEDC2BB53EC1B2BFDF744
:10538000A2F853EC182BFCF785FFFDF72FF9BE4D63
:10539000A8609AED010A10EE100AFDF714F941EC2D
:1053A000180BB9F902000746FDF7FCF853EC192B6E
:1053B000FDF789F853EC1A2BFDF713F853EC1B2B70
:1053C000FDF781F853EC182BFCF764FFFDF70EF99D
:1053D00068609AED020A10EE100AFDF7F4F841EC4D
:1053E000180BB9F900008146FDF7DCF853EC192BD6
:1053F000FDF769F853EC1A2BFCF7F3FF53EC1B2B6A
:10540000FDF761F853EC182BFCF744FFFDF7EEF8BD
:105410002860B8F1000F08BF002F06D1B9F1000FC6
:1054200004BF4FF40060C6F8080500219748FEF756
:1054300065FCA062002818BFFEF7E0FBDFF8509281
:1054400099ED000A10EE100AFDF7BDF8A9F10C0A5B
:1054500041EC1A0B9AED000A10EE100AFDF7B3F8B2
:10546000A9F12A0841EC190BB8F900703846FDF78C
:1054700099F89FED898B53EC182BFCF7B2FF53EC96
:10548000192BFCF707FF53EC1A2BFCF7AAFFFDF7CB
:10549000ADF800EE100A84ED070A99ED010A10EE4E
:1054A000100AFDF790F89AED010A41EC190B10EE85
:1054B000100AFDF788F841EC1A0BB8F90200834690
:1054C000FDF770F853EC182BFCF78BFF53EC1A2BFD
:1054D000FCF7E0FE53EC192BFCF783FFFDF786F891
:1054E00000EE100A84ED080A99ED020A10EE100A87
:1054F000FDF769F89AED020A41EC1A0B10EE100A5A
:10550000FDF761F841EC190BB8F904008046FDF78E
:1055100049F853EC182BFCF764FF53EC192BFCF7FC
:10552000B9FE53EC1A2BFCF75CFFFDF75FF800EEB9
:10553000100A002F84ED090A08BFBBF1000F06D145
:10554000B8F1000F04BF4FF40060C6F808053E49EB
:105550000020FFF7FBFAA062002818BFFEF74EFB01
:10556000D5ED002A3E4895ED012AD5ED021A90EDC1
:10557000001AD0ED010A90ED020ADFED494A94EDE0
:10558000094AD4ED083A94ED073AFDF7C5FA4549C2
:10559000D1ED000A9FED440A444860EE800AC0ED58
:1055A000000AD1ED010A60EE800AC0ED010AD1EDDA
:1055B000020A60EE800AC0ED020AD1ED030A20EE75
:1055C000800A80ED030AA168002319B9A1690029A6
:1055D00018BFA361E168491CE160E1680329CCBF01
:1055E0000021E168E160A168012904BFE1680029A8
:1055F00073D12778656890ED000A4FF00208BDEE80
:10560000C00A10EE102A90ED010ABDEEC00A10EE9D
:10561000101A90ED020ABDEEC00A10EE10CA90ED0D
:10562000030A00938DF80080BDEEC00A01938DF847
:1056300001708DF802308DF8042010EE100A8DF8FC
:1056400003508DF8051033E0800B0020AC0B0020D8
:10565000E80B002000000000000000000000303FC8
:10566000640C0020B80B0020F40B002000000000A8
:10567000C3F5285C8F62504000000060FB210940A8
:105680000000000000806640700C0020B20B00207B
:10569000DC0B002000000000333333333333C33FCF
:1056A000CDCCCC3CC00B00200000FE42540C0020AE
:1056B0008DF806C08DF807006A464FF008014FF0DC
:1056C0000000C7DF002818BFFEF798FA6068401C8A
:1056D00060604FF40060C6F80C0503B0BDEC088BA9
:1056E000BDE8F08F70472DE9F04383B005464FF0D9
:1056F000000842F2107002901E4691460C46474642
:10570000C1F80481D1F804010090C1F82481D1F8D6
:1057100024010090C1F81C81D1F81C010090C1F84F
:105720000881D1F80801009085F8268085F823804B
:10573000012E0CBF02200120C4F8000201202062CB
:105740002060286858B140F28620A860A868C4F894
:10575000040332E00298401E029000280ADD05F1A1
:1057600026024B46D11E2046CDE9006700F029F8FD
:105770000028EFD195F82300A8B1D4F8C404C4F8E8
:10578000C40480B14FF0030810F0010F18BF4FF4AC
:10579000024810F0020F18BF48F2012810F0040F61
:1057A00018BF48F202280298002806DCC4F80075E9
:1057B0000520C4F800054FF0030803B04046BDE8DB
:1057C000F0832DE9F80191F800C0DDE90657BCF13E
:1057D000000F04D11478AC4218BF002600D1012676
:1057E0000024BCF1000F0FD0C0F82441D0F82411E0
:1057F0000091C0F81C41D0F81C110091C0F808417C
:10580000D0F80811009152E0D0F824814FF0010C3B
:10581000B8F1000F2CD1D0F81C81B8F1000F1CD0CA
:10582000C0F81C41D0F81C81CDF80080D0F824814C
:10583000B8F1000F1CD11178A94206D2595CC0F80A
:105840001C151178491C117031E0002F14BFC0F8ED
:105850001CC0C0F814C039D129E0D0F8087137B3A2
:10586000C0F80841D0F808710097D0F824714FB102
:10587000C0F82441D0F824210092C0F814C081F867
:1058800000C014E01178A94211D2D0F818755F5405
:105890001178491CC9B211706A1E914204BF0221DD
:1058A000C0F8001201D0A94201D0C0F820C0002EDB
:1058B00019BFD0F8041100290120BDE8F80108BF84
:1058C0007047C0F80441D0F804010090BDE8F80129
:1058D0004FF0000070472DE9F04784B005460027DF
:1058E00042F21070DDF830900290984692460C46D5
:1058F0003E46C1F80471D1F804010090C1F824714A
:10590000D1F824010090C1F81C71D1F81C0100905D
:10591000C1F80871D4F808010090C4F8007285F845
:10592000267085F8237001212162A16095F8262058
:1059300005F1260042450FD21AF80210C4F81C15D2
:105940000178491C0170286888B140F28620A8605F
:10595000A868C4F8040336E0B9F1000F14BFE16190
:105960006161F0E70298401E029000280ADD05F10F
:1059700026025346D11E2046CDE90089FFF721FFBC
:105980000028EFD195F82300A0B1D4F8C404C4F8DE
:10599000C40478B1032710F0010F18BF4FF4024779
:1059A00010F0020F18BF48F2012710F0040F18BFC3
:1059B00048F202270298002805DCC4F8006505209B
:1059C000C4F80005032704B03846BDE8F08700009E
:1059D000340C002000000000020000010000000064
:1059E0000020004202020200440400000030004097
:1059F000000000000C0000000D00000000009801F5
:105A00000201000000000050010000000000000042
:105A1000000000000000070100000000000000007E
:105A20000000000000000000000000000000000076
:105A3000185A0100305A0100040000000000000064
:105A4000000000000000000000000000010000064F
:105A50003C5A01004C5A010008000000745A010031
:105A6000845A010008000000845A0100945A010081
:105A7000080000000000000000000000000000001E
:105A800000000000E45A0100EC5A01000000000090
:105A9000000000000000000000000000DC5A0100CF
:105AA000E45A0100945A0100A45A010008000000C1
:105AB00001002000500E002080000000EC5A010080
:105AC000800B0020B4000000143A0100A05B01002C
:105AD000340C00209C220000243A01008D3A010081
:105AE000000000005950010000000000000000000C
:105AF00000000000000000000000000000000000A6
:105B00000000000001000000000000000000000094
:105B10000000000000000000000000000000000085
:105B20000000000000000000000000000000803FB6
:105B30000000000000000000000000009A99794178
:105B4000666642C133333BC15D50833F9A997D3FC6
:105B50005C067C3F676C293B475822BC8075A3BC20
:105B6000C38A903C83568BBC44F8A03B00000000E5
:105B70000000000000000000000000000000000025
:105B80000000000000000000000000000000000015
:105B900000000000000000000090D00300000000A2
:0400000500012201D3
:00000001FF
