:020000040001F9
:10200000B0350020852301008D2301001922010035
:10201000912301009323010095230100000000009B
:1020200000000000000000000000000097230100F5
:1020300099230100000000009B2301009D23010063
:102040009F2301009F230100413A01005D370100F9
:102050009F2301009F230100A52A01009135010063
:102060009F230100293A01009F2301009F230100C3
:102070009F2301009F2301009F2301009F23010054
:102080009F2301005D3501009F2301009F23010074
:1020900071370100793701008D3701009F2301005E
:1020A0009F2301009F2301009F2301009F23010024
:1020B0009F2301009F23010000000000000000009A
:1020C0009F2301009F2301009F2301009F23010004
:1020D0009F2301009F2301009F23010000000000B7
:1020E00000000000000000000000000000000000F0
:1020F00000000000000000000000000000000000E0
:1021000000000000000000000000000000000000CF
:1021100000000000000000000000000000000000BF
:1021200000000000000000000000000000000000AF
:10213000000000000000000000000000000000009F
:10214000000000000000000000000000000000008F
:10215000000000000000000000000000000000007F
:10216000000000000000000000000000000000006F
:10217000000000000000000000000000000000005F
:10218000000000000000000000000000000000004F
:10219000000000000000000000000000000000003F
:1021A000000000000000000000000000000000002F
:1021B000000000000000000000000000000000001F
:1021C000000000000000000000000000000000000F
:1021D00000000000000000000000000000000000FF
:1021E00000000000000000000000000000000000EF
:1021F00000000000000000000000000000000000DF
:10220000DFF810D000F010FC0048004761550100D5
:10221000AFF30080B0350020094B1EF0040F1CBF47
:10222000EFF309801847EFF308800649064A884211
:1022300001D8904202D88D464FF0000018470000A8
:10224000DD2C0100B0350020B015002030B404466C
:1022500054E8000F0D4644E80053002BF8D11560F8
:1022600030BC704730B4044654E8000F40EA010522
:1022700044E80053002BF7D1156030BC704730B4F0
:10228000044654E8000F00EA010544E80053002B1F
:10229000F7D1156030BC704730B4044654E8000FE5
:1022A00080EA010544E80053002BF7D1156030BCEB
:1022B000704730B4044654E8000F00EB010544E8D1
:1022C0000053002BF7D1156030BC704730B4044682
:1022D00054E8000FA0EB010544E80053002BF7D1B0
:1022E000156030BC7047000030B4044654E8000F5D
:1022F0000D4644E80053002BF8D1156030BC704700
:1023000030B4044654E8000F40EA010544E80053A5
:10231000002BF7D1156030BC704730B4044654E848
:10232000000F00EA010544E80053002BF7D11560C7
:1023300030BC704730B4044654E8000F80EA010511
:1023400044E80053002BF7D1156030BC704730B41F
:10235000044654E8000F00EB010544E80053002B4D
:10236000F7D1156030BC704730B4044654E8000F14
:10237000A0EB010544E80053002BF7D1156030BCF9
:10238000704700000648804706480047FEE7FEE722
:10239000FEE7FEE7FEE7FEE7FEE7FEE7FEE7FEE715
:1023A000A5370100012201002DE9F05F054600205C
:1023B00092469B4688460646814640241BE02846B6
:1023C00041464746224600F027FA53465A46C01A6D
:1023D000914110D311461846224600F00EFA2D1AEC
:1023E00067EB01084F4622460120002100F005FA64
:1023F00017EB00094E41201EA4F10104DFDC484622
:1024000031462A464346BDE8F09F00000048704729
:102410002C92010040EA01039B0703D009E008C9A0
:10242000121F08C0042AFAD203E011F8013B00F899
:10243000013B521EF9D27047D2B201E000F8012BE5
:10244000491EFBD270470022F6E710B513460A4634
:1024500004461946FFF7F0FF204610BD421C10F855
:10246000011B0029FBD1801A70472DE9FE4F8046E1
:1024700081EA0300C00F0C46009021F0004123F0D8
:102480000045B8EB0200A94105D2404621469046DE
:102490001C460B46024623F00040104347D0270D50
:1024A000C7F30A00C3F30A510290401A0190402872
:1024B0006BDAC3F3130040F4801B0098924620B1FE
:1024C0000023D2EB030A63EB0B0B01985946C0F1D2
:1024D0004002504600F091F906460D4650465946D6
:1024E000019A00F0A9F910EB08006141002487EA85
:1024F000115284EAE7731A4340D0009A62B3019AFA
:10250000012A4FEA075215DC001B61EB02014FF074
:10251000004202EA0752CDE90042001C41F5801159
:1025200032462B4600F0E0F903B0BDE8F08F40469C
:102530002146F9E7001B61EB0201001C41F5801305
:1025400000185B412018A2F5001747EB030140EA91
:10255000D570B6196D4111E06D084FEA360645EAAF
:10256000C0754FEA0752001B61EB0201001C41F5E8
:10257000801149084FEA30000019514132462B467C
:1025800003B0BDE8F04F00F0A0B900980122400070
:102590000023D0EB020263EBE073009821464FEA80
:1025A000E074B8EB000061EB0401E9E783F000435D
:1025B0005BE781F0004158E72DE9FE4F81EA030413
:1025C00004F0004421F0004100944FF0000B23F090
:1025D000004350EA01045ED052EA03045BD0C3F327
:1025E0000A54C1F30A552C44A4F2F3340194A0FB1D
:1025F0000254C1F3130141F48011C3F3130343F4F4
:10260000801301FB024400FB034E840A970A44EA4C
:10261000815447EA8357A4FB076802958D0A05FB9E
:1026200007854FEA932C04FB0C542705029D4FEAC3
:10263000065847EA1637B5EB08056EEB070C870E10
:10264000920E47EA811742EA8312A7FB0201B6EB1A
:102650000B0164EB00042B0D43EA0C335E1844EBD2
:102660001C50DA465146E7FB0201C5F313044FEA5A
:102670000B3343EA14534FEA0432019C43EA060346
:10268000A4F10C040294009CCDE900B400F02CF9F4
:1026900003B0BDE8F08F00200146F9E72DE9F04DC9
:1026A00081EA030404F0004B21F0004514464FF08A
:1026B000000A23F0004150EA050220D054EA01024A
:1026C0001DD0C5F30A570246C5F31303C1F3130027
:1026D000C1F30A5640F4801543F48013A7EB0608B3
:1026E000101BD64608F2FD3873EB050002D308F143
:1026F000010801E092185B41B8F1000F03DA0020F5
:102700000146BDE8F08D00204FF480110646844656
:102710000EE0171B73EB050705D3121B63EB0503D4
:1027200006434CEA010C49084FEA300092185B411D
:1027300050EA0107EDD152EA030012D082EA040008
:1027400083EA0501084305D0101BAB4106D20122E4
:10275000002306E000224FF0004302E06FF0010288
:1027600053101AEB06004CEB085110EB0A0041EB3A
:102770000B01BDE8F04D00F0A8B80EB5C10F80EA1E
:10278000E0700844CA07002140F233438DE80E0090
:102790000A460B4600F0A8F803B000BD00F0004266
:1027A00030F000400AD0C10D01F56071C0F3160091
:1027B00042EA0151C2084007114370470020014618
:1027C000704701F0004330B421F0004150EA0102AB
:1027D00006D00A0DA2F56072C1F31301002A02DCD3
:1027E00030BC00207047440F44EAC104C100E01827
:1027F00030BC00EBC25000F031B8202A04DB203A94
:1028000000FA02F1002070479140C2F1200320FA43
:1028100003F3194390407047202A04DB203A21FA41
:1028200002F00021704721FA02F3D040C2F12002E9
:102830009140084319467047202A06DBCB17203AFF
:1028400041FA02F043EAE07306E041FA02F3D040B5
:10285000C2F1200291400843194670470029A8BFE1
:102860007047401C490008BF20F00100704710B4B9
:10287000B0FA80FC00FA0CF050EA010404BF10BC6E
:10288000704749B1CCF1200421FA04F411FA0CF19B
:1028900018BF012121430843A3EB0C01CB1D4FEAD4
:1028A00000614FEA102042BF002010BC704700EBCF
:1028B000C35010440029A4BF10BC7047401C4900FD
:1028C00008BF20F0010010BC704710B5141E73F152
:1028D000000408DA401C41F1000192185B411A43E0
:1028E00001D120F0010010BD2DE9F04D92469B462C
:1028F00011B1B1FA81F202E0B0FA80F220329046D2
:10290000FFF77BFF04460F4640EA0A0041EA0B014D
:1029100053465A46084313D0114653EA010019D0D2
:10292000C8F140025046FFF777FF05460E46504675
:1029300059464246FFF761FF084305D0012004E0F5
:1029400020463946BDE8F08D0020054346EAE07692
:102950002C4337430A986305E40AA0EB08000022E1
:10296000FD0A44EA47540A3002D500200146E9E74F
:10297000010510196941DDE9084500196941BDE803
:10298000F04DA2E72DE9F04D00231A461B1A8A41AB
:1029900003DB00200146BDE8F08DC1F30A52C1F30C
:1029A000130141F480154FF0000BD10702D100183C
:1029B0006D41521E0027044640F2FF11384601EBDC
:1029C000620A3E468046024600204FF48011FFF71F
:1029D00023FFC2197141BB1846EB0100B4EB030C95
:1029E00075EB000C04D3E41A65EB000517460E46A0
:1029F000241908F101006D4180463428E3DDF919FE
:102A000046EB0600091BA84103D24FF0FF321346E4
:102A100001E0002213461BEB070046EB0A51BDE81C
:102A2000F04DFFF752BF0000064C074D06E0E0688E
:102A300040F0010394E8070098471034AC42F6D305
:102A4000FFF7E2FB049301002493010070B58C189A
:102A500010F8015B15F0070301D110F8013B2A11B2
:102A600006D110F8012B03E010F8016B01F8016B9F
:102A70005B1EF9D12B0705D40023521E0DD401F89B
:102A8000013BFAE710F8013BCB1A921C03E013F864
:102A9000015B01F8015B521EF9D5A142D8D3002099
:102AA00070BD00002DE9F04F89B04FF00008002004
:102AB00008904FF4807007900126002413E00798D7
:102AC00003F074FF48B100BF81480068304020B176
:102AD000079803F05DFF48EA060876000798001D96
:102AE00080B20790641C082CE9D34FF4BE7003F049
:102AF0005DFF50B14FF4BE7003F04AFF48F000484C
:102B000008AA0121002003F029FF08F0FF0000B30C
:102B1000012600241BE006EA0800B0B100BF6D48A2
:102B200050F82400C0F30420074600BF694850F85D
:102B30002400C0F301408146204601F0B7FF05465E
:102B400015B149463846A84700BF7600641C082CDA
:102B5000E1D308F0004000287ED0002006900590C8
:102B6000002505E04FF0FF3004A941F825006D1C59
:102B7000002DF7D000BF0020069000246FE05648DB
:102B8000005D0390039820F0C00753480057401C95
:102B9000002863D004A9384602F04CFE00285DD01E
:102BA00003984FEA901A384601F0C8FF814601F0B9
:102BB0007DFF0290029810B9BAF1030F4BD1BAF120
:102BC000030F11D1394605A80246CB0801F00701D1
:102BD00012F803C04FF0010E0EFA01FE4CEA0E0C83
:102BE00002F803C000BF00BF00BF00BF4FF0A0410C
:102BF000084600F5E06151F82710C1F3014900BF14
:102C000008A9384602F016FE8346BBF1000F02D039
:102C1000B9F1020F05D0BBF1000F1BD1B9F1030FC1
:102C200018D1BAF1030F0FD1B9F1020F01D103206E
:102C300000E0022001903846019903F00BFE06984F
:102C4000401CC0B2069000BF029818B151463846E9
:102C5000029A904700BF00E036E000BF641C042CDD
:102C60008DD3069858B3012703AA0121002003F051
:102C700075FE00250AE003A850F8250008A951F8C0
:102C80002510884201D0002702E06D1C002DF2D0F3
:102C900000BF17B10020069010E000250CE003A84B
:102CA00050F8250008A941F8250005A850F825008E
:102CB00004A941F825006D1C002DF0D000BF069836
:102CC00000287FF458AF00BF09B0BDE8F08F0000C6
:102CD00004630040106500403C0E002010B504461F
:102CE00000BF04F08BF900BF00BF03F065FF0028B0
:102CF000FBD100BF00BF204600F002F810BD00006D
:102D000000BF00BF00BF00BF00BFBFF34F8F00BFB9
:102D100000BF00BF0948006800F4E06008490843AC
:102D2000001D0649086000BF00BF00BFBFF34F8F02
:102D300000BF00BF00BF00BF00BFFDE70CED00E01B
:102D40000000FA0510B5022001F0FDF80221142060
:102D500003F002F804460CB1204610BD0020FCE749
:102D600010B5022001F0EFF80221012002F0F4FF7B
:102D700004460CB1204610BD0020FCE710B5002031
:102D800001F0E1F80021072002F0E6FF04460CB153
:102D9000204610BD0020FCE710B5002001F0D3F85C
:102DA0008021062002F0D8FF04460CB1204610BD59
:102DB0000020FCE710B5002001F0C5F80121062035
:102DC00002F0CAFF04460CB1204610BD0020FCE70B
:102DD0002DE9F0410446022001F0B5F8C4F30326C2
:102DE0003146102002F0B8FF054604F00F073946BF
:102DF000112002F0B1FF054615B12846BDE8F0816B
:102E00000020FBE770B50446022001F09CF805465F
:102E10002146002002F0A0FF0DB1284670BD002021
:102E2000FCE7000010B52DED0A0B2DED108B9EB0C8
:102E3000B0EE40EAF0EE60CAF0EE41EAF0EE61FA80
:102E40009FEDFE0A8DED1C0A9FEDFD0A10EE104A63
:102E50002046FFF7A3FC9FEDFB0BCDE9020100F03C
:102E600001FE8DED000B9DED020B53EC102B9DED43
:102E7000000B51EC100BFFF79FFBCDE904019DED1A
:102E8000040B51EC100BFFF79CFC1B90EF4890EDEE
:102E9000000AF0EE40AA90ED010AF0EE409A90EDA3
:102EA000020AB0EE408A90ED030AB0EE40AAB0EEFE
:102EB000000A2AEE800A8DED100AB0EE000A29EE13
:102EC000800A8DED0F0AB0EE000A28EE000A8DEDA3
:102ED0000E0AB0EE000A2AEE000A8DED0D0AB0EEE1
:102EE000000A2AEE800A20EE080A8DED0C0AB0EEE8
:102EF000000A28EE000A20EE0A0A8DED0B0A2AEEDF
:102F0000AA0A8DED0A0A2AEEA90AB0EE40DA2AEEE4
:102F1000880AF0EE40DA2AEE8A0A8DED090A29EED7
:102F2000A90AB0EE40FA29EE880A8DED080A29EECA
:102F30008A0AF0EE40BA28EE080AB0EE40CA28EE3F
:102F40000A0A8DED070A2AEE0A0A8DED060A6EEED0
:102F50000E0A4CEEAC0A4EEEAE0AB0EE600A00F07D
:102F6000BEFDB0EE40BAB5EEC0BAF1EE10FA04D133
:102F70001EB0BDEC108B0AB010BDB7EE000AC0EE5B
:102F80000B0AB0EE60BA2EEE0B0AB0EE40EA2CEE61
:102F90008B0AF0EE40CA2EEE8B0AF0EE40EA9DED71
:102FA0000C0AF0EE000A10EEAB0A70EE4E0A9DED30
:102FB0000E0AB1EE400A60EE800A9DED0B0AB0EEFB
:102FC000001A01EE0D0A70EE6C1A9DED0F1AB0EEAC
:102FD000600A01EE210AF6EE000A30EECC1ADDEDB1
:102FE000060A71EE600A60EEA80A3BEEED1A49EEA1
:102FF000010A9DED341A70EEC10A29EE081A01EE9D
:10300000600AF1EE680A60EE8A0A49EE290A9DED2F
:10301000081ADDED091A31EE611A61EE281A9DEDEC
:10302000071A3DEE011A49EE011A9DED351A31EEEF
:10303000C11A00EE810A7DEEAB0A60EEA80AB6EE78
:10304000001A31EE4F1A31EE4C1A49EE010A9DED8D
:10305000361A70EEC10A28EE881A01EE200A8DEDAC
:103060001A0A9DED0C0AF0EE000A10EEAB0A70EEA3
:103070004E0A9DED0D0A60EE800A9DED0B0AB0EE42
:10308000001A01EE0D0A70EE6C1A9DED101AB0EEEA
:10309000600A01EE210AF7EE000AB0EE001A41EED6
:1030A0004F0AB0EE001A41EE4C0A70EEEE0AB1EE95
:1030B000001A29EE811A01EE600AF6EE000A30EEDF
:1030C000CC1ADDED060A71EE600A60EEA80A3BEE4E
:1030D000ED1A49EE010A9DED341A70EEC10A29EE8F
:1030E0000A1A01EE200A28EE881A09EE2A1ADDEDE6
:1030F000080ADDED091A70EEE10A60EEA81ADDEDAE
:10310000070A3DEE202AF0EE610A49EE020ADDEDE3
:10311000351A70EEE10A01EE200A28EE8A1ADDED7A
:10312000110A00EEE91A7DEEAB0A60EEA80AF6EE8F
:10313000001A71EECF1A71EECC1A49EE210ADDEDBC
:10314000361A70EEE10A01EE200A8DED190A9DEDA6
:103150000C0AF0EE000A10EEAB0A70EE4E0A9DED7E
:10316000100AB1EE400A60EE800A9DED0B0AB0EE47
:10317000001A01EE0D0A70EE6C1A9DED0D1AB0EEFC
:10318000600A01EE210AF7EE000AB0EE001A41EEE5
:103190004F0AB0EE001A41EE4C0A70EEEE0AB1EEA4
:1031A000001A28EE011A01EE600ADDED120AF1EEB6
:1031B000600A20EE881A09EE6A1AF6EE000A70EE2E
:1031C000CC1ADDED060A71EEE00A60EEA80A7BEE8D
:1031D000ED1A49EE210ADDED341A70EEE10A01EE36
:1031E000200A68EEA90A49EE0A0A9DED081ADDEDEB
:1031F000091A31EE611A61EE281A9DED071A3DEEAB
:10320000012AB0EE611A09EE021ADDED351A31EE2F
:10321000611A00EE810A28EEAA1ADDED110A00EE0D
:10322000C81A7DEEAB0A60EEA80AF6EE001A71EE3F
:10323000CF1A71EECC1A49EE210A09E0CDCCCC3D73
:1032400036FA8E3C000000000000E83F980B00209A
:10325000DDED361A70EEE10A01EE200A8DED180A56
:103260009DED0C0AF0EE000A10EEAB0A70EE4E0A6D
:103270009DED0F0A60EE800A9DED0B0AB0EE001A7C
:1032800001EE0D0A70EE6C1A9DED0E1AB0EE600A9A
:1032900001EE210ADDED120AF1EE600A60EE8A0A03
:1032A00049EE290AB6EE001A71EE4C1A9DED061A87
:1032B00031EEC11A21EE281A7BEEED1A09EE211A21
:1032C000DDED341A31EE611A00EE810AF1EE680A82
:1032D00020EEAA1A09EE081ADDED080ADDED091A3A
:1032E00070EEE10A60EEA80ADDED071A7DEE211A04
:1032F00049EE210ADDED351A70EEE10A01EE200AF1
:103300007DEEAB0A60EEA80AB6EE001A31EE4F1A57
:1033100031EE4C1A49EE010A9DED361A70EEC10AE3
:1033200028EEA91A01EE200A8DED170ADDED1A0A22
:1033300020EEA01ADDED190A00EEA01ADDED180A44
:1033400000EEA01ADDED170A00EEA01AB0EE410A59
:1033500000F0C5FBB0EE40BAB7EE000AC0EE0B0AB3
:10336000B0EE60BA9DED1A0A20EE0B0A8DED1A0A36
:103370009DED190A20EE0B0A8DED190A9DED180A34
:1033800020EE0B0A8DED180A9DED170A20EE0B0AB0
:103390008DED170AB1EE690A20EE2F0ADDED320A33
:1033A00008EE600ADDED330A0AEE600AF6EE000A66
:1033B00020EE200A9DED1C1ADDED1A0A01EE600ACE
:1033C0008DED160A2AEEAF0ADDED330A08EE200A6B
:1033D000DDED320A0AEE600AF6EE000A20EE200A5F
:1033E0009DED1C1ADDED190A01EE600A8DED150A3E
:1033F0009DED320A2AEE800ADDED330A09EEE00A7D
:103400000AEE2F0AF6EE000A20EE200ADDED1C0A75
:103410009DED181A00EEC10A8DED140A9DED330AD8
:103420002AEE800ADDED320A09EEA00A08EE6F0AE4
:10343000F6EE000A20EE200A9DED1C1ADDED170ABB
:1034400001EE600A8DED130A9DED160ADDED370AD7
:10345000B0EE6A1A00EE201AF0EE41AA9DED150AB0
:10346000DDED370AB0EE691A00EE201AF0EE419A4F
:103470009DED140ADDED370AB0EE481A00EE201A71
:10348000B0EE418A9DED130ADDED370AB0EE4A1A1F
:1034900000EE201AB0EE41AA6AEEAA0A49EEA90A85
:1034A00048EE080A4AEE0A0AB0EE600A00F017FB7E
:1034B000B0EE40BAB7EE000AC0EE0B0AB0EE60BA4A
:1034C0002AEE8B0A084880ED000A29EE8B0A80ED6F
:1034D000010A28EE0B0A80ED020A2AEE0B0A80EDA3
:1034E000030A00BF44E50000980B002000F01F0213
:1034F00001219140024A430942F82310704700001D
:1035000080E200E000F01F02012191404209920098
:1035100002F1E022C2F800117047000000F01F0223
:1035200001219140024A430942F8231070470000EC
:1035300000E200E010B5002807DA4A07140E054A39
:1035400000F00F031B1FD45403E04A07130E024A76
:10355000135410BD18ED00E000E400E010B50020A9
:103560000949086000210948C0F84411C0F8481111
:10357000C0F84C1100200549C1F8000102493C394E
:10358000086004F0AFFF10BD401101400010014081
:10359000FEB54FF4827003F043FF002837D04FF49C
:1035A000827003F047FF6C4890F82E0018B16A480B
:1035B00090F82F0058B300208DF80000664840684E
:1035C000019065480189ADF80810C06818B900205D
:1035D0006149087412E06048008B5F4948830846DF
:1035E000C06848600846008B08810020C860084613
:1035F00090F82E0010B9002003F034FF56480168FF
:10360000684688470020544981F82F0000BF52487F
:1036100090F82E00002852D04FF4807003F000FF85
:1036200000284CD04FF4807003F004FF4A48408BD0
:10363000494991F82D10884216DD4748408B46498C
:1036400091F82D10401A444948830A4612890B46C6
:103650005B8BD21A0B465B6803EB42000A4692F87A
:103660002D1003F091FE23E03B48408B3A4991F83E
:103670002D1088420FD13848C06860B1012036490A
:1036800081F82F00002048830A4692F82D10D06858
:1036900003F07AFE0CE03048408B2F4991F82D1052
:1036A000884205D101202C4981F82F000020488351
:1036B0004FF4827003F0BEFE042003F0D3FE4FF4FB
:1036C000887003F0ADFE70B14FF4887003F0B2FE65
:1036D00000202149087402208DF800000846016886
:1036E0006846884700BF4FF48A7003F099FE38B1EE
:1036F0004FF48A7003F09EFE0020174908742AE0F8
:103700001548456924E0B5FA85F64FF00040F040D1
:103710008543B00000F58C74204603F081FEB8B1FB
:10372000204603F087FE01208DF80000A4F58C7080
:10373000C0F3C7008DF80400A4F58C70012121EAC4
:1037400090018DF80510044801686846884700BF5D
:10375000002DD8D100BFFEBD980E002010B5024943
:10376000024801F059FD10BD440E00200030004019
:1037700010B504F0C1FD10BD10B50348018801204B
:1037800002F01CFC10BD0000040C002010B503F07A
:10379000F7FE10BD01480249086070470090D00351
:1037A000B40C002010B501F0B9FA28B18E48008899
:1037B000C0F304208D49086001F004FB10B18C486F
:1037C0008C49486701F016FB30B18748E038006843
:1037D000C0F342308849086001F036FB28B18748C1
:1037E000006820F080708549086001F045FB48B111
:1037F0000020834908604FF08041C1F810017E49E4
:10380000091F086001F062FB18B103207A49643196
:10381000086001F073FB68B105207A490860012057
:1038200078497831086000207649083108603F20E7
:10383000091F086001F07AFB002855D06A48E03083
:103840000068714908606848E4300068091D086034
:103850006548E8300068091D08606348EC3000687E
:10386000091D08606048F0300068091D08605E4866
:10387000F4300068091D08605B48F8300068624950
:10388000203108605848FC300068091D08605F4816
:103890000068091D08605D48001D0068091D08607A
:1038A0005A4808300068091D086058480C30006804
:1038B000091D0860554810300068534940310860C0
:1038C000524814300068091D0860504818300068DC
:1038D000091D08604D481C300068091D08604B48F0
:1038E00020300068091D086001F0EEF930B13E4853
:1038F000CC38006800F04F004549086001F038FA04
:1039000040B14448006800F0010018B16FF00100B8
:103910004049086039487438006840F470003749FD
:103920007439086000BF00BF00BFBFF34F8F00BFF6
:1039300000BF00BF00BF00BF00BFBFF36F8F00BF5D
:1039400000BF00BF3448006800F0004028B932488A
:10395000001D006800F00040F0B301202F4908600E
:1039600000BF2F4800680028FBD015202A490860B6
:1039700000BF2B4800680028FBD015212648001DF9
:10398000016000BF264800680028FBD000202349C2
:10399000086000BF224800680028FBD000BF00BFBD
:1039A00000BF00BF00BFBFF34F8F00BF00BF00BF0D
:1039B0001248F038006800F4E0601A490843001D1E
:1039C0000E49F039086000BF00BF00BFBFF34F8F42
:1039D00000BF00BF00BF00E002E000BF00BFFDE786
:1039E000FFF7D8FE10BD0000240300104035014051
:1039F0000DF0ADBA00C007403C050040FCED00E012
:103A00000C0100401056004020C500402404001066
:103A1000E40E0040000400400012001004E50140E4
:103A200000E401400000FA0510B5042202490348F1
:103A300001F0C4FB10BD00006C0E0020009000409F
:103A400010B50648007F20B10449054805F021F96A
:103A500003E00249024805F07BF810BD780E002013
:103A60000020004000B52DED048BB0EE409AF0EE42
:103A7000609A83B051EC190BFEF784FF41EC180BF0
:103A800018EE100A18EE901A8DED008B002818BF62
:103A90000120084320F00040C0F17F6000F1E040C9
:103AA000C00F14D019EE101A19EE900A8DED009B7C
:103AB000002918BF0121084320F00040C0F17F60B9
:103AC00000F1E040C00F04BF012000F063F8B0EE49
:103AD000480A03B0F0EE680ABDEC048B00BD10B5D7
:103AE0002DED028BB1EEC08A18EE100A20F00040D6
:103AF000C0F1FF40C00F0AD010EE100A20F00040C5
:103B0000C0F1FF40C00F04BF012000F043F8B0EE49
:103B1000480ABDEC028B10BD02E008C8121F08C1A4
:103B2000002AFAD170477047002001E001C1121F3E
:103B3000002AFBD1704700000146202908DA012045
:103B400088400A4A104008B1012070470020FCE775
:103B5000402909DAA1F12000012202FA00F008B19F
:103B60000120F2E70020F0E70120EEE7FC06FFBDB0
:103B700000BFEFF31081084672B67047014608296E
:103B800004D20120884000F0EC0008B90020704702
:103B90000120FCE70149086070470000B80C0020D4
:103BA00010B50446022000F0DFFB10BD70B50446DE
:103BB000A378A27A61782078C2DF054600BF0DB1F4
:103BC000284670BD00BF23796279E1882078D3DF71
:103BD000054600BF0DB12846F3E700BFE178207825
:103BE000CDDF054600BF0DB12846EAE700BFA0784B
:103BF00000F0010028B9208918B121892078D1DF8F
:103C000005462846DDE700003EB50F4A07CA8DE8A5
:103C100007006846FFF7CAFF044600BF254625B1E6
:103C200000BF284600F03EF900BF00BF0021084653
:103C3000C4DF044600BF254625B100BF284600F07A
:103C400031F900BF00BF3EBD048F010070B50446CE
:103C50000D4694F82C0020BB94F82D0080281ED12E
:103C600060784E281AD1E07840B9A07A802805D132
:103C700000200C4908600B2002F032FEE07868B9A1
:103C8000A07A80280AD00B2002F0FDFD0020064912
:103C900008600649086001200249086000E000BF92
:103CA00000BF70BDAC0B0020A80B0020B00B0020A3
:103CB0002DE9FC5F04460D4616461F46DDE90CABB8
:103CC00000200090019001208DF80000E0B28DF8F6
:103CD000010000208DF802000BF0FF008DF80300BA
:103CE000E8B28DF80400F0B28DF80500F8B28DF856
:103CF00006000AF0FF008DF807006A460821002040
:103D0000C7DF804600BFC146B9F1000F04D000BF35
:103D1000484600F0C7F800BF00BFBDE8FC9F0000A8
:103D200010B5002407E00749096811F834000121A3
:103D300001F076FE641C044800788442F3D300202E
:103D400010BD0000080C00200C0C00202DE9F843E9
:103D500006460C461746052F02D20720BDE8F88319
:103D600001F05CFF38B901F029FF054600BF0DB135
:103D70002846F3E700BF1648066016480470164848
:103D800007600020154908601549086015E006EB3A
:103D9000C40814480068009098F802008DF80100EB
:103DA00098F80000104A694601F090FE054600BFF1
:103DB0000DB12846D2E700BF00BF201EA4F10101CB
:103DC000CCB2E4D1094A0021094800F087F9C5E7DF
:103DD000080C00200C0C0020100C0020140C0020FB
:103DE000180C0020A0900100B54F0100D94B010034
:103DF0009C90010010B500BF03F000F900BF00BFA8
:103E000002F0DAFE0028FBD100BF00BF1B49098881
:103E1000012242EA01401AA103F02EF800BF1B481C
:103E2000006800F0010000B100BE00BF134909881E
:103E3000022242EA014016A103F01EF800BF00BFB3
:103E400000BF00BF00BFBFF34F8F00BF00BF00BF68
:103E50000E48E438006800F4E06011490843001D92
:103E60000A49E439086000BF00BF00BFBFF34F8FAD
:103E700000BF00BF00BF00BF00BFFDE7280D00204E
:103E8000466174616C206572726F7200F0ED00E043
:103E900053797374656D207265736574000000005A
:103EA0000000FA053EB50446002000900190029003
:103EB00002946A46002144F20100FFF79BFF3EBDD9
:103EC00010B501F0BFFE04460CB1204610BD002025
:103ED000FCE77CB50646002000F035F8062269466E
:103EE0002D2001F0CBFE05460DB128467CBD3446A1
:103EF000002007E0C0F105011DF801102170641CCD
:103F0000411CC8B20628F5DB0020EFE77CB5064669
:103F1000002000F018F806226946332001F0AEFEBA
:103F200005460DB128467CBD3446002007E0C0F1AF
:103F300005011DF801102170641C411CC8B206283F
:103F4000F5DB0020EFE770B50446002634B1012C04
:103F500006D0022C06D0032C08D105E0002605E08F
:103F6000102603E0202601E0302600BF00BF3146C6
:103F70007F2001F0F1FE0546284670BD70B504466D
:103F80000D46B4F5A07F0BD10748007810B9022088
:103F9000064908700648006806490968884700E035
:103FA00000BF00BF70BD00003C0C0020480C00208A
:103FB000440C0020400C00201CB500240B4903C910
:103FC000CDE9000100208DF801008DF802000420E9
:103FD0008DF80000064A6946064802F05FF804467C
:103FE00014B901200449087020461CBDE09001006E
:103FF0007D3F0100D8900100480C00202DE9F84FCA
:1040000004460D4692461F464FF0000800BF15B902
:104010000E20BDE8F88F00BF012C01D1012605E07C
:1040200014B94FF4807601E00720F2E71D480078CC
:1040300008B90820EDE71B48007803280DD100F0EF
:104040003BF8804600BFC146B9F1000F04D000BF65
:104050004846FFF727FF00BF00BF1248007802283C
:1040600002D1114801F0C2FF1048047010480560E9
:1040700010480760012033465246002100900A484C
:1040800001F0EAFF07480078022803D1064802F051
:1040900062F802E0044801F0CDFF032001490870F6
:1040A0000020B6E7480C0020D89001003C0C00200E
:1040B000400C0020440C002010B50648007803286E
:1040C00005D1054802F040F802200249087000209E
:1040D00010BD0000480C0020D890010010B5034628
:1040E0000C4600BF0B48807808B9082010BD00BFFF
:1040F0000AB90720FAE70BB90720F7E71868007C30
:1041000008B10820F2E71968002008744C744A616D
:1041100000BFEBE7E80E002010B503F04BFC0020D9
:104120000F49087048700B20887000200D49086006
:104130000D4908700D4908701420FFF7D7F90721C1
:104140001420FFF7F7F91420FFF7DCF9002003F043
:1041500007FC03F0FFFB06490860002010BD0000CB
:10416000E80E00201C0C00202C0C00202D0C002040
:10417000200C00202DE9F04104460E461746254646
:1041800000BF1048807810B90820BDE8F08100BF5A
:104190000CB90820F9E7052E01D20720F5E7686978
:1041A00008B90820F1E7687C012801D1304600E019
:1041B000002080463B4642463146284604F042F9FC
:1041C000E3E70000E80E002070B50446254600BF76
:1041D0000848807808B9082070BD00BF0CB1686934
:1041E00008B90820F8E7002028740221284604F0C6
:1041F00058F9F1E7E80E002010B50446204603F018
:10420000C7FC10BD70B5044625460E488068B0B1A5
:10421000ADB9FFF7ADFC06460A4800680A490860D8
:10422000084840684FF0E021C1F80401002005492A
:1042300088601EB900BF62B600BF00BF00BF00BFEC
:1042400070BD0000F40F002000E100E070B50546ED
:104250000C462068401C28B1206802F057FB2068FB
:1042600002F0ECFA6068401C18B10021606802F0AE
:10427000D8FA28792D4901EB4010007F50B3286807
:10428000A169C0F8241500BF617D227D286841EA3C
:104290000203C0F86C3500BFD4E90012286803F0AF
:1042A00062FA207D01283FD1A068401C18B100218E
:1042B000A06802F0B6FAE068401C28B1E06802F09D
:1042C00025FBE06802F0BAFAD4E90221286803F07D
:1042D00036FA29E02868A169C0F8241500BF617D7D
:1042E000227D286841EA0203C0F86C3500BFD4E99A
:1042F0000012286803F00AFA207D012814D1A06872
:10430000401C18B10021A06802F08BFAE068401C44
:1043100028B1E06802F0FAFAE06802F08FFAD4E916
:104320000221286803F0DBF970BD0000780E002040
:10433000002112E00B48D0F81024012306E000BF52
:10434000107A884201D1002302E05268002AF6D197
:1043500000BF0BB108467047491C0A29EADB4FF041
:10436000FF30F8E7CC10002010B502460949885C00
:1043700000BF4FF0A0442146D1F804350124844009
:104380009C43C1F80845012484401C40C1F80C45F9
:1043900000BF10BD288F010010B504460249085D1A
:1043A000012102F0BEFA10BD288F010010B50446AD
:1043B0000249085D002102F0B4FA10BD288F010007
:1043C00010B50146094B585C00BF4FF0A04423468E
:1043D00000BFD3F80445C44004F001040CB101202F
:1043E00000E00020024682F0010010BD288F01008D
:1043F0007CB500240CE00948055D002000900346D0
:10440000012211460190284602F0C3F900BF641C46
:10441000042CF0D300F004F87CBD0000288F0100CC
:1044200010B5002403E02046FFF7B6FF641C042CFF
:10443000F9D310BD10B5002403E02046FFF7B6FF06
:10444000641C042CF9D310BD02464FF0FF3000214C
:1044500006E0054B5B5C934201D1084602E0491C33
:104460000429F6D300BF70472C8F01002DE9F041DD
:1044700006460F464FF0000800243046FFF7E4FFE1
:104480000446042C3ED20FB3012F02D0022F38D1A4
:1044900030E004EB4400214911F8008004EB4400B3
:1044A0000844407850B11E4A4FF400411D4800684E
:1044B000FFF760FE05460DB91948067004EB44008D
:1044C000164908448078184908551AE015480068CC
:1044D000FFF77AFE1448005D04EB44010F4A1144D3
:1044E0008978884205D104EB44001146084490F8CD
:1044F000028006E004EB44000849084490F801807B
:1045000000BF00BFB8F1000F06D00848006818B11E
:104510004046064909688847BDE8F081C00D002083
:10452000F40B0020388F0100F50B0020F00B002069
:1045300030B503460020042B23D2012A07D10129DC
:1045400003D103F10E04E4B200E00024224679B165
:10455000012902D0022911D104E003EB43040A4DE2
:104560002A550DE003EB4304074D2C44627007E02D
:1045700003EB4304044D2C44A27001E0072000BF6C
:1045800000E0072030BD0000C00D00202DE9F04103
:1045900005460F4600241F4805601F48076005F0C8
:1045A000020000B3002606E0012211463046FFF764
:1045B000BFFF0446761C042E01D2002CF4D034B97F
:1045C00040F2666204211548FFF7C0FB044614B9A7
:1045D000FFF7A6FB04462CB9114A00211148FFF74A
:1045E0007DFD044600BF05F0010008B1FFF700FFA4
:1045F0002CB90D4A00210D48FFF770FD04462CB977
:104600000B4A01210B48FFF769FD04462046BDE82F
:10461000F0810000E80B0020F00B00203C8F01002F
:104620007D4A0100388F010015530100308F0100D1
:10463000A13B0100348F01002DE9F047044600261C
:104640000025D748007820B10020D549087000F037
:104650004DFE182C79D2DFE804F00C11124579AD2B
:10466000F1FFEEEDECEBEAE9E8E7E6E5E4E3E2E1B1
:10467000E0DF00F03BFECB4804708DE100BF00207E
:10468000FFF79EFE58B10020FFF786FE022C02D1F4
:104690004FF4E16001E04FF47A60054609E0002044
:1046A000FFF784FE022C01D1C82001E04FF4C8704E
:1046B0000546BC4804704FF40040A5FB00204FF4B1
:1046C000FA73D71840F100015A0000233846FDF76D
:1046D0006BFE814600224946B3480068FFF74AFD59
:1046E000064659E10020FFF76BFE58B10020FFF7A6
:1046F00053FE032C02D14FF4487001E04FF47A606E
:10470000054609E00020FFF751FE032C01D1C82027
:1047100001E04FF4C8700546A24804704FF4004011
:10472000A5FB00204FF4FA73D71840F100015A009E
:1047300000233846FDF738FE8146002249469A4854
:104740000068FFF717FD064626E124E10020FFF789
:1047500037FE58B10020FFF71FFE042C02D14FF4A2
:104760007A6001E04FF47A6005460AE00020FFF726
:104770001DFE042C02D14FF4C87001E04FF4C87044
:104780000546884804704FF40040A5FB00104FF424
:10479000FA73CF1840F100015A0000233846FDF7A4
:1047A00003FE8146002249467F480068FFF7E2FC8D
:1047B0000646F1E00020FFF703FE50B10020FFF7AE
:1047C000EBFD052C01D1C82001E04FF47A600546CD
:1047D00009E00020FFF7EAFD052C01D1C82001E027
:1047E0004FF4C87005466F4804704FF40040A5FBB5
:1047F00000204FF4FA73D71840F100015A0000234B
:104800003846FDF7D1FD81460022494666480068DA
:10481000FFF7B0FC0646BFE0B8E0B6E0AAE0A1E0D2
:1048200098E092E05FE05DE05BE059E057E051E046
:1048300042E033E024E015E00EE0FFE70020FFF760
:1048400093FD58480470002240F6CD415648006858
:10485000FFF790FC06469FE00020FFF7A7FD5148B8
:10486000047099E001204E490870FFF77DFD002299
:1048700040F6CD414C480068FFF77CFC06468BE0D3
:10488000012047490870FFF76FFD00224FF4804177
:1048900045480068FFF76EFC06467DE00120404970
:1048A0000870FFF761FD002240F6CD413E480068E8
:1048B000FFF760FC06466FE0012039490870FFF7FA
:1048C00053FD00224FF4804137480068FFF752FC47
:1048D000064661E0FFF7AEFD324804705CE000BFC1
:1048E00000BF00BF00BF31480068FFF76DFC0646FF
:1048F000C4F1110515B30EBB012D18D9A8B2C821FA
:1049000048434FF4004180FB01304FF4FA729F1886
:1049100040F10001520000233846FDF745FD814675
:104920000022494621480068FFF724FC0646022081
:10493000FFF73CFD01201E49087005E00220FFF74B
:104940002BFD00201A49087026E000F0CFFC154826
:10495000047021E000F0CAFC0020FFF727FD114899
:10496000047019E000F0C2FC0120FFF71FFD0D48A4
:10497000047011E000F0BAFC0020FFF717FD0120E1
:10498000FFF714FD0748047006E000BFFFF752FD73
:104990000448047000E000BF00BF3046BDE8F08767
:1049A000E50B0020E40B0020308F0100348F010064
:1049B000EC0B00202DE9F84F05460E46AF1C4FF0DA
:1049C00002084FF00109002000906846FFF714FC30
:1049D0001B48006830601A48006819494968411A44
:1049E00017488068401CA0EB010A07EB080B0BE09E
:1049F00000F050FD1248006811494968411A1048FA
:104A00008068401CA0EB010AD345F1D80C4800682F
:104A10000B49896808400A490C3101EB8004206881
:104A200020F00300C01C20600548006838440C39A1
:104A300008609DF80000FFF7E5FB4846BDE8F88FE9
:104A4000CC10002070B504460D46A168481CA0603B
:104A500020684554D4E90110884202D3204601F071
:104A600092FD70BD0448406803490968884201D13D
:104A7000012070470020FCE7CC10002010B5044650
:104A800020780221FFF7F2FC10BD00004FF0FF314B
:104A9000054A42F82010082804DBFF23A0F1080192
:104AA0005032535470470000EC0D0020014602487C
:104AB00050F8210070470000EC0D00202DE9F04F68
:104AC00003460C464FF0FF390AB1002000E00820F1
:104AD00084460AB1082000E00C208046614624E0AC
:104AE000154850F82100401CF0B91D4608462746DD
:104AF00016464FFA80FBDFF840A00AF1300A0AF8A8
:104B000005B0DFF834A04AF820704EB94FFA85FBA3
:104B1000A0F1080ADFF820E00EF1500E0EF80AB0FE
:104B200000BF4FFA81F902E0491C4145D8D300BFCC
:104B30004846BDE8F08F0000EC0D0020014601481A
:104B4000405670471C0E00202DE9F04782461F4852
:104B50000068002836D01D480068056802F0FAFE9B
:104B600007461B4804682146384603F087F9C61CEF
:104B70001848007808B902F0FFFEAE4201D228467C
:104B800000E03046044424F07F44204602F0DCFE7E
:104B900002F0E0FE80463946404603F06FF900F12E
:104BA00003093946204603F069F9814509D902F025
:104BB000D1FE814602F0C8FE2F2000F095FE03F0E2
:104BC000DDFC01E002F0F6FEBDE8F0871C0C0020E1
:104BD000200C00202E0C00202DE9F04781460025F6
:104BE00032E01C48006800EBC5042178012000FA7F
:104BF00001F619480068304020B317480068B043F8
:104C000015490860207800F0CFFF07462178012081
:104C10008840124909680840217807FA01F1884262
:104C20000FD16078012800D100E00020784080F0AA
:104C30000108606820B108F0FF01207862689047A1
:104C400000BF00BF681CC5B2054800788542C8DBBC
:104C5000BDE8F087080C0020180C0020140C002080
:104C60000C0C0020014614480078144A1278904237
:104C70001DD011480078401C0F4A10701046007873
:104C8000022801D1002010700D480B4A127850F80C
:104C9000220008600B4A086812681044094A106034
:104CA0001046006820F07F4010600120704700200F
:104CB000086000BFFAE700002C0C00202D0C00203B
:104CC000240C0020200C002013480078062820D156
:104CD0001148001D007800F00F00D0B90E480830D0
:104CE000007800F0F000302801D1012070470A4818
:104CF0000830007800F0F000402801D10120F5E7ED
:104D000005480830007800F0F000502801D101205B
:104D1000ECE70020EAE70000E00F00F0134800781D
:104D2000062820D11148001D007800F00F00D0B9EE
:104D30000E480830007800F0F000302801D1012042
:104D400070470A480830007800F0F000402801D190
:104D50000120F5E705480830007800F0F000502801
:104D600001D10120ECE70020EAE70000E00F00F0AD
:104D700013480078062820D11148001D007800F063
:104D80000F00D0B90E480830007800F0F00030284D
:104D900001D1012070470A480830007800F0F00087
:104DA000402801D10120F5E705480830007800F0DF
:104DB000F000502801D10120ECE70020EAE70000D4
:104DC000E00F00F00A48007806280ED10848001DC0
:104DD000007800F00F0040B905480830007800F076
:104DE000F000302801D1012070470020FCE70000CE
:104DF000E00F00F013480078062820D11148001D6C
:104E0000007800F00F00D0B90E480830007800F0AC
:104E1000F000302801D1012070470A48083000789E
:104E200000F0F000402801D10120F5E705480830E6
:104E3000007800F0F000502801D10120ECE70020BC
:104E4000EAE70000E00F00F00A48007806280ED1DB
:104E50000848001D007800F00F0040B905480830F0
:104E6000007800F0F000302801D1012070470020C8
:104E7000FCE70000E00F00F013480078062820D17E
:104E80001148001D007800F00F00D0B90E4808301E
:104E9000007800F0F000302801D1012070470A4866
:104EA0000830007800F0F000402801D10120F5E73B
:104EB00005480830007800F0F000502801D10120AA
:104EC000ECE70020EAE70000E00F00F00A48007875
:104ED00006280ED10848001D007800F00F0040B9E8
:104EE00005480830007800F0F000302801D101209A
:104EF00070470020FCE70000E00F00F00A4800784F
:104F000006280ED10848001D007800F00F0040B9B7
:104F100005480830007800F0F000302801D1012069
:104F200070470020FCE70000E00F00F00A4800781E
:104F300006280ED10848001D007800F00F0040B987
:104F400005480830007800F0F000502801D1012019
:104F500070470020FCE70000E00F00F0F0B50346CA
:104F600000241FE0124E306806689E4203D906688E
:104F7000F61A06601AE006689B1B06683444002691
:104F800006600B4E35680A4FC6693E60C66846B17A
:104F90000E1926F07F464660C66886601668C661B0
:104FA000156000BF024800680028DBD100BFF0BDDB
:104FB0001C0C00202DE9F04105460F46012000FAA7
:104FC00005F418480068FFF7FFF806460EB1BDE883
:104FD000F081154800682040E0B9284600F0E4FD63
:104FE00028B11248006820431049086004E00F48C7
:104FF0000068A0430D4908600B48006820430A4937
:10500000086000220A48016806480068FFF7B2F805
:10501000064604E004480068A0430349086000BF56
:10502000D5E700009C900100180C0020140C002013
:10503000100C002070B5FEF743FF044600BF254664
:1050400025B100BF2846FEF72DFF00BF00BFFDF7CA
:10505000A3FEFDF7AFFEFDF791FEFDF773FEFDF732
:105060007FFE1520FDF7CEFE1520FDF7B1FE70BDC9
:105070002DE9FC5F83460E4691461F46DDE90C454F
:10508000002E01DA704200E0304682464FF00108FF
:1050900003E09AFBF9FA08F10108CA45F9DA474535
:1050A00000D9B84634B1002E03DB05F00400042813
:1050B00000D1641E05F0020000B167B105F00100E7
:1050C00048B944B104E0641E20215846FFF7BAFCF9
:1050D0000CB1A045F7D3002E05DA76422D215846B3
:1050E000FFF7B0FC07E005F00400042803D12B21F2
:1050F0005846FFF7A7FC05F0020002280DD105F085
:10510000010050B94FB944B104E0641E3021584643
:10511000FFF798FC0CB1A045F7D33B464A46314611
:105120005846CDE9004503F03BFEBDE8FC9F00007A
:1051300070B504460D4620791D4901EB4010007FF3
:10514000F8B14FF48871206802F0F2FA4FF49071D0
:10515000206802F0EDFA4FF49271206802F0E8FA4C
:105160004FF4A271206802F0E3FA1249206802F0BD
:10517000EFFA206800F04EFC0646294600F010FCCD
:1051800014E04FF48E71206802F0A2FA4FF4A2717D
:10519000206802F09DFA0849206802F0A8FA206809
:1051A00000F038FC0646294600F0FAFB70BD00000E
:1051B000780E002010030200800002002DE9F04765
:1051C00004460E469046002722E0384602F031FAA7
:1051D0000546384602F034FA8146204629464258B0
:1051E0000AB1012200E0002282B14846D4F804133B
:1051F000014009B1012100E0002139B129462046D2
:1052000002F023FA2846D6E900219047781CC7B25D
:105210004745DADBBDE8F0877FB505460C4694F8D4
:10522000210094F82010CDE9001004F12602D11ECF
:105230002846E36903F0C5FA00B17FBD94F8230066
:1052400048BB207B022802D0207B032823D1E169C0
:10525000206981421FD16069E061E07B84F8200011
:10526000207EC0F3401084F82100207B03280AD15F
:1052700094F82100009094F8203029462046E269F5
:1052800003F032FB30E094F8203029462046E269F2
:1052900003F0FEF928E0D4E90412E06801AB07C38B
:1052A00094F8230088B1284602F0E5F9064606F096
:1052B000020018B101208DF8000005E006F004009E
:1052C00010B102208DF8000002E000208DF80000EF
:1052D000002084F82400207E00F0040018B96846FD
:1052E000D4E90021904700BF00BFA6E710B50848E9
:1052F000007850B1002405E0022C02D02046FFF7D0
:105300004BF8641C042CF7D301E0FFF789F810BDBB
:10531000EC0B002010B504460448007800F00100B2
:1053200018B103480078FFF787F910BDE80B00209B
:10533000E40B00202DE9F041064600274748D0F84D
:10534000008078E016B13446E66947E044480078CA
:1053500000EB40014248001D00EBC105001F007832
:10536000401C3F490870084600788978884202D17D
:1053700000203B4908706C68287801281AD0022860
:1053800002D0032817D107E0686803F017F800B1CE
:105390000127002020744EE007E030490868002112
:1053A00001742E4AC169116000BF2C4800680028B2
:1053B000F3D140E000E03EE000BF207C00B13AE0E5
:1053C000A8686060E868A0602869E0606869A0611A
:1053D0002448007808B10020606000BF224960685E
:1053E0000968401A20F07F402049884208D21E49AF
:1053F0006068096802F042FDA168084420600FE07F
:1054000019486168006802F039FD0546A068A842A5
:1054100003D9A068401B206001E00020206000BF8D
:1054200000206060A060012020740020E061204620
:1054300002F090FF00BF002E84D10948007808498F
:1054400049788842F8D11FB904480068404502D025
:105450000120BDE8F0810020FBE700001C0C0020CB
:10546000E80E00202F0C0020200C0020FFFF7F0002
:1054700070B5002001F072FD044600BF254625B13D
:1054800000BF2846FEF70EFD00BF00BF01F082FB03
:1054900070BD00002DE9FF5F2F4800F053F92E4842
:1054A000001F00F04FF92D484468D0F8088004EA46
:1054B00008002A490C3101EB80090FE0641CB9F89F
:1054C0000000C0F38910D9F8001000EB915004449B
:1054D00004EA080021490C3101EB800999F8000029
:1054E00000F003000028E9D000250BE02046641CF2
:1054F00000EA080019490C3151F8200001A941F8CF
:1055000025006D1C022DF1D3019800F00300012845
:1055100009D002280CD10421019801EB9050401EC3
:1055200004EB900405E00198C0F38310044400E00C
:1055300000BF00BF084F3F1F4FF0000B6A4659469F
:105540003846FCF7EAFE824600BF00BF56460EB161
:1055500002484460BDE8FF9FE4140020CC10002006
:105560001CB50B2001210A4600231D461E4600BF24
:105570004FF0A04C674641EA420C4CEA830C4CEADF
:10558000052C4CEA064807F5E06C4CF8208000BF7B
:1055900000BF01F0A5F9FFF76BFF03F081FC02F0FB
:1055A0008DFBFEF731FBFFF745FD02F05FFA204966
:1055B0000988032242EA014001221EA101F066FC93
:1055C000012208216846FCF737FF6A4608210020BF
:1055D000C7DF0446FEF7F0FC044600BF254625B1B0
:1055E00000BF2846FEF75EFC00BF00BF002346F266
:1055F000A81218490120FEF701FD044600BF254608
:1056000025B100BF2846FEF74DFC00BF00BF0B20B0
:1056100001F039F90BE001F0CFFA40B900BF00BF4B
:1056200001F0CAFA0028FBD100BF01F061FEF2E7E9
:10563000280D0020446973706F73697469766F2058
:10564000524553504952484F27206E756D65726F11
:1056500020256400897E01002DE9FF5F07468B4607
:10566000144698460397039FFD88B94608F1040045
:10567000B0FBF5F0029008F10400B0FBF5F105FB7A
:105680001100019008F1040020442844401EB0FBA2
:10569000F5F0C0B2009004E0D9F800900298401EE6
:1056A000029002980028F7D1824601982E1AA6424D
:1056B00001D9204600E03046064620E00E9848B169
:1056C00009F10402019BD1180BEB0A003246FCF7EA
:1056D000A1FE08E00BEB0A0109F10402019BD018BE
:1056E0003246FCF797FE00200190D9F80090A41BE9
:1056F000B244A54201D9204600E028460646002CC7
:10570000DCD1BDE8FF9F000070B503460C46ACB18C
:1057100001F058FC054600220CE002EB4200084E66
:1057200006EB800148881E68B04202D11A60002052
:1057300070BD521CAA42F0D30520F9E70020F7E71C
:10574000BC0C0020F8B5044601256A4629462046CF
:10575000FCF7D6FD06460098F8BDF8B504460026CD
:10576000002000906846FEF747FD206800686168E9
:10577000884215D920680068401E226810600178B0
:10578000204600F033F80646207A21680978401A4E
:10579000C5B220680079A84201DA2068057100BF0F
:1057A0009DF80000FEF72EFD3046F8BD0246D06899
:1057B000081A138AB0FBF3F0C0B27047F8B504467C
:1057C0000D462E46002000906846FEF715FD314636
:1057D0002046FFF7EBFF21680A68511C2368196017
:1057E00010709DF80000FEF70DFDF8BD0246138A0B
:1057F000D06801FB0300704710B5014600BF09B92E
:105800000E2010BD00BF087A0B79C01AC2B2D1E9D0
:105810000030186005E008680368581C0C682060B8
:105820001A70101EA2F10103DAB2F4D10B681871DC
:1058300000BFE6E730B502460B46D40802F0070287
:10584000012090401D5D284030BD000000B9704728
:1058500000BF00BF00BF00BF00BF00BF00BF00BF50
:1058600000BF1F4909681F4A914200D130E000BFC4
:1058700000BF00BF00BF00BF00BF00BF00BF00BF30
:1058800000BF00BF00BF00BF00BF00BF00BF00BF20
:1058900000BF00BF00BF00BF00BF00BF00BF00BF10
:1058A00000BF00BF00BF00BF00BF00BF00BF00BF00
:1058B00000BF00BF00BF00BF00BF00BF00BF00BFF0
:1058C00000BF00BF00BF00BF00BF00BF00BF00BFE0
:1058D00001460139084600D0BBE700BFB7E700002A
:1058E000B40C00200024F40000B9704700BF00BFD2
:1058F00000BF00BF00BF00BF00BF00BF00BF1F4907
:1059000009681F4A914200D130E000BF00BF00BFCC
:1059100000BF00BF00BF00BF00BF00BF00BF00BF8F
:1059200000BF00BF00BF00BF00BF00BF00BF00BF7F
:1059300000BF00BF00BF00BF00BF00BF00BF00BF6F
:1059400000BF00BF00BF00BF00BF00BF00BF00BF5F
:1059500000BF00BF00BF00BF00BF00BF00BF00BF4F
:1059600000BF00BF00BF00BF00BF00BF014601393C
:10597000084600D0BBE700BFB7E70000B40C00202A
:105980000024F40000BF00F01F0201219140034AEF
:10599000430942F8231000BF7047000080E100E097
:1059A00070B50B4601461A46002907DA5407260E41
:1059B000104C01F00F052D1F665503E05407250E0E
:1059C0000D4C655400BF00BF00F01F020121914043
:1059D0000A4A440942F8241000BF00BF00F01F0229
:1059E000012191404209920002F1E022C2F8001127
:1059F00000BF70BD18ED00E000E400E080E200E0D0
:105A00000146C1F3073250B270470146C1F3073275
:105A100050B270470146C1F3073250B270470000E0
:105A20002DE9F04706460D46304601F0B1FEE0B1E3
:105A30003046FFF783F8083822490F5CBC11032C6D
:105A400008D1304600F040FF08B1032000E00220FA
:105A5000804605E0012C01D1022000E003208046B1
:105A60004146304600F0F6FE2AE0304601F09CFE4A
:105A700030B33046FFF762F80446A00000F58070AE
:105A800087B22046104951F8201041F001020E491A
:105A900041F8202000BF384600F07AFF7DB1304643
:105AA000FFF74CF88146FFF701F88046B8F1000F88
:105AB00004D0012101FA04F000F084FF00BF00BF10
:105AC000BDE8F0873C0E0020106500402DE9FC4742
:105AD00004460E4617464FF00008204601F04AFEE5
:105AE00010B14FF0080855E0F27839462046FEF72D
:105AF000E5FF0546681C002849D0B07880B100BF9A
:105B000000BF4FF0A042104600F5E06252F824209A
:105B100022F0020100F5E06242F8241000BF0CE020
:105B200096F80190002000904B46024601460190F5
:105B3000204600F042FE00BF00BFF078D0B13078C0
:105B4000164951F82510164A1140144A42F82510FA
:105B5000114651F825104FF4F85202EA04224FF48E
:105B6000403303EA00431A4311430C4A42F825101C
:105B700000BF0EE0A5F108000A49085C317840EA50
:105B8000811042B2A5F1080006490A5401E04FF025
:105B9000040800BF4046BDE8FC87000010650040D7
:105BA000FFE0FCFF3C0E002010B50446204600F04C
:105BB0008BFE08B1012010BD0020FCE770B516482F
:105BC00090F8540010B10825284670BD002404E068
:105BD000204601F0F9FD601CC4B2202CF8DB002443
:105BE00004E02046FEF752FF601CC4B20C2CF8DB28
:105BF00007210620FFF7D4FE4FF4BE7000F0C8FE68
:105C00004FF0004000F0DEFE0120034981F854000F
:105C100000252846D9E70000EC0D0020034890F845
:105C2000540008B1012070470020FCE7EC0D002073
:105C3000014601F06040B0F1005F01D101207047E2
:105C40000020FCE71FB50A4B0FCB8DE80F000023A7
:105C5000084A6946084800F097FA044614B12046FD
:105C600004B010BD044800F07DFA0020F8E7000001
:105C7000188F0100015D0100108F0100F7B582B09F
:105C80000E4617464FF6FF740020012302AA682132
:105C90000090184800F0DAFA054615B1284605B01C
:105CA000F0BD00BF1448007810B9601E041EF9D181
:105CB0000CB90D20F3E700200F490870FBB2324603
:105CC00068210C4800F0ACFA05460DB12846E6E71D
:105CD0004FF6FF7400BF0948007810B9601E041E1B
:105CE000F9D10CB90D20DAE70020044908702846E4
:105CF000D5E70000108F0100E00B0020E10B002031
:105D0000027822B1012A1ED0022A1ED11CE002799B
:105D100032B1012A0CD0022A0ED0032A10D103E09E
:105D200001220B4B1A700CE00122094B1A7008E09B
:105D30000122084B1A7004E00122064B1A7000E0A1
:105D400000BF00BF02E001E000E000BF00BF7047FD
:105D5000E00B0020E10B00202DE9FC4104460D463C
:105D60004FF6FF778DF804408DF805500020022390
:105D700001AA682100900B4800F068FA064616B1A7
:105D80003046BDE8FC8100BF0748007810B9781E96
:105D9000071EF9D10FB90D20F3E700200249087062
:105DA0003046EEE7108F0100E00B002070B505468D
:105DB0000C461E48007C10B11126304670BD20797B
:105DC00010B12079012805D100BF002018490860D2
:105DD00000BF00BF15481C3010F8150030B913483B
:105DE00090F82D00401C114981F82D00E1790F48F1
:105DF0001C3000F81510217A00EB45004170214657
:105E0000284601F0C9FA227AE179284601F0FCFA25
:105E1000207910B12079012805D100BF0120044963
:105E2000086000BF00BF00263046C7E7980E00207C
:105E30000075004070B504460E46244890F82C00CA
:105E400010B10825284670BD16B907252846FAE77F
:105E500004B91F4C1D48066020781E49086000BF29
:105E60006078091D086000BFE078184981F82E00AD
:105E7000012081F82C000020087481F82D00486171
:105E800081F82F006FF0004001F0E0FA4FF48270CB
:105E900001F0D0FA4FF4807001F0CCFAA17807201D
:105EA000FFF77EFD022001F0D7FA084890F82E0097
:105EB00010B1012001F0D0FA00BF01200549F039EE
:105EC000086000BF00252846BDE70000980E0020AE
:105ED000DC8F0100F07500402DE9F0410546884651
:105EE0003548007C18B111263046BDE8F08101200C
:105EF00031490874032001F0A9FA0121404601F05C
:105F000043FA2D4890F82D00012809DD002405E012
:105F1000E0B20022114601F077FA641C082CF7D396
:105F200025481C3000EB4500427823481C3010F80F
:105F30001510284601F068FA002001F093FA0420B9
:105F400001F090FA42F2107700E07F1E4FF4827069
:105F500001F066FA08B9002FF7D14FF4807001F014
:105F600069FA4FF4827001F065FA134890F82D0039
:105F7000012810DD00240CE00F4B1C3303EB44031D
:105F80005A780D4B1C3313F81410E0B201F03CFAB0
:105F9000641C082CF0D3084890F82E0018B1032098
:105FA00001F05AFA02E0022001F056FA00200249FC
:105FB00008740026304698E7980E002070B5044615
:105FC0000D46601E074931F81000A843611E054ABE
:105FD00022F81100601E044951F82020294620466D
:105FE000904770BD040C0020000C002010B5044642
:105FF0000C21206801F03CFB10BD2DE9F041054665
:106000000C4616461F46204601F01AFB804627B173
:106010004146286801F023FB03E04146286801F06F
:106020001BFB286800F5A86141F8246000BFBDE8AB
:10603000F081000010B504460021206801F018FB33
:106040000220217901EB4101024A02EB8101087231
:1060500010BD00006C0E00202DE9F04105460E46F3
:1060600017461C46DDF818804FF48072B2400123B9
:10607000B34042EA0301286801F0F4FA2868D0F836
:1060800000122143C0F8001200BF43463A46314691
:106090002846FFF7B2FFBDE8F08100002DE9F04788
:1060A00004460D469146207900EB4000254901EB5E
:1060B0008006307A18B108273846BDE8F087B9F174
:1060C000000F02D107273846F7E7C6F80090686846
:1060D00070604FF000080BE0404601F0AAFA8246DB
:1060E0005146206801F0B1FA08F1010000F0FF0804
:1060F00060794045F0DC2068FFF787FC8246E9784C
:10610000FFF74EFC69782068D0F8042561F301029E
:10611000C0F8042500BFA9782068D0F8082561F3ED
:106120000102C0F8082500BF29782068D0F81025A2
:1061300061F30302C0F8102500BF01203072002770
:106140003846BAE76C0E002010B5044604212068DA
:1061500001F08EFA10BD10B504460021206801F050
:1061600087FA10BD027902EB8202064B03EBC201F3
:10617000026800BF0523C2F8003500BF022281F883
:1061800022207047440E00202DE9F04706460C46B9
:1061900090469946307900EB80001F4901EBC0051D
:1061A00095F8220018B108273846BDE8F087083571
:1061B00045F8088C45F8049C00202860687728770B
:1061C000A07BE877083D607B10B1204602F0DCF947
:1061D00040F20C611148226840F82210626840F8D1
:1061E00022103068D4E90012C0F80815C0F80C2558
:1061F00000BFA168C0F8241500BF286830B130681E
:10620000FFF7FEFB8246217BFFF7CAFB012085F8E2
:10621000220000273846C8E7440E0020000700503F
:10622000FEB507460C4615461E46074A07CA8DE8C6
:1062300007008DF801408DF8026001950022694643
:10624000384600F021F8FEBDD08F01002DE9FE4355
:1062500007460C4615461E46DDF8288000200090B3
:10626000019002908DF801408DF802600195B8F11F
:10627000000F01D0202000E0002002466946384689
:1062800000F002F8BDE8FE832DE9F04104460E4619
:1062900015460027207900EB8000094901EBC00872
:1062A00005F0030018B106273846BDE8F0812B46FB
:1062B00032464046216802F08FFB07463846F4E735
:1062C000440E00202DE9F04105460E461746287978
:1062D0001C4901EB40144FF00008E07E20B14FF064
:1062E00008084046BDE8F081707F20773146284697
:1062F000FDF7ACFF676030692060606818B1317FDE
:106300002846FEF715FF00BF28790E4901EB401023
:10631000007F28B128680821C0F8001500BF05E0FB
:1063200028680421C0F8001500BF00BF00BF00208E
:10633000E0752076A0750120E0760020A07640462A
:10634000D0E70000780E00202DE9F04104460D460C
:1063500090462079144901EB4016207901EB40105A
:10636000007F38B12846FFF763FC18B9102738467C
:10637000BDE8F081204600F09DF810B111273846A5
:10638000F6E786F81680B5600020B08220790649CD
:1063900001EB4010007F18B1204600F04DF8E7E710
:1063A000204600F003F8E3E7780E002070B50446BD
:1063B0002079204901EB401500264FF48E712068AA
:1063C00001F086F90821206801F09DF9294620682E
:1063D00002F062FB686858BB12E000BF4FF48E7198
:1063E000206801F06EF918B9A88AB0F5807FF5D160
:1063F000A88AB0F5807F03D02946206802F04CFBC4
:10640000A88AA97D8842E8DBA88AB0F5807F01D1FF
:106410000F260BE000BF4FF48E71206801F051F998
:106420000028F8D00C21206801F06DF90020A87533
:10643000304670BD780E00202DE9F04104462079E9
:106440001B4901EB40154FF000084FF49071206894
:1064500001F06EF94FF4AC71206801F069F9206821
:10646000AA7DA968C0F844154FF4A9631A5000BF6B
:106470000821206801F074F96868A8B900BF4FF4DA
:106480009071206801F04DF907464FF4AC71206817
:1064900001F047F906460FB9002EF0D00EB14FF0CB
:1064A0000F080020A87500BF4046BDE8F08100003D
:1064B000780E002001460879044A02EB4010807DE6
:1064C00008B1012070470020FCE70000780E002092
:1064D00070B5044620791F4901EB401500BF2079B3
:1064E00001EB4010007F28B120680021C0F80015A2
:1064F00000BF05E020680021C0F8001500BF00BF04
:1065000000BF6868F0B100BF2079124901EB40106C
:10651000007F50B11049206801F017F92068FFF79B
:1065200079FA0646FFF72EFA0AE00B498C39206803
:1065300001F0DAF82068FFF76DFA0646FFF722FA55
:1065400000BF00BF204601F045F90020E8766860F2
:1065500070BD0000780E0020100302000FB438B5A3
:106560000446059810B938BC5DF814FB0020009073
:1065700006A800906A462046059900F012F800200F
:10658000009000BFEFE770B50446A06800B970BD89
:10659000D4E90403A268216898470020A06000BFE6
:1065A000F5E72DE9FC5F82460D4614460DB9BDE8BE
:1065B000FC9F00BF2E786D1C06B9E1E0252E70D13E
:1065C00000274FF0010900BF2E782B2E0CD02D2E66
:1065D00002D0302E0CD103E047F001076D1C0AE019
:1065E00047F002076D1C06E047F004076D1C02E04F
:1065F0004FF0000900BF00BFB9F1000FE4D14FF028
:10660000000800BF2A2E06D12168081D20600868F6
:1066100080446D1C0DE02E78302E01DB392E00DD1C
:1066200007E06D1CA6F1300008EB880100EB410883
:10663000E8E700BF4FF0000B2E782E2E10D16D1C16
:1066400000BF2E78302E01DB392E00DD07E06D1CF7
:10665000A6F130000BEB8B0100EB410BF1E700BF23
:106660002E7800BF6C2E01D0682E02D16D1C2E78C2
:1066700000E000E0F6E700BF692E21D008DC252EFF
:106680006DD0582E39D0632E0CD0642E6CD116E00C
:10669000702E4CD0732E3ED0752E1FD0782E63D125
:1066A0002AE065E02168081D2060D1F8009009F01B
:1066B000FF00019050460199FEF7C4F955E000BF74
:1066C0002168081D2060D1F800905B460A224946E7
:1066D0005046CDE90087FEF7CBFC46E02168081D57
:1066E0002060D1F800905B460A2249465046CDE929
:1066F000008702F055FB38E000BF2168081D2060CC
:10670000D1F800905B46102249465046CDE90087FB
:1067100002F046FB29E02168081D2060086801900E
:106720003B4642465046019901F050FB1DE021686E
:10673000081D2060D1F8009030215046FEF782F904
:1067400078215046FEF77EF9002008210B461022E2
:10675000CDE900104946504602F022FB05E0252114
:106760005046FEF76FF900E000BF00BF6D1C03E06C
:1067700031465046FEF766F9287800287FF41AAFB4
:1067800000BF9AF80C0010B15046FFF7FCFE00BFA6
:106790000DE7F0B5DDE9054500BF4FF0A0473E46E7
:1067A00041EA420747EA830747EA042747EA054CDC
:1067B00006F5E06747F820C0F0BDF0B5DDE9054516
:1067C00000BF4FF0A0473E4641EA420747EA830731
:1067D00047EA042747EA054C06F5E06747F820C07A
:1067E000F0BDF0B5DDE9054500BF4FF0A0473E46DE
:1067F00041EA420747EA830747EA042747EA054C8C
:1068000006F5E06747F820C0F0BD1CB5044600203F
:10681000009003460122014601902046FFF7E1FF68
:106820001CBD7CB505460C46002000902346024660
:10683000014601902846FFF7D4FF7CBD1CB50446F5
:106840000020009003460122114601902046FFF7E8
:10685000C8FF1CBD10B50A4600BF4FF0A043194643
:1068600001F5E06353F8203023F4403401F5E06390
:1068700043F8204053F8203043EA024401F5E06336
:1068800043F8204010BD00BF4FF0A0410A4601234D
:1068900003FA00F1C2F80C1500BF704700BF4FF0BB
:1068A000A0410A46012303FA00F1C2F80C1500BF0B
:1068B000704700BF4FF0A0410A46012303FA00F1E0
:1068C000C2F80C1500BF7047014600BF4FF0A04052
:1068D000024600BFD2F81005C84000F00100704722
:1068E00000BF4FF0A0410A46012303FA00F1C2F8AD
:1068F000081500BF704700BF4FF0A0410A460123B2
:1069000003FA00F1C2F8081500BF704700BF4FF04E
:10691000A0410A46012303FA00F1C2F8081500BF9E
:10692000704710B561B900BF00BF4FF0A0421346D9
:10693000012404FA00F2C3F80C2500BF00BF0CE0EC
:1069400000BF00BF4FF0A0421346012404FA00F23A
:10695000C3F8082500BF00BF00BF10BD38B50B4607
:10696000074C24680094014606E05DF82140D4F805
:1069700010551560121D491CC4188C42F5D838BD3D
:106980005C8F0100014601480844704700600040E8
:1069900038B504462046FFF7F5FF00210160204688
:1069A000FFF7F0FF0068009000BF38BD10B5044647
:1069B0002046FFF7E7FF0068012800D110BD002046
:1069C000FCE70000014908607047000004630040D4
:1069D00070B504460E46FDF7ABFC0546681C08B9C9
:1069E000284670BDE8B2207200BF0A48D0F81004F3
:1069F00028B90848C0F810440020606008E0054845
:106A0000D0F81004406860600248D0F81004446078
:106A10002846E6E7CC1000202DE9F04F93B08246DF
:106A20000E4617469846DDF87090304600F0C1FBE0
:106A300018210DA8FBF707FD0D97CDF83880CDF88C
:106A4000489000252B46082207A9304600F0DEFBBF
:106A5000082509980A90089880B2ADF82C0000200B
:106A60008DF83000079800F00300012820D1079826
:106A70004FEA902B0798C0F3C2008DF82E000798BC
:106A8000C0F380008DF82F000798C0F38314A20094
:106A90002B4601A9304600F0B9FB05EB84050DA893
:106AA0000AAB224601A90090584600F0C1FA2CE03A
:106AB000079800F00300022827D107984FEA905B5F
:106AC0000798C0F3C2008DF82E000798C0F380002D
:106AD0008DF82F0000BFBBF1080F01D2584600E02F
:106AE000082004462B46224605A9304600F08EFBBE
:106AF0002544ABEB040B0DAB0AAA214605A800F018
:106B0000D1F9BBF1000FE6D100BF304600F066FBC3
:106B100013B0BDE8F08F704710B50124204601F096
:106B2000E5FF10BD10B504460348FFF7D1FC002077
:106B300001F0DCFF10BD0000600C002038B50446F9
:106B40000D4604484023044A294600902046FFF79A
:106B500063FF38BD697C0100EC14002010B50246CB
:106B60000B4C04EBC203012906D0022906D00329ED
:106B700006D0042908D105E0002007E0002005E048
:106B8000187903E0587901E0002000BF00BF10BD74
:106B90002493010010B54FF0FF34FFF7BDFF04212F
:106BA0000448FFF715FF044600BF01200149487261
:106BB00000BF10BD6C0C00202DE9F04F8BB0FDF72D
:106BC00051FF18B100200BB0BDE8F08F0020A8499C
:106BD000C1F8180400BF00BF00BFBFF34F8F00BF54
:106BE00000BF00BF08464468856804EA05000C3110
:106BF00001EB800A00260027002007900FE0641CAC
:106C0000BAF80000C0F38910DAF8001000EB9150D8
:106C1000044404EA050096490C3101EB800A9AF815
:106C2000000000F003000028E9D04FF000080BE05E
:106C30002046641C28408E490C3151F8200008A9D8
:106C400041F8280008F10108B8F1020FF0D30898C4
:106C500000F0030002287CD10898800D0690502196
:106C60000898B1EB905F02DD0898800D00E050209D
:106C7000834608986BF39F5008900BF1080005902D
:106C80000898C0F3C20007907A48059900F034FADA
:106C90000646002E5BD0304600F08BFA3B460822B9
:106CA00008A9304600F0C0FA083704EA0500691C5C
:106CB000081A4FEA8009CB4536D9B9F1000F06D042
:106CC00004EA05006A490C3101EB800001E06848E4
:106CD0000C300490B9F1000F01D0484600E058464E
:106CE000C0B20390B9F1000F02D061480C3000E04F
:106CF00000200290B9F1000F02D0ABEB090000E0D8
:106D00000020C0B201903B463046DDE9032100F08F
:106D10008BFA03980744029828B13B463046DDE9D8
:106D2000012100F081FA0DE004EA050050490C3120
:106D300001EB800004903B465A463046049900F02F
:106D400073FA00BF0698C01C04EB900400BF50E02B
:106D5000FFE7089800F0030001283FD10898C0F32E
:106D60008310062803DA0898C0F3831000E0062099
:106D7000089960F3891108910898C0F3831000F115
:106D800002090898C0F3C20007904FEA8901394808
:106D900000F0B2F9064606B3304600F00AFA3B4668
:106DA000082208A9304600F03FFA08374FF00008E3
:106DB0000EE02046641C28402D4A0C3202EB800174
:106DC0003B460422304600F02FFA3F1D08F101082F
:106DD0000898C0F383104045EBD80AE0089800F00B
:106DE0000300032805D12248D0F8180408B9002070
:106DF000E9E6C6B31E48D0F81094D0F8180418B1CC
:106E0000304600F0EBF92DE016E04FF0000B00BF2C
:106E100099F80900012800D18346BBF1000F08D082
:106E200000BFD9F80000314602684846904700BFCD
:106E300000BFD9F8049000BFB9F1000FE5D130468A
:106E400000F0CCF90020069006A8FDF7D5F9084817
:106E5000D0F8180408B9064844609DF81800FDF7FA
:106E6000D1F900BF00BFFDF7FDFD80F00100AAE6EB
:106E7000CC100020E890010070B504460D460023B8
:106E80001A462946204600F06BFF70BDF8B505464E
:106E90000E461446009401236A463146284600F007
:106EA0005FFFF8BD2DE9F05F07460E4690461D4690
:106EB000082E01D9BDE8F09F95F80C9000202873AA
:106EC0002946404600F012FD00240CE0B44205D2F1
:106ED0003A5D1CA12846FFF741FB03E01BA12846B1
:106EE000FFF73CFB641C082CF0D319A12846FFF7E0
:106EF00035FB00241AE0B44213D217F804A0FBF7C4
:106F000085FA006810F80A0000F03E0008B150460B
:106F100000E02E2083465A460EA12846FFF71EFBAE
:106F200003E00DA12846FFF719FB641C082CE2D3EF
:106F300001222946404600F0B7FC85F80C9000BFBE
:106F4000B8E7000020253032780000002020200023
:106F50007C00000025630000200000002DE9F041C6
:106F6000074600BFFF201249886000200860486083
:106F7000C1F81804C1F8140481F81C040D4800F08D
:106F800027F9054615B12846BDE8F0810A480B49A6
:106F9000401AC608002406E004EB4401084A02EB4C
:106FA00081000480641CB442F6D30020ECE70000AA
:106FB000CC100020E890010084930100249301008C
:106FC000BC0C002002480349401AC008704700006A
:106FD000849301002493010013B50C4621466846B2
:106FE000FEF792FB28B90448009A00EBC20108683A
:106FF0001CBD0020FCE700002493010070B50B4885
:10700000D0F810440120094981F81C040AE000BFAF
:107010000120607200BF25462868416828468847DD
:1070200000BF6468002CF2D170BD0000CC100020BD
:107030002DE9FF4707460C46164698460C9D95F8E5
:107040000C90002028732946404600F04FFC072E84
:1070500047D2DFE806F004090F161F2A3700394629
:107060002846FFF77BFA3DE0394628462268FFF7BD
:1070700075FA37E039462846D4E90023FFF76EFA5F
:1070800030E0A068009039462846D4E90023FFF795
:1070900065FA27E0D4E90201CDE900013946284626
:1070A000D4E90023FFF75AFA1CE0D4E90212206960
:1070B000CDE90012029039462846D4E90023FFF7B3
:1070C0004DFA0FE0D4E90223D4E90410CDE90023FE
:1070D000CDE9021039462846D4E90023FFF73EFAED
:1070E00000E000BF00BF00222946404600F0DCFB64
:1070F00085F80C90BDE8FF872DE9F84F07468A46D2
:10710000388AA0F104080AF104004044401EB0FB94
:10711000F8F0C0B200903846FEF71FFB044614B9E1
:107120000020BDE8F88F0020207101216171A4F8D2
:10713000068025460098A0F1010B2C462F604FF0E9
:10714000000912E03846FEF708FB064636B16079C2
:10715000401C60712E603760354604E0204600F028
:1071600008F80020DDE709F10109D945EAD32046F6
:10717000D7E72DE9F05F0446274697F805802646B5
:10718000A8F1010B002501E036686D1C5D45FBD3BD
:10719000D6F800A02646002507E0D6F80090314634
:1071A0005046FEF70BFB4E466D1C4545F5D3BDE83A
:1071B000F09F2DE9F843044627463D1D01266A4607
:1071C00031462846FBF775F8804600BFBDE8F883D6
:1071D00010B504462046FEF70FFB10BD2DE9FC4715
:1071E000044627463D1D01266A4631462846FBF7E0
:1071F0006DF88146009801900DF1040898F80000A0
:1072000010B92046FFF7B5FFBDE8FC87F8B5044686
:107210000D4616461F4601203B4632462946009041
:107220002046FEF719FAF8BDF8B504460D46164695
:107230001F4600203B463246294600902046FEF776
:107240000BFAF8BD2DE9F04121490988032242EAF1
:10725000014020A1FFF710FE00202049087000BF68
:107260001F49086000BF00BF00BF00BFBFF35F8FB2
:1072700000BF00BF00BF00BF1A491B4800F0A1F9C2
:1072800000BF1A48006840F010001849086000BFAD
:1072900000BF1820FFF70DFB182001210A4600232C
:1072A0001C461D4600BF4FF0A0473E4641EA42073C
:1072B00047EA830747EA042747EA054C06F5E067F3
:1072C00047F820C000BF00BF00BF0020BDE8F0812C
:1072D0001C0D0020496E697400000000380C00206D
:1072E000340C0020BC9001000010002010ED00E0E4
:1072F00038B500BF002000906846FCF77DFF00BF56
:10730000F1EE100A044624F09F00E1EE100A00BFDF
:1073100000BF00BF00BF00BFBFF35F8F00BF00BF53
:1073200000BF262000F01F0201219140154A4309A9
:1073300042F8231000BF9DF80000FCF763FF00BF78
:10734000002000906846FCF757FF182000BF4FF060
:10735000A0410A46012303FA00F1C2F8081500BF54
:1073600000BF00F025F910B141DF044602E020BF64
:1073700040BF20BF1820FFF79CFA9DF80000FCF7E3
:1073800041FF38BD80E200E0024A1060121D11602A
:10739000704700002C76004010B50A7802F0030216
:1073A0004B78302404EA03131A438B784FF4E064DB
:1073B00004EA03231A43CB784FF4805404EA0333DE
:1073C0001A430B794FF4E02404EA03431A434B7940
:1073D0004FF4801404EA03531A438B79240104EA1E
:1073E00003631343074A02EB00129360CA790B7AD6
:1073F000044C04EB00146360024C04EB00142260A4
:1074000000BF10BD10750040044B03EB00135A6021
:10741000024B03EB00131960704700001075004029
:1074200001460348085808B1012070470020FCE7D6
:107430000070004008B50021034A815011464158B0
:10744000009100BF08BD00000070004001490860C5
:107450007047000008730040014908607047000051
:10746000047300400121014A8150704700700040C0
:107470003EB5044A07CA8DE807006846FADF0446AD
:1074800020463EBD9C910100F0B58FB007461BE041
:1074900003AA0DF139010EA8C1DF044604B114E0BE
:1074A0000F49684600F08DF809E000BF02980546D4
:1074B0002E6803A86968B047684600F0A3F800BFCB
:1074C00002980028F1D100BFE2E700BF052C04D0EC
:1074D00000BF2046FCF7E6FC00BF0FB0F0BD000087
:1074E0009091010038B51748007808B1082038BDE0
:1074F000012015490870002000F07EFB112801D101
:107500000020F4E7002000F095FB10480068009090
:107510000FA21949684610DF04460CB12046E6E781
:1075200001200849087000200749087013490870B5
:1075300000F086FC00F0DCFB012000F07BFB00206B
:10754000D5E70000B00C0020B20C00207C910100B7
:10755000333833312D353231642D376466392D326D
:107560003464382D656666332D343637622D3232F9
:1075700035662D6130306500F53D0100B10C00200D
:107580003EB50A49684600F01CF809E0684600F07C
:1075900015F8044625686068A847684600F032F888
:1075A000684600F00BF80028F0D13EBD7091010054
:1075B0000148007870470000B00C00200146886840
:1075C000704770B504460D46256028686060204607
:1075D00000F001F870BD14E0D0E90021526891423A
:1075E00002D1002181607047416809684268526891
:1075F000914203D0416809688160F4E7416808312D
:107600004160E9E710B50446A06800B910BD2168E3
:10761000A06889680844A060D4E9011049688842DC
:1076200005D16068083060602046FFF7D4FF00BFD6
:10763000ECE701464FF4A07000EB810080B2704788
:1076400001464FF480308840704708B50022425010
:107650004258009200BF08BDC0F808137047C0F838
:1076600004137047D0F800228A43C0F80022704704
:107670000122425070470146D1F8C404C1F8C40445
:1076800070470246505808B1012070470020FCE7BF
:1076900008B5002242504258009200BF08BDC0F811
:1076A00008137047C0F804137047C0F80012704701
:1076B0000122425070470146D1F88004C1F880048D
:1076C00070470246505808B1012070470020FCE77F
:1076D00008B5002242504258009200BF08BDC0F8D1
:1076E0000815C0F810257047C0F808137047C0F897
:1076F000041370470246D2F80403084008B1012081
:1077000070470020FCE7012242507047C0F8142562
:10771000C0F80C1570470146D1F88004C1F8800408
:1077200070470246505808B1012070470020FCE71E
:1077300008B5002242504258009200BF08BDC0F870
:1077400008154FF4A2631A507047C0F80813704729
:10775000C0F804137047014640F23C50405870474F
:1077600001224250704740F20C53195040F214531A
:107770001A507047014605484056012202EBE0705E
:1077800008B1012070470020FCE700001C0E00201B
:10779000014604484056082801DB012070470020BC
:1077A000FCE700001C0E0020014606484056002859
:1077B00005DB04484056082801DA01207047002004
:1077C000FCE700001C0E0020FF2201490A5470470C
:1077D0001C0E00202DE9F04704462079314901EBC9
:1077E0004010007F20B3206840F20C510D5800BFBC
:1077F000206840F214510E5800BF2068D0F8087578
:1078000000BF2068D0F8108500BFD4F800904FF07A
:10781000FF3211464846FFF7A6FF00BFD4F800909C
:107820004FF0FF3211464846FFF789FF00BF22E0C4
:107830002068D0F80C5500BF2068D0F8146500BF50
:107840002068D0F8087500BF2068D0F8108500BF08
:10785000D4F800904FF0FF3211464846FFF756FF2C
:1078600000BFD4F800904FF0FF3211464846FFF7B2
:1078700036FF00BF00BF681C10B12846FEF7C5FFE9
:10788000701C10B13046FEF7C0FF08F1010010B1C6
:107890004046FEF7BAFF781C10B13846FEF7B5FF38
:1078A000BDE8F087780E002070B504460D461646F8
:1078B000E07960B9207A28B109480AA1026828460F
:1078C000FEF74CFE08A12846FEF748FE04E01EB174
:1078D00005A12846FEF742FE2846FEF754FE70BD7D
:1078E0008C0C0020257300000D0A000070B50446C2
:1078F0000D46E079D8B9207A58B1A179A088FFF770
:107900002DF90B4951F8206032460AA12846FEF7AE
:1079100025FEA0880021FFF75FFB0646A0790649F7
:1079200051F82020334605A12846FEF717FE70BD0A
:107930008C0C002025730000780C00203C25733E41
:107940002025733A200000000149086070470000BC
:1079500040150140014800687047000004150140CF
:1079600010B504460348046007211120FBF7E2FD2F
:1079700010BD00000815014010B54FF480300A49D1
:1079800008600A49C1F804031120FBF7AFFD11207C
:10799000FBF7B8FD0120054908602F20FDF7A4FF83
:1079A00001200349087010BD44130140001001403C
:1079B0002E0C002010B51120012181400E4A4309F0
:1079C00042F8231000BF4FF480300C4908600C4986
:1079D000C1F80803012048602F20FDF785FF012032
:1079E000074988600020074908602F20FDF77CFFC9
:1079F00000200549087010BD80E100E048130140F7
:107A000000100140200C00202E0C002070B505460F
:107A10000C46E07D40B94FF484712846FFF758FECC
:107A200000BFD5F8180570BD4FF484712846FFF7E4
:107A30004FFE00BFD5F81805C0B2627EE1688854D9
:107A4000607E401C607600BFEDE77FB504460D46C2
:107A5000164601208DF800008DF808500196684602
:107A6000D4E9001290477FBD704700003EB5104A30
:107A700007CA8DE807000F490020FEF7DBF904462E
:107A800000BF254625B100BF2846FCF70BFA00BF12
:107A900000BF69460020FEF789F9044600BF25466D
:107AA00025B100BF2846FCF7FDF900BF00BF3EBD71
:107AB000F88E0100697A010070B504462046FCF793
:107AC0003BF810B942F2010070BD2046002806DAEA
:107AD000184900F00F02121F895C490902E016499B
