:020000040000FA
:10000000302C0020890400009104000093040000BB
:10001000950400009704000099040000000000000F
:100020000000000000000000000000009B04000031
:100030009D040000000000009F040000A1040000D7
:1000400015080000A3040000910B0000A3040000A9
:10005000A3040000A3040000A3040000A304000004
:10006000A3040000A3040000A3040000A3040000F4
:10007000A3040000A3040000A3040000A3040000E4
:10008000A30400006D080000A3040000A304000006
:1000900091080000A3040000A3040000A3040000D2
:1000A000A3040000A3040000A3040000A3040000B4
:1000B000A3040000A30400000000000000000000F2
:1000C000A3040000A3040000A3040000A304000094
:1000D000A3040000A3040000A3040000000000002B
:1000E0000000000000000000000000000000000010
:1000F0000000000000000000000000000000000000
:1001000000000000000000000000000000000000EF
:1001100000000000000000000000000000000000DF
:1001200000000000000000000000000000000000CF
:1001300000000000000000000000000000000000BF
:1001400000000000000000000000000000000000AF
:10015000000000000000000000000000000000009F
:10016000000000000000000000000000000000008F
:10017000000000000000000000000000000000007F
:10018000000000000000000000000000000000006F
:10019000000000000000000000000000000000005F
:1001A000000000000000000000000000000000004F
:1001B000000000000000000000000000000000003F
:1001C000000000000000000000000000000000002F
:1001D000000000000000000000000000000000001F
:1001E000000000000000000000000000000000000F
:1001F00000000000000000000000000000000000FF
:10020000DFF810D000F08AFA0048004731300000D3
:10021000AFF30080302C002030B4044654E8000FC7
:100220000D4644E80053002BF8D1156030BC7047F0
:1002300030B4044654E8000F40EA010544E8005396
:10024000002BF7D1156030BC704730B4044654E839
:10025000000F00EA010544E80053002BF7D11560B8
:1002600030BC704730B4044654E8000F80EA010502
:1002700044E80053002BF7D1156030BC704730B410
:10028000044654E8000F00EB010544E80053002B3E
:10029000F7D1156030BC704730B4044654E8000F05
:1002A000A0EB010544E80053002BF7D1156030BCEA
:1002B0007047000030B4044654E8000F0D4644E88F
:1002C0000053002BF8D1156030BC704730B40446A1
:1002D00054E8000F40EA010544E80053002BF7D131
:1002E000156030BC704730B4044654E8000F00EA93
:1002F000010544E80053002BF7D1156030BC70476E
:1003000030B4044654E8000F80EA010544E8005385
:10031000002BF7D1156030BC704730B4044654E868
:10032000000F00EB010544E80053002BF7D11560E6
:1003300030BC704730B4044654E8000FA0EB010510
:1003400044E80053002BF7D1156030BC7047000023
:1003500030B4044654E8000F0D4644E80053002B27
:10036000F8D1156030BC704730B4044654E8000F33
:1003700040EA010544E80053002BF7D1156030BC7A
:10038000704730B4044654E8000F00EA010544E821
:100390000053002BF7D1156030BC704730B40446D1
:1003A00054E8000F80EA010544E80053002BF7D120
:1003B000156030BC704730B4044654E8000F00EBC1
:1003C000010544E80053002BF7D1156030BC70479D
:1003D00030B4044654E8000FA0EB010544E8005394
:1003E000002BF7D1156030BC7047000030B40446D4
:1003F00054E8000F0D4644E80053002BF8D1156077
:1004000030BC704730B4044654E8000F40EA0105A0
:1004100044E80053002BF7D1156030BC704730B46E
:10042000044654E8000F00EA010544E80053002B9D
:10043000F7D1156030BC704730B4044654E8000F63
:1004400080EA010544E80053002BF7D1156030BC69
:10045000704730B4044654E8000F00EB010544E84F
:100460000053002BF7D1156030BC704730B4044600
:1004700054E8000FA0EB010544E80053002BF7D12E
:10048000156030BC704700000648804706480047AA
:10049000FEE7FEE7FEE7FEE7FEE7FEE7FEE7FEE734
:1004A000FEE7FEE7950800000102000000487047E3
:1004B000906700002DE9FE43994615468846074699
:1004C00001AC022942D3002D40D000200290A8F1B7
:1004D00001004FF0FF36009022E000FB057201FBA7
:1004E000057011464A469047002805DC54F826005E
:1004F000304444F8260013E060682A4600FB05718A
:1005000054F8040C00FB057007E00B7890F800C06D
:1005100001F801CB00F8013B521E002AF5D17642CA
:1005200054F8040C61688842D7DC4B462A463846AA
:10053000FFF7C0FF54F8040C4B46A8EB0001401C29
:1005400000FB05702A46491EFFF7B4FFBDE8FE8395
:1005500010B5431A934209D28318881803E010F8A3
:10056000011D03F8011D521EF9D210BD40EA01031E
:100570009B0703D009E008C9121F08C0042AFAD259
:1005800003E011F8013B00F8013B521EF9D210BD07
:10059000D2B201E000F8012B491EFBD270470022C5
:1005A000F6E710B513460A4604461946FFF7F0FF72
:1005B000204610BD421C10F8011B0029FBD1801AF7
:1005C000704710B5002200E0521C835C8C5CA34293
:1005D00001D1002BF8D1D8B2E1B2401A10BD0346C8
:1005E00011F8012B00F8012B002AF9D118467047A9
:1005F00030B505460020034600E05B1C934205D25F
:10060000EC5CC85C201A01D1002CF6D130BD2DE97C
:10061000F04791460F4680460446002614F8015BD9
:100620002DB1FFF743FF0068405DC007F6D12B2DC9
:1006300002D02D2D18D0641E4A463946204600F0BF
:100640001EF827B13968A14201D1C7F800807105B1
:100650004FF002040BD54042002803DD00F0A6FA5B
:100660000460A007BDE8F08746F48066E4E7002850
:10067000F8DA00F09BFA04606FF00040F2E72DE931
:10068000F05F82460078002715468B460AF1010488
:10069000B946302801D09DB113E014F8010B0127B1
:1006A000782803D0582801D045B10AE00DB1102DAB
:1006B00007D10027102514F8010B02E0082500E0FF
:1006C0000A250026B0460EE005FB080005FB06F1F2
:1006D000012701EB10461FFA80F8B6F5803F00D3E2
:1006E000B94614F8010B294600F02AF80028EBDA85
:1006F000BBF1000F05D00FB1641E00E05446CBF8EB
:100700000040B9F1000F06D000F050FA022101605C
:10071000C81EBDE8F09F48EA0640FAE7064C074DC0
:1007200006E0E06840F0010394E8070098471034C1
:10073000AC42F6D3FFF768FD8C730000AC73000089
:100740003A2800D2303820F02002412A01D3A2F109
:100750003700884201D34FF0FF30704770B58C18D6
:1007600010F8015B15F0070301D110F8013B2A11C5
:1007700006D110F8012B03E010F8016B01F8016BB2
:100780005B1EF9D12B0705D40023521E0DD401F8AE
:10079000013BFAE710F8013BCB1A921C03E013F877
:1007A000015B01F8015B521EF9D5A142D8D30020AC
:1007B00070BD00F01F02012191404009800000F14E
:1007C000E020C0F88012704700F01F020121914024
:1007D0004009800000F1E020C0F80011704700F0EF
:1007E0001F02012191404009800000F1E020C0F883
:1007F000001270474907090E002806DA00F00F00C2
:1008000000F1E02080F8141D704700F1E02080F82E
:10081000001470472DE9F0414FF48077384603F01B
:1008200095FB0124104EA50748B1384603F095FB0F
:100830000120C5F808037470002001F057FA4FF446
:100840008277384603F082FB00280BD0384603F04D
:1008500084FB0220C5F80803B470BDE8F041012014
:1008600001F044BABDE8F0811006002007480021DD
:10087000C0F84011C0F84411C0F84811C0F84C113C
:10088000C0F80011C0F8041105F0DAB900100140F9
:1008900005F028B9F0B5AE480023021D0178012506
:1008A000101D4FF0805406290BD11678360708D159
:1008B0000678C6F30316032E06D0042E04D0052EA8
:1008C00002D0062907D00EE0B4F82463A14FC6F386
:1008D00004263E6002E01678360704D10678C6F397
:1008E0000316032E02D0062904D00FE09B4F9A4E28
:1008F0007E670EE01678360708D10678C6F3031631
:10090000032E06D0042E04D0052E02D0062907D0CF
:100910000EE0D4F84462924FC6F342363E6002E0E5
:100920001678360704D10678C6F30316032E02D0D4
:10093000062906D011E08B4E376827F080773760A4
:100940000EE01678360708D10678C6F30316032E94
:1009500006D0042E04D0052E02D006290AD011E0BC
:100960004FF08046C6F80C31C6F810317C4E361F69
:10097000336002E01678360704D10678C6F3031612
:10098000032E02D0062905D00CE0754F03266437EC
:100990003E600AE01678360704D10678C6F30316DF
:1009A000032E02D006290DD014E06F4F05263E60BD
:1009B0006D4E783635606C4E083633603F263F1DED
:1009C0003E6002E01678360704D10678C6F30316B7
:1009D000052E02D0062957D062E0644E3668644F77
:1009E0003E60624E361D36683F1D3E605F4E0836E3
:1009F00036683F1D3E605D4E0C3636683F1D3E60DA
:100A00005A4E103636683F1D3E60584E14363668D2
:100A10003F1D3E60554E18363668554F20373E60B4
:100A2000524E1C3636683F1D3E60504E20363668AA
:100A30003F1D3E604D4E243636683F1D3E604B4E96
:100A4000283636683F1D3E60484E2C3636683F1DBE
:100A50003E60464E30363668454F40373E60434E26
:100A6000343636683F1D3E60404E383636683F1D8E
:100A70003E603E4E3C3636683F1D3E603B4E403643
:100A800036683F1D3E6002E01678360708D10678CA
:100A9000C6F30316032E06D0042E04D0052E02D072
:100AA000062907D019E0D4F85812324A01F04F0154
:100AB000116002E0117809070FD10078C0F303102C
:100AC000032803D0042801D0052806D12A4801684C
:100AD000C90702D06FF00101016022487438016833
:100AE00041F470010160BFF34F8FBFF36F8F4FF080
:100AF0001021D1F80002002803DBD1F804020028FD
:100B000022DA1E4A15601E480468002CFCD0152409
:100B1000C1F800420568002DFCD0C1F8044201680C
:100B20000029FCD0136001680029FCD0BFF34F8F6F
:100B30000C48F0380168134A01F4E0611143016088
:100B4000BFF34F8F00BFFDE710490F480860F0BDAD
:100B5000E00F00F0403501400DF0ADBA00C0074095
:100B60003C050040FCED00E010560040040400107D
:100B700020C50040E40E00400004004004E50140B0
:100B800000E401400400FA050090D003E0000020DA
:100B90000448017F04480029024901D005F06EB9DC
:100BA00005F0DDB824060020002000400048704712
:100BB000E400002002E008C8121F08C1002AFAD190
:100BC00070477047002001E001C1121F002AFBD1CD
:100BD0007047800701D00020704701207047C3682C
:100BE0008B4206D811440069491E814201D8012078
:100BF000704700207047000010B504F061F900BF95
:100C000003F044FF0028FBD1134C606830B120880A
:100C1000012101EB004011A104F040F812480068E6
:100C2000C00700D000BE6068022806D320880221D9
:100C300001EB00400DA104F031F8BFF34F8F0A48DB
:100C4000E43801680D4A01F4E06111430160BFF32B
:100C50004F8F00BFFDE7000058010020466174611E
:100C60006C206572726F7200F0ED00E0537973745E
:100C7000656D207265736574000000000400FA055C
:100C80000EB500210091CDE901106A4644F2010041
:100C9000FFF7B2FF0EBD0000084B9B7823B12AB1CD
:100CA00020B10068037C1BB1082070470720704703
:100CB00000230374417442611846704744060020C3
:100CC00070B504F00BFE104800240B210470447032
:100CD0000E4D817014206C602C706C70FFF769FDF4
:100CE00007211420FFF786FD1420FFF76DFD08484B
:100CF000046007211120FFF77DFD0548001F0068F3
:100D0000A860002070BD00004406002050000020B4
:100D1000081501402DE9F843DFF8709099F802308A
:100D20005BB350B3052902D20720BDE8F8834369BD
:100D30001BB3437C012B22D00027044600258846A4
:100D40001646284600F036F8684605F071F9C0B13D
:100D5000012101700E4944600968C0E90218C0E928
:100D600004769DF8000089F80100002000F024F8C6
:100D70001420FFF734FD2846D7E70820D5E70F46B3
:100D8000DBE70425002000F017F8F4E74406002014
:100D9000041501400649897839B130B1416921B162
:100DA00000210174022104F02BBF082070470000CD
:100DB0004406002000F002B800F008B872B60248FD
:100DC0000168491C016070476400002003490868FD
:100DD000401E086000D162B6704700006400002029
:100DE0002DE9F041064608680C46411C4FF0A0472B
:100DF0004FF0010506D005FA00F1C7F80815206884
:100E000003F0A9FD6068411C02D0002103F09AFDA7
:100E10003079204901EB4010A169007F002830683B
:100E2000C0F8241525D0607D227D31681043C1F8BB
:100E30006C05D4E900123068C0F80C15C0F8142510
:100E400024E0A068411C02D0002103F07BFDE06893
:100E5000411C05D08540C7F80855E06803F07BFDCC
:100E6000D4E902123068C0F80825C0F81015BDE8B2
:100E7000F081607D217D32680843C2F86C05D4E9B9
:100E800000123068C0F81425C0F80C15207D012828
:100E9000D7D0ECE7240600202DE9F041871C0E4650
:100EA00001250020FFF786FF124C20683060D4E94E
:100EB0000001401AA168091ABE1C06E001F0DAFF21
:100EC000D4E90001401AA168091A491C8E42F5D8DC
:100ED000A1682068084004EB8000C16841F003016C
:100EE000C1602068384420600020FFF765FF284675
:100EF000BDE8F0811008002030B482680468531CFB
:100F00008360A154D0E901128A4202D330BC03F0BD
:100F100052BB30BC70470000034803C8814201D176
:100F200001207047002070471008002070B58168CC
:100F300004468A7C002A4DD0C87C00284AD0121A68
:100F40000844D5B200F114016A1C1330FFF700FB0E
:100F5000A068C17C491EC174A068817C491E81744F
:100F60008DB308221C49206903F018FB204602F0CB
:100F7000DDFA8178C078814211D1A06817A2C17CC6
:100F8000431808212046143302F0ACFD204600F03F
:100F900013F929462046BDE8704001F05FB82046AD
:100FA00000F01EF9204600F007F9A0680BA2C17CF2
:100FB000431808212046143302F094FD2046BDE872
:100FC000704000F003B92069BDE87040044A03A1F5
:100FD00003F0E4BA70BD0000B411000025730000F6
:100FE0008C63000070B504468068827CC17C521A14
:100FF00012F0FF053AD0084400F115012A461430DA
:10100000FFF7A6FAA068817C491E8174204602F091
:101010008DFA8178C078814214D1A06814A2C17C75
:10102000431808212046143302F05CFD114A10A138
:10103000206903F0B3FA6D1EE9B22046BDE87040A6
:1010400001F00CB8204600F0CBF8204600F0B4F8D0
:10105000A06807A2C17C431808212046143302F07F
:1010600041FD2046BDE8704000F0B0B870BD000002
:1010700025730000906300002DE9F041044680686C
:101080000F4690F83D11C27C11F00106817CA1EB66
:101090000203DDB20AD07F2901D3002D7ED0A068E3
:1010A000C17C08440021077566B113E07F297CD21A
:1010B000002DF4D0831803F114012A46481CFFF7D1
:1010C00047FAECE7A068827C521CD2B28274A06816
:1010D000143281544DB3204602F028FA8178C0784A
:1010E00081420ED1A06832A2C17C4318082120465B
:1010F000143302F0F7FCA81BC1B2204600F0AEFF8B
:1011000021E0204600F06CF8A06829A2C17C4318B9
:1011100008212046143302F0E5FC204600F056F882
:101120000121204601F07AF80DE03EB1A068827CF2
:10113000521CD2B28274A068143281543A461DA166
:10114000206903F02BFAA168C87C401CC8742046B3
:1011500000F071FF0028204603D0BDE8F04100F008
:1011600089BF01F0D7FA00281FD0204602F0DEF92F
:101170000546C078A978401A401EC1B2204600F04A
:10118000FBFE204600F076FFE878A978401AC1B24D
:10119000204601F04FF82878401E00E005E0C1B27B
:1011A0002046BDE8F04101F039B8BDE8F08100000B
:1011B00025730000256300000069024A02A103F0C4
:1011C000EDB9000084630000257300000069024A45
:1011D000024903F0E3B900007B630000C81100007E
:1011E0000069024A024903F0D9B90000786300009F
:1011F000C81100002DE9F04F4FF000099DB00546E1
:101200004E464C46CDF8149000F0C8FD284601F03B
:10121000A7FBAA680C2308A901A8143202F062F8FF
:101220000346019840B15BB159A20221284602F061
:1012300059FC1DB0BDE8F08F284600F01BFFF8E711
:101240005A4859490027A1EB00080DF1200A8346AE
:101250001AE00FD3284600F0EEFE01005448089B28
:10126000009001D053A200E054A20221284602F0CF
:1012700039FCDEE70BEBC704606801685AF8290007
:10128000FFF79FF918B17F1CB7EBD80FE1D94FF0EA
:10129000000BCDF868B06068C7680FB1A9684860F6
:1012A000606809F101044FF0000880680DF15809E9
:1012B00006900198844237D25AF8240042A1FFF7E1
:1012C00080F950B35AF8240040A1FFF77AF920B30F
:1012D000424608F101081AAB2146CDF80090069865
:1012E00000F018FDB8F1000F1ED01A98E0B10168A7
:1012F0005AF82400FFF765F90028DAD11A98C16876
:1013000029B1A8F10101DDF818B0264605918068E1
:101310004FF00008641C0690CBE7A86890F83D11D8
:1013200041F0020180F83D11284600F031FE2846C8
:1013300000F081FE10B9284600F09CFEBBF1000FC2
:1013400012D0CDF800901AAB31465846059A00F0FD
:10135000E1FCA9681A980AEB860248600199C36803
:10136000891B284698470AE027B108AA2846019910
:10137000B84704E017A20221284602F0B3FBA86890
:1013800090F83D1121F0020180F83D1151E7000075
:101390000D0A6E6F74207465726D696E6174656498
:1013A0003A2025630D0A000004740000AC730000AD
:1013B000C1630000257325730D0A00000D0A257313
:1013C00025730D0A000000002D6800002D2D6865B2
:1013D0006C700000506C65617365207370656369A3
:1013E000667920737562636F6D6D616E642E0D0A90
:1013F0000000000000B589B020220D4901A8FFF7C8
:10140000A7F8062001900820029000208DF818000F
:1014100003200090064801231A4601A91C3802F057
:10142000D3FC002801D0FFF72BFC09B000BD000061
:10143000A86200002DE9F0410446C06890B00D4656
:101440000026C068324603A903F052FE18B10020FE
:1014500010B0BDE8F0816DB1039803F0F2FDA16812
:10146000D1F82C01401CC1F82C0100F00700012824
:101470007BD10126204602F059F8054680780128E4
:1014800004D9401EC1B2204600F0D4FE28780128BD
:1014900004D9401EC1B2204600F0E0FD2046FFF70F
:1014A0008BFE2EB132A20221204602F01BFB5CE033
:1014B0004FF000080023082207A9039803F0D2FD8B
:1014C000099804900898ADF814000798082700F0D0
:1014D00003008DF81880012802D002281BD039E0C3
:1014E00007983B46C0F3C2018DF81610C0F3800187
:1014F000C0F38316850A8DF81710B2000AA9039865
:1015000003F0B0FD2069009004AB32460AA92846DA
:1015100003F0EAFC1EE00798C0F3C201850D8DF8C8
:101520001610C0F380008DF81700082D01D22E464A
:1015300000E008263B4632460AA9039803F092FDD4
:101540003744AD1B04AA31460AA8236903F0BAFB4D
:10155000002DEAD1039803F074FDE068002203A98E
:10156000C06803F0C5FD0028A4D0012070E700008A
:101570004C6F7374204C4F4773202D20696E63723B
:1015800065617365204C4F47206261636B656E64D3
:101590002071756575652073697A652E0D0A0000E6
:1015A00008B50B46009102A2022102F09BFA08BD89
:1015B00025733A206D697373696E6720706172617B
:1015C0006D657465722E0D0A54727920272573207B
:1015D0002D682720666F722068656C702E0D0A00DA
:1015E000014802F067BC00008C62000030B4406823
:1015F00004682469A44630BC6047000010B5054863
:1016000002F080FC002803D0BDE81040FFF738BB93
:1016100010BD00008C6200002DE9FC41002704464B
:1016200000976B46012201A92046FFF7DFFF0098D3
:10163000002818D09DF804607F2EF2D8A56868783D
:1016400020B101285BD002285BD15FE0207EB04250
:101650000ED1A87C0028204607D0FFF7CBFD022141
:10166000204600F0B9F8BDE8FC8100F003FDF6E784
:10167000092E1BD004DC002ED3D0082E04D11DE08F
:101680001B2E11D07F2E21D0FEF710FF0068805D49
:1016900010F03E0FC5D095F83D0100071ED531462C
:1016A0002046FFF7E9FCBCE701202DE095F83D015D
:1016B0000007B6D5204600F0A9F8B2E795F83D013D
:1016C0000007AED52046FFF731FCAAE795F83D01AB
:1016D0000007A6D52046FFF785FCA2E7A87C7F2857
:1016E0009FD2E87C2918401CE8740E75A068C17C64
:1016F00008440775A068817C491C817491E75B2EC2
:1017000001D06F708DE7022068708AE76F70A16862
:1017100091F83D010207A6D5413E0C2E81D2DFE8AB
:1017200006F007090E2D064C06500606065478E70B
:10173000012100E00021204601F000F871E7204679
:1017400001F0F4FE054601784078814203D1A87883
:10175000EA789042A7D0687981424FF00101204693
:1017600006D100F009FC6979204600F077FC01E021
:1017700000F054FDA068C17C491C15E0204601F032
:10178000D5FE054601788079401C814202D1A878B7
:10179000012888D001294FF00101204606D000F031
:1017A0005DFCA068C17C491EC1743AE700F042FDAF
:1017B0006979204600F032FDF3E7204600F0E8FBAF
:1017C0002FE7204600F00DFC2BE7421C62F30000DF
:1017D00081F83D0125E700008268022911700BD1D4
:1017E0008268002111758268D1748268917403A2A5
:1017F0000321036802F076B97047000025730000EA
:10180000002801D0FEF7D6BE704700002DE9F04F4A
:10181000A5B04FF000080546CDF82880CDF810801F
:1018200080684746817CC1F17F01C9B25FEA010B44
:101830007BD0C27C00F114019430FEF789FEA868C9
:101840000024C17C084480F89440FEF72FFE2090CD
:101850000168A8680C23C27C0244D27C895CC0F871
:101860003841AA6801F001090DA91FA8943201F0BE
:1018700039FD0D98FFF7C4FFC6B2A2461A940C9426
:101880001F9818B14844401EB8426AD8B9F1000FF9
:1018900001D0002605E00DA850F82700FFF7B0FFA3
:1018A000C6B200241BA822460090641C1AAB39461D
:1018B000504600F02FFA1A9800286BD001680DA846
:1018C000324650F82700FEF793FE00280C9802D00D
:1018D0000028E7D05EE0D8B11A980068FFF790FFC3
:1018E0000499C0B2884200D90490BBF1000F2BD0FC
:1018F00021A800900CAB42463946504600F00AFA47
:101900001A98006883190C9800688219002015E065
:10191000601E0A901A980068FFF772FFC0B2049028
:10192000801B584510DAC0B20DE07FE012F800C00D
:10193000614506D1401C10F0FF0010D0195C002951
:10194000F4D1834500D983461A98B4F101080C906C
:10195000A8D262A20421284602F0C4F81AE0FF20AF
:10196000EFE700241BA822460090641C1AAB3946FE
:10197000504600F0CFF9ECB31A98002856D0016811
:101980000DA850F82700FEF71CFE0028EAD11A988F
:10199000D0F808A0BAF1000F09D01A9838B11F99F1
:1019A0007F1CFFB201EB09008742FFF469AF0C987E
:1019B00000283BD00A98414640455DD19AF8000086
:1019C00038B11BA80A4600900CAB3946504600F0CF
:1019D000A1F90C980068FFF713FFB04206D00C98ED
:1019E0005A4600688119284600F07CFA2098A968B8
:1019F000026800E01DE0C87C0B181B7DD25CD2079A
:101A00001DD0897C884211D2284601F08FFDA9683B
:101A10008478C87C401CC874284601F087FD807813
:101A2000A04225D10121284600F0F8FB25B0BDE8F1
:101A3000F08F2AA20421284602F054F8F6E791F824
:101A40003D01C2070FD020F0010081F83D012021A7
:101A50002846FFF711FBA86890F83D1141F00101FD
:101A600080F83D11E2E720212846FFF705FBDDE77E
:101A7000284600F0FFFAD9E700212846049A03F02F
:101A80005BFD0DF16C090A9C0EE01AAB224639464B
:101A90005046CDF8009000F03DF91A98049A01687C
:101AA000284603F049FD641C4445EED917A20321E2
:101AB00028462B6802F016F8AB6816A208212846C3
:101AC000143302F00FF8284600F072FB0C985A46C7
:101AD00000688119284600F005FAA7E754616220E2
:101AE00066756E6374696F6E3A20636F6D6D616EBB
:101AF000647320636F756E746572206F76657266AD
:101B00006C6F7765642E0D0A000000000D0A2573C6
:101B10000000000025730000002803D08968012020
:101B200081F83C017047000070B5044640680D46DE
:101B300090F8280030B1A0680068FFF72BF908B1D1
:101B400008280CD1012685B1606902F0FDFC6168AE
:101B500000220831606902F019FB08B1062070BD4F
:101B6000606880F82960002070BD606890F82800E7
:101B700048B9074A0021A068FFF78EF8616800287D
:101B800081F82860F0D12046BDE8704003F0F9BE2E
:101B9000DD5A000070B5044640680D46026060687A
:101BA00000224360606880F82820606880F829205F
:101BB000606820220830FEF7CBFC2C61074A2946DA
:101BC000606902F0E3FA050005D1E06803F049FC22
:101BD000206903F046FC284670BD0000F15C00005F
:101BE0001A60C0681A4603F07ABB10B50446406913
:101BF00002F0AAFCA0680068BDE81040FFF7CAB870
:101C00007CB51A60044600691A4603F0A6FB05007D
:101C10001CD1606902F08CFCC0B9FF200090012348
:101C20006A4601A9206903F0E4FB78B9009801999C
:101C3000C2B2606902F0F6FB0546606890F82900C0
:101C400020B11DB92069009903F0C0FB28467CBD76
:101C50001CB51346CDE9001202A2022101F042FF99
:101C60001CBD000025733A20756E6B6E6F776E2079
:101C7000706172616D6574657220272573270D0A86
:101C800054727920272573202D682720666F7220D3
:101C900068656C702E0D0A002DE9F8431E46154646
:101CA00088460746002418E0786808EB04016B4674
:101CB0000268D2F80CC02A46E047009804442D1A66
:101CC00058B9B8680178032907D000BF90F83C11D3
:101CD0000029FBD0002180F83C11002DE4D1002E1A
:101CE00001D000983060BDE8F883000070B5084C62
:101CF000050009D010342168002907D00868206049
:101D0000496828468847F6E70834F4E770BD0000C4
:101D1000100600202DE9F05F1C460A9E15464FF084
:101D2000000959B180B3017839B342683146284679
:101D300090473068D8B12660BDE8F09F1449154837
:101D4000A1EB0008B5EBD80F11D2DFF84CA00026AC
:101D5000834609E00BEBC607786801685AF825004E
:101D6000FEF72FFC30B1761CB6EBD80FF2D3C4F8D7
:101D70000090E1E778682060DEE7406800EB021041
:101D8000016809B11860D7E7FFE7C3F80090D3E70F
:101D900004740000AC730000E80000202DE9F0415D
:101DA000856806460024287D002812D0A046FEF74C
:101DB0007DFB0746D0F8000004F1140104F1010492
:101DC000695CE4B2415CC90705D0002CF4D185F808
:101DD0001480BDE8F081641E14F0FF040FD0A87CCD
:101DE000021B04F11400291805F11400521CFEF71F
:101DF000AFFBB168887C001B8874B168C874B26896
:101E00003D68937CD01813300446002102E0491C41
:101E1000C9B2401E0778EF5DFF07F8D18442D8D0E1
:101E20005B1A143302F80380B268907C401A9074F5
:101E3000B168C874CDE700002DE9F05F264841681D
:101E4000F1B3DFF898B00E688146DBF80040876890
:101E50008078E11B21F07F45ED1CB0B9DFF8808070
:101E60004FF48030C8F84403C8F804031120FEF78B
:101E7000A0FC1120FEF7A8FC4FF0010AC8F800A052
:101E80002F2002F073F889F802A0B54200D235463F
:101E9000124BE8193C3320F07F401860DBF800104B
:101EA0005A46091B21F07F41001B20F07F40C91CCE
:101EB00081420FD9106818602F2002F057F800E017
:101EC00004E0BDE8F05F1120FEF789BCBDE8F05FDB
:101ED00003F004BDBDE8F09F500000200415014050
:101EE000001001402DE9F0410446806815460F4678
:101EF000827CC17C531A2A44DEB27F2A37D8002D57
:101F000035D0084400F1140105F114021044721C8C
:101F1000FEF71EFBA0682A46C17C084439461430EF
:101F2000FEF716FBA0681430FFF76AFCA16811A247
:101F30008874A068C17C431808212046143301F03E
:101F4000D1FDA068C17C2944C174204600F073F81B
:101F500018B9204600F0DEFB10B1204600F08AF8E8
:101F6000002E04D02046BDE8F04100F021B9BDE8C4
:101F7000F081000025730000002904D00A460069A2
:101F800001A102F00BBB70471B5B256442000000FF
:101F900070B5054601F0CAFA0446007861788842B7
:101FA00003D1A078E17888421AD0E178A078814204
:101FB00004D9081AC1B22846FFF7DEFF20786178FD
:101FC000884205D9401AC1B2284600F047F804E01B
:101FD000081AC1B2284600F021F9A868817CC174B2
:101FE00070BD70B5054601F0A1FA0446017880790C
:101FF000401C814202D1A07801281BD0A078012882
:1020000004D9401EC1B2284600F014F92078A17905
:10201000884206D9401A401EC1B2284600F01EF878
:1020200005E0081A401CC1B2284600F0F7F8A9687C
:102030000020C87470BD10B504460068FFF7E0FBCF
:102040000146A068C27C407B1144B1FBF0F200FB6A
:10205000121008B1002010BD012010BD002904D0CD
:102060000A46006901A102F099BA70471B5B25641A
:10207000440000000069024A024902F08FBA0000E1
:102080007E630000C81100002DE9FC5F00260446B5
:102090008DF8046080683546B046B14680219430A2
:1020A000FEF77DFA4149206902F078FA206902F0D2
:1020B00082FA002740F2E73B4FF47A7A6B4601221E
:1020C00001A92046FFF792FA0098D8B19DF80400C4
:1020D0001B2806D0A16891F894101B29EED1522834
:1020E0001CD0A26808F19401505408F1010000F0DE
:1020F000FF08B8F1090F08D9A168042081F894906D
:10210000BDE8FC9F584601F077FF00980028D5D124
:102110007F1CBFB25745D1D30D20F1E7A16808F16C
:1021200094004A4601F80090A16891F895005B2858
:1021300003D081F894200B20E2E702206FF02F07F4
:102140000AE000BF05EB850507EB4505401C2B4465
:10215000C0B29DB2802808D200F19403CB5C3B2B27
:10216000F0D1401CC0B2802809D30C20C8E700BFC2
:1021700006EB860607EB460633449EB2F1E700F114
:102180009403CB5C002BF3D1FA20FA2E01D908720C
:1021900000E00E72FA2D02D9A168887201E0A068F1
:1021A0008572A06880F894200020A9E79C63000055
:1021B00070B5054601F0BAF904468078E1788842A6
:1021C00001D1012600E000262846FFF734FF18B9A8
:1021D000284600F09FFA10B12846FFF74BFF1EB1CA
:1021E00060782178401A12E0E078A178401AC1B2F4
:1021F000284600F01FF820786178884206D9401AF6
:10220000C1B22846BDE8704000F008B8081AC1B253
:102210002846BDE87040FFF721BF0000002904D028
:102220000A46006901A102F0B9B970471B5B256439
:1022300043000000002904D00A46006901A102F011
:10224000ADB970471B5B2564410000000E4910B515
:102250000A784C780023A24212D0521CD2B20A70E3
:10226000022A00D10B70084A0B780C3252F8232056
:1022700002608868104420F07F408860012010BD13
:102280000360002010BD0000500000202DE9F8433D
:1022900080461F4615460E4600240D4801F083F97E
:1022A00038B11120BDE8F88306EB043002F0E6FEF9
:1022B000641CAC42F8D1064801F060F92B46324666
:1022C00002214046009700F04DF80020EAE70000A8
:1022D0006C00002070B516460C46054601F06EFDF8
:1022E00030B12846BDE870400022114601F022BC02
:1022F000032C05D028463168BDE87040FFF750B97F
:10230000102200217068FEF782F904460A2200219B
:10231000B068FEF77CF9024621460023074802F028
:1023200043FA002809D003F0E1F803462846BDE847
:10233000704003A2022101F0D5BB70BD1401002042
:102340006E72665F6673746F726167655F657261F6
:10235000736528292072657475726E65643A20254C
:10236000730D0A002DE9F04186B004468068DDF85F
:1023700030801D4616460F4600280CD014216846B2
:10238000FEF70DF9CDE902658DF80070CDF81080EB
:10239000A1686846884706B0BDE8F08170B514466C
:1023A0000D46064601F00AFD30B13046BDE87040EA
:1023B0000022114601F0BEBB012D06D030466168F7
:1023C000BDE8704004A2FFF743BC3046BDE8704052
:1023D00001A1FFF7E5B80000666C61736861726582
:1023E0006100000038B5044601F0E8FC30B1204639
:1023F000BDE838400022114601F09CBB044920464C
:102400000A690092CB6803A2082101F06BFB38BD7A
:1024100014010020626567696E3A2025782C2065DA
:102420006E643A2025780D0A00000000F8B51546C4
:102430000C46064601F0C2FC30B13046BDE8F8401B
:102440000022114601F076BB032C05D03046BDE8D2
:10245000F8400CA1FFF7A4B8102200216868FEF72D
:10246000D6F80C4C10220021E060A868FEF7CFF8E7
:102470002061009008A208213046E36801F032FB99
:10248000F8BD0000666C61736861726561207365F8
:102490007400000014010020626567696E3A20250F
:1024A000782C20656E643A2025780D0A0000000023
:1024B0002DE9F05F17460E00814670D013B1F9B2D6
:1024C000FFF7ACFE0024FDF7F1FF8246006800E054
:1024D000641C315D415CC907FAD100253046FFF725
:1024E0008FF9D9F80810001B4A7BD11B814228D3F1
:1024F00006EB040805E000BF18F805100A290CD007
:102500006D1C8542F8D33119D9F8100002F046F855
:102510004846BDE8F05FFFF7ADBDD9F8100002F006
:102520004AF8414600232A464846FFF7B5FB2C44AB
:102530004846641CFFF79EFDF9B24846FFF76EFE61
:10254000E1E78B46DAF8001006EB040818F80500FE
:102550000B5CDB0702D0AB460A2804D0E819904296
:1025600001D26D1CF2E7D9F8100002F024F84146C0
:1025700000235A464846FFF78FFB5C44DAF8000018
:1025800000E0641C315D415CC907FAD14846FFF7A1
:1025900071FDF9B24846FFF741FE9EE7FFE7BDE84F
:1025A000F09F000030B4014644681148032342689C
:1025B000008803EB00402CB1032A16D330BC0D4930
:1025C00002F06CBB0B78012B09D0022B0DD1032A32
:1025D0000BD3D1E9023208A130BC02F06ABB032A56
:1025E00003D3D1E9023212A1F6E730BC70470000F4
:1025F000580100208C6B00002D2D3E204576656E25
:10260000742072656365697665643A2065726173EA
:10261000656420256420706167652066726F6D2097
:102620006164647265737320307825782E00000031
:102630002D2D3E204576656E742072656365697642
:1026400065643A2077726F7465202564206279741E
:1026500065732061742061646472657373203078DF
:1026600025782E002DE9F041C0B00F4680464FF48A
:1026700080751E46144629466846FDF790FFAC4219
:1026800000D92C4623466A463946144802F0E4F83D
:1026900028B102F02BFF034611A2022106E0682EAA
:1026A0000AD0732E05D16B4616A20821404601F0D0
:1026B00019FA40B0BDE8F08100256E4606E0735D72
:1026C00012A20821404601F00DFA6D1CA542F6D376
:1026D0000BA20821404601F005FAEAE714010020A8
:1026E0006E72665F6673746F726167655F72656153
:1026F0006428292072657475726E65643A202573AA
:102700000D0A000025730D0A0000000030782578BE
:102710002000000010B504460068FFF771F801467C
:10272000A068827C407B1144B1FBF0F200FB1210E8
:1027300008B1002010BD012010BD0000FEB500262C
:1027400004460096019602968068E9B3D0E94D12DE
:102750008A4271D0D0F8300100286DD02046FFF7B2
:1027600040FCA068D0F83851002D68D00023092221
:102770006946284602F076FCA1689DF8085000984A
:10278000C1F83801A06800230922D0F83801694651
:1027900002F068FCA1689DF808200923D1F83801EF
:1027A0001431521C02F05EFCA1689DF80800C87448
:1027B000A1689DF8080088749DF80800A84202D21C
:1027C0002046FEF7F9FC00E00BE0A3682BA20821ED
:1027D0002046143301F086F92046FFF72CFC60BB3D
:1027E00042E0D0F83801002846D02046FFF7F9FB38
:1027F000A06800230922D0F83801694602F032FCB3
:10280000A0680199C0F83811A0680029857CB9D169
:102810009430FEF7F5FF0028A06805D000F1940180
:102820001430FDF7DCFE00E00675A0681430FEF7FA
:10283000E7FF8DF80800B7E71EE01AE0FFE7143065
:10284000FEF7DEFF10F0FF05A068D0F83011C0F8E9
:102850003811A06805D000F114019430FDF7BFFED7
:1028600090E780F894608DE72046FFF753FF00283B
:1028700002D02046FFF7FEFBFEBD000025730000DE
:10288000FEB50D46816804460026D1F8300138B304
:1028900000230922694602F0E5FB0195A0680023A8
:1028A0000922D0F83001694602F0E2FB0196A068E7
:1028B000D0F830110091807C8DF80800A068C0F835
:1028C0003051002309226946284602F0D1FBA16855
:1028D000092328468A7C1431521C02F0C9FBFEBD34
:1028E000C1F83051A068C0F8345100960196A06834
:1028F000807C8DF80800E4E7FEB504468068D0F8D7
:102900003461002E28D0002309226946304602F0A7
:10291000A9FBA16801980025C1F834010095019533
:102920002B46092269463046029502F0A1FB30464B
:1029300002F065FBA168D1F8340170B100230922CF
:10294000694602F08FFB0095A06800230922D0F8A9
:102950003401694602F08CFBFEBDC1F83051FEBD6A
:10296000FEB5044680681430FEF74AFF10F0FF05FC
:10297000A0684FF00006C0F8386133D0A068D0F8E6
:102980003001E0B100230922694602F06BFB9DF89B
:102990000820AA4213D1A068092300F19401D0F8BD
:1029A0003001521C02F05EFBA06800F1940114306B
:1029B000FDF707FE0028A06880F8946012D000267A
:1029C0000A352946606902F0EAFA0100204604D07F
:1029D00003B0BDE8F040FFF753BFFFF78DFF761C53
:1029E000082EEED3FEBD0000014941600020704773
:1029F000406500002DE9FC5F0E008346DDE90C47D1
:102A0000C6F1000098469246814600D4084601254A
:102A100003E000BF90FBFAF06D1C5045FADAA845C0
:102A200000D9454624B1002E01DB780700D5641E8D
:102A3000B80702D5B8F1000F0AD0F80708D13CB1A9
:102A4000A54205D220215846641EFEF755FAF6E746
:102A5000002E02DA4E462D2102E0780703D52B2105
:102A60005846FEF749FA07F0030002280BD1B8F1E7
:102A7000000F08D13CB1A54205D230215846641E52
:102A8000FEF73AFAF6E7CDE90047434652463146AB
:102A9000584603F073FABDE8FC9F000070B50E467F
:102AA0000446007918494FF4A27501EB4010017FEC
:102AB0002068A1B14FF4887102F038FD4FF4907195
:102AC000206802F033FD4FF49271206802F02EFD71
:102AD0002946206802F02AFD0C49206809E04FF4DD
:102AE0008E7102F012FD2946206802F00EFD0849A1
:102AF0002068C0F80413206801F03DFB3146BDE8B2
:102B0000704001F01CBB00002406002010030200EE
:102B10008000020002480068002800D001207047B1
:102B20006C0000200268134602E08A4204D012685A
:102B3000002AFAD10B600160704700002DE9F047D0
:102B4000394E002780463D46DFF8E090D6F804A0D5
:102B500057E003D00446D0F81C8035E099F80020F7
:102B600002EB4201521CD2B289F8002009EBC101EC
:102B700099F80230091D9A4201D189F8005048683D
:102B80000A780446012A12D0022A02D0032A3BD135
:102B900008E003F005F800B10127257434E005745E
:102BA000C06900E070680028F9D170602CE0207CDA
:102BB00050BB88686060C868A0600869E0604869C8
:102BC000A061F07800B165606268B168184B501A76
:102BD00020F07F40984202D2A168084406E0881A9B
:102BE000A16820F07F40814202D9081A206000E0ED
:102BF000256065600120A56020742046E56102F033
:102C0000B1FFB8F10000A4D199F8001099F80100C3
:102C10008142A3D117B97168514502D00120BDE8A6
:102C2000F0870020FBE70000500000204406002051
:102C3000FFFF7F001CB5012905D0816891F83D1187
:102C4000C1F3400131B102B00022BDE8104011468D
:102C500000F070BF536804A1CDE90013136808A207
:102C6000022100F03FFF1CBD20756E6B6E6F776E0A
:102C700020706172616D657465723A200000000019
:102C800025733A257325730D0A0000002DE9F74FCF
:102C900082B0154602980F004FF00006C068007A17
:102CA000009058D0072248A12868FDF7A1FC78B110
:102CB000082247A12868FDF79BFC002830D02B682C
:102CC00045A2029805B00221BDE8F04F00F00ABF0E
:102CD000012F02D0022F08D008E0029805B044A2CC
:102CE000BDE8F04F022100F0FDBE0126DFF818819B
:102CF000002400BF58F824100A226868FDF778FC09
:102D000010B1641C052CF5D3052C06D004F0FF0986
:102D10000224002E54D0002419E03CA26B68D0E7B6
:102D2000012F4FF00009F6D0012449E04A46214620
:102D3000009800F0BFFB48B90021204602F0B2F82D
:102D400003463AA20221029800F0CCFE641C02F075
:102D500057F8A042EAD805B0BDE8F08F4FF0000A5E
:102D600055F824B002F04CF88046002609E0002116
:102D7000304602F097F820225946FDF739FC90B111
:102D8000761C4645F3D3464506D155F8243030A28B
:102D90000221029800F0A6FE4A465146009800F033
:102DA00089FB10B10BE0B246EDE70021504602F07E
:102DB00079F803461DA20221029800F093FE641CDC
:102DC000BC42CBD3C7E70000656E61626C65000052
:102DD00064697361626C6500556E6B6E6F776E200F
:102DE0006F7074696F6E3A2025730D0A0000000041
:102DF00042616420706172616D6574657220636FF9
:102E0000756E742E0D0A000070000020556E6B6EFA
:102E10006F776E207365766572697479206C65765C
:102E2000656C3A2025730D0A000000004C6576653C
:102E30006C20756E617661696C61626C6520666F8D
:102E400072206D6F64756C653A2025730D0A000061
:102E5000556E6B6E6F776E206D6F64756C653A257D
:102E6000730D0A00C068012141727047C0680021DB
:102E70004172704770B588B0214800F08DFB204842
:102E8000001F064600F088FB1E4DD5E9014105E014
:102E9000C0F3891202EB9050641C044404EA010060
:102EA00005EB8000C0688207F2D000200DF1080217
:102EB00004EA010305EB8303641CDB6842F820305D
:102EC000401C0228F4D3029800F00300012808D027
:102ED00002280AD10298032101EB905004EB9004E0
:102EE00003E00298C0F3831004443046002101AA95
:102EF000FDF795FA002800D06C6008B070BD0000A6
:102F0000280C0020100800202DE9FE4F814601F01A
:102F100077FF0746D9F80C0090F80880407A20B96E
:102F20001FA20221484600F0DDFD22A324A20821B1
:102F3000484600F0D7FD2AA20821484600F0D2FDFD
:102F4000002429E001231A462146404601F062FF91
:102F50008246002301222146404601F05BFF0546E0
:102F6000032801D2064600E003260121204601F095
:102F700099FF0346AE4201D225A200E017A22548E0
:102F800050F8261050F82A008DE8070022A20821E8
:102F9000484600F0A7FD641CBC42D3D3BDE8FE8FB9
:102FA0004C6F6773206172652068616C7465642181
:102FB0000D0A00006D6F64756C655F6E616D650074
:102FC000252D323473207C2063757272656E7420F7
:102FD0007C206275696C64696E200D0A0000000037
:102FE0002D2D2D2D2D2D2D2D2D2D2D2D2D2D2D2D11
:102FF0002D2D2D2D2D2D2D2D2D2D2D2D2D2D2D2D01
:103000002D2D2D2D2D2D2D2D2D2D0D0A00000000E7
:103010002A00000070000020252D323473207C200F
:10302000252D3773207C20257325730D0A000000A1
:1030300008B501F027F808B1FDF722FE002001F0E5
:1030400043F85B480168C1F300410029FAD0FDF75D
:1030500037FE08B1FDF714FE002001F089FE08B12B
:10306000FDF70EFEFEF7C6F9524C032560680328F3
:1030700017D3208850A105EB004001F00FFE6068D7
:1030800003280ED3208853A105EB004001F006FE73
:103090006068032805D3208854A105EB004001F0A7
:1030A000FDFD5F4900225F4801F0A5FB08B1FDF777
:1030B000E7FD5C4802F010FB4FF0102040694FF034
:1030C0008050016940696068032807D35649208809
:1030D0000A6805EB004055A101F0E4FD0026042339
:1030E000514A4FF478314F48009601F0DDFB08B1AA
:1030F000FDF7C6FD4B4802F0F9FF6068032810D3C6
:10310000208850A105EB004001F0C8FD606803284D
:1031100007D32088444A05EB0040121D4BA101F063
:10312000C1FD414A0C23121D4FF47C313D480096ED
:1031300001F0BAFB08B1FDF7A3FD3A4802F0D6FF53
:103140006068032829D320883EA105EB004001F0E8
:10315000A5FD6068032820D3208842A105EB00402C
:1031600001F09CFD6068032817D3208848A105EB77
:10317000004001F093FD606803280ED320884FA122
:1031800005EB004001F08AFD6068032805D3208824
:10319000534905EB004001F081FDFEF72FFA00BF17
:1031A00001F074FC00B920BFFEF71AFAF8E700003E
:1031B00018040040580100206673746F72616765DF
:1031C000206578616D706C652073746172746564DC
:1031D00021000000536F6674446576696365206E54
:1031E0006F742070726573656E742E00496E697419
:1031F00069616C697A696E67206E72665F66737466
:103200006F726167655F6E766D6320696D706C6566
:103210006D656E746174696F6E2E2E2E0000000055
:103220004C650000140100204000002057726974B2
:10323000696E67202225782220746F20666C617386
:10324000682E0000446F6E652E000000577269748E
:10325000696E67202225732220746F20666C61736B
:10326000682E0000557365202772656164272074FD
:103270006F20726561642062797465732066726F75
:103280006D2074686520666C6173682E0000000014
:10329000557365202777726974652720746F2077CE
:1032A0007269746520627974657320746F20746824
:1032B0006520666C6173682E000000005573652000
:1032C0002765726173652720746F2065726173656D
:1032D00020666C6173682070616765732E00000062
:1032E000D06B00002DE9FF4F4FF0000881B014466D
:1032F0008B468146C246C0F800802578002D71D0EB
:10330000FDF7D4F800900068405DC00702D004F8D3
:1033100001AB84E0D9F800008300401CC9F800002C
:103320004BF8034015E02678002E78D0B8F1000F56
:1033300005D1222E10D0272E0ED05C2E1ED0B045E7
:1033400014D12046FEF75CFA0246611C2046FDF7C8
:10335000FFF84FF00008E6E72046FEF751FA024674
:10336000611C2046FDF7F4F8B046DCE7B8F1000F29
:1033700050D05C2E61D16078404508D12046FEF7E0
:103380003FFA0246611C2046FDF7E2F855E030287E
:103390001CD100270225605DA0F13001072906D865
:1033A0006D1C41EAC701EDB2CFB2052DF3D3022D5A
:1033B0000CD92046FEF724FA421B61192046491E0B
:1033C000921CFDF7C5F804F8017BACE778281ED104
:1033D00000270225605DA0F13001092903D841EAE8
:1033E00007100DE021E0A0F16101052901D857384F
:1033F00004E0A0F14101052907D8373840EA071059
:103400006D1CEDB2C7B2042DE4D3022DD1D8B8F1B2
:10341000000F12D100980068805DC0070DD0D9F868
:10342000001004988142FFF468AFD9F800204046AC
:103430004BF822A005B0BDE8F08F641C73E72DE9BE
:10344000F047C7880446181D16468946B0FBF7F1B9
:10345000B0FBF7F207FB12009A193A44D21CB2FBF8
:10346000F7F2DDF820A001E02468491E0029FBD115
:103470003D1A8846B54216D818E0BAF1000F05D0BB
:10348000211809EB08002A46091D04E0204409EB35
:1034900008012A46001DFDF75BF800202468761B12
:1034A000A844B74201D9354600E03D46002EE4D19C
:1034B000BDE8F08770B5144600230D4606461A464F
:1034C00001F0A8FC844201D9002070BD22462946A3
:1034D000304601F0C5FC012070BD000030B5024649
:1034E00069B101F08DFC0021084C0BE001EB4103B8
:1034F00004EB830315685B88AB4202D111600020A6
:1035000030BD491C8142F1D3052030BD2801002087
:1035100010B50C460021E16061600349A160012102
:1035200001F0C0FC206010BD7066000070B58468BA
:10353000006804F10805FEF763F9C1B2A971E07CE7
:103540006A790844B0FBF2F302FB13035B1C2B7097
:10355000E07C0844B0FBF2F35B1CAB70A07C084439
:10356000B0FBF2F35B1CEB70A07C0844B0FBF2F103
:1035700002FB1101491C6970284670BD08B5002185
:103580006A46FCF762FE009808BD08B500216A464D
:10359000FCF7F7FE009808BD08B501216A46FCF764
:1035A00031FF009808BD08B501216A46FCF740FECE
:1035B00008BD08B501216A46FCF7D6FE08BD70B506
:1035C000044600252846FDF7F5FB21686268086877
:1035D00090420ED9401E08600178238AE26801FB00
:1035E0000325227A2168101AC0B20A79824200D2D9
:1035F00008710020FDF7E0FB284670BD70B5054658
:103600000C460020FDF7D6FBE868298A201AB0FB9B
:10361000F1F12A681068431C13600170BDE8704026
:103620000020FDF7C9BB10B530B1017A42680368CC
:10363000891AC9B21A6006E00E2010BD03681A6824
:10364000541C1C601170491EC9B2F7D200680021D9
:103650000171084610BD000070B51546826892F8E9
:103660003D41C4F3400424B11A46294600F062FAF1
:1036700006E039B1516804A20B68022100F032FA69
:10368000012070BD002070BD25733A206261642066
:10369000706172616D6574657220636F756E740D13
:1036A0000A00000010B5044602290CD1A06890F869
:1036B0003D01C0F3400030B120460022BDE810407B
:1036C000114600F037BA064A06A1206900F066FFED
:1036D000034A2069BDE81040093202A100F05EBF34
:1036E00098630000257300001CB5012905D002294C
:1036F0000BD014D94FF0010112E002B04FF00002DC
:10370000BDE81040114600F015BA53680849CDE9EC
:103710000013136807A2022100F0E4F91CBD002188
:1037200002B00023BDE810401A46FFF795BF000025
:10373000AC63000025733A257325730D0A00000061
:103740003EB50446012901D0012100E000210023FB
:103750001A46FFF781FF002818D1E068C06801F021
:1037600023FDC0B2642110FB01F2E168C9688968D9
:10377000B2FBF1F2D2B20092CDE90101A06804A23D
:103780000821D0F82C31204600F0ACF93EBD0000F5
:103790004C6F7374204C4F47733A2025750D0A4DBA
:1037A0006178204C4F472071756575652075746987
:1037B0006C697A6174696F6E3A2025752525205BE6
:1037C00025752F25755D0D0A0000000010B5044613
:1037D000012901D0012100E0002100231A46FFF752
:1037E0003BFF002808D1A168C1F82C01E068C0683F
:1037F000BDE8104001F0DBBC10BD00007CB51446F4
:103800000546012903D0022908D0012107E002B0B2
:103810000022BDE87040114600F08CB90021002361
:103820001A46FFF719FF002809D161680448CDE95D
:10383000000104A202212846236800F053F97CBD50
:10384000AC63000025733A257325730D0A00000050
:1038500010B50446012901D0012100E00021002318
:103860001A46FFF7F9FE002806D1A06890F83D112E
:1038700021F0040180F83D1110BD10B50446012966
:1038800001D0012100E0002100231A46FFF7E4FEE9
:10389000002806D1A06890F83D1141F0040180F89D
:1038A0003D1110BD7CB514460D460646022901D9CE
:1038B000012100E0002100231A46FFF7CDFE002879
:1038C00012D1022D06D0B06890F83D0100070CD54A
:1038D0000AA30BE061680A48CDE9000109A20221B0
:1038E0003046236800F0FEF87CBD09A302B03046E4
:1038F000BDE8704007A2082100F0F4B86F6E000028
:10390000AC63000025733A257325730D0A0000008F
:103910006F6666004563686F207374617475733AEF
:103920002025730D0A00000010B50446012901D0BE
:10393000012100E0002100231A46FFF78DFE002838
:1039400006D1A06890F83D1121F0080180F83D11E2
:1039500010BD10B50446012901D0012100E000216D
:1039600000231A46FFF778FE002806D1A06890F8D9
:103970003D1141F0080180F83D1110BD7FB50446AE
:10398000012901D0012100E0002100231A46FFF7A0
:1039900063FE002827D1A0680026D0F83451F5B185
:1039A00001E0082E1BD20023092201A9284601F0BC
:1039B00059FB9DF80C20A168092328469431521C1C
:1039C00001F050FBA068334694300090029D761CB5
:1039D00005A20821204600F085F8002DE1D1A1685C
:1039E000002081F894007FBD5B2533645D20257342
:1039F0000D0A00007CB515460446012903D00229B2
:103A000017D9012116E0A16801F10C020D3102F075
:103A100035F800281ED0A16850200FA24873A16875
:103A20001820087302B02046BDE87040042100F061
:103A300059B8002100231A46FFF70EFE002809D1CD
:103A400069681548CDE9000114A2022120462B68BF
:103A500000F048F87CBD00006E6F20726573706FD7
:103A60006E73652066726F6D207465726D696E612C
:103A70006C2C20617373756D656420383078323436
:103A80002063686172732073637265656E20736969
:103A90007A650D0A00000000AC63000025733A252A
:103AA0007325730D0A00000010B50446012901D0EA
:103AB000012100E0002100231A46FFF7CDFD002878
:103AC0000AD1064A06A1206900F068FDA1685020CD
:103AD0004873A1681820087310BD0000A663000099
:103AE000257300000FB438B5044607A80090A068FD
:103AF00090F83D21520717D5C27B8A4214D0B0F806
:103B00000F50204602F0CAFA6A462069069900F072
:103B10005EFDE9B2204602F0C1FA290A204602F011
:103B20009FFA38BC5DF814FB6A462069069900F0DC
:103B30004EFDF6E72DE9F04F804689B016460C465B
:103B40008948FDF75DFE054687485438FDF758FE65
:103B5000281A1FFA80F9844884A241380090D8F8C6
:103B600008000821406803684046FFF7BBFFD8F80B
:103B7000080040680068FDF743FE05467A48413872
:103B8000FDF73EFE284482B2D8F8080000234068C2
:103B900041684046FEF78CFC76A208214046FFF7BC
:103BA000A1FF16B30CB300251DE000BF05EB450ACD
:103BB00004EB8A0BDBF80400FDF722FE074654F8FD
:103BC0002A00FDF71DFE391849450BD9DBF8040022
:103BD000FDF716FE074654F82A00FDF711FE38449B
:103BE0001FFA80F96D1CB542E0D35F485438FDF7E9
:103BF00007FE4844801C1FFA80F95B4800904B4642
:103C00005FA208214046FFF76DFF09F1030087B26C
:103C1000079000233A465CA14046FEF749FC002C81
:103C200052D000254EE000BF05EB450A04EB8A0B9D
:103C300054F82A00DBF804306BB350B34A4957A25A
:103C40005439CDE9001008214046FFF74BFF09F138
:103C500002000090DBF80400FDF7D2FD074654F89F
:103C60002A00FDF7CDFD07443F485438FDF7C8FD55
:103C700039180098401A801EC1B24046FEF7CEFAAD
:103C80003A224949D8F8100000F088FC0098401CFE
:103C90000AE0009301E040B100904B4638A20821B1
:103CA0004046FFF71FFF079887B2DBF8081029B1DD
:103CB00000233A464046FEF7FBFB02E04046FEF793
:103CC000D9F96D1CB542AFD3D8F8080040688068B8
:103CD000002845D0814600200446064603AD0290E8
:103CE0003246761C02AB012148460095FEF712F8D9
:103CF000029850B10068FDF783FDA042F0D9029808
:103D00000068FDF77DFD84B2EAE7012E28D027A2E6
:103D100008214046FFF7E6FE00273A467F1C02AB2B
:103D2000012148460095FDF7F5FF0298002817D0BD
:103D3000A11C8EB200680090334611A208214046B3
:103D4000FFF7D0FE0298F61CB2B2416821B1002301
:103D50004046FEF7ADFBE0E74046FEF78BF9DCE7B7
:103D600009B0BDE8F08F0000D5630000257325730E
:103D7000000000004F7074696F6E733A0D0A000006
:103D80002020252D2A733A0053686F7720636F6DCA
:103D90006D616E642068656C702E000020202573B4
:103DA0002573257300000000B41100005375626391
:103DB0006F6D6D616E64733A0D0A0000806890F853
:103DC0003D01C0F3400070472DE9F0411E46054615
:103DD000069F00F011F804000CD15EB13946E86886
:103DE00000F0C4FD002802DA0420BDE8F081E86894
:103DF000012141722046F8E770B50446C0681546B7
:103E000023464461606802681668234AB047002868
:103E100040D1606901F013F900283BD1A168C1F8D5
:103E20003001A168C1F834014FF4A071A068FCF71B
:103E3000B6FBA068012180F83C11A268184B92F8EB
:103E40003D0165F3820082F83D01A26840F0080060
:103E500082F83D01A068134A0170A16850204873A0
:103E6000A1681820087300210C48D21A07E000BF8F
:103E700003EBC1046468246840F82140491CB1EB9D
:103E8000D20FF5D3072A04D9D108074B0422FCF737
:103E900011FB002070BD0000191B0000E80000208D
:103EA000AC73000004740000755A00000023FDF795
:103EB000F3BE000010B5044680680078D8B1012830
:103EC00019D0022817D12046FDF7A6FB0021204675
:103ED000FDF7B0FA78B10AA2032120462368FFF764
:103EE00001FEA36806A2082120461433FFF7FAFD5D
:103EF0002046FEF75DF92069BDE8104000F05BBB8D
:103F00002573000070B5044680680078012801D050
:103F1000082070BD606801688A680021904705002C
:103F20000FD10821204602F0B9F80121204602F005
:103F300097F805A1206900F031FB02212046FDF72A
:103F40004BFC284670BD00000D0A0A0000F18040BD
:103F50000068002800D00120704708B500F18040BB
:103F6000002101600068009008BD000000283ED0DC
:103F70001F49204A096800BF00BF00BF00BF00BF43
:103F800000BF00BF00BF91422FD000BF00BF00BFE5
:103F900000BF00BF00BF00BF00BF00BF00BF00BF29
:103FA00000BF00BF00BF00BF00BF00BF00BF00BF19
:103FB00000BF00BF00BF00BF00BF00BF00BF00BF09
:103FC00000BF00BF00BF00BF00BF00BF00BF00BFF9
:103FD00000BF00BF00BF00BF00BF00BF00BF00BFE9
:103FE00000BF00BF00BF00BF00BF0138C3D1704792
:103FF000E00000200024F40000283ED01F49204AA1
:10400000096800BF00BF00BF00BF00BF00BF00BF06
:1040100000BF91422FD000BF00BF00BF00BF00BF54
:1040200000BF00BF00BF00BF00BF00BF00BF00BF98
:1040300000BF00BF00BF00BF00BF00BF00BF00BF88
:1040400000BF00BF00BF00BF00BF00BF00BF00BF78
:1040500000BF00BF00BF00BF00BF00BF00BF00BF68
:1040600000BF00BF00BF00BF00BF00BF00BF00BF58
:1040700000BF00BF00BF0138C3D17047E00000207F
:104080000024F40070B50E4C0025207808B1852579
:1040900013E00021A16061602161E1604FF0E02048
:1040A000D0F80001012610F0010F03D107210020F4
:1040B00000F045F8034806602670284670BD0000F1
:1040C000100600201805004070B5154D0446A8786C
:1040D00038B114B16168012088470020FCF76AFEFE
:1040E00015E00020FCF766FE24B10D482146103093
:1040F000FEF718FDE86850B94FF48270FFF72DFF06
:1041000002204107C1F80403064901200860E8685D
:10411000401CE860BDE870400020FCF74DBE000088
:10412000100600200800004000F01F02012191400D
:104130004009800000F1E020C0F880117047490775
:10414000090E002806DA00F00F0202F1E02282F8E0
:10415000141D03E000F1E02282F8001400F01F02B9
:10416000012191404009800000F1E020C0F8801258
:10417000C0F800117047000B40B270470121B1EB4D
:10418000507F01D101207047002070472DE9F04198
:1041900005460079164F904607EB40140E46E07E28
:1041A00010B10820BDE8F081707F20772846FCF729
:1041B00017FE5FEA080060603169216003D0317F3B
:1041C0002846FEF76BFC287907EB4010007F00289B
:1041D000286801D0082100E00421C0F80015002063
:1041E000E0752076A0750121E176A076DAE700007F
:1041F000240600202DE9F04105460079284E90461E
:1042000006EB40140F46207F18B10846FFF7B6FFB3
:1042100080B1626800234FF404704FF4017172B1F1
:104220002A7906EB4212127F002A2A6805D0C2F8CA
:10423000080304E01020BDE8F081C2F80813E27D15
:10424000B2B1227E7AB162685AB12A7906EB421283
:10425000127F1AB12968C1F8040302E02868C0F887
:1042600004131120E7E72761012384F8188005E093
:1042700084F817800020E76060762076287942462F
:1042800006EB40103946007F0028284603D0BDE8E1
:10429000F04100F06FB8BDE8F04100F017B8000041
:1042A000240600200179084A02EB411101220B7F0C
:1042B00001680BB14A6070474FF40173C1F80833CD
:1042C0000068426070470000240600202DE9F05F7E
:1042D00004460079264901EB4015A87E184302D117
:1042E000204601F03EFB68680028206806D04FF4A5
:1042F0000171C0F804130020BDE8F09F4FF4A276CE
:10430000314601F002F9B1464FF4927A4FF4847BC2
:104310005146206801F0F4F806465946206801F03D
:10432000EFF880464946206801F0EAF8074648EA77
:1043300007003043ECD056EA070007D12946206831
:1043400001F0EAFAE87D697E8842E1D80020E8754C
:104350000EB10320D0E70FB10F20CDE7A97E0120D9
:104360000029216801D00860C5E74860C3E7000064
:10437000240600202DE9F05F894604464FF4887535
:104380009A46904600260068294601F0CFF84FF47F
:10439000A2773946206801F0C9F82068C0F8349542
:1043A000C0F838852068BAF1000F14D0D0F8001298
:1043B00041F02001C0F800122179DFF8648008EB99
:1043C0004110406850B120684FF40471C0F80413E4
:1043D0003046BDE8F09F01210160EDE7AA46B946ED
:1043E0004FF4927B5146206801F09BF807464946FE
:1043F000206801F096F805465946206801F091F8CA
:10440000014647EA05000843ECD02379002208EB77
:104410004310C27501B10326002DD9D00F26D7E76E
:10442000240600202DE9F047054600793F4E9046CE
:1044300006EB40140F46207F18B10846FFF79EFE9A
:1044400030B1284600F074F820B11120BDE8F087A3
:104450001020FBE784F81680A7600027A782287940
:104460004FF0010806EB40143E46207F00282868E4
:1044700025D04FF49079494601F058F84FF4AC7AC2
:104480005146286801F052F82868A17DA268C0F85A
:104490004425C0F848152868C0F808806068F0B95D
:1044A0004946286801F03DF880465146286801F0E9
:1044B00038F858EA0001F3D058BBA7750FE04FF465
:1044C0008E7A514601F021F82868C0F8088021460C
:1044D000286801F0EFFB61684FF4807089B13046C5
:1044E000B4E75146286801F00BF810B9A08A484596
:1044F000F7D1A08A484505D02146286801F0DAFBAB
:1045000000E08146A08AA17D8842EAD3A08A48457E
:1045100001D10F26D1E75146286800F0F1FF0028AD
:10452000F9D02868C0F80C80C7E7000024060020F6
:104530000079044901EB4010807D002800D0012063
:10454000704700002406002070B504460079114928
:10455000002601EB401520682A7FC0F800656868D6
:1045600088B1207901EB4010007F0028206801D03D
:10457000094901E008498C39C0F808132068FFF7A1
:10458000FAFDFFF7D1FD204601F01EF8EE766E60D1
:1045900070BD000024060020100302000FB408B50F
:1045A0000399002904D004AA00926A4600F00FF88B
:1045B00001B05DF814FB10B582680446002A05D0EE
:1045C000D4E90403216898470020A06010BD2DE9BC
:1045D000FC4791460C00804676D014F8011B39B197
:1045E00025290ED04046FCF787FC20780028F4D11E
:1045F00098F80C00002867D04046BDE8FC47FFF75C
:10460000DABF0020012221782B291BD02D2902D0CE
:10461000302908D102E040F0010001E040F0020042
:10462000641C002AEFD100252A290ED02178A1F19F
:1046300030020A2A11D205EB850201EB4205641C07
:10464000303DF1E740F00400EAE7D9F800100B1D17
:10465000C9F800300968641C0D44217800232E2914
:104660000BD114F8011FA1F130020A2A05D203EB85
:10467000830201EB4203303BF3E76C290DD068293C
:104680000BD0692921D00BDC252918D0582931D02D
:1046900063290ED0642915D117E014F8011FECE747
:1046A000702969D0732932D075291BD0782909D196
:1046B00020E0D9F80000011DC9F80010017840463B
:1046C000FCF71AFC641C90E76CE0D9F800100A1D96
:1046D000C9F800200968CDE900500A224046FEF7DB
:1046E00089F9EFE7D9F800100A1DC9F80020096818
:1046F0000A2206E0D9F800100A1DC9F8002009684E
:104700001022CDE90050404601F038FCDAE7D9F834
:10471000001000270A1DC9F800200E68C00705D147
:1047200012E04046761C7F1CFCF7E6FB317800293E
:10473000F7D104E0202140466D1EFCF7DDFBBD42B1
:10474000C0D9002DF6D1BDE74EB13046FBF732FFA0
:10475000074604E0202140466D1EFCF7CDFBBD421C
:1047600006D9002DF6D103E04046761CFCF7C4FBC9
:1047700031780029F8D1A5E7D9F80000011DC9F862
:104780000010056830214046FCF7B6FB7821404612
:10479000FCF7B2FB08200021CDE9000103461022FE
:1047A0002946B0E7BDE8FC872DE9F0411F461546D4
:1047B00004000E4616D02068B8B1C5B16068026822
:1047C000501E304215D16A432046FCF708FA80B1EA
:1047D00020683B462A46D0F810C031462046BDE846
:1047E000F04160470E20BDE8F0810820FBE709207A
:1047F000F9E71020F7E720B119B101600B68114605
:1048000018470E20704700002DE9F04128B10168DB
:1048100019B1C969BDE8F04108470D4D0D480024A4
:10482000461B14270DE000BF04EB840005EB80005D
:10483000016829B1C969884710B10120BDE8F0813C
:10484000641CB6FBF7F0A042EED80020F6E70000AB
:1048500014010020280100202DE9F0411D461646D4
:1048600004000F4617D0B6B12068B8B1C5B10846EC
:10487000FCF7AFF9B0B12A4639462046FCF7AFF94C
:1048800080B120682B463246D0F808C03946204611
:10489000BDE8F04160470E20BDE8F0810820FBE74D
:1048A0000920F9E71020F7E72DE9F8431D46089F96
:1048B0001646884604000DD066B1206860B135B157
:1048C00060684068B5FBF0F100FB115030B1092081
:1048D000BDE8F8830E20FBE70820F9E74046FCF727
:1048E00078F990B13046FCF774F970B12A46414628
:1048F0002046FCF774F940B1009720682B463246F9
:10490000C76841462046B847E2E71020E0E770B5A7
:1049100041EA4201DDE904564FF0A04441EA830137
:1049200041EA052104EB800041EA0641C0F8001786
:1049300070BD1CB5002100910B4601220191FFF7CB
:10494000E6FF1CBD1CB500220B46009211460192E9
:10495000FFF7DDFF1CBD1CB5002100910B460122B5
:1049600001911146FFF7D3FF1CBD00002DE9F04176
:104970000E461D4904460025D1F81024104609E0D2
:10498000037AAB4205D16D1C0A2DF7DB4FF0FF35E2
:1049900027E040680028F3D1681C22D02572D1F8A6
:1049A000100430B140686060D1F810044460002702
:1049B00013E00020C1F810446060F8E700231A46B5
:1049C0003946284600F026FAB04200D33046024667
:1049D000207A394600F044FA7F1C00F011FAB84200
:1049E000ECD82846BDE8F08110080020704710B5CB
:1049F0004469606801688A680121904718B1042001
:104A0000A168087010BD0320FAE72DE9F34146695B
:104A10000446B068007804281ED0032807D000257B
:104A200001A9E06800F0CEFB85F0010709E001254F
:104A3000F6E739463046FCF7FDFC01A9E06800F0D6
:104A4000C1FB0028F5D1019800F0F2FA002D03D047
:104A500000213046FCF7EEFCBDE8FC810A4A012942
:104A600002EBC00007D0022907D0032907D0042990
:104A700007D000207047022070470420704700795B
:104A80007047407970470000047400002DE9F04F32
:104A90008DB0FCF741FA18B100200DB0BDE8F08FE1
:104AA0007B480021C0F81814BFF34F8FD0E90147AD
:104AB00004EA070100EB81014FF000090AE000BFA2
:104AC000C1F3891202EB9151641C0C4404EA070102
:104AD00000EB8101C9688A07F2D0002109AA80464B
:104AE00004EA070308EB8300641CC06842F8210055
:104AF000491C0229F4D3099800F00301022905D0CA
:104B0000012951D0C04380077ED0BBE0850D5021E4
:104B1000AB46B1EB905F00D8502565F39F50C0F3D2
:104B2000C20A099005F108015A4800F038FA060057
:104B30006BD000F07DFA4B46082209A9304600F000
:104B400097FA09F1080004EA07010190781A800039
:104B5000001D854221D94E4F0C3730B1C2B208EB4F
:104B60008101281A91460C3104E03946EAB2002747
:104B700091463846C5B23046019B00F079FA01995A
:104B800001EB090327B12A463946304600F070FA96
:104B90000BF1030004EB90043DE008EB81012A4691
:104BA00030460C31019BF1E7C0F38311062900D395
:104BB000062161F3891009900999C0F38310C1F3AC
:104BC000C20A801C8100334800F0E9F9060059D080
:104BD00000F02EFA4B46082209A9304600F048FAA8
:104BE00009F1080900250DE004EA070008EB80013F
:104BF0004B46042230460C31641C00F039FA09F1AE
:104C000004096D1C099801E00FE03BE0C0F383103C
:104C1000A842E9D8B6B3D8F81054D8F818044746D3
:104C200008B3304600F00DFA2CE0D8F8180400283C
:104C30003FF433AF26E0687A012813D10A98164A68
:104C400000EB400002EB8000297A806801EB410113
:104C5000C84000F00700504504D32A682846314672
:104C6000126890476D68002DE5D1304600F0E9F9F3
:104C70000020FCF79FF8D7F8180400B97C600020EA
:104C8000FCF79AF8FCF748F980F0010005E700000E
:104C900010080020786600002801002000231A4632
:104CA00000F0A0BE08B5012300926A4600F09AFE0B
:104CB00008BD1CB5CDE9002302236A4600F092FE30
:104CC0001CBD00002DE9F0470E4680461C4692466A
:104CD00008293ED894F80C900020207319461046FD
:104CE00000F0CCFC0025B54206D218F805201AA128
:104CF0002046FFF753FC03E019A12046FFF74EFCC6
:104D00006D1C082DEFD317A12046FFF747FC0025A7
:104D1000B54210D218F80570FBF7C8FB0068C05DFB
:104D200010F03E0F01D03A4600E02E220EA12046A0
:104D3000FFF734FC03E00DA12046FFF72FFC6D1CAC
:104D4000082DE5D301222146504600F079FC84F875
:104D50000C90BDE8F087000020253032780000007C
:104D6000202020007C0000002563000020000000BF
:104D70002DE9F0471D484FF00009FF21C0F80090D1
:104D8000C0E90191C0F81894C0F8149480F81C94FC
:104D9000174800F054F9002826D11649DFF858804A
:104DA000A1EB0800C70800241BE0002635460CE0F4
:104DB000AC4209D058F8340058F835101422FBF7EB
:104DC00017FC002800DD761C6D1CBD42F0D30B499A
:104DD00004EB440001EB8000C0F80490048046809E
:104DE000641CBC42E1D30020BDE8F087100800201D
:104DF000786600002C740000047400002801002074
:104E000002480349401AC008704700002C74000093
:104E1000047400007FB505461146002401A87BB14B
:104E2000FEF75CFBA0B901980B4900EB400001EBD9
:104E3000800005EB45018068C84000F0070407E0EA
:104E4000FEF74CFB20B90548019900EBC1008479BD
:104E500004B0204670BD000028010020047400004A
:104E600030B50F4B01EB410103EB810400EB400037
:104E70000723A56803FA00F18D4302F00701814082
:104E8000294300252A46A16003FA02F00840D040D9
:104E9000A84200D90546D21C0A2AF5D3656030BD68
:104EA0002801002013B56846FEF718FB08B1002062
:104EB0001CBD0248009950F831001CBD047400006C
:104EC00070B508480125D0F8104480F81C5405E05E
:104ED000657221682046496888476468002CF7D1CC
:104EE00070BD0000100800202DE9FF4781460C9D91
:104EF00000200C462F7B28739846164629461846F4
:104F000000F0BCFB072E42D2DFE806F004090F16C2
:104F10001F2A360049462846FFF740FB37E049463E
:104F200028462268FFF73AFB31E0D4E900234946DE
:104F30002846FFF733FB2AE0A0680090D4E900235D
:104F400049462846FFF72AFB21E0D4E90201CDE9D2
:104F50000001D4E9002349462846FFF71FFB16E06D
:104F600004F1080007C88DE80700D4E9002349468A
:104F70002846FFF713FB0AE004F108000FC88DE88C
:104F80000F00D4E9002349462846FFF707FB00221B
:104F90002946404600F054FB2F73BDE8FF872DE9FA
:104FA000F041058A80462D1F4819C01CB0FBF5F062
:104FB000C6B24046FEF703FB041E19D00020207144
:104FC00001206071E58000272546761EC4F8008028
:104FD0000BE04046FEF7F3FA60B16179491C61715C
:104FE000286005467F1CC0F80080B742F1D32046F8
:104FF000BDE8F081204600F002F80020F8E72DE936
:10500000F041457901466B1E002201E00968521CFF
:105010009A42FBD30F680146002605E038460C682B
:10502000FEF7ECFA2146761CAE42F7D3BDE8F081DC
:1050300008B501216A46001DFBF76FF908BDFEF7B0
:10504000F2BA38B50446001D01216A46FBF772F931
:10505000009810F0FF0F04D12046BDE83840FFF75C
:10506000CEBF38BD38B501240094FEF7E8F938BD4D
:1050700038B500240094FEF7E2F938BD0949022250
:105080000A60BFF36F8FBFF34F8F0A1D1060064891
:105090000268002AFCD000200860BFF36F8FBFF3C6
:1050A0004F8F704704E5014000E4014070B50E4C9D
:1050B00001232360BFF36F8FBFF34F8F00230B4D8E
:1050C00008E000BF51F8236040F823602E68002EEE
:1050D000FCD05B1C9342F5D300202060BFF36F8FA0
:1050E000BFF34F8F70BD000004E5014000E40140B4
:1050F0002DE9F0410446002790460E463846FBF75E
:1051000059FE204600F038F830B105270020FBF7A3
:1051100053FE3846BDE8F08120680568B8F1000FFD
:1051200005D10168204600F046F821680860E26871
:10513000012A0CD0022A0ED0042A11D06068082A55
:1051400013D005FB02013046FBF702FADEE7606888
:10515000405D3070DAE7606830F815003080D5E7E0
:10516000606850F825003060D0E700EBC500D0E95A
:105170000010C6E90010C9E701680868496888425C
:1051800001D1012070470020704701680A68496812
:105190008068884201D9491C00E00021914201D178
:1051A00001207047002070470068806870470068E1
:1051B0000021816070478068884201D9481C70478F
:1051C000002070472DE9F04104464FF000080E46DC
:1051D0004046FBF7EFFD2046FFF7D7FF070009D059
:1051E000207C38B14FF004080020FBF7E5FD404675
:1051F000BDE8F0812068456841682046FFF7DBFF85
:105200002168486037B1206801682046FFF7D3FF66
:1052100021680860E268012A14D0022A16D0042A04
:1052200019D0082A1CD06068314605FB0200FBF744
:105230008FF9204600F0BAFA21688A688242D3D2F8
:105240008860D1E7616830784855F2E76168308856
:1052500021F81500EDE76168306841F82500E8E7BE
:10526000D6E90001626802EBC502C2E90001E0E78D
:105270002DE9F0411E0015460F46044606D0A068F1
:10528000FEF797F910B11120BDE8F081A0686268BF
:10529000D0E90331A3EB010C501C844507D1002059
:1052A000286016B1A068FEF770F90020ECE703EA69
:1052B000020001EA0206B04202D3111A491C00E0C2
:1052C000C91A2A688A4200D2114629602168084416
:1052D0003860A0682A68C1681144C160E5E72DE91B
:1052E000F0410546806817468846001DFEF761F9C3
:1052F00010B11120BDE8F081A868816800690C1A1E
:105300003868A04200D204463C60AA686968106907
:10531000926808400A40824201D9161A01E00E1A2A
:10532000761CB44208D92968324608444146FBF746
:105330000FF9A41B0020B0442968224601444046CE
:10534000FBF706F9A8683A68016911440161A86889
:10535000001DFEF71AF90020CCE72DE9F0410546C3
:10536000174688468068FEF724F910B11120BDE881
:10537000F081A86881680069081A69680C1A3868A1
:10538000641CA04200D204463C60A868696880683A
:1053900008400E1A761CB44208D9296832460844DF
:1053A0004146FBF7D5F8A41B0020B04429682246EB
:1053B00008444146FBF7CCF8A8683A688168114474
:1053C0008160A868FEF7E1F80020D0E710B5826898
:1053D00094681369E41AA14201D9042010BD19444C
:1053E0001161826851618068001DFEF7CEF80020CF
:1053F00010BD2DE9F0411E0014460F46054607D0AA
:10540000A868001DFEF7D5F810B11120BDE8F081A5
:10541000A868816840690A1A09D06B681840194069
:1054200081420DD9266896420AD9226010E00020F8
:1054300020601EB1A868001DFEF7A7F80020E5E770
:10544000814205D8191A2268491C8A4200D9216074
:10545000296808443860A86822684169114441619C
:10546000ECE7826800219160826811618268516175
:105470008268D1608268516080680160704738B589
:105480008268456894681369E31AEB1A5B1C9942B9
:1054900001D9042038BD6318936081686A46CB60E7
:1054A00080680021FAF76DFF08B1002038BD0820A0
:1054B00038BD00000C4A10B502F1F0030EE0991A55
:1054C000C91001EBD171491002EBC1010C68844293
:1054D00001D90B4602E005D201F108029A42EED34F
:1054E000002010BD486810BD8065000000B5FFF7C2
:1054F000E1FF002800D1014800BD00006C650000FC
:105500004058002800D00120704708B500224250C2
:105510004058009008BDD0F80403084000D0012096
:1055200070474058002800D00120704708B500227D
:1055300042504058009008BD2DE9F84317460C0032
:1055400005462BD0DFF870804646D8F80000FCF7FF
:1055500057F93844C7B23068FCF752F9A968497B5B
:10556000081AB0FBF7F0C6B22046FCF749F9A96863
:10557000381AC7B2487CB0FBF6F206FB1202401C98
:10558000487482B123460DA207212846FEF7AAFAE5
:1055900039462846BDE8F843FCF740BEA96800201C
:1055A0004874BDE8F883009405A207212846D8F87E
:1055B0000030FEF797FAEBE7680000202573000043
:1055C0000D0A25732573000070B5034600791B4949
:1055D00001EB40101968027F4FF0FF30002AD1F82C
:1055E0000C25D1F81465D1F80855D1F8104504D030
:1055F000C1F80C05C1F8140503E0C1F81405C1F8A1
:105600000C051968C1F80805C1F81005501C02D036
:105610001046FFF78EF9701C02D03046FFF789F96B
:10562000601C02D02046FFF784F9681C04D028468D
:10563000BDE87040FFF77DB970BD00002406002072
:1056400010B50C46C17949B11AB109A12046FEF73F
:10565000A5FF2046BDE81040FEF7ADBF007A002848
:10566000F3D0044804A102682046FEF797FFECE758
:105670000D0A0000BC0000202573000070B5044630
:10568000C0790D4600281CD1207A50B1A179A0889C
:10569000FFF7E4F90B4951F820200BA12846FEF74B
:1056A0007DFFA0880021FFF7FDFB03460549A07997
:1056B000143951F820202846BDE8704003A1FEF7B8
:1056C0006DBF70BDBC000020257300003C25733EFB
:1056D0002025733A2000000070B5174C064660681C
:1056E000032827D32088032505EB004013A1FFF7EB
:1056F000D5FA606803281DD3706818A10268208855
:1057000005EB0040FFF7CEFA6068032812D37068FB
:1057100018A14268208805EB0040FFF7C3FA6068D3
:10572000032807D3208819A105EB0040BDE870408D
:10573000FFF7B4BA70BD0000580100203D3D3D3D6B
:105740003D3D3D3D7C20666C61736820696E666FEF
:10575000207C3D3D3D3D3D3D3D3D0000657261731A
:105760006520756E69743A20092564206279746534
:105770007300000070726F6772616D20756E6974DE
:105780003A20092564206279746573003D3D3D3DF2
:105790003D3D3D3D3D3D3D3D3D3D3D3D3D3D3D3D39
:1057A0003D3D3D3D3D3D3D3D3D3D000001680A68BC
:1057B0004968914201D3881A70478068801A08446A
:1057C000401C704710B510461A46FAF7C1FE00207B
:1057D00010BD000070B514460D460646FEF7EEFA01
:1057E00030B13046BDE8704000221146FEF7A2B944
:1057F000012D06D030466168BDE8704004A2FCF778
:1058000027BA3046BDE8704001A1FBF7C9BE0000D1
:10581000726561640000000070B515460C460646CE
:10582000FEF7CCFA30B13046BDE870400022114698
:10583000FEF780B9032C05D03046BDE870400BA1BF
:10584000FBF7AEBE102200216868FAF7E0FE0446BE
:105850000A220021A868FAF7DAFE024621463046FD
:10586000BDE870406823FCF7FDBE0000726561640E
:10587000206865780000000070B515460C460646A5
:10588000FEF79CFA30B13046BDE870400022114668
:10589000FEF750B9032C05D03046BDE870400BA18F
:1058A000FBF77EBE102200216868FAF7B0FE0446BE
:1058B0000A220021A868FAF7AAFE024621463046CD
:1058C000BDE870407323FCF7CDBE000072656164D3
:1058D00020737472000000000846704770B50126FE
:1058E00070044FF0E0210025C1F88001084C401001
:1058F000C4F84803C4F8080366602F20FEF736FB9F
:10590000A660044C2F20A560FEF730FBA57070BD8B
:10591000001001405000002070B50546C87D0C46BF
:1059200000284FF4847128460AD0FFF7EEFDD5F821
:105930001805627EE1688854607E401C607670BD08
:10594000FFF7E3FDD5F8180570BD1FB501238DF8ED
:1059500000308DF808100192D0E900126846904797
:105960001FBD10B5044600684FF49271FFF7CDFDDE
:105970004FF484712068FFF7C8FD206801210160A1
:1059800010BD1CB50446FF200190012301AA694601
:10599000E068FFF76DFC002810D1019900290DD0B7
:1059A000CAB260690099FEF725FC002806D1A068FC
:1059B000224640F6CD410068FBF7ACF91CBD000063
:1059C0000022CA604A60054A8A60052803D2044A58
:1059D00052F8200000E00020086070477066000068
:1059E000840000202DE9F843214C88460546914665
:1059F0001F4669461846A668FBF74EFA70B3009832
:105A0000811C00220AE000BF01EA060C59F822308E
:105A100004EB8C0C491C521CCCF80C30BA42F3D36A
:105A20000246401C304004EB80002B0CC36002EAAD
:105A3000060004EB8002E80652F80C0F02D540F095
:105A4000040001E020F0040065F3C50067F389104D
:105A500068F39F2020F00300401C106094F81C04A1
:105A600002E000BFFFF712F80028FBD1BDE8F88381
:105A70001008002009680068FAF7A3BD2DE9F0417D
:105A800015460E460446FCF7FFFA78B9A068FA21DD
:105A9000077A90F80A802046FCF7C0FBFA212046DE
:105AA000FCF76AFA2046FCF7EFFA10B10620BDE8D1
:105AB000F081A068007A3070A068807A2870307811
:105AC000C01BC1B22046FCF7C9FA2978A1EB080037
:105AD000C1B22046FCF7AEFB0020E8E74069FEF7C4
