:020000040000FA
:100000008028002051030000590300005B0300001A
:100010005D0300005F0300006103000000000000BA
:10002000000000000000000000000000630300006A
:100030006503000000000000670300006903000082
:100040006B0300006B0300007507000069040000EB
:100050006B0300006B0300006B0300006B030000E8
:100060006B0300006B0300006B0300006B030000D8
:100070006B0300006B0300006B0300006B030000C8
:100080006B0300006B0300006B0300006B030000B8
:100090006B0300006B0300006B0300006B030000A8
:1000A0006B0300006B0300006B0300006B03000098
:1000B0006B0300006B030000000000000000000064
:1000C0006B0300006B0300006B0300006B03000078
:1000D0006B0300006B0300006B03000000000000D6
:1000E0000000000000000000000000000000000010
:1000F0000000000000000000000000000000000000
:1001000000000000000000000000000000000000EF
:1001100000000000000000000000000000000000DF
:1001200000000000000000000000000000000000CF
:1001300000000000000000000000000000000000BF
:1001400000000000000000000000000000000000AF
:10015000000000000000000000000000000000009F
:10016000000000000000000000000000000000008F
:10017000000000000000000000000000000000007F
:10018000000000000000000000000000000000006F
:10019000000000000000000000000000000000005F
:1001A000000000000000000000000000000000004F
:1001B000000000000000000000000000000000003F
:1001C000000000000000000000000000000000002F
:1001D000000000000000000000000000000000001F
:1001E000000000000000000000000000000000000F
:1001F00000000000000000000000000000000000FF
:10020000DFF810D000F0EEF800480047A50C000021
:10021000AFF300808028002030B4044654E8000F7B
:100220000D4644E80053002BF8D1156030BC7047F0
:1002300030B4044654E8000F40EA010544E8005396
:10024000002BF7D1156030BC704730B4044654E839
:10025000000F00EA010544E80053002BF7D11560B8
:1002600030BC704730B4044654E8000F80EA010502
:1002700044E80053002BF7D1156030BC704730B410
:10028000044654E8000F00EB010544E80053002B3E
:10029000F7D1156030BC704730B4044654E8000F05
:1002A000A0EB010544E80053002BF7D1156030BCEA
:1002B0007047000030B4044654E8000F0D4644E88F
:1002C0000053002BF8D1156030BC704730B40446A1
:1002D00054E8000F40EA010544E80053002BF7D131
:1002E000156030BC704730B4044654E8000F00EA93
:1002F000010544E80053002BF7D1156030BC70476E
:1003000030B4044654E8000F80EA010544E8005385
:10031000002BF7D1156030BC704730B4044654E868
:10032000000F00EB010544E80053002BF7D11560E6
:1003300030BC704730B4044654E8000FA0EB010510
:1003400044E80053002BF7D1156030BC7047000023
:100350000648804706480047FEE7FEE7FEE7FEE75F
:10036000FEE7FEE7FEE7FEE7FEE7FEE779040000B2
:100370000102000000487047F421000040EA010338
:100380009B0703D009E008C9121F08C0042AFAD24B
:1003900003E011F8013B00F8013B521EF9D270470F
:1003A000D2B201E000F8012B491EFBD270470022B7
:1003B000F6E710B513460A4604461946FFF7F0FF64
:1003C000204610BD421C10F8011B0029FBD1801AE9
:1003D0007047034611F8012B00F8012B002AF9D1D0
:1003E00018467047064C074D06E0E06840F00103F0
:1003F00094E8070098471034AC42F6D3FFF704FFA7
:10040000782200009822000000F0C2B970B50E46B4
:10041000144900EB400001EBC0051446E86A1835AA
:1004200020B101280FD0022805D113E0284600F0A2
:10043000E3F9A04201D2002411E0224631462846C9
:1004400000F012FA0BE0284600F0D6F9A042F4D2F0
:100450000446F2E73146284600F0D9F90446204622
:1004600070BD0000F40500200149024800F029BBDE
:100470008C00002000300040F0B5AE480023021D83
:1004800001780125101D4FF0805406290BD11678F4
:10049000360708D10678C6F30316032E06D0042EBD
:1004A00004D0052E02D0062907D00EE0B4F824634C
:1004B000A14FC6F304263E6002E01678360704D149
:1004C0000678C6F30316032E02D0062904D00FE0E7
:1004D0009B4F9A4E7E670EE01678360708D1067855
:1004E000C6F30316032E06D0042E04D0052E02D028
:1004F000062907D00EE0D4F84462924FC6F3423684
:100500003E6002E01678360704D10678C6F303167B
:10051000032E02D0062906D011E08B4E376827F053
:10052000807737600EE01678360708D10678C6F374
:100530000316032E06D0042E04D0052E02D0062961
:100540000AD011E04FF08046C6F80C31C6F81031E1
:100550007C4E361F336002E01678360704D10678E9
:10056000C6F30316032E02D0062905D00CE0754F02
:10057000032664373E600AE01678360704D1067811
:10058000C6F30316032E02D006290DD014E06F4FD8
:1005900005263E606D4E783635606C4E0836336009
:1005A0003F263F1D3E6002E01678360704D10678EC
:1005B000C6F30316052E02D0062957D062E0644E1A
:1005C0003668644F3E60624E361D36683F1D3E60A1
:1005D0005F4E083636683F1D3E605D4E0C3636680D
:1005E0003F1D3E605A4E103636683F1D3E60584EE5
:1005F000143636683F1D3E60554E18363668554FE6
:1006000020373E60524E1C3636683F1D3E60504ECD
:10061000203636683F1D3E604D4E243636683F1DFD
:100620003E604B4E283636683F1D3E60484E2C36A5
:1006300036683F1D3E60464E30363668454F40377F
:100640003E60434E343636683F1D3E60404E38367D
:1006500036683F1D3E603E4E3C3636683F1D3E606C
:100660003B4E403636683F1D3E6002E01678360746
:1006700008D10678C6F30316032E06D0042E04D044
:10068000052E02D0062907D019E0D4F85812324AB4
:1006900001F04F01116002E0117809070FD10078D5
:1006A000C0F30310032803D0042801D0052806D185
:1006B0002A480168C90702D06FF001010160224891
:1006C0007438016841F470010160BFF34F8FBFF3CC
:1006D0006F8F4FF01021D1F80002002803DBD1F812
:1006E0000402002822DA1E4A15601E480468002C05
:1006F000FCD01524C1F800420568002DFCD0C1F8DB
:10070000044201680029FCD0136001680029FCD074
:10071000BFF34F8F0C48F0380168134A01F4E061D1
:1007200011430160BFF34F8F00BFFDE710490F4831
:100730000860F0BDE00F00F0403501400DF0ADBAAB
:1007400000C007403C050040FCED00E010560040B2
:100750000404001020C50040E40E004000040040E6
:1007600004E5014000E401400400FA050090D003D4
:10077000580000200448017F04480029024901D0A4
:1007800001F0F9BB01F068BBB4000020002000407C
:1007900010B5124C02202061606111A0A06104F12B
:1007A0007800E0614FF4007020620020A062606277
:1007B0000BA1A164E06204F51E71E1641021A06543
:1007C000C4E91410E06509A1E01DFFF702FE08A1CD
:1007D0002046FFF7FEFD2020A07110BDF40500208B
:1007E0005465726D696E616C0000000052545400D3
:1007F00053454747455200000269C1688A4203D801
:100800008068401A104400E0501A401E70472DE9DD
:10081000F047C4681746894606464FF0000830691D
:10082000A04201D9051B02E0B168201A0D1AB06878
:100830006D1E001BA84200D80546BD4200D33D46B0
:1008400070682A4620444946FFF798FDB0687F1B30
:100850002C44A844A944A04200D10024F460002FF5
:10086000DDD14046BDE8F0872DE9F04104468846D9
:10087000D4E90207C51BE168606816460844B54222
:1008800006D94146FFF77AFDB819E060BDE8F0816E
:100890002A464146FFF772FD761B08EB05013246FA
:1008A0006068FFF76BFDE660F0E702E008C8121F22
:1008B00008C1002AFAD170477047002001E001C149
:1008C000121F002AFBD1704710B500F04BFF00BF8C
:1008D00000F0B0FD0028FBD1104C0121208801EB75
:1008E00000400FA100F096FE10480068C00700D03D
:1008F00000BE2088022101EB00400DA100F08AFE1D
:10090000BFF34F8F0948E43801680D4A01F4E061F4
:1009100011430160BFF34F8F00BFFDE7800000204F
:10092000466174616C206572726F7200F0ED00E0D8
:1009300053797374656D20726573657400000000EF
:100940000400FA050EB500210091CDE901106A46B8
:1009500044F20100FFF7B8FF0EBD00F003B800F04D
:1009600009B8000072B602480168491C016070476E
:100970000000002003490868401E086000D162B6EC
:1009800070470000000000202DE9F041871C0E4652
:1009900001250020FFF7E1FF124C20683060D4E908
:1009A0000001401AA168091ABE1C06E000F030F9E7
:1009B000D4E90001401AA168091A491C8E42F5D8F1
:1009C000A1682068084004EB8000C16841F0030181
:1009D000C1602068384420600020FFF7C0FF28462F
:1009E000BDE8F081D401002030B482680468531C53
:1009F0008360A154D0E901128A4202D330BC00F0D6
:100A000056BB30BC70470000034803C8814201D187
:100A10000120704700207047D40100202DE9FC5FC1
:100A20000E008346DDE90C47C6F100009846924669
:100A3000814600D40846012503E000BF90FBFAF090
:100A40006D1C5045FADAA84500D9454624B1002E60
:100A500001DB780700D5641EB80702D5B8F1000F96
:100A60000AD0F80708D13CB1A54205D2202158464A
:100A7000641EFFF7B9FFF6E7002E02DA4E462D217D
:100A800002E0780703D52B215846FFF7ADFF07F0AA
:100A9000030002280BD1B8F1000F08D13CB1A542E8
:100AA00005D230215846641EFFF79EFFF6E7CDE9D8
:100AB0000047434652463146584601F0D5FABDE854
:100AC000FC9F2DE9FF470D464FF4927704463946C7
:100AD00000F026FF4FF002094FF001084FF4827634
:100AE00040B13946204600F020FF3146204600F054
:100AF00017FFB0B3B2463146204600F011FF4FF069
:100B0000FF36002770B35146204600F00EFF05F176
:100B10000C0001AB07C883E8070095F8230078B103
:100B2000287B01282DD0D4F84C05C0B28DF80600E2
:100B3000287B022828D0D4F84C05C0B28DF80700D5
:100B40004FF4B071204600F0F0FE4FF4AE71204635
:100B500000F0EBFE95F8250080B395F8230068BB04
:100B60003CE000E013E0A868C4F80803C5F808906A
:100B7000A868C4F80403C4F82080C4F81480BDE851
:100B8000FF87D4F83C05D0E7D4F83C05D5E74FF40F
:100B9000A471204600F0C9FE287B80B14FF400709C
:100BA000C4F80002801CA860C4F80863A868C4F8F0
:100BB0000403C4F80880C4F82080E0E708E005F1E9
:100BC0000C0001AB07C883E8070095F8250028B999
:100BD0000020C4F80002AF60C4F80863D4F8C4046D
:100BE000C4F8C404810702D58DF8008006E04007F0
:100BF00002D58DF8009001E08DF8007095F8250081
:100C000008B985F82470D5E9002168469047B6E711
:100C100070B588B0214800F005F92048001F06464D
:100C200000F000F91E4DD5E9014105E0C0F389123D
:100C300002EB9050641C044404EA010005EB8000C0
:100C4000C0688207F2D000200DF1080204EA010317
:100C500005EB8303641CDB6842F82030401C02284B
:100C6000F4D3029800F00300012808D002280AD12A
:100C70000298032101EB905004EB900403E00298EA
:100C8000C0F3831004443046002101AAFFF72BFB78
:100C9000002800D06C6008B070BD0000EC0500209A
:100CA000D401002008B50027384600F015FD08B132
:100CB000FFF748FE00F0B0FB194D032619A1288864
:100CC00006EB004000F0A6FC00F0B4FB0028FBD1CE
:100CD00000F072FF012401236A462146154800F006
:100CE000B5F938B92888012706EB0040224612A141
:100CF00000F094FC00F09EFB0028FBD1641CE4B2E1
:100D00007F2CE8D957B9288815A106EB004000F0E0
:100D100081FC00BF00F08EFB0028FBD1FEE7000045
:100D200080000020545749207363616E6E65722EF7
:100D3000000000001C2100005457492064657669BA
:100D40006365206465746563746564206174206103
:100D500064647265737320307825782E000000007B
:100D60004E6F206465766963652077617320666FD6
:100D7000756E642E000000002DE9F047C788044618
:100D8000181D16468946B0FBF7F1B0FBF7F207FBDA
:100D900012009A193A44D21CB2FBF7F2DDF820A0F7
:100DA00001E02468491E0029FBD13D1A8846B5425E
:100DB00016D818E0BAF1000F05D0211809EB080089
:100DC0002A46091D04E0204409EB08012A46001DBB
:100DD000FFF7D4FA00202468761BA844B74201D953
:100DE000354600E03D46002EE4D1BDE8F087000026
:100DF00030B5024669B100F09DFC0021084C0BE0C3
:100E000001EB410304EB830315685B88AB4202D11D
:100E10001160002030BD491C8142F1D3052030BD56
:100E20005C00002008B501216A46FFF74FFA0098E0
:100E300008BD70B5044600252846FFF78EFD2168E1
:100E40006268086890420ED9401E08600178238AC3
:100E5000E26801FB0325227A2168101AC0B20A79E0
:100E6000824200D208710020FFF779FD284670BD4C
:100E700070B505460C460020FFF76FFDE868298A2B
:100E8000201AB0FBF1F12A681068431C136001704E
:100E9000BDE870400020FFF762BD10B530B1017AA7
:100EA00042680368891AC9B21A6006E00E2010BDB4
:100EB00003681A68541C1C601170491EC9B2F7D22D
:100EC000006800210171084610BD000000283ED0D6
:100ED0001F49204A096800BF00BF00BF00BF00BF14
:100EE00000BF00BF00BF91422FD000BF00BF00BFB6
:100EF00000BF00BF00BF00BF00BF00BF00BF00BFFA
:100F000000BF00BF00BF00BF00BF00BF00BF00BFE9
:100F100000BF00BF00BF00BF00BF00BF00BF00BFD9
:100F200000BF00BF00BF00BF00BF00BF00BF00BFC9
:100F300000BF00BF00BF00BF00BF00BF00BF00BFB9
:100F400000BF00BF00BF00BF00BF0138C3D1704762
:100F5000580000200024F4004907090E002806DA92
:100F600000F00F0202F1E02282F8141D03E000F10C
:100F7000E02282F8001400F01F0201219140400994
:100F8000800000F1E020C0F88012C0F80011704726
:100F90000121B1EB507F01D1012070470020704743
:100FA0000179064A01EB8101006802EBC1010622CA
:100FB000C0F80025022081F8220070478C00002034
:100FC00070B506460D4600791F4900EB800001EB25
:100FD000C00494F8220008B1082070BD0020C4E9C4
:100FE0000023A06084F8250084F82400A87B84F8FE
:100FF0002700687B10B1284600F088FD296840F280
:101000000C60890001F1A041C1F8000769688900FE
:1010100001F1A041C1F80007D5E900123068C0F81D
:101020000815C0F80C25A968C0F82415206828B157
:101030003068297B000B40B2FFF78EFF012084F857
:101040002200002070BD00008C0000203EB5074D3E
:101050002C68AD6800948DF80110019202958DF80E
:1010600002300022694600F003F83EBD3421000042
:1010700030B40379064C03EB830304EBC30400682C
:1010800013460A460146204630BC00F0ABBD0000C6
:101090008C0000200FB408B50399002904D004AADD
:1010A00000926A4600F00FF801B05DF814FB10B52D
:1010B00082680446002A05D0D4E9040321689847D1
:1010C0000020A06010BD2DE9FC4791460C00804631
:1010D00076D014F8011B39B125290ED04046FFF710
:1010E00083FC20780028F4D198F80C00002867D001
:1010F0004046BDE8FC47FFF7DABF00200122217817
:101100002B291BD02D2902D0302908D102E040F034
:10111000010001E040F00200641C002AEFD100252C
:101120002A290ED02178A1F130020A2A11D205EB2A
:10113000850201EB4205641C303DF1E740F00400FC
:10114000EAE7D9F800100B1DC9F800300968641CE3
:101150000D44217800232E290BD114F8011FA1F191
:1011600030020A2A05D203EB830201EB4203303B33
:10117000F3E76C290DD068290BD0692921D00BDC4D
:10118000252918D0582931D063290ED0642915D1CA
:1011900017E014F8011FECE7702969D0732932D0E9
:1011A00075291BD0782909D120E0D9F80000011D4C
:1011B000C9F8001001784046FFF716FC641C90E760
:1011C0006CE0D9F800100A1DC9F800200968CDE9C3
:1011D00000500A224046FFF721FCEFE7D9F8001043
:1011E0000A1DC9F8002009680A2206E0D9F8001093
:1011F0000A1DC9F8002009681022CDE900504046B8
:1012000000F032FFDAE7D9F8001000270A1DC9F80C
:1012100000200E68C00705D112E04046761C7F1CF6
:10122000FFF7E2FB31780029F7D104E020214046A6
:101230006D1EFFF7D9FBBD42C0D9002DF6D1BDE729
:101240004EB13046FFF7BEF8074604E02021404685
:101250006D1EFFF7C9FBBD4206D9002DF6D103E094
:101260004046761CFFF7C0FB31780029F8D1A5E78E
:10127000D9F80000011DC9F800100568302140466A
:10128000FFF7B2FB78214046FFF7AEFB08200021B4
:10129000CDE90001034610222946B0E7BDE8FC87EE
:1012A0004FF0A04201218140C2F8081570470000AC
:1012B00030B5124B01460020D3F81044224609E015
:1012C000157A854205D1401C0A28F7DB4FF0FF3024
:1012D00030BD5268002AF3D1421CF9D00872D3F80D
:1012E00010242AB152684A60D3F81024516030BDEE
:1012F0000022C3F810144A6030BD0000D401002061
:101300007047FFF781B8704708B5034A0092402341
:10131000024A00F005F808BD531A0000D40000206E
:10132000F0B595B01C4615460E4608461A9F00F0CB
:10133000D1FA182109A8FFF73AF80E97CDE9095418
:101340000023082203A9304600F0DEFA0598069033
:101350000498ADF81C0000208DF8200003990825A2
:1013600001F00300012802D002281AD037E0C1F3AF
:10137000C2008DF81E00C1F38000C1F383178C0AF0
:101380008DF81F00BA002B460FA9304600F0BCFABA
:1013900009A8009006AB3A460FA9204600F0F6F9DE
:1013A0001DE0C1F3C2008DF81E00C1F380008C0D5A
:1013B0008DF81F00082C01D2274600E008272B4695
:1013C0003A460FA9304600F09FFA3D44E41B09ABB2
:1013D00006AA39460FA800F029F9002CEAD13046B8
:1013E00000F081FA15B0F0BD0A4A012902EBC000F5
:1013F00007D0022907D0032907D0042907D00020ED
:101400007047022070470420704700797047407988
:10141000704700009822000010B5FFF772FF04210A
:101420000348FFF745FF02490120487210BD000044
:10143000040000202DE9FE4FFFF7E6FA10B100206E
:10144000BDE8FE8F71480021C0F81814BFF34F8F1C
:10145000D0E9014504EA050100EB81014FF00009E4
:101460000AE000BFC1F3891202EB9151641C0C44E5
:1014700004EA050100EB8101C9688A07F2D0002166
:101480006A46804604EA050008EB8000641CC068D8
:1014900042F82100491C43460229F3D3009800F08A
:1014A0000301022905D001294ED0C04380077DD019
:1014B000A7E0810D50228A46B2EB905F00D8502100
:1014C0000E4666F39F5000900831514800F0B9F97C
:1014D00007006CD000F0FEF94B46082269463846FA
:1014E00000F018FA04EA0501681A8000001D09F1ED
:1014F000080B864221D9454D0C3530B1C2B208EBFC
:101500008101301A91460C3104E02946F2B20025DF
:1015100091462846C6B25B46384600F0FBF90BEB15
:1015200009032DB1324629464FEA070000F0F2F9CF
:101530000AF1030004EB90043BE008EB81015B46F9
:10154000324638460C31F1E7C0F38311062900D347
:10155000062161F389100090C0F38310801C810084
:101560002B4800F06EF907004BD000F0B3F94B4662
:1015700008226946384600F0CDF909F1080900262D
:101580000EE000BF04EA050008EB80014B46042290
:1015900038460C31641C00F0BDF909F10409761CD1
:1015A0000098C0F38310B042ECD801E00BE028E0D3
:1015B0003FB3D8F81054D8F81804464690B13846CE
:1015C00000F091F91DE0D3F8180400283FF438AF7B
:1015D00017E0687A012804D12A682846394612683B
:1015E00090476D68002DF4D1384600F07CF900205A
:1015F000FFF7B3F9D6F8180400B974600020FFF7BC
:10160000AEF9FFF701FA80F0010019E7D4010020DC
:101610005C21000000231A4600F030BA08B501230F
:1016200000926A4600F02AFA08BD00002DE9F04752
:101630000E4680461C46924608293ED894F80C90E7
:10164000002020731946104600F0B0F90025B5427D
:1016500006D218F805201AA12046FFF71BFD03E06B
:1016600019A12046FFF716FD6D1C082DEFD317A119
:101670002046FFF70FFD0025B54210D218F805707F
:10168000FEF778FE0068C05D10F03E0F01D03A46CC
:1016900000E02E220EA12046FFF7FCFC03E00DA186
:1016A0002046FFF7F7FC6D1C082DE5D301222146EB
:1016B000504600F05DF984F80C90BDE8F08700001A
:1016C0002025303278000000202020007C0000001F
:1016D0002563000020000000114810B5FF21816043
:1016E000002101604160C0F81814C0F8141480F89B
:1016F0001C140C4800F0F5F800280FD10A480B49DB
:101700000B4B401AC108002005E000BF00EB40026F
:1017100023F82200401C8842F8D3002010BD0000AE
:10172000D40100205C210000B822000098220000B3
:101730005C00002002480349401AC00870470000BE
:10174000B82200009822000013B56846FFF750FB4E
:1017500008B100201CBD0248009950F831001CBDA2
:101760009822000070B508480125D0F8104480F890
:101770001C5405E065722168204649688847646802
:10178000002CF7D170BD0000D40100202DE9FF47E7
:1017900081460C9D00200C462F7B287398461646E8
:1017A0002946184600F002F9072E42D2DFE806F07B
:1017B00004090F161F2A360049462846FFF76AFC1F
:1017C00037E0494628462268FFF764FC31E0D4E957
:1017D000002349462846FFF75DFC2AE0A0680090F8
:1017E000D4E9002349462846FFF754FC21E0D4E918
:1017F0000201CDE90001D4E9002349462846FFF75C
:1018000049FC16E004F1080007C88DE80700D4E998
:10181000002349462846FFF73DFC0AE004F1080092
:101820000FC88DE80F00D4E9002349462846FFF78A
:1018300031FC00222946404600F09AF82F73BDE89B
:10184000FF872DE9F041058A80462D1F4819C01CED
:10185000B0FBF5F0C6B24046FFF7EBFA041E19D014
:101860000020207101206071E58000272546761E4A
:10187000C4F800800BE04046FFF7DBFA60B1617905
:10188000491C6171286005467F1CC0F80080B74282
:10189000F1D32046BDE8F081204600F002F8002098
:1018A000F8E72DE9F041457901466B1E002201E081
:1018B0000968521C9A42FBD30F680146002605E0D6
:1018C00038460C68FFF7D4FA2146761CAE42F7D3AF
:1018D000BDE8F08108B501216A46001DFEF7CFFC86
:1018E00008BDFFF7DABA38B50446001D01216A4683
:1018F000FEF7D2FC009810F0FF0F04D12046BDE89F
:101900003840FFF7CEBF38BD38B501240094FFF74B
:1019100033FA38BD38B500240094FFF72DFA38BDEE
:101920004058002800D00120704708B500224250DE
:101930004058009008BD4058002800D00120704752
:1019400008B5002242504058009008BDD0F804036A
:10195000084000D0012070474058002800D00120E6
:10196000704708B5002242504058009008BD000062
:1019700010B50C46C17949B11AB109A12046FFF74B
:1019800089FB2046BDE81040FFF791BB007A002894
:10199000F3D0044804A102682046FFF77BFBECE784
:1019A0000D0A0000340000202573000070B50446C5
:1019B000C0790D4600281CD1207A50B1A179A088A9
:1019C000FFF712FD0B4951F820200BA12846FFF725
:1019D00061FBA0880021FFF7B7FE03460549A07907
:1019E000143951F820202846BDE8704003A1FFF7C4
:1019F00051BB70BD34000020257300003C25733EB0
:101A00002025733A2000000070B50546C87D0C46BD
:101A100000284FF4847128460AD0FFF791FFD5F8CB
:101A20001805627EE1688854607E401C607670BD57
:101A3000FFF786FFD5F8180570BD1FB501238DF897
:101A400000308DF808100192D0E9001268469047E6
:101A50001FBD2DE9F04114000F460DD000250A26C8
:101A6000791922460020FEF7D1FC0544241A08B952
:101A7000761E01D0002CF3D1BDE8F0812DE9F843AA
:101A8000214C8846054691461F4669461846A66879
:101A9000FEF77AFF70B30098811C00220AE000BFB5
:101AA00001EA060C59F8223004EB8C0C491C521C3C
:101AB000CCF80C30BA42F3D30246401C304004EB61
:101AC00080002B0CC36002EA060004EB8002E806EB
:101AD00052F80C0F02D540F0040001E020F00400A1
:101AE00065F3C50067F3891068F39F2020F00300B9
:101AF000401C106094F81C0402E000BFFFF79AFC41
:101B00000028FBD1BDE8F883D40100202DE9F04185
:101B1000044640F20C602168890001F1A041C1F83F
:101B200000076168890001F1A041C1F80007206841
:101B3000FFF7B6FB6068FFF7B3FB216840F20D606A
:101B4000890001F1A041C1F800076168890001F135
:101B5000A041C1F800070420FFF7B8F900274FF0B3
:101B6000A04601252179D6F81005C84010F0010FD4
:101B700002D0002F1DD010E0217805FA01F0C6F840
:101B80000C050420FFF7A2F92068FFF789FB042069
:101B9000FFF79CF97F1C092FE4DB20798540C6F80C
:101BA0000C550420FFF792F96068BDE8F041FFF79B
:101BB00077BBBDE8F08100001FB5094B0FCB8DE866
:101BC0000F00074800231A4669460838FFF7F8F95E
:101BD00008B1FEF7B7FE02480838FFF7E1F91FBD6C
:101BE000242100002DE9F05F06461F4615460C46ED
:101BF0004FF0000A4FF0080B4FF482795068FFF75E
:101C0000C7F900287ED04FF0FF30C4F8080396F8DB
:101C1000240028B1B068C4F804031120BDE8F09F87
:101C2000780703D4F80601D4012000E0002086F8EC
:101C3000240095E8070006F10C0383E80700C7F3CA
:101C4000001086F825006878C4F888054FF4827182
:101C50002046FFF76AFE4FF492712046FFF765FEBB
:101C6000F8074FF0010800D04046C4F85005B80707
:101C700001D5404600E00020C4F84005287800283F
:101C80006CD001287DD002284ED0032814D04FF00C
:101C9000070A380704D42878032801D044F80B80B9
:101CA000306800286ED0780702D54FF40070B0601D
:101CB000B068C4F80403ACE0A868FFF769F908B39A
:101CC0004FF48070C4F80002A8786968C4F844151D
:101CD000C4F848054FF4A8712046FFF726FE4FF4DC
:101CE000B0712046FFF721FE4FF4A4712046FFF7A4
:101CF0001CFEC4F82080C4F8088000BF4FF4A8710F
:101D0000204600E028E0FFF70BFE0028F6D04FF455
:101D1000A8712046FFF709FEE878A968C4F84415C1
:101D2000C4F848053C4815E0A8786968C4F844152B
:101D3000C4F84805A868FFF72BF968B1E878A968E6
:101D4000C4F83415C4F838054FF48450C4F80002C0
:101D500040F20220B0609CE710205FE7A878696835
:101D6000C4F84415C4F84805B8060FD54FF4807080
:101D7000C4F800022848B0604FF4A47949462046D0
:101D800001E00CE01BE0FFF7D0FD05E04FF4007030
:101D9000C4F80002801CB060C4F8208079E7A878FD
:101DA0006968C4F83415C4F838054FF48050C4F895
:101DB000000240F20220B0604FF0000BECE7474613
:101DC0004FF482754FF492780BE041462046FFF7BE
:101DD000A7FD30B141462046FFF7A7FD27626761A6
:101DE000A94649462046FFF79BFD0028EDD0D4F8D0
:101DF000C404C4F8C404002186F8241048B10321A7
:101E0000820701D548F20121400701D548F202219D
:101E10008A46504602E700000002040070B50C46F6
:101E200005464FF48E71FFF78BFDA18AA068415CD7
:101E3000A08A401CA082C5F81C1570BD1FB50022E9
:101E40008DF800208DF80810816801918275D0E925
:101E50000012684690471FBD2DE9FF470C46054616
:101E60004FF40071FFF772FD01274FF4017800264F
:101E700018B34FF4927949462846FFF75CFDE0B16C
:101E800049462846FFF75CFDC5F80883A07E00B9E7
:101E90006F6002208DF80000D5F88004C5F880043A
:101EA0000390E07D8DF80800E0680190E6752676E5
:101EB000D4E900126846904727E004212846FFF73E
:101EC00045FD10B34FF484712846FFF734FDE0B1AF
:101ED00021462846FFF798FDE07D617E884214D1B7
:101EE000207E38B1617EE268E0752069E060267688
:101EF000667607E0A07E00B96F60C5F80883E675D6
:101F0000617EE2682046FFF798FD4FF48E784146E7
:101F10002846FFF710FD88B1A08AA17D884204D22F
:101F200021462846FFF77AFF08E041462846FFF79A
:101F300007FDA17D11B12046FFF780FF4FF4A27885
:101F400041462846FFF7F7FC002812D041462846B4
:101F5000FFF7F6FCA07E00B12F60E07D002808D0DE
:101F6000E675617EE26804B02046BDE8F047FFF701
:101F700064BDBDE8FF872DE9FF410C464FF4927721
:101F800005463946FFF7E8FC0026C0B13946284629
:101F9000FFF7E7FC02208DF80000D5F88004C5F8B3
:101FA00080040390D5F83C058DF80800E0680190A6
:101FB000E6752676D4E900126846904724E04FF48F
:101FC000887739462846FFF7C7FCE8B139462846E6
:101FD000FFF7C7FCD5F83C05C1B2E07D884213D1BC
:101FE000207E60B1E268D5F8000220F02000C5F83C
:101FF0000002207EE0752069E060267601E0E6754B
:10200000E2682046FFF719FD4FF4A27739462846CB
:10201000FFF7A2FC68B139462846FFF7A2FCE07D35
:1020200038B1E675D5F83C05E268C1B22046FFF745
:1020300004FD4FF4907631462846FFF78DFC0028CA
:102040000FD031462846FFF78CFCA07D002808D031
:10205000D5F84C0504B0C1B22046BDE8F041FFF709
:10206000EDBEBDE8FF8100002DE9F05F8346DDE9AC
:102070000A4A994690460D460846012703E000BFEC
:10208000B0FBF8F07F1C4045FAD2B94500D94F4665
:102090005FEACA7012D18CB15FEA8A7002D5B9F1D9
:1020A000000F01D0202607E0302605E031465846D3
:1020B000641EFEF799FC0CB1A742F7D35FF001064E
:1020C000B9F1010F02D9A9F1010903E0B5FBF6F05E
:1020D000404502D306FB08F6F2E7DFF83C9000BF6C
:1020E000B5FBF6F000FB165519F800105846FEF740
:1020F0007BFCB6FBF8F6002EF2D15FEACA7009D07D
:10210000002C07D0A74205D220215846641EFEF7B6
:102110006BFCF5E7BDE8F09F402100000030004077
:10212000000100000C0000000D0000000000680627
:10213000020000000100000000000000000000009C
:1021400030313233343536373839414243444546ED
:1021500009130000071300000113000018000020FD
:1021600010000020180000201401002018000000BA
:10217000004040404040404040404141414141409A
:10218000404040404040404040404040404040404F
:1021900040050202020202020202020202020202DE
:1021A00002202020202020202020200202020202E3
:1021B000020290909090909010101010101010103B
:1021C0001010101010101010101010100202020247
:1021D000020288888888888808080808080808088B
:1021E0000808080808080808080808080202020287
:1021F00040000000712100007761726E696E670017
:1022000064656275670000001B5B313B33306D0015
:102210001B5B306D000000001B5B313B33316D00F8
:102220001B5B313B33326D001B5B313B33336D0045
:102230001B5B313B33346D001B5B313B33356D0031
:102240001B5B313B33366D001B5B313B33376D001D
:10225000696E666F000000006572726F72000000A8
:1022600074776900756172740000000062616C6CC3
:102270006F63000061707000B82200000000002051
:102280008C000000AA080000442300008C000020FD
:10229000F4270000BA0800006022000000000000DF
:1022A00064220000000000006C220000000000001A
:1022B0007422000000000300000000005021000014
:1022C000000000000000000000000000000000000E
:1022D0000000000000000000000000005822000084
:1022E000F82100005022000000220000102200000F
:1022F00008220000182200002022000028220000EE
:102300003022000038220000402200004822000055
:102310000090D0030000000000000000000000005A
:1023200000000000000000000000000000000000AD
:10233000000000000000000000000000000000009D
:042340000000000099
:0400000500000201F4
:00000001FF
