:020000040001F9
:10200000B8360020852301008D230100192201002C
:10201000912301009323010095230100000000009B
:1020200000000000000000000000000097230100F5
:1020300099230100000000009B2301009D23010063
:102040009F2301009F2301009F2301009F23010084
:102050009F2301009F230100E12401009F23010031
:102060009F2301009F2301009F2301009F23010064
:102070009F2301009F2301009F2301009F23010054
:102080009F230100F52601009F2301009F230100EB
:10209000792701009F2301007D2701009F23010074
:1020A0009F2301009F2301009F2301009F23010024
:1020B0009F2301009F23010000000000000000009A
:1020C0009F2301009F2301009F2301009F23010004
:1020D0009F2301009F2301009F23010000000000B7
:1020E00000000000000000000000000000000000F0
:1020F00000000000000000000000000000000000E0
:1021000000000000000000000000000000000000CF
:1021100000000000000000000000000000000000BF
:1021200000000000000000000000000000000000AF
:10213000000000000000000000000000000000009F
:10214000000000000000000000000000000000008F
:10215000000000000000000000000000000000007F
:10216000000000000000000000000000000000006F
:10217000000000000000000000000000000000005F
:10218000000000000000000000000000000000004F
:10219000000000000000000000000000000000003F
:1021A000000000000000000000000000000000002F
:1021B000000000000000000000000000000000001F
:1021C000000000000000000000000000000000000F
:1021D00000000000000000000000000000000000FF
:1021E00000000000000000000000000000000000EF
:1021F00000000000000000000000000000000000DF
:10220000DFF810D000F05AF9004800479538010077
:10221000AFF30080B8360020094B1EF0040F1CBF3E
:10222000EFF309801847EFF308800649064A884211
:1022300001D8904202D88D464FF0000018470000A8
:1022400055260100B8360020B816002030B40446E8
:1022500054E8000F0D4644E80053002BF8D11560F8
:1022600030BC704730B4044654E8000F40EA010522
:1022700044E80053002BF7D1156030BC704730B4F0
:10228000044654E8000F00EA010544E80053002B1F
:10229000F7D1156030BC704730B4044654E8000FE5
:1022A00080EA010544E80053002BF7D1156030BCEB
:1022B000704730B4044654E8000F00EB010544E8D1
:1022C0000053002BF7D1156030BC704730B4044682
:1022D00054E8000FA0EB010544E80053002BF7D1B0
:1022E000156030BC7047000030B4044654E8000F5D
:1022F0000D4644E80053002BF8D1156030BC704700
:1023000030B4044654E8000F40EA010544E80053A5
:10231000002BF7D1156030BC704730B4044654E848
:10232000000F00EA010544E80053002BF7D11560C7
:1023300030BC704730B4044654E8000F80EA010511
:1023400044E80053002BF7D1156030BC704730B41F
:10235000044654E8000F00EB010544E80053002B4D
:10236000F7D1156030BC704730B4044654E8000F14
:10237000A0EB010544E80053002BF7D1156030BCF9
:10238000704700000648804706480047FEE7FEE722
:10239000FEE7FEE7FEE7FEE7FEE7FEE7FEE7FEE715
:1023A00081270100012201002DE9F05F0546002090
:1023B00092469B4688460646814640241BE02846B6
:1023C00041464746224600F068F853465A46C01A2E
:1023D000914110D311461846224600F04FF82D1AAD
:1023E00067EB01084F4622460120002100F046F825
:1023F00017EB00094E41201EA4F10104DFDC484622
:1024000031462A464346BDE8F09F00000048704729
:10241000F852010040EA01039B0703D009E008C914
:10242000121F08C0042AFAD203E011F8013B00F899
:10243000013B521EF9D27047D2B201E000F8012BE5
:10244000491EFBD270470022F6E710B513460A4634
:1024500004461946FFF7F0FF204610BD421C10F855
:10246000011B0029FBD1801A7047034611F8012B8C
:1024700000F8012B002AF9D118467047202A04DB06
:10248000203A00FA02F1002070479140C2F1200387
:1024900020FA03F3194390407047202A04DB203AC6
:1024A00021FA02F00021704721FA02F3D040C2F174
:1024B000200291400843194670470000064C074D22
:1024C00006E0E06840F0010394E807009847103404
:1024D000AC42F6D3FFF798FEAC560100CC56010093
:1024E0002DE9F04700268CB0DFF86091B0464FF43C
:1024F0008075012437460696284601F071FE38B1F2
:10250000D9F80403204203D0284601F05FFE264399
:102510002D1D64007F1CADB2082FEDD34FF4BE74A7
:10252000204601F05DFE48B1204601F04FFE46F026
:10253000004606AA0121002001F034FE444D16F0A9
:10254000FF0F15D00127002437420DD009EB84017D
:10255000D1F81005D1F81015C0F3042055F8242047
:10256000C1F3014102B190477F00641C082CEBD3FA
:10257000002E67DA4FF0FF30CDE9088000263446A0
:10258000281910F8507F90F9000027F0C008401C6F
:1025900044D009A9404601F0D5FA58B34FEA97193B
:1025A000404600F061FF55F820701FB1B9F1030FEC
:1025B00003D00FE0B9F1030F30D108A84FEAD802D9
:1025C00008F00703815C4FF0010C0CFA03FC41EAB0
:1025D0000C0181544FF0A04101EB8800D0F80007B6
:1025E00006A9C0F3014A404601F0ACFA18B1BAF1AD
:1025F000020F03D012E0BAF1030F0FD1B9F1030FAC
:1026000008D1BAF1020F1BD00221404601F0AEFD05
:10261000761CF6B217B149464046B847641C042CF4
:10262000AED3002E0ED06A460121002001F0BAFD83
:1026300006990098884205D00690089809909DE771
:102640000321E2E70CB0BDE8F08700000060004025
:10265000F00C002010B5044602F034F801F08AFEB8
:102660000028FBD1204600F001F810BDBFF34F8FCA
:1026700005480168054A01F4E06111430160BFF3B8
:102680004F8F00BFFDE700000CED00E00400FA05ED
:1026900000F01F02012191404009800000F1E0207C
:1026A000C0F88012704700F01F02012191404009DC
:1026B000800000F1E020C0F80011704700F01F0218
:1026C000012191404009800000F1E020C0F8001293
:1026D00070474907090E002806DA00F00F0000F1E4
:1026E000E02080F8141D704700F1E02080F800140D
:1026F0007047000007480021C0F84011C0F844119D
:10270000C0F84811C0F84C11C0F80011C0F804110D
:1027100002F0D0BB0010014000F0B0B970B50E4619
:10272000144900EB400001EBC0051446E86A183577
:1027300020B101280FD0022805D113E0284600F06F
:10274000D1F9A04201D2002411E0224631462846A8
:1027500000F000FA0BE0284600F0C4F9A042F4D2E1
:102760000446F2E73146284600F0C7F90446204601
:1027700070BD00002C14002002F0EABA02F030B95B
:10278000F0B5AE480023021D01780125101D4FF061
:10279000805406290BD11678360708D10678C6F37F
:1027A0000316032E06D0042E04D0052E02D00629CF
:1027B00007D00EE0B4F82463A14FC6F304263E60B0
:1027C00002E01678360704D10678C6F30316032E06
:1027D00002D0062904D00FE09B4F9A4E7E670EE090
:1027E0001678360708D10678C6F30316032E06D0EE
:1027F000042E04D0052E02D0062907D00EE0D4F80E
:102800004462924FC6F342363E6002E016783607C5
:1028100004D10678C6F30316032E02D0062906D08B
:1028200011E08B4E376827F0807737600EE016781E
:10283000360708D10678C6F30316032E06D0042EF9
:1028400004D0052E02D006290AD011E04FF08046B0
:10285000C6F80C31C6F810317C4E361F336002E0EA
:102860001678360704D10678C6F30316032E02D075
:10287000062905D00CE0754F032664373E600AE058
:102880001678360704D10678C6F30316032E02D055
:1028900006290DD014E06F4F05263E606D4E783648
:1028A00035606C4E083633603F263F1D3E6002E0C7
:1028B0001678360704D10678C6F30316052E02D023
:1028C000062957D062E0644E3668644F3E60624E1F
:1028D000361D36683F1D3E605F4E083636683F1D28
:1028E0003E605D4E0C3636683F1D3E605A4E1036D7
:1028F00036683F1D3E60584E143636683F1D3E60B8
:10290000554E18363668554F20373E60524E1C36AD
:1029100036683F1D3E60504E203636683F1D3E6093
:102920004D4E243636683F1D3E604B4E2836366885
:102930003F1D3E60484E2C3636683F1D3E60464E79
:1029400030363668454F40373E60434E3436366841
:102950003F1D3E60404E383636683F1D3E603E4E5D
:102960003C3636683F1D3E603B4E403636683F1D64
:102970003E6002E01678360708D10678C6F30316E3
:10298000032E06D0042E04D0052E02D0062907D02F
:1029900019E0D4F85812324A01F04F01116002E0F8
:1029A000117809070FD10078C0F30310032803D072
:1029B000042801D0052806D12A480168C90702D099
:1029C0006FF00101016022487438016841F4700120
:1029D0000160BFF34F8FBFF36F8F4FF01021D1F81D
:1029E0000002002803DBD1F80402002822DA1E4A84
:1029F00015601E480468002CFCD01524C1F8004264
:102A00000568002DFCD0C1F8044201680029FCD003
:102A1000136001680029FCD0BFF34F8F0C48F038D9
:102A20000168134A01F4E06111430160BFF34F8F65
:102A300000BFFDE710490F480860F0BDE00F00F04F
:102A4000403501400DF0ADBA00C007403C050040E4
:102A5000FCED00E0105600400404001020C50040CA
:102A6000E40E00400004004004E5014000E40140A1
:102A70000400FA050090D0032C0C002010B5124C75
:102A800002202061606111A0A06104F17800E06182
:102A90004FF4007020620020A06260620BA1A1646C
:102AA000E06204F51E71E1641021A065C4E9141010
:102AB000E06509A1E01DFFF7D8FC08A12046FFF75B
:102AC000D4FC2020A07110BD2C1400205465726D20
:102AD000696E616C00000000525454005345474732
:102AE000455200000269C1688A4203D88068401AD2
:102AF000104400E0501A401E70472DE9F047C468AA
:102B00001746894606464FF000083069A04201D9B1
:102B1000051B02E0B168201A0D1AB0686D1E001B7B
:102B2000A84200D80546BD4200D33D4670682A46FB
:102B300020444946FFF76EFCB0687F1B2C44A84434
:102B4000A944A04200D10024F460002FDDD140460A
:102B5000BDE8F0872DE9F04104468846D4E9020734
:102B6000C51BE168606816460844B54206D941466F
:102B7000FFF750FCB819E060BDE8F0812A464146F5
:102B8000FFF748FC761B08EB050132466068FFF74B
:102B900041FCE660F0E702E008C8121F08C1002A05
:102BA000FAD170477047002001E001C1121F002ACE
:102BB000FBD170470121202803DA814005480140FC
:102BC00003E0402802DA2038814009B10120704733
:102BD00000207047FC06FFBD082806D20121814075
:102BE00011F0EC0F01D00120704700207047022047
:102BF00000F0BCB910B504468378827A4178007839
:102C0000C2DF002813D123796279E1882078D3DFED
:102C100000280CD1E1782078CDDF002807D1A178F9
:102C2000C90704D12189002901D02078D1DF10BD46
:102C30001CB50446022208216846FFF7FDFB94F804
:102C40002C00002813D194F82D0080280FD1607833
:102C50004E280CD1E2780748012122B900220260F7
:102C60004260826822B18268012A00D1C1601CBD25
:102C70008160FBE7800B00201CB50022019203233A
:102C800000928DF805108DF800308DF801208DF838
:102C9000070008216A460020C7DF002801D000F0A5
:102CA00089F81CBD70B50024064D06E06868012156
:102CB00010F8340000F0F6FF641C28788442F5D345
:102CC000002070BDA40B0020F8B515460C46064642
:102CD000052A01D20720F8BD01F014F918B901F056
:102CE000BBF80028F7D1104900204E600C70C1E9F4
:102CF00002500E4D08610DE006EBC40069680091BA
:102D000081788DF801100078094A694601F01CF8B5
:102D10000028E0D1641EE4B2EED2BDE8F840054AD6
:102D20000021024800F052B8A40B0020945001008A
:102D3000C53501002535010010B501F0C3FC00BF09
:102D400001F018FB0028FBD1104C0121208801EB79
:102D500000400FA101F004FC10480068C00700D03B
:102D600000BE2088022101EB00400DA101F0F8FB1C
:102D7000BFF34F8F0948E43801680D4A01F4E06160
:102D800011430160BFF34F8F00BFFDE7600C0020CF
:102D9000466174616C206572726F7200F0ED00E044
:102DA00053797374656D207265736574000000005B
:102DB0000400FA050EB500210091CDE901106A4624
:102DC00044F20100FFF7B8FF0EBD0000084B9B78EE
:102DD00023B12AB120B10068037C1BB108207047E1
:102DE00007207047002303744174426118467047FE
:102DF000680D002070B501F0B7FE104800240B21CB
:102E0000047044700E4D817014206C602C706C70D6
:102E1000FFF73EFC07211420FFF75BFC1420FFF7AF
:102E200042FC0848046007211120FFF752FC0548C6
:102E3000001F0068A860002070BD0000680D002021
:102E4000B80B0020081501402DE9FC47DFF8789009
:102E500099F8023073B368B3052902D20720BDE8A0
:102E6000FC87436933B3437C012B25D000270446FC
:102E70000025884616468DF80050684600F038F860
:102E800001A802F0ABF8C8B1012101700F494460FC
:102E90000968C0E90218C0E904769DF8040089F8C1
:102EA00001009DF8000000F047F81420FFF706FC31
:102EB0002846D4E70820D2E70F46D8E704259DF836
:102EC000000000F039F8F3E7680D00200415014018
:102ED0000649897839B130B1416921B100210174C5
:102EE000022101F0C3BF082070470000680D0020D8
:102EF00030B5EFF3108172B60D4A9468012324B106
:102F00000370002900D162B630BD93604FF0E0231A
:102F1000D3F88051074C25401560C3F88041D3F8A1
:102F2000844154605A17C3F8842100220270E8E7F4
:102F3000740E0020FC06FFBD0B498A68002A11D0E0
:102F400000280FD1EFF3108072B60B684FF0E0222B
:102F5000C2F800314B68C2F8043100228A600028B0
:102F600000D162B670470000740E002007490B5C68
:102F70004FF0A041D1F804250120984020EA020337
:102F8000C1F808351040C1F80C0570471850010011
:102F90000249085C012101F0FAB800001850010054
:102FA0000249085C002101F0F2B80000185001004D
:102FB0000649095C4FF0A040D0F80405C84010F065
:102FC000010000D0012080F001007047185001007E
:102FD0007CB50024084E25460122305D0095002373
:102FE0001146019501F09EF8641C042CF4D3BDE851
:102FF0007C4000F003B800001850010010B5002418
:103000002046FFF7C5FF641C042CF9D310BD10B592
:1030100000242046FFF7C4FF641C042CF9D310BD24
:1030200010B50246064B4FF0FF3000215C5C944225
:1030300001D1084610BD491C0429F7D310BD00007A
:103040001C5001002DE9F0470D468146FFF7E8FFCF
:103050000446042836D2DFF874801B481C4EA8F1C1
:103060000C0725B3012D0ED0022D2BD104EB44000B
:1030700030444578002D25D0B968002922D0284653
:10308000BDE8F047084704EB4401755C0E447178D5
:1030900049B10E4A4FF40041093A8068FFF7D4FE67
:1030A00008B987F80390B17808F80410E2E780685F
:1030B000FFF70EFF04EB4401314418F804008D784B
:1030C000A842D7D0BDE8F08720500100A00B002017
:1030D000C40C002070B50023042810D20D4D00EB65
:1030E0004004012A02D101290CD00022094E00EB34
:1030F0004000304461B1012906D0022906D00723DF
:10310000184670BD0E30C2B22A55F9E74270F7E793
:103110008270F5E7C40C002070B506461E480024F6
:10312000C0E90161B00720D50025012211462846DB
:10313000FFF7D0FF6D1C0446042D02D2002CF4D002
:1031400013E094B940F2666204211448FFF7BCFD15
:1031500004000AD1FFF7A6FD040006D10F48104A6B
:103160000021001FFFF732FE0446F00701D0FFF7F1
:103170002FFF74B909480B4A00210C38FFF726FECF
:10318000040006D10548084A01210838FFF71EFE51
:103190000446204670BD0000940B00202C50010016
:1031A000FD330100F5360100EF2B01002DE9F05F42
:1031B0006A4C054600266078B34618B184F801B021
:1031C00000F080FA664F4FF47A694FF4C87A4FF0F6
:1031D0000108182D62D2DFE805F0AC0C0C31404D2F
:1031E00062676B746B74BE7D7D7D7D7DACAFB2B567
:1031F000BEBE0020FFF7DCFE00284FF0000008D024
:10320000FFF7C6FE022D02D14FF4E16008E0484608
:1032100006E0FFF7C5FE022D01D1C82000E05046B0
:10322000410CC0034FF4FA72801841F1000125707F
:1032300052000023FFF7B8F801462AE00020FFF70C
:10324000B7FE00284FF0000004D0FFF7A1FE4FF4B6
:103250004870E5E7FFF7A4FEDFE70020FFF7A8FED0
:1032600000284FF0000002D0FFF792FECFE7FFF7F3
:1032700097FED4E70020FFF79BFE00284FF00000E8
:1032800002D0FFF785FE01E0FFF78AFE257041F6C8
:103290009A1100223868FFF7D7FD064646E0002065
:1032A000FFF764FE257008E0002051E025703DE046
:1032B00084F801800120FFF759FE002240F6CD413D
:1032C000E8E784F801800120FFF750FE00224FF468
:1032D0008041DFE77868FFF7FBFD0646D5F1110076
:1032E00000D02EB10220FFF753FE84F802B01DE09B
:1032F000012816D980B2C8214843C117C90341EA41
:103300005041C0034FF4FA72801841F1000152009D
:103310000023FFF749F8014600227868FFF794FD83
:1033200006460220FFF73CFE84F802803046BDE8E6
:10333000F09F00F0C7F9B9E700F0C4F9B4E700F076
:10334000C1F904E000F0BEF90020FFF729FE0120DA
:10335000FFF726FEAAE7FFF75AFEA7E7940B002027
:1033600020500100F8B5871C00208DF800000E46A3
:1033700001256846FFF7BCFD124C20683060D4E997
:103380000001401AA168091ABE1C06E000F038FAD4
:10339000D4E90001401AA168091A491C8E42F5D8E7
:1033A000A1682068084004EB8000C16841F0030177
:1033B000C1602068384420609DF80000FFF7BCFD24
:1033C0002846F8BD4C0F002030B482680468531CB6
:1033D0008360A154D0E901128A4202D330BC00F0CC
:1033E000A8BD30BC70470000034803C8814201D12A
:1033F00001207047002070474C0F00200078022108
:10340000FFF720BE05494FF0FF32082841F8202081
:1034100002D3084480F8482070470000F00C0020D8
:10342000F0B54FF0FF3512B10023082601E0082364
:103430000C260C4C05E000BF54F823707F1C04D010
:103440005B1CB342F8D32846F0BD26185DB286F85F
:10345000305044F82310002AF5D1E11881F84800D3
:10346000F1E70000F00C00200249084490F9300018
:1034700070470000F00C00202DE9F05F26484168FD
:10348000F1B3DFF898B00E688146DBF8004087683A
:103490008078E11B21F07F45ED1CB0B9DFF880801A
:1034A0004FF48030C8F84403C8F804031120FFF734
:1034B000EFF81120FFF7F7F84FF0010AC8F800A065
:1034C0002F2000F08DFB89F802A0B54200D23546CE
:1034D000124BE8193C3320F07F401860DBF80010F5
:1034E0005A46091B21F07F41001B20F07F40C91C78
:1034F00081420FD9106818602F2000F071FB00E0A6
:1035000004E0BDE8F05F1120FFF7D8B8BDE8F05F38
:1035100001F02ABBBDE8F09FB80B00200415014064
:10352000001001402DE9F04100260125144C22E055
:103530006068226900EBC607387805FA00F111428D
:1035400017D08A43226100F07DFC02463878E36898
:1035500005FA00F1194002FA00F3994209D179788D
:10356000012901D0012100E0002151407A6802B117
:103570009047761CF6B220788642D9D3BDE8F08118
:10358000A40B00200E4910B50A784C780023A24203
:1035900012D0521CD2B20A70022A00D10B70084A13
:1035A0000B780C3252F8232002608868104420F017
:1035B0007F408860012010BD0360002010BD000026
:1035C000B80B00202DE9F041124E07460125BD4001
:1035D0003068FFF77DFC00280DD10F4C2069284290
:1035E00007D1384600F02EFC0028E06805D02843BB
:1035F00004E0A8432061BDE8F081A843E0602069B1
:1036000028432061A1683068BDE8F0410022FFF73F
:103610001BBC000094500100A40B00202DE9FC5FAE
:103620000E008346DDE90C47C6F10000984692463D
:10363000814600D40846012503E000BF90FBFAF064
:103640006D1C5045FADAA84500D9454624B1002E34
:1036500001DB780700D5641EB80702D5B8F1000F6A
:103660000AD0F80708D13CB1A54205D2202158461E
:10367000641EFFF7A9FEF6E7002E02DA4E462D2162
:1036800002E0780703D52B215846FFF79DFE07F08F
:10369000030002280BD1B8F1000F08D13CB1A542BC
:1036A00005D230215846641EFFF78EFEF6E7CDE9BD
:1036B0000047434652463146584601F035FCBDE8C6
:1036C000FC9F00000A4810B5807860B1002401E03A
:1036D000022C06D02046FFF75BFC641C042CF7D3B9
:1036E00010BD0324F6E7BDE81040FFF787BC0000DB
:1036F000940B002003480179C90702D00078FFF736
:1037000055BD7047940B00202DE9F047394E002736
:1037100080463D46DFF8E090D6F804A057E003D09D
:103720000446D0F81C8035E099F8002002EB4201F5
:10373000521CD2B289F8002009EBC10199F802307D
:10374000091D9A4201D189F8005048680A78044658
:10375000012A12D0022A02D0032A3BD108E001F04C
:1037600055FB00B10127257434E00574C06900E001
:1037700070680028F9D170602CE0207C50BB88680C
:103780006060C868A0600869E0604869A061F0787E
:1037900000B165606268B168184B501A20F07F4034
:1037A000984202D2A168084406E0881AA16820F075
:1037B0007F40814202D9081A206000E025606560E0
:1037C0000120A56020742046E56101F001FBB8F1FD
:1037D0000000A4D199F8001099F801008142A3D10A
:1037E00017B97168514502D00120BDE8F08700206B
:1037F000FBE70000B80B0020680D0020FFFF7F00F2
:1038000070B588B0214800F015F92048001F064621
:1038100000F010F91E4DD5E9014105E0C0F3891211
:1038200002EB9050641C044404EA010005EB8000A4
:10383000C0688207F2D000200DF1080204EA0103FB
:1038400005EB8303641CDB6842F82030401C02282F
:10385000F4D3029800F00300012808D002280AD10E
:103860000298032101EB905004EB900403E00298CE
:10387000C0F3831004443046002101AAFEF74DFD39
:10388000002800D06C6008B070BD000064130020F8
:103890004C0F002086B00322082103A8FEF7CCFDC0
:1038A000002000F0C9FE08B1FFF784FA00F054FDD3
:1038B000FFF7A0FA08B1FFF77DFA00210120FFF71A
:1038C0002BFC08B1FFF776FA00F0DAFF08B1FFF73A
:1038D00071FA01F039F808B1FFF76CFA01F004F859
:1038E00008B1FFF767FA1D4A07CA8DE80700684666
:1038F000FFF780F908B1FFF75DFA00210846C4DF41
:1039000008B1FFF757FA082103AA0020C7DF1448BF
:103910000321008801EB004012A100F021FE194CA8
:1039200000264CF25035A0680128FCD160680228BE
:1039300000D166602068401C20606068401C6060A8
:10394000284600F007F9E0680128ECD160680228F9
:10395000E9D121692068FFF78FF9E4E70C500100F5
:10396000600C00204C6F72E8207475206D69206631
:10397000616920646976656E74E0206D6174746FAE
:1039800000000000800B00202DE9F047C7880446A6
:10399000181D16468946B0FBF7F1B0FBF7F207FB9E
:1039A00012009A193A44D21CB2FBF7F2DDF820A0BB
:1039B00001E02468491E0029FBD13D1A8846B54222
:1039C00016D818E0BAF1000F05D0211809EB08004D
:1039D0002A46091D04E0204409EB08012A46001D7F
:1039E000FEF718FD00202468761BA844B74201D9D1
:1039F000354600E03D46002EE4D1BDE8F0870000EA
:103A000030B5024669B100F045FE0021084C0BE0DC
:103A100001EB410304EB830315685B88AB4202D1E1
:103A20001160002030BD491C8142F1D3052030BD1A
:103A3000300C002008B501216A46FEF761FC0098B1
:103A400008BD38B5044600258DF800506846FFF7DC
:103A50004FFA21686268086890420ED9401E0860DB
:103A60000178238AE26801FB0325227A2168101A73
:103A7000C0B20A79824200D208719DF80000FFF7B7
:103A80005BFA284638BD38B5054600208DF80000A1
:103A90000C466846FFF72CFAE868298A201AB0FB22
:103AA000F1F12A681068431C136001709DF8000052
:103AB000FFF742FA38BD00007CB5040016D0207A2A
:103AC00021792246401AC5B2208A2B4600FB05F117
:103AD000CDE900010C480321008801EB00400BA157
:103AE00000F04AFDD4E90001016006E00E207CBD33
:103AF00021680868421C0A6005706D1EEDB2F7D29D
:103B00002168002008717CBD480C0020506F6F6C4C
:103B100020273078253038582720696E697469610C
:103B20006C697A6564202873697A653A2025752066
:103B300078202575203D20257520627974657329CC
:103B400000000000C20800F007030120895C9840D3
:103B50000840704700283ED01F49204A096800BF2E
:103B600000BF00BF00BF00BF00BF00BF00BF914249
:103B70002FD000BF00BF00BF00BF00BF00BF00BF0D
:103B800000BF00BF00BF00BF00BF00BF00BF00BF3D
:103B900000BF00BF00BF00BF00BF00BF00BF00BF2D
:103BA00000BF00BF00BF00BF00BF00BF00BF00BF1D
:103BB00000BF00BF00BF00BF00BF00BF00BF00BF0D
:103BC00000BF00BF00BF00BF00BF00BF00BF00BFFD
:103BD00000BF0138C3D170472C0C00200024F40032
:103BE00000283ED01F49204A096800BF00BF00BF1F
:103BF00000BF00BF00BF00BF00BF91422FD000BF79
:103C000000BF00BF00BF00BF00BF00BF00BF00BFBC
:103C100000BF00BF00BF00BF00BF00BF00BF00BFAC
:103C200000BF00BF00BF00BF00BF00BF00BF00BF9C
:103C300000BF00BF00BF00BF00BF00BF00BF00BF8C
:103C400000BF00BF00BF00BF00BF00BF00BF00BF7C
:103C500000BF00BF00BF00BF00BF00BF00BF0138F2
:103C6000C3D170472C0C00200024F4004907090E32
:103C7000002806DA00F00F0202F1E02282F8141D9B
:103C800003E000F1E02282F8001400F01F0201219D
:103C900091404009800000F1E020C0F88012C0F897
:103CA000001170472DE9F0418846054600F0F8FE06
:103CB000234E002828461AD0FFF7D6FB304490F850
:103CC00048008009032802D001280ED007E04FF0F9
:103CD000A040D0F81005E84010F0010F05D00321F6
:103CE0002846BDE8F04100F041BA0221F8E700F0B3
:103CF000E3FE002822D02846FFF7B6FB04464FF427
:103D0000807000EB84000F4F81B207EB8400D0F885
:103D1000102542F00102C0F81025084600F056FABE
:103D2000B8F1000F0AD02846FFF79EFB56F8200096
:103D3000002803D00120A040C7F80403BDE8F081AB
:103D4000F00C0020006000402DE9FC41DFF8C0804D
:103D5000044608EB0400002790F930001346C01712
:103D60000E46401C01D0082741E0F2781946204653
:103D7000FFF756FB0546401C38D0B07850B14FF0E5
:103D8000A04000EB8401D1F8000720F00200C1F848
:103D9000000707E000217378204600910A46019150
:103DA00000F0D2F9F078C0B11A48317800EB850004
:103DB000D0F81025184B1A40C0F810254FF4F852CF
:103DC0004FF4403302EA042203EA01410A43D0F8E7
:103DD00010150A43C0F8102509E008EB05003278F9
:103DE00010F8481F41EA8211017000E004273846AC
:103DF00000F04CFE034609480321094A008801EB04
:103E0000004008A100F0B0FB3846BDE8FC8100008E
:103E1000F00C002000600040FFE0FCFF300C0020B0
:103E20007C50010046756E6374696F6E3A2025738D
:103E30002C206572726F7220636F64653A2025735F
:103E40002E0000004FF0A041D1F81015C14011F034
:103E5000010000D00120704770B51E4D1E4E95F830
:103E6000540038B10824204600F010FE0346308884
:103E7000022127E00020411E2A18401CC0B282F80F
:103E800030102028F8D300242046FFF7BBFA641C2A
:103E9000E4B20C2CF8D307210620FFF7E7FE4FF41D
:103EA000BE7000F093F90D494FF00040C1F80403D3
:103EB000012085F854000024204600F0E7FD034669
:103EC0003088032101EB0040054A06A100F04CFBBD
:103ED000204670BDF00C0020300C00200060004037
:103EE0005050010046756E6374696F6E3A202573F9
:103EF0002C206572726F7220636F64653A2025739F
:103F00002E000000034890F85400002800D0012043
:103F100070470000F00C00200FB408B50399002989
:103F200004D004AA00926A4600F00FF801B05DF8D0
:103F300014FB10B582680446002A05D0D4E90403B6
:103F4000216898470020A06010BD2DE9FC479146EC
:103F50000C00804676D014F8011B39B125290ED00B
:103F60004046FFF731FA20780028F4D198F80C0089
:103F7000002867D04046BDE8FC47FFF7DABF0020C5
:103F8000012221782B291BD02D2902D0302908D1DC
:103F900002E040F0010001E040F00200641C002A51
:103FA000EFD100252A290ED02178A1F130020A2A6A
:103FB00011D205EB850201EB4205641C303DF1E7AF
:103FC00040F00400EAE7D9F800100B1DC9F80030F2
:103FD0000968641C0D44217800232E290BD114F8A4
:103FE000011FA1F130020A2A05D203EB830201EB83
:103FF0004203303BF3E76C290DD068290BD06929C7
:1040000021D00BDC252918D0582931D063290ED0B6
:10401000642915D117E014F8011FECE7702969D065
:10402000732932D075291BD0782909D120E0D9F81D
:104030000000011DC9F8001001784046FFF7C4F9DF
:10404000641C90E76CE0D9F800100A1DC9F8002044
:104050000968CDE900500A224046FFF7DFFAEFE792
:10406000D9F800100A1DC9F8002009680A2206E0E4
:10407000D9F800100A1DC9F8002009681022CDE9FE
:104080000050404600F050FFDAE7D9F80010002752
:104090000A1DC9F800200E68C00705D112E040468D
:1040A000761C7F1CFFF790F931780029F7D104E0E6
:1040B000202140466D1EFFF787F9BD42C0D9002D73
:1040C000F6D1BDE74EB13046FEF7C8F9074604E029
:1040D000202140466D1EFFF777F9BD4206D9002D1D
:1040E000F6D103E04046761CFFF76EF931780029DF
:1040F000F8D1A5E7D9F80000011DC9F8001005683E
:1041000030214046FFF760F978214046FFF75CF91F
:1041100008200021CDE90001034610222946B0E71E
:10412000BDE8FC8770B541EA4201DDE904564FF075
:10413000A04441EA830141EA052104EB800041EA01
:104140000641C0F8001770BD70B541EA4201DDE9D3
:1041500004564FF0A04441EA830141EA052104EBF3
:10416000800041EA0641C0F8001770BD4FF0A04240
:1041700002EB8000D0F8002722F44032C0F800277C
:10418000D0F8002742EA0141C0F800177047012229
:104190004FF0A043824011B1C3F808257047C3F81F
:1041A0000C25704718B5084B6C4601441B680093FA
:1041B00006E000BF54F82030D3F81035401C08C288
:1041C0008142F7D818BD00004C500100034908B5E2
:1041D0000844002101600068009008BD00600040B4
:1041E00002494058012800D000207047006000407C
:1041F00030B5124B01460020D3F81044224609E0A6
:10420000157A854205D1401C0A28F7DB4FF0FF30B4
:1042100030BD5268002AF3D1421CF9D00872D3F89D
:1042200010242AB152684A60D3F81024516030BD7E
:104230000022C3F810144A6030BD00004C0F00206B
:104240007047FEF769BA704708B5034A00924023E9
:10425000024A00F005F808BD454C01006C1300202F
:10426000F0B595B01C4615460E4608461A9F00F05C
:10427000E1FA182109A8FEF7E6F80E97CDE90954EE
:104280000023082203A9304600F0EEFA05980690B4
:104290000498ADF81C0000208DF820000399082533
:1042A00001F00300012802D002281AD037E0C1F340
:1042B000C2008DF81E00C1F38000C1F383178C0A81
:1042C0008DF81F00BA002B460FA9304600F0CCFA3B
:1042D00009A8009006AB3A460FA9204600F006FA5E
:1042E0001DE0C1F3C2008DF81E00C1F380008C0DEB
:1042F0008DF81F00082C01D2274600E008272B4626
:104300003A460FA9304600F0AFFA3D44E41B09AB32
:1043100006AA39460FA800F039F9002CEAD1304638
:1043200000F091FA15B0F0BD0A4A012902EBC00075
:1043300007D0022907D0032907D0042907D000207D
:104340007047022070470420704700797047407919
:1043500070470000CC56010010B5FFF772FF042132
:104360000348FFF745FF02490120487210BD0000D5
:10437000E40B00202DE9F04F8DB0FFF735F818B1B0
:1043800000200DB0BDE8F08F73480021C0F818146C
:10439000BFF34F8FD0E9014504EA050100EB81012D
:1043A0004FF000090AE000BFC1F3891202EB9151FE
:1043B000641C0C4404EA050100EB8101C9688A070A
:1043C000F2D0002109AA804604EA050008EB80002B
:1043D000641CC06842F82100491C43460229F3D3FB
:1043E000099800F00301022905D001294ED0C043ED
:1043F00080077DD0ABE0810D50228A46B2EB905F02
:1044000000D850210E4666F39F500990083153485A
:1044100000F0C7F907006CD000F00CFA4B460822F8
:1044200009A9384600F026FA04EA0500291A89008D
:10443000091D09F1080B8E4221D9474D0C3531B1C8
:10444000CAB208EB8000711A91460C3004E028468D
:10445000F2B2002591462946CEB201465B46384667
:1044600000F008FA0BEB090325B13246294638461D
:1044700000F000FA0AF1030004EB90043BE008EBC3
:1044800080015B46324638460C31F1E7C0F38311B8
:10449000062900D3062161F389100990C0F3831027
:1044A000801C81002D4800F07CF907004FD000F0FF
:1044B000C1F94B46082209A9384600F0DBF909F199
:1044C000080900260EE000BF04EA050008EB8001A1
:1044D0004B46042238460C31641C00F0CBF909F13C
:1044E0000409761C0998C0F38310B042ECD801E0AF
:1044F0000BE02CE05FB3D8F81054D8F81804464607
:1045000090B1384600F09FF921E0D3F81804002854
:104510003FF437AF1BE0687A012804D12A682846A7
:104520003946126890476D68002DF4D1384600F086
:104530008AF900208DF800006846FEF7D9FCD6F80D
:10454000180400B974609DF80000FEF7F5FCFEF752
:104550004BFF80F0010014E74C0F0020D451010004
:1045600000231A4600F0ACBB1CB5CDE900230223A2
:104570006A4600F0A5FB1CBD7FB5DDE908458DE866
:104580003C0004236A4600F09BFB7FBD2DE9F04709
:104590000E4680461C46924608293ED894F80C9058
:1045A000002020731946104600F0B0FA0025B542ED
:1045B00006D218F805201AA12046FFF7ADFC03E04B
:1045C00019A12046FFF7A8FC6D1C082DEFD317A1F9
:1045D0002046FFF7A1FC0025B54210D218F805705F
:1045E000FDF714FF0068C05D10F03E0F01D03A46A1
:1045F00000E02E220EA12046FFF78EFC03E00DA165
:104600002046FFF789FC6D1C082DE5D301222146C9
:10461000504600F05DFA84F80C90BDE8F087000089
:104620002025303278000000202020007C0000008F
:104630002563000020000000114810B5FF218160B3
:10464000002101604160C0F81814C0F8141480F80B
:104650001C140C4800F0F5F800280FD10A480B494B
:104660000B4B401AC108002005E000BF00EB4002E0
:1046700023F82200401C8842F8D3002010BD00001F
:104680004C0F0020D451010004570100CC5601000A
:10469000300C002002480349401AC008704700004F
:1046A00004570100CC56010013B56846FFF7A8F97E
:1046B00008B100201CBD0248009950F831001CBD13
:1046C000CC56010070B508480125D0F8104480F898
:1046D0001C5405E065722168204649688847646873
:1046E000002CF7D170BD00004C0F00202DE9FF47D2
:1046F00081460C9D00200C462F7B28739846164659
:104700002946184600F002FA072E42D2DFE806F0EA
:1047100004090F161F2A360049462846FFF7FCFBFE
:1047200037E0494628462268FFF7F6FB31E0D4E936
:10473000002349462846FFF7EFFB2AE0A0680090D7
:10474000D4E9002349462846FFF7E6FB21E0D4E9F7
:104750000201CDE90001D4E9002349462846FFF7CC
:10476000DBFB16E004F1080007C88DE80700D4E978
:10477000002349462846FFF7CFFB0AE004F1080072
:104780000FC88DE80F00D4E9002349462846FFF7FB
:10479000C3FB00222946404600F09AF92F73BDE87A
:1047A000FF872DE9F041058A80462D1F4819C01C5E
:1047B000B0FBF5F0C6B24046FFF743F9041E19D02E
:1047C0000020207101206071E58000272546761EBB
:1047D000C4F800800BE04046FFF733F960B161791F
:1047E000491C6171286005467F1CC0F80080B742F3
:1047F000F1D32046BDE8F081204600F002F8002009
:10480000F8E72DE9F041457901466B1E002201E0F1
:104810000968521C9A42FBD30F680146002605E046
:1048200038460C68FFF72FF92146761CAE42F7D3C5
:10483000BDE8F08108B501216A46001DFDF739FD8C
:1048400008BDFFF739B938B50446001D01216A4695
:10485000FDF73CFD009810F0FF0F04D12046BDE8A5
:104860003840FFF7CEBF38BD38B501240094FFF7BC
:104870008BF838BD38B500240094FFF785F838BDB3
:10488000114810B50088032404EB00400FA1FFF786
:1048900067FE104900204870091D0860BFF35F8F54
:1048A0000D490E4800F0AEF80D48016841F01001C6
:1048B00001604FF0A0414FF08070C1F80C0509482D
:1048C000C0F80047002010BD540C0020496E6974E8
:1048D00000000000CC0B0020B4500100800E00202E
:1048E00010ED00E0600000500EB5034A07CA8DE8E5
:1048F00007006846FADF0EBD6852010030B58FB080
:104900000DF12D040BAD6A4621462846C1DF30B1BA
:10491000052814D00FB0BDE83040FEF74BBA094966
:104920000CA800F06FF806E0D0E90031684698471F
:104930000CA800F07EF80E980028E4D0F4E70FB041
:1049400030BD00005C52010038B5184C207808B129
:10495000082038BD0125A570002000F045F9112878
:1049600021D0002000F058F9114812A21B4900681C
:104970000090684610DF0028EBD12570A0706070B1
:104980000721162000F00EF908B1FEF713FA0721EF
:10499000152000F007F908B1FEF70CFA00F068F9ED
:1049A000012000F039F9002038BD0000280C00205B
:1049B00004520100333833312D353231642D3764E0
:1049C00066392D323464382D656666332D343637BA
:1049D000622D323235662D6130306500392D01008F
:1049E0000EB50749684600F00DF805E0D0E9001063
:1049F0008847684600F01DF802980028F6D10EBDE1
:104A000020520100016009684160AFF3008010B5D9
:104A1000D0E900215368994201D1002104E0D1E995
:104A20000034A34202D01946816010BD08314160B4
:104A3000F0E7816800290BD0026892680A4482601E
:104A400041684B689A4203D108314160FFF7DFBFEC
:104A5000704700000C4A10B502F1F0030EE0991AFD
:104A6000C91001EBD171491002EBC1010C688442FD
:104A700001D90B4602E005D201F108029A42EED3B9
:104A8000002010BD486810BDD450010000B5FFF7EC
:104A9000E1FF002800D1014800BD0000C050010026
:104AA0000449084490F93000082801DB01207047D0
:104AB00000207047F00C00200449084490F93000B1
:104AC000082801D20120704700207047F00C002018
:104AD00010B50C46C17949B11AB109A12046FFF7BA
:104AE0001BFA2046BDE81040FFF723BA007A0028E1
:104AF000F3D0044804A102682046FFF70DFAECE762
:104B00000D0A0000040C00202573000070B5044657
:104B1000C0790D4600281CD1207A50B1A179A08817
:104B2000FFF702FC0B4951F820200BA12846FFF7A4
:104B3000F3F9A0880021FFF7B7FD03460549A079E6
:104B4000143951F820202846BDE8704003A1FFF732
:104B5000E3B970BD040C0020257300003C25733EB2
:104B60002025733A2000000070B5012670044FF034
:104B7000E0210025C1F88001084C4010C4F848032A
:104B8000C4F8080366602F20FFF72AF8A660044CDB
:104B90002F20A560FFF724F8A57070BD001001401C
:104BA000B80B002070B50D460446FEF703F870B14F
:104BB0002846FEF711F868B16807000E002C0CDAE1
:104BC00004F00F0101F1E02181F8140D09E042F237
:104BD000010070BD42F2020070BD04F1E02484F8CF
:104BE0000004002070BD00003EB504460949684637
:104BF000FFF708FF08E000BFD0E9002120469047FA
:104C000030B16846FFF715FF02980028F4D13EBD89
:104C100011203EBD085201003EB5044608496846D1
:104C2000FFF7F0FE07E000BFD0E9002120469047E3
:104C30006846FFF7FEFE02980028F5D13EBD000051
:104C4000145201002DE9F04114000F460DD000254B
:104C50000A26791922460020FDF760FD0544241A32
:104C600008B9761E01D0002CF3D1BDE8F081000018
:104C700010B51620FDF79EFF80B10F4890F8000494
:104C80004009FDF7A9FF60B10C4882684FF480012C
:104C90006AB1016841F48001016010BD42F2010077
:104CA00001E042F20200BDE81040FEF783B84FF089
:104CB000E020C0F8001110BD16E000E0740E0020E6
:104CC0002DE9F843214C8846054691461F46694622
:104CD0001846A668FEF746FB70B30098811C0022B8
:104CE0000AE000BF01EA060C59F8223004EB8C0CF4
:104CF000491C521CCCF80C30BA42F3D30246401C7B
:104D0000304004EB80002B0CC36002EA060004EB89
:104D10008002E80652F80C0F02D540F0040001E0D2
:104D200020F0040065F3C50067F3891068F39F2045
:104D300020F00300401C106094F81C0402E000BF47
:104D4000FFF718FB0028FBD1BDE8F8834C0F0020CB
:104D50002DE9F84F1D4C00256846D4E901A6FEF761
:104D600011FC002738B30023009A61681CE0D1F8D9
:104D700000C00846944503D9ACEB02020A6015E076
:104D8000A2EB0C0263440760D0F80CC0C1698146F5
:104D9000BCF1000F08D006EB030828F07F48C0E9FB
:104DA000018CC9F81C5005460029E0D128466160F5
:104DB000FEF7AAFC03E02846FEF7A6FC10B1504619
:104DC000FEF75AFBE770BDE8F88F0000B80B002033
:104DD0000D4B10B5596831B102680C68A24204D875
:104DE000A21A0A60C161586010BD0B4603E00B4671
:104DF000C969121B21B10C689442F8D3A41A0C6043
:104E00000260C161D86110BDB80B00202DE9F041EE
:104E1000144E77683D462C4603E0844204D0254674
:104E2000E469002CF9D11BE0D4B1A5420BD1F8699B
:104E3000706040B90C49012088600021B160F070B9
:104E40002F20FEF7CDFE2168E069E86110B102680D
:104E5000114401607068874202D00120BDE8F081F2
:104E60000020FBE7B80B0020001001407CB506468F
:104E700000240D468DF800406846FEF739F801A879
:104E800000F0ACF870B10570094946609DF8040067
:104E900048709DF80000FEF74FF81420FDF70EFC57
:104EA00020467CBD04249DF80000FEF745F8F7E796
:104EB000680D00202DE9F041194D6C68002C2CD0B4
:104EC000184800270068A968B846401A20F07F46B5
:104ED0002068B0420CD82146361A0744E469087CA1
:104EE00020B181F81080886949698847002CEFD18A
:104EF00029786878814206D1401CC0B268700228C7
:104F000001D185F80180064869780C3040F821709D
:104F1000BDE8F0411420FDF7D1BBBDE8F0810000F1
:104F2000B80B0020041501402DE9F05F8346DDE950
:104F30000A4A994690460D460846012703E000BFFD
:104F4000B0FBF8F07F1C4045FAD2B94500D94F4676
:104F50005FEACA7012D18CB15FEA8A7002D5B9F1EA
:104F6000000F01D0202607E0302605E031465846E4
:104F7000641EFEF729FA0CB1A742F7D35FF00106D1
:104F8000B9F1010F02D9A9F1010903E0B5FBF6F06F
:104F9000404502D306FB08F6F2E7DFF83C9000BF7D
:104FA000B5FBF6F000FB165519F800105846FEF751
:104FB0000BFAB6FBF8F6002EF2D15FEACA7009D000
:104FC000002C07D0A74205D220215846641EFEF7C8
:104FD000FBF9F5E7BDE8F09FC45101000A494A78A2
:104FE0008B78521CD2B2934200D100220B789342AC
:104FF00001D1002070470270487800EB400001EBBF
:10500000C000001D70470000680D00200020004215
:105010000202020044040000111213140D0E0F10BE
:10502000840C0020A40C0020D00C00200D000300F4
:10503000453001000E000300453001000F00030061
:105040004530010010000300453001000000005011
:105050006E72665F6472765F6770696F74655F69B0
:105060006E6974006E72665F6472765F6770696FF6
:1050700074655F6F75745F696E6974006E72665FE8
:105080006472765F6770696F74655F696E5F696E81
:1050900069740000480D00200300000000000000BB
:1050A0000000000000000000000000000000000000
:1050B000000000009C500100B450010004000000FA
:1050C000556E6B6E6F776E206572726F7220636FB4
:1050D0006465000000000000D455010001000000DC
:1050E000945401000200000014530100030000006A
:1050F00008550100040000005C5501000500000097
:105100005454010006000000F453010007000000A1
:105110004455010008000000685401000900000027
:10512000B45401000A000000BC5501000B0000004F
:10513000FC5201000C000000805401000D00000032
:10514000E05501000E000000345501000F00000082
:105150007055010010000000A4550100110000006E
:10516000F45501008000000034540100810000006B
:10517000B853010082000000785301008300000052
:105180005853010084000000945301008500000082
:105190000C540100860000001C5501009000000026
:1051A000D453010091000000385301000082000038
:1051B0008455010001820000D054010002820000E9
:1051C000EC5401003031323334353637383941420E
:1051D00043444546DC0B0020D40B0020DC0B0020B0
:1051E0008C0E0020180000004942010047420100D7
:1051F000414201000000000000000000000000002B
:105200000000000001000007F451010004520100F9
:10521000080000002C5201003C5201000800000070
:105220003C5201004C520100080000000000000048
:105230000000000000000000000000000C5701000A
:1052400014570100000000000000000000000000F2
:1052500000000000045701000C5701004C520100EF
:105260005C5201000800000001002000AC13002087
:1052700080000000004040404040404040404141EC
:10528000414141404040404040404040404040401B
:1052900040404040400502020202020202020202B5
:1052A00002020202022020202020202020202002B2
:1052B0000202020202029090909090901010101042
:1052C00010101010101010101010101010101010DE
:1052D0000202020202028888888888880808080872
:1052E000080808080808080808080808080808083E
:1052F0000202020240000000755201004E52465F59
:105300004552524F525F494E56414C49445F4441C9
:10531000544100004E52465F4552524F525F534F28
:1053200046544445564943455F4E4F545F454E41B0
:10533000424C4544000000004E52465F4552524FD9
:10534000525F464541545552455F4E4F545F454E5E
:1053500041424C45440000004E52465F4552524F78
:10536000525F4D555445585F554E4C4F434B5F4629
:1053700041494C45440000004E52465F4552524F51
:10538000525F4D555445585F4C4F434B5F46414922
:105390004C4544004E52465F4552524F525F4D5568
:1053A0005445585F434F4E445F494E49545F464110
:1053B000494C4544000000004E52465F4552524F52
:1053C000525F4D555445585F494E49545F464149D7
:1053D0004C4544004E52465F4552524F525F415039
:1053E000495F4E4F545F494D504C454D454E5445D5
:1053F000440000004E52465F4552524F525F4E4F9E
:10540000545F535550504F52544544004E52465FDE
:105410004552524F525F4D4F44554C455F414C529F
:10542000454144595F494E495449414C495A4544C4
:10543000000000004E52465F4552524F525F4D4FA2
:1054400044554C455F4E4F545F494E495449414C79
:105450005A4544004E52465F4552524F525F4E4F9E
:10546000545F464F554E44004E52465F4552524F90
:10547000525F494E56414C49445F53544154450094
:105480004E52465F4552524F525F444154415F5322
:10549000495A45004E52465F4552524F525F53564D
:1054A000435F48414E444C45525F4D495353494E2A
:1054B000470000004E52465F4552524F525F494EE0
:1054C00056414C49445F4C454E475448000000004B
:1054D0004E52465F4552524F525F4452565F5457A8
:1054E000495F4552525F414E41434B004E52465F29
:1054F0004552524F525F4452565F5457495F45528E
:10550000525F444E41434B004E52465F4552524F0C
:10551000525F494E5445524E414C00004E52465F38
:105520004552524F525F53544F524147455F465583
:105530004C4C00004E52465F4552524F525F4E5502
:105540004C4C00004E52465F4552524F525F494EFE
:1055500056414C49445F504152414D004E52465FC6
:105560004552524F525F4E4F5F4D454D0000000077
:105570004E52465F4552524F525F464F5242494447
:1055800044454E004E52465F4552524F525F445280
:10559000565F5457495F4552525F4F5645525255D8
:1055A0004E0000004E52465F4552524F525F494EE8
:1055B00056414C49445F4144445200004E52465FBC
:1055C0004552524F525F494E56414C49445F464CFA
:1055D000414753004E52465F535543434553530092
:1055E0004E52465F4552524F525F54494D454F55BA
:1055F000540000004E52465F4552524F525F425592
:10560000535900007761726E696E67006465627558
:10561000670000001B5B313B33306D001B5B306D5E
:10562000000000001B5B313B33316D001B5B313BE5
:1056300033326D001B5B313B33336D001B5B313B01
:1056400033346D001B5B313B33356D001B5B313BED
:1056500033366D001B5B313B33376D00696E666F0F
:10566000000000006572726F720000006770696F61
:1056700074650000686172646661756C7400000096
:1056800062616C6C6F6300007077725F6D676D7440
:1056900000000000617070006E72665F73646800E5
:1056A0006E72665F7364685F616E74001457010008
:1056B000800B002004010000962B01001858010007
:1056C000840C0020342A0000A62B01006C56010037
:1056D0000000030074560100000003008056010022
:1056E00000000300885601000000030094560100EA
:1056F000000003009856010000000300A0560100BE
:1057000000000300312C010000000000FD480100F2
:105710000000000000000000000000000000000089
:105720000000000000000000000000000000000079
:105730000000000000000000000000000000000069
:105740000000000000000000000000000000000059
:105750000000000000000000000000000000000049
:105760000000000000000000000000000000000039
:105770000000000000000000E851010000000000EF
:105780000000000000000000645601000456010003
:105790005C5601000C5601001C5601001456010015
:1057A000245601002C560100345601003C560100DD
:1057B000445601004C560100545601000000000000
:1057C0000090D00300000000000000000000000076
:1057D00000000000000000000000000000000000C9
:1057E00000000000000000000000000000000000B9
:1057F00000000000000000000000000000000000A9
:105800000000000000000000000000000000000098
:08581000000000000000000090
:0400000500012201D3
:00000001FF
