:020000040001F9
:10200000082F00204D220100552201001922010055
:10201000592201005B2201005D2201000000000046
:102020000000000000000000000000005F2201002E
:10203000612201000000000063220100652201000E
:102040006722010067220100672201005937010061
:102050006722010067220100D92801008D350100A7
:10206000253A010067220100672201006722010072
:102070006722010067220100672201006722010038
:102080006722010059350100672201006722010023
:102090006D370100753701008937010067220100A3
:1020A0006722010067220100672201006722010008
:1020B000672201006722010000000000000000000C
:1020C00067220100672201006722010067220100E8
:1020D0006722010067220100672201000000000062
:1020E00000000000000000000000000000000000F0
:1020F00000000000000000000000000000000000E0
:1021000000000000000000000000000000000000CF
:1021100000000000000000000000000000000000BF
:1021200000000000000000000000000000000000AF
:10213000000000000000000000000000000000009F
:10214000000000000000000000000000000000008F
:10215000000000000000000000000000000000007F
:10216000000000000000000000000000000000006F
:10217000000000000000000000000000000000005F
:10218000000000000000000000000000000000004F
:10219000000000000000000000000000000000003F
:1021A000000000000000000000000000000000002F
:1021B000000000000000000000000000000000001F
:1021C000000000000000000000000000000000000F
:1021D00000000000000000000000000000000000FF
:1021E00000000000000000000000000000000000EF
:1021F00000000000000000000000000000000000DF
:10220000DFF810D000F056FB0048004741500100B5
:10221000AFF30080082F0020094B1EF0040F1CBFF5
:10222000EFF309801847EFF308800649064A884211
:1022300001D8904202D88D464FF0000018470000A8
:10224000112B0100082F0020080F002006488047AE
:1022500006480047FEE7FEE7FEE7FEE7FEE7FEE78B
:10226000FEE7FEE7FEE7FEE7A137010001220100DD
:102270002DE9F05F0546002092469B4688460646BB
:10228000814640241BE0284641464746224600F04E
:1022900009FA53465A46C01A914110D311461846BE
:1022A000224600F0F0F92D1A67EB01084F4622464E
:1022B0000120002100F0E7F917EB00094E41201E34
:1022C000A4F10104DFDC484631462A464346BDE816
:1022D000F09FD2B201E000F8012B491EFBD27047FB
:1022E0000022F6E710B513460A4604461946FFF7E2
:1022F000F0FF204610BD2DE9FE4F804681EA030025
:10230000C00F0C46009021F0004123F00045B8EBCF
:102310000200A94105D24046214690461C460B4684
:10232000024623F00040104347D0270DC7F30A00B0
:10233000C3F30A510290401A019040286BDAC3F3AC
:10234000130040F4801B0098924620B10023D2EB8A
:10235000030A63EB0B0B01985946C0F1400250464B
:1023600000F091F906460D4650465946019A00F094
:10237000A9F910EB08006141002487EA115284EAB0
:10238000E7731A4340D0009A62B3019A012A4FEAD8
:10239000075215DC001B61EB02014FF0004202EA1C
:1023A0000752CDE90042001C41F5801132462B4610
:1023B00000F0E0F903B0BDE8F08F40462146F9E7B0
:1023C000001B61EB0201001C41F5801300185B410A
:1023D0002018A2F5001747EB030140EAD570B619A3
:1023E0006D4111E06D084FEA360645EAC0754FEAC7
:1023F0000752001B61EB0201001C41F580114908E6
:102400004FEA30000019514132462B4603B0BDE877
:10241000F04F00F0A0B90098012240000023D0EB5B
:10242000020263EBE073009821464FEAE074B8EBD8
:10243000000061EB0401E9E783F000435BE781F012
:10244000004158E72DE9FE4F81EA030404F00044FF
:1024500021F0004100944FF0000B23F0004350EABC
:1024600001045ED052EA03045BD0C3F30A54C1F303
:102470000A552C44A4F2F3340194A0FB0254C1F396
:10248000130141F48011C3F3130343F4801301FBE0
:10249000024400FB034E840A970A44EA815447EA47
:1024A0008357A4FB076802958D0A05FB07854FEA51
:1024B000932C04FB0C542705029D4FEA065847EA6B
:1024C0001637B5EB08056EEB070C870E920E47EA40
:1024D000811742EA8312A7FB0201B6EB0B0164EB02
:1024E00000042B0D43EA0C335E1844EB1C50DA4613
:1024F0005146E7FB0201C5F313044FEA0B3343EAED
:1025000014534FEA0432019C43EA0603A4F10C047D
:102510000294009CCDE900B400F02CF903B0BDE8B2
:10252000F08F00200146F9E72DE9F04D81EA030420
:1025300004F0004B21F0004514464FF0000A23F050
:10254000004150EA050220D054EA01021DD0C5F333
:102550000A570246C5F31303C1F31300C1F30A5629
:1025600040F4801543F48013A7EB0608101BD646F1
:1025700008F2FD3873EB050002D308F1010801E011
:1025800092185B41B8F1000F03DA00200146BDE864
:10259000F08D00204FF48011064684460EE0171B94
:1025A00073EB050705D3121B63EB050306434CEAE7
:1025B000010C49084FEA300092185B4150EA0107CC
:1025C000EDD152EA030012D082EA040083EA050149
:1025D000084305D0101BAB4106D20122002306E0C0
:1025E00000224FF0004302E06FF0010253101AEB9B
:1025F00006004CEB085110EB0A0041EB0B01BDE863
:10260000F04D00F0A8B80EB5C10F80EAE0700844A4
:10261000CA07002140F233438DE80E000A460B46FC
:1026200000F0A8F803B000BD00F0004230F0004018
:102630000AD0C10D01F56071C0F3160042EA0151E4
:10264000C20840071143704700200146704701F05F
:10265000004330B421F0004150EA010206D00A0DD7
:10266000A2F56072C1F31301002A02DC30BC002025
:102670007047440F44EAC104C100E01830BC00EBCD
:10268000C25000F031B8202A04DB203A00FA02F1EF
:10269000002070479140C2F1200320FA03F3194350
:1026A00090407047202A04DB203A21FA02F00021F2
:1026B000704721FA02F3D040C2F120029140084352
:1026C00019467047202A06DBCB17203A41FA02F060
:1026D00043EAE07306E041FA02F3D040C2F120027F
:1026E00091400843194670470029A8BF7047401C15
:1026F000490008BF20F00100704710B4B0FA80FC18
:1027000000FA0CF050EA010404BF10BC704749B154
:10271000CCF1200421FA04F411FA0CF118BF0121C4
:1027200021430843A3EB0C01CB1D4FEA00614FEAA4
:10273000102042BF002010BC704700EBC350104473
:102740000029A4BF10BC7047401C490008BF20F0FE
:10275000010010BC704710B5141E73F1000408DAB4
:10276000401C41F1000192185B411A4301D120F055
:10277000010010BD2DE9F04D92469B4611B1B1FA12
:1027800081F202E0B0FA80F220329046FFF77BFF40
:1027900004460F4640EA0A0041EA0B0153465A46F6
:1027A000084313D0114653EA010019D0C8F1400282
:1027B0005046FFF777FF05460E46504659464246BB
:1027C000FFF761FF084305D0012004E020463946A9
:1027D000BDE8F08D0020054346EAE0762C43374300
:1027E0000A986305E40AA0EB08000022FD0A44EA07
:1027F00047540A3002D500200146E9E701051019C7
:102800006941DDE9084500196941BDE8F04DA2E7DD
:102810002DE9F04D00231A461B1A8A4103DB0020E4
:102820000146BDE8F08DC1F30A52C1F3130141F432
:1028300080154FF0000BD10702D100186D41521ED8
:102840000027044640F2FF11384601EB620A3E467B
:102850008046024600204FF48011FFF723FFC21983
:102860007141BB1846EB0100B4EB030C75EB000C97
:1028700004D3E41A65EB000517460E46241908F147
:1028800001006D4180463428E3DDF91946EB06006E
:10289000091BA84103D24FF0FF32134601E000228A
:1028A00013461BEB070046EB0A51BDE8F04DFFF75E
:1028B00052BF0000064C074D06E0E06840F00103FF
:1028C00094E8070098471034AC42F6D3FFF79CFC1D
:1028D00004740100247401002DE9F04F89B04FF019
:1028E0000008002008904FF4807007900126002413
:1028F00013E0079803F02CFC48B100BF8148006842
:10290000304020B1079803F015FC48EA060876002D
:102910000798001D80B20790641C082CE9D34FF47F
:10292000BE7003F015FC50B14FF4BE7003F002FC12
:1029300048F0004808AA0121002003F0E1FB08F05C
:10294000FF0000B3012600241BE006EA0800B0B136
:1029500000BF6D4850F82400C0F30420074600BFB4
:10296000694850F82400C0F301408146204601F038
:102970000DFF054615B149463846A84700BF760009
:10298000641C082CE1D308F0004000287ED0002011
:1029900006900590002505E04FF0FF3004A941F8AE
:1029A00025006D1C002DF7D000BF002006900024EC
:1029B0006FE05648005D0390039820F0C00753482D
:1029C0000057401C002863D004A9384602F0D2FD0D
:1029D00000285DD003984FEA901A384601F01EFF98
:1029E000814601F0D3FE0290029810B9BAF1030FAC
:1029F0004BD1BAF1030F11D1394605A80246CB08D5
:102A000001F0070112F803C04FF0010E0EFA01FEAB
:102A10004CEA0E0C02F803C000BF00BF00BF00BFAD
:102A20004FF0A041084600F5E06151F82710C1F3CE
:102A3000014900BF08A9384602F09CFD8346BBF15E
:102A4000000F02D0B9F1020F05D0BBF1000F1BD16E
:102A5000B9F1030F18D1BAF1030F0FD1B9F1020F79
:102A600001D1032000E0022001903846019903F0D3
:102A7000CDFA0698401CC0B2069000BF029818B16B
:102A800051463846029A904700BF00E036E000BF4A
:102A9000641C042C8DD3069858B3012703AA012186
:102AA000002003F02DFB00250AE003A850F82500C4
:102AB00008A951F82510884201D0002702E06D1CBA
:102AC000002DF2D000BF17B10020069010E00025C5
:102AD0000CE003A850F8250008A941F8250005A836
:102AE00050F8250004A941F825006D1C002DF0D0F8
:102AF00000BF069800287FF458AF00BF09B0BDE8BA
:102B0000F08F00000463004010650040D80C0020E6
:102B100010B50446204600F001F810BD00BF00BF0C
:102B200000BF00BF00BFBFF34F8F00BF00BF00BF9B
:102B30000948006800F4E06008490843001D0649A0
:102B4000086000BF00BF00BFBFF34F8F00BF00BFD2
:102B500000BF00BF00BFFDE70CED00E00000FA057C
:102B600010B5022001F001FA0221142003F02CF824
:102B700004460CB1204610BD0020FCE710B5022031
:102B800001F0F3F90221012003F01EF804460CB114
:102B9000204610BD0020FCE710B5002001F0E5F94B
:102BA0000021072003F010F804460CB1204610BDA8
:102BB0000020FCE710B5002001F0D7F980210620A5
:102BC00003F002F804460CB1204610BD0020FCE7DB
:102BD00038B50121322002F0CDFF012269463220B2
:102BE00002F018FF0446012038BD10B5002001F0A6
:102BF000BCF90121062002F0E7FF04460CB1204693
:102C000010BD0020FCE72DE9F0410446022001F050
:102C1000ACF9C4F303263146102002F0D5FF054677
:102C200004F00F073946112002F0CEFF054615B11A
:102C30002846BDE8F0810020FBE770B5044602207D
:102C400001F093F905462146002002F0BDFF0DB1C9
:102C5000284670BD0020FCE710B52DED0A0B2DEDC8
:102C6000108BA6B0F0EE60FAF0EE43CAF0EE63BA55
:102C7000B0EE44CA9FEDFE0A8DED240A9FEDFD0AD9
:102C800010EE104A2046FFF7CFFC9FEDFB0BCDE97D
:102C9000020100F0D3FE8DED000B9DED020B53EC15
:102CA000102B9DED000B51EC100BFFF7CBFBCDE98A
:102CB00004019DED040B51EC100BFFF7C8FC2390B1
:102CC000EF4890ED000AB0EE40BA90ED010AB0EE88
:102CD00040AA90ED020AB0EE408A90ED030AF0EEB1
:102CE000408AB0EE000A2BEE000A8DED100AB0EE1D
:102CF000000A2AEE000A8DED0F0AB0EE000A28EE57
:102D0000000A8DED0E0AB0EE000A28EE800A8DED65
:102D10000D0AB0EE000A2BEE000A20EE080A8DED37
:102D20000C0AB0EE000A28EE000A20EE280A8DED0B
:102D30000B0A2BEE0B0A8DED0A0A2BEE0A0AF0EEB7
:102D400040EA2BEE080AB0EE40FA2BEE280A8DED91
:102D5000090A2AEE0A0AB0EE40EA2AEE080A8DEDC8
:102D6000080A2AEE280AF0EE40DA28EE080AB0EE49
:102D700040DA28EE280A8DED070A28EEA80A8DED24
:102D8000060ADDED360A60EEA00A4FEEAF0A9DEDB1
:102D9000381A41EE010AB0EE600A00F08CFEF0EE47
:102DA00040AAF5EEC0AAF1EE10FA04D126B0BDECAF
:102DB000108B0AB010BDB7EE000AC0EE2A0AF0EE82
:102DC00060AA9DED360A20EE2A0A8DED360A2FEE16
:102DD000AA0AF0EE40FA9DED380A20EE2A0A8DED9F
:102DE000380A6CEEAC0A4BEEAB0A4CEE0C0AB0EEB5
:102DF000600A00F060FEF0EE40AAF5EEC0AAF1EE27
:102E000010FA00D1D2E7B7EE000AC0EE2A0AF0EEBF
:102E100060AA2CEEAA0AF0EE40CA2BEEAA0AF0EE47
:102E200040BA2CEE2A0AB0EE40CAB0EE000A2BEEF1
:102E3000000A20EE2C0A8DED180AB0EE000A2BEEE7
:102E4000000A20EE2B0A8DED170AB0EE000A2BEED9
:102E5000000A20EE0C0A8DED160AB0EE000A2AEEEA
:102E6000000A20EE2C0A8DED150A9DED0A0A2CEEC3
:102E7000800ADDED170A00EEE80ADDED160A00EE25
:102E8000880A0CEE8E0ADDED0F0A60EEAB0A00EE4A
:102E9000880ADDED0F0A60EE8C0A00EEA80A0CEE3F
:102EA000CD0ADDED060A0CEEE00A8DED220A9DED5D
:102EB000180A60EE280A9DED0A0A4BEE800A9DED85
:102EC000160A40EE4A0A9DED150A40EE080A4BEE3E
:102ED000CE0A4BEE8D0A9DED0E0A20EE0C1AB0EED6
:102EE000600A01EE280ADDED060A0BEEE00A8DED20
:102EF000210A9DED220A60EE000A9DED210A40EEB6
:102F0000000A10EE901A0846FFF78EFBCDE9020189
:102F10009DED020B00F092FD8DED040B9DED040B79
:102F200051EC100BFFF793FB09EE100A9DED180A08
:102F3000B1EE400A60EE080A9DED170A40EE0A0A5B
:102F40009DED0A0A4CEE000A9DED150A40EE280A96
:102F50004CEE4E0A9DED0E0A20EE2B0A40EE280A9A
:102F60004CEE4D0A9DED060AF0EE609A4CEE009A8A
:102F7000B0EE000A29EE000A8DED140AB0EE000A48
:102F800029EE800A8DED130A9DED140AF0EE000A79
:102F900020EE200A8DED120A9DED130AF0EE000AD4
:102FA00020EE200A8DED110A9DED0C0AF0EE000ACC
:102FB00010EEAD0ADDED360A70EE600A9DED0E0AE8
:102FC000B1EE400A60EE800A9DED0B0AB0EE001AE9
:102FD00001EE2E0A70EE6F1A9DED0F1AB0EE600A28
:102FE00001EE210AF6EE000A30EECD1ADDED060AFA
:102FF00071EE600A60EE890A3DEECF1A49EE810A51
:1030000070EEEC0A29EE881A01EE600AF1EE490A28
:1030100060EEA80A49EE8A0A9DED081ADDED091A4C
:1030200031EE611A21EE091ADDED071A7EEEA11AC2
:1030300009EEA11A31EE6B1A00EE810A7FEE2D0A1D
:1030400060EE890AB6EE001A31EE4E1A31EE4D1AD4
:1030500049EE810A70EECC0A29EE081A01EE200A28
:103060008DED200A9DED0C0AF0EE000A0AE000004A
:10307000CDCCCC3D36FA8E3C000000000000E83F8D
:10308000980B002010EEAD0ADDED360A70EE600AF6
:103090009DED0D0A60EE800A9DED0B0AB0EE001A60
:1030A00001EE2E0A70EE6F1A9DED101AB0EE600A56
:1030B00001EE210AF7EE000AB0EE001A41EE4E0AC8
:1030C000B0EE001A41EE4D0A9DED381A70EEC10ABD
:1030D000B1EE001A2AEE011A01EE600AF6EE000ABD
:1030E00030EECD1ADDED060A71EE600A60EE890A57
:1030F0003DEECF1A49EE810A70EEEC0A29EEA81ACD
:1031000001EE200A69EE080A49EE8B0A9DED081AC5
:10311000DDED091A31EE611A21EE091ADDED071A0B
:103120007EEEA11A09EEA11A31EE6B1A00EE810AA9
:1031300029EE281ADDED130A00EECA1A7FEE2D0AD9
:1031400060EE890AF6EE001A71EECE1A71EECD1A13
:1031500049EEA10A70EECC0A01EE200A8DED1F0A9D
:103160009DED0C0AF0EE000A10EEAD0ADDED360A18
:1031700070EE600A9DED100AB1EE400A60EE800A22
:103180009DED0B0AB0EE001A01EE2E0A70EE6F1ADA
:103190009DED0D1AB0EE600A01EE210AF7EE000A6D
:1031A000B0EE001A41EE4E0AB0EE001A41EE4D0AA2
:1031B0009DED381A70EEC10AB1EE001A28EE011A20
:1031C00001EE600ADDED140AF1EE600A60EE880A95
:1031D00049EECB0AB6EE001A71EE4D1A9DED061AB5
:1031E00031EEC11A21EE091A7DEECF1A09EEA11AAD
:1031F00031EE6C1A00EE810A69EE0A0A49EEA80A5D
:103200009DED081ADDED091A31EE611A21EE091A59
:10321000DDED071A7EEEA11A09EEA11A31EE6B1A46
:1032200000EE810A29EE0B1ADDED130A00EEC81A32
:103230007FEE2D0A60EE890AF6EE001A71EECE1AC4
:1032400071EECD1A49EEA10A70EECC0A01EE200A09
:103250008DED1E0A9DED0C0AF0EE000A10EEAD0A8F
:10326000DDED360A70EE600A9DED0F0A60EE800A11
:103270009DED0B0AB0EE001A01EE2E0A70EE6F1AE9
:103280009DED0E1AB0EE600A01EE210ADDED140A82
:10329000F1EE600A60EEA80A49EE8A0AB6EE001A5C
:1032A00071EE4D1A9DED061A31EEC11A21EE091A82
:1032B0007DEECF1A09EEA11A31EE6C1A00EE810AEA
:1032C000F1EE490A60EE8B0A49EE880A9DED081A74
:1032D000DDED091A31EE611A21EE091ADDED071A4A
:1032E0007EEEA11A09EEA11A31EE6B1A00EE810AE8
:1032F0007FEE2D0A60EE890AB6EE001A31EE4E1A04
:1033000031EE4D1A49EE810A70EECC0A29EE0A1A06
:1033100001EE200A8DED1D0ADDED200A60EEA00A07
:103320009DED1F1A41EE010A9DED1E1A41EE010AA4
:103330009DED1D1A41EE010AB0EE600A00F0BBFBE4
:10334000F0EE40AAB7EE000AC0EE2A0AF0EE60AA3C
:103350009DED200A20EE2A0A8DED200A9DED1F0A20
:1033600020EE2A0A8DED1F0A9DED1E0A20EE2A0A84
:103370008DED1E0A9DED1D0A20EE2A0A8DED1D0A17
:10338000F1EE4A0A9DED390A20EE800ADDED3A0A97
:1033900008EE600ADDED3B0A08EEE00AF6EE000AF0
:1033A00020EE200ADDED240A9DED201A00EEC10A70
:1033B0008DED1C0A9DED390A2BEE000ADDED3B0A6E
:1033C00008EE200ADDED3A0A08EEE00AF6EE000A01
:1033D00020EE200ADDED240A9DED1F1A00EEC10A41
:1033E0008DED1B0A9DED3A0A2BEE000ADDED3B0A3E
:1033F0000AEE600ADDED390A08EEA00AF6EE000AD0
:1034000020EE200ADDED240A9DED1E1A00EEC10A11
:103410008DED1A0A9DED3B0A2BEE000ADDED3A0A0E
:103420000AEE200ADDED390A08EE600AF6EE000A1F
:1034300020EE200ADDED240A9DED1D1A00EEC10AE2
:103440008DED190A9DED1C0ADDED3F0AB0EE4B1A19
:1034500000EE201AB0EE41BA9DED1B0ADDED3F0AE9
:10346000B0EE4A1A00EE201AB0EE41AA9DED1A0AFB
:10347000DDED3F0AB0EE481A00EE201AB0EE418AA8
:103480009DED190ADDED3F0AB0EE681A00EE201A34
:10349000F0EE418A6BEE0B0A4AEE0A0A48EE080A81
:1034A00048EEA80AB0EE600A00F005FBF0EE40AA74
:1034B000B7EE000AC0EE2A0AF0EE60AA2BEE2A0A46
:1034C000084880ED000A2AEE2A0A80ED010A28EE5B
:1034D0002A0A80ED020A28EEAA0A80ED030A00BF3C
:1034E00064E40000980B002000F01F0201219140CD
:1034F000024A430942F823107047000080E200E0CE
:1035000000F01F02012191404209920002F1E022E5
:10351000C2F800117047000000F01F020121914025
:10352000024A430942F823107047000000E200E01D
:1035300010B5002807DA4A07140E054A00F00F03F9
:103540001B1FD45403E04A07130E024A135410BD44
:1035500018ED00E000E400E010B500200949086023
:1035600000210948C0F84411C0F84811C0F84C11B6
:1035700000200549C1F8000102493C39086003F008
:10358000EFFA10BD4011014000100140FEB54FF4AC
:10359000827002F0CFFE002837D04FF4827002F024
:1035A000D3FE6C4890F82E0018B16A4890F82F00AE
:1035B00058B300208DF800006648406801906548C7
:1035C0000189ADF80810C06818B900206149087475
:1035D00012E06048008B5F4948830846C068486035
:1035E0000846008B08810020C860084690F82E002D
:1035F00010B9002002F0C0FE5648016868468847AE
:103600000020544981F82F0000BF524890F82E0046
:10361000002852D04FF4807002F08CFE00284CD06D
:103620004FF4807002F090FE4A48408B494991F86F
:103630002D10884216DD4748408B464991F82D10E1
:10364000401A444948830A4612890B465B8BD21ABA
:103650000B465B6803EB42000A4692F82D1002F01D
:103660001DFE23E03B48408B3A4991F82D108842DB
:103670000FD13848C06860B10120364981F82F0069
:10368000002048830A4692F82D10D06802F006FE0A
:103690000CE03048408B2F4991F82D10884205D11D
:1036A00001202C4981F82F00002048834FF48270BC
:1036B00002F04AFE042002F05FFE4FF4887002F030
:1036C00039FE70B14FF4887002F03EFE00202149AF
:1036D000087402208DF80000084601686846884793
:1036E00000BF4FF48A7002F025FE38B14FF48A70A3
:1036F00002F02AFE0020174908742AE0154845699F
:1037000024E0B5FA85F64FF00040F0408543B00064
:1037100000F58C74204602F00DFEB8B1204602F090
:1037200013FE01208DF80000A4F58C70C0F3C700D3
:103730008DF80400A4F58C70012121EA90018DF828
:103740000510044801686846884700BF002DD8D19D
:1037500000BFFEBD140D002010B50249024801F063
:1037600036FB10BDE00C00200030004010B503F027
:1037700001F910BD10B503480188012002F056FB85
:1037800010BD0000DC0B002010B502F083FE10BD60
:1037900001480249086070470090D003140C0020D3
:1037A00010B501F02BF928B18E480088C0F3042031
:1037B0008D49086001F076F910B18C488C49486752
:1037C00001F088F930B18748E0380068C0F3423032
:1037D0008849086001F0A8F928B18748006820F0FE
:1037E00080708549086001F0B7F948B1002083492D
:1037F00008604FF08041C1F810017E49091F086040
:1038000001F0D4F918B103207A496431086001F05D
:10381000E5F968B105207A490860012078497831D6
:10382000086000207649083108603F20091F0860C1
:1038300001F0ECF9002855D06A48E0300068714981
:1038400008606848E4300068091D08606548E83091
:103850000068091D08606348EC300068091D0860B5
:103860006048F0300068091D08605E48F430006868
:10387000091D08605B48F830006862492031086023
:103880005848FC300068091D08605F480068091D41
:1038900008605D48001D0068091D08605A4808302E
:1038A0000068091D086058480C300068091D086050
:1038B0005548103000685349403108605248143070
:1038C0000068091D0860504818300068091D08602C
:1038D0004D481C300068091D08604B4820300068C6
:1038E000091D086001F060F830B13E48CC3800682E
:1038F00000F04F004549086001F0AAF840B1444883
:10390000006800F0010018B16FF001004049086044
:1039100039487438006840F47000374974390860D9
:1039200000BF00BF00BFBFF34F8F00BF00BF00BF8D
:1039300000BF00BF00BFBFF36F8F00BF00BF00BF5D
:103940003448006800F0004028B93248001D006883
:1039500000F00040F0B301202F49086000BF2F485D
:1039600000680028FBD015202A49086000BF2B48BA
:1039700000680028FBD015212648001D016000BF0B
:10398000264800680028FBD000202349086000BFBB
:10399000224800680028FBD000BF00BF00BF00BF66
:1039A00000BFBFF34F8F00BF00BF00BF1248F03809
:1039B000006800F4E0601A490843001D0E49F03920
:1039C000086000BF00BF00BFBFF34F8F00BF00BF44
:1039D00000BF00E002E000BF00BFFDE7FFF7D8FE38
:1039E00010BD000024030010403501400DF0ADBAB9
:1039F00000C007403C050040FCED00E00C01004029
:103A00001056004020C5004024040010E40E004081
:103A1000000400400012001004E5014000E40140F1
:103A20000000FA0510B504220249034801F0A1F98B
:103A300010BD0000080D00200080004000B52DEDF5
:103A4000048BB0EE409AF0EE609A83B051EC190B03
:103A5000FEF7DEFE41EC180B18EE100A18EE901A75
:103A60008DED008B002818BF0120084320F0004096
:103A7000C0F17F6000F1E040C00F14D019EE101AC1
:103A800019EE900A8DED009B002918BF0121084313
:103A900020F00040C0F17F6000F1E040C00F04BFA3
:103AA000012000F063F8B0EE480A03B0F0EE680AB7
:103AB000BDEC048B00BD10B52DED028BB1EEC08ABC
:103AC00018EE100A20F00040C0F1FF40C00F0AD0ED
:103AD00010EE100A20F00040C0F1FF40C00F04BFFC
:103AE000012000F043F8B0EE480ABDEC028B10BD97
:103AF00002E008C8121F08C1002AFAD170477047B7
:103B0000002001E001C1121F002AFBD17047000014
:103B10000146202908DA012088400A4A104008B1ED
:103B2000012070470020FCE7402909DAA1F12000BC
:103B3000012202FA00F008B10120F2E70020F0E7CC
:103B40000120EEE7FC06FFBD00BFEFF31081084641
:103B500072B670470146082904D20120884000F05F
:103B6000EC0008B9002070470120FCE7014908601B
:103B700070470000180C002010B50446022000F029
:103B8000C7FA10BD70B50446A378A27A6178207890
:103B9000C2DF054600BF0DB1284670BD00BF2379C6
:103BA0006279E1882078D3DF054600BF0DB1284651
:103BB000F3E700BFE1782078CDDF054600BF0DB107
:103BC0002846EAE700BFA07800F0010028B9208964
:103BD00018B121892078D1DF05462846DDE70000AD
:103BE0003EB50F4A07CA8DE807006846FFF7CAFFCF
:103BF000044600BF254625B100BF284600F016F94F
:103C000000BF00BF00210846C4DF044600BF2546B0
:103C100025B100BF284600F009F900BF00BF3EBD36
:103C2000C071010070B504460D4694F82C0058BBD5
:103C300094F82D00802825D160784E2821D1E07895
:103C4000F8B9A07A80280CD10B2002F025FA0F4891
:103C50000068012808D100200C4908600C49086060
:103C600002E00B2002F0EBF9002009490860094945
:103C700008600648006808B9012000E000200349F8
:103C8000086000E000BF00BF70BD0000AC0B00206A
:103C9000A80B0020B40B00202DE9FC5F04460D4664
:103CA00016461F46DDE90CAB002000900190032072
:103CB0008DF80000E0B28DF801000BF0FF008DF8E8
:103CC0000300E8B28DF80400F0B28DF80500F8B2F8
:103CD0008DF806000AF0FF008DF807006A460821FB
:103CE0000020C7DF804600BFC146B9F1000F04D0F5
:103CF00000BF484600F09AF800BF00BFBDE8FC9F37
:103D000010B5002407E00749096811F834000121C3
:103D100001F05CFD641C044800788442F3D3002069
:103D200010BD0000E00B0020E40B00202DE9F8435B
:103D300006460C461746052F02D20720BDE8F88339
:103D400001F042FE38B901F00FFE054600BF0DB18B
:103D50002846F3E700BF1648066016480470164868
:103D600007600020154908601549086015E006EB5A
:103D7000C40814480068009098F802008DF801000B
:103D800098F80000104A694601F076FD054600BF2C
:103D90000DB12846D2E700BF00BF201EA4F10101EB
:103DA000CCB2E4D1094A0021094800F0F9F8C5E78E
:103DB000E00B0020E40B0020E80B0020EC0B0020BF
:103DC000F00B00205C730100954C0100B948010024
:103DD0005873010000BF1348006800F0010000B1F3
:103DE00000BE00BF00BF00BF00BF00BF00BFBFF3E9
:103DF0004F8F00BF00BF00BF0A48E438006800F4DE
:103E0000E06009490843001D0649E439086000BF25
:103E100000BF00BFBFF34F8F00BF00BF00BF00BF98
:103E200000BFFDE7F0ED00E00000FA053EB50446F6
:103E3000002000900190029002946A46002144F212
:103E40000100FFF7C7FF3EBD10B501F0C7FD0446F6
:103E50000CB1204610BD0020FCE770B50446254695
:103E6000002000F082F829780F2001F0ADFE70BD2F
:103E70007CB50446002000F078F8012201A90F204B
:103E800001F00AFE05469DF8040020F00200801CA7
:103E9000019001A8FFF7E1FF05460DB128467CBD62
:103EA000002000F062F8012269460F2001F0F4FDC5
:103EB000054626463178312001F05CFEEFE77CB5FF
:103EC0000646002000F051F8062269462D2001F038
:103ED000E3FD05460DB128467CBD3446002007E0D1
:103EE000C0F105011DF801102170641C411CC8B20D
:103EF0000628F5DB0020EFE77CB50646002000F041
:103F000034F806226946332001F0C6FD05460DB19E
:103F100028467CBD3446002007E0C0F105011DF8AD
:103F200001102170641C411CC8B20628F5DB00207A
:103F3000EFE7F8B504460D4606222146112001F0B0
:103F400069FD06460EB13046F8BD35B90122694615
:103F5000182001F05FFD064605E0012229461820E1
:103F600001F058FD06463046EEE770B504460026DF
:103F700034B1012C06D0022C06D0032C08D105E068
:103F8000002605E0102603E0202601E0302600BFD1
:103F900000BF31467F2001F017FE0546284670BD60
:103FA00010B503460C4600BF0B48807808B90820BE
:103FB00010BD00BF0AB90720FAE70BB90720F7E7E1
:103FC0001868007C08B10820F2E71968002008741E
:103FD0004C744A6100BFEBE7640D002010B502F09D
:103FE0004BFB00200F49087048700B2088700020A0
:103FF0000D4908600D4908700D4908701420FFF73D
:1040000073FA07211420FFF793FA1420FFF778FAC8
:10401000002002F007FB02F0FFFA064908600020CA
:1040200010BD0000640D0020F40B0020040C0020E3
:10403000050C0020F80B00202DE9F04104460E4647
:104040001746254600BF1048807810B90820BDE803
:10405000F08100BF0CB90820F9E7052E01D2072036
:10406000F5E7686908B90820F1E7687C012801D103
:10407000304600E0002080463B4642463146284616
:1040800002F01EFDE3E70000640D002070B5044659
:10409000254600BF0848807808B9082070BD00BFD9
:1040A0000CB1686908B90820F8E7002028740221DB
:1040B000284602F034FDF1E7640D002010B50446F7
:1040C000204602F099FB10BD70B5044625460E4807
:1040D0008068B0B1ADB9FFF737FD06460A48006801
:1040E0000A490860084840684FF0E021C1F804011F
:1040F0000020054988601EB900BF62B600BF00BF3E
:1041000000BF00BF70BD0000700E002000E100E0A5
:1041100010B502460949885C00BF4FF0A044214613
:10412000D1F80435012484409C43C1F8084501249A
:1041300084401C40C1F80C4500BF10BDE471010073
:1041400010B504460249085D012101F0BBFF10BD16
:10415000E471010010B504460249085D002101F038
:10416000B1FF10BDE471010010B50146094B585C68
:1041700000BF4FF0A044234600BFD3F80445C4401D
:1041800004F001040CB1012000E00020024682F09E
:10419000010010BDE47101007CB500240CE0094869
:1041A000055D00200090034601221146019028463B
:1041B00001F004FF00BF641C042CF0D300F004F8ED
:1041C0007CBD0000E471010010B5002403E020462E
:1041D000FFF7B6FF641C042CF9D310BD10B5002402
:1041E00003E02046FFF7B6FF641C042CF9D310BD92
:1041F00002464FF0FF30002106E0054B5B5C934226
:1042000001D1084602E0491C0429F6D300BF7047DB
:10421000E87101002DE9F04106460F464FF0000815
:1042200000243046FFF7E4FF0446042C3ED20FB3CF
:10423000012F02D0022F38D130E004EB4400214995
:1042400011F8008004EB44000844407850B11E4A45
:104250004FF400411D480068FFF7EEFE05460DB91A
:104260001948067004EB4400164908448078184940
:1042700008551AE015480068FFF708FF1448005D6C
:1042800004EB44010F4A11448978884205D104EBBC
:1042900044001146084490F8028006E004EB440014
:1042A0000849084490F8018000BF00BFB8F1000F32
:1042B00006D00848006818B1404606490968884792
:1042C000BDE8F0815C0C0020CC0B0020F4710100F3
:1042D000CD0B0020C80B002030B503460020042B76
:1042E00023D2012A07D1012903D103F10E04E4B23C
:1042F00000E00024224679B1012902D0022911D11F
:1043000004E003EB43040A4D2A550DE003EB43049C
:10431000074D2C44627007E003EB4304044D2C442A
:10432000A27001E0072000BF00E0072030BD0000C0
:104330005C0C00202DE9F04105460F4600241F4883
:1043400005601F48076005F0020000B3002606E084
:10435000012211463046FFF7BFFF0446761C042EAB
:1043600001D2002CF4D034B940F266620421154821
:10437000FFF7DCFC044614B9FFF7C2FC04462CB975
:10438000114A00211148FFF70BFE044600BF05F05B
:10439000010008B1FFF700FF2CB90D4A00210D48BC
:1043A000FFF7FEFD04462CB90B4A01210B48FFF72D
:1043B000F7FD04462046BDE8F0810000C00B002058
:1043C000C80B0020F87101005D470100F471010085
:1043D000CD4E0100EC710100793B0100F07101004C
:1043E0002DE9F047044600260025D748007820B183
:1043F0000020D549087000F055FD182C79D2DFE86F
:1044000004F00C11124579ADF1FFEEEDECEBEAE9A9
:10441000E8E7E6E5E4E3E2E1E0DF00F043FDCB4876
:1044200004708DE100BF0020FFF79EFE58B1002010
:10443000FFF786FE022C02D14FF4E16001E04FF459
:104440007A60054609E00020FFF784FE022C01D1C6
:10445000C82001E04FF4C8700546BC4804704FF412
:104460000040A5FB00204FF4FA73D71840F100017B
:104470005A0000233846FDF7FBFE814600224946DC
:10448000B3480068FFF7D8FD064659E10020FFF762
:104490006BFE58B10020FFF753FE032C02D14FF4FE
:1044A000487001E04FF47A60054609E00020FFF70C
:1044B00051FE032C01D1C82001E04FF4C87005461D
:1044C000A24804704FF40040A5FB00204FF4FA739B
:1044D000D71840F100015A0000233846FDF7C8FE06
:1044E0008146002249469A480068FFF7A5FD064626
:1044F00026E124E10020FFF737FE58B10020FFF746
:104500001FFE042C02D14FF47A6001E04FF47A6070
:1045100005460AE00020FFF71DFE042C02D14FF4EF
:10452000C87001E04FF4C8700546884804704FF425
:104530000040A5FB00104FF4FA73CF1840F10001C2
:104540005A0000233846FDF793FE81460022494673
:104550007F480068FFF770FD0646F1E00020FFF796
:1045600003FE50B10020FFF7EBFD052C01D1C82060
:1045700001E04FF47A60054609E00020FFF7EAFD0C
:10458000052C01D1C82001E04FF4C87005466F48E2
:1045900004704FF40040A5FB00204FF4FA73D718C5
:1045A00040F100015A0000233846FDF761FE8146C4
:1045B0000022494666480068FFF73EFD0646BFE018
:1045C000B8E0B6E0AAE0A1E098E092E05FE05DE04C
:1045D0005BE059E057E051E042E033E024E015E0D1
:1045E0000EE0FFE70020FFF793FD5848047000221B
:1045F00040F6CD4156480068FFF71EFD06469FE095
:104600000020FFF7A7FD5148047099E001204E49B2
:104610000870FFF77DFD002240F6CD414C48006850
:10462000FFF70AFD06468BE0012047490870FFF7B7
:104630006FFD00224FF4804145480068FFF7FCFC05
:1046400006467DE0012040490870FFF761FD002229
:1046500040F6CD413E480068FFF7EEFC06466FE0AD
:10466000012039490870FFF753FD00224FF48041C3
:1046700037480068FFF7E0FC064661E0FFF7AEFD53
:10468000324804705CE000BF00BF00BF00BF31488B
:104690000068FFF7FBFC0646C4F1110515B30EBB1D
:1046A000012D18D9A8B2C82148434FF4004180FB1E
:1046B00001304FF4FA729F1840F1000152000023BC
:1046C0003846FDF7D5FD814600224946214800685D
:1046D000FFF7B2FC06460220FFF73CFD01201E4911
:1046E000087005E00220FFF72BFD00201A49087032
:1046F00026E000F0D7FB1548047021E000F0D2FB63
:104700000020FFF727FD1148047019E000F0CAFBF4
:104710000120FFF71FFD0D48047011E000F0C2FBFF
:104720000020FFF717FD0120FFF714FD0748047074
:1047300006E000BFFFF752FD0448047000E000BF30
:1047400000BF3046BDE8F087BD0B0020BC0B002049
:10475000EC710100F0710100C40B002010B504469B
:1047600020780221FFF756FD10BD00004FF0FF3109
:10477000054A42F82010082804DBFF23A0F10801B5
:104780005032535470470000880C00200146024804
:1047900050F8210070470000880C00202DE9F04FF0
:1047A00003460C464FF0FF390AB1002000E0082014
:1047B00084460AB1082000E00C208046614624E0CF
:1047C000154850F82100401CF0B91D460846274600
:1047D00016464FFA80FBDFF840A00AF1300A0AF8CB
:1047E00005B0DFF834A04AF820704EB94FFA85FBC7
:1047F000A0F1080ADFF820E00EF1500E0EF80AB022
:1048000000BF4FFA81F902E0491C4145D8D300BFEF
:104810004846BDE8F08F0000880C002001460148A2
:1048200040567047B80C00202DE9F04782461F48DB
:104830000068002836D01D480068056801F0ECFECD
:1048400007461B4804682146384602F088F8C61C13
:104850001848007808B901F0F1FEAE4201D22846AE
:1048600000E03046044424F07F44204601F0CEFEB0
:1048700001F0D2FE80463946404602F070F800F161
:1048800003093946204602F06AF8814509D901F04A
:10489000C3FE814601F0BAFE2F2000F013FF02F0A4
:1048A000ABF901E001F0E8FEBDE8F087F40B002071
:1048B000F80B0020060C00202DE9F047814600256A
:1048C00032E01C48006800EBC5042178012000FAA2
:1048D00001F619480068304020B317480068B0431B
:1048E00015490860207801F035F807462178012045
:1048F0008840124909680840217807FA01F1884286
:104900000FD16078012800D100E00020784080F0CD
:104910000108606820B108F0FF01207862689047C4
:1049200000BF00BF681CC5B2054800788542C8DBDF
:10493000BDE8F087E00B0020F00B0020EC0B00201E
:10494000E40B0020014614480078144A1278904283
:104950001DD011480078401C0F4A10701046007896
:10496000022801D1002010700D480B4A127850F82F
:10497000220008600B4A086812681044094A106057
:104980001046006820F07F40106001207047002032
:10499000086000BFFAE70000040C0020050C0020AE
:1049A000FC0B0020F80B002013480078062820D1CB
:1049B0001148001D007800F00F00D0B90E480830F3
:1049C000007800F0F000302801D1012070470A483B
:1049D0000830007800F0F000402801D10120F5E710
:1049E00005480830007800F0F000502801D101207F
:1049F000ECE70020EAE70000E00F00F01348007841
:104A0000062820D11148001D007800F00F00D0B911
:104A10000E480830007800F0F000302801D1012065
:104A200070470A480830007800F0F000402801D1B3
:104A30000120F5E705480830007800F0F000502824
:104A400001D10120ECE70020EAE70000E00F00F0D0
:104A500013480078062820D11148001D007800F086
:104A60000F00D0B90E480830007800F0F000302870
:104A700001D1012070470A480830007800F0F000AA
:104A8000402801D10120F5E705480830007800F002
:104A9000F000502801D10120ECE70020EAE70000F7
:104AA000E00F00F00A48007806280ED10848001DE3
:104AB000007800F00F0040B905480830007800F099
:104AC000F000302801D1012070470020FCE70000F1
:104AD000E00F00F013480078062820D11148001D8F
:104AE000007800F00F00D0B90E480830007800F0D0
:104AF000F000302801D1012070470A4808300078C2
:104B000000F0F000402801D10120F5E70548083009
:104B1000007800F0F000502801D10120ECE70020DF
:104B2000EAE70000E00F00F00A48007806280ED1FE
:104B30000848001D007800F00F0040B90548083013
:104B4000007800F0F000302801D1012070470020EB
:104B5000FCE70000E00F00F013480078062820D1A1
:104B60001148001D007800F00F00D0B90E48083041
:104B7000007800F0F000302801D1012070470A4889
:104B80000830007800F0F000402801D10120F5E75E
:104B900005480830007800F0F000502801D10120CD
:104BA000ECE70020EAE70000E00F00F00A48007898
:104BB00006280ED10848001D007800F00F0040B90B
:104BC00005480830007800F0F000302801D10120BD
:104BD00070470020FCE70000E00F00F00A48007872
:104BE00006280ED10848001D007800F00F0040B9DB
:104BF00005480830007800F0F000302801D101208D
:104C000070470020FCE70000E00F00F00A48007841
:104C100006280ED10848001D007800F00F0040B9AA
:104C200005480830007800F0F000502801D101203C
:104C300070470020FCE70000E00F00F0F0B50346ED
:104C400000241FE0124E306806689E4203D90668B1
:104C5000F61A06601AE006689B1B066834440026B4
:104C600006600B4E35680A4FC6693E60C66846B19D
:104C70000E1926F07F464660C66886601668C661D3
:104C8000156000BF024800680028DBD100BFF0BDFE
:104C9000F40B00202DE9F04105460F46012000FAF3
:104CA00005F418480068FFF7F1F906460EB1BDE8B3
:104CB000F081154800682040E0B9284600F04AFE1F
:104CC00028B11248006820431049086004E00F48EA
:104CD0000068A0430D4908600B48006820430A495A
:104CE000086000220A48016806480068FFF7A4F936
:104CF000064604E004480068A0430349086000BF7A
:104D0000D5E7000058730100F00B0020EC0B0020E9
:104D1000E80B002038B5FFF797F8044600BF25469A
:104D200025B100BF2846FFF781F800BF00BFFDF79F
:104D300041FFFDF75AFFFDF72FFFFDF711FFFDF7CC
:104D40001DFF1520FDF779FF1520FDF75CFFFDF72E
:104D50003FFF082000906846FFF78AF8044600BF2E
:104D6000254625B100BF2846FFF760F800BF00BF09
:104D700038BD2DE9F04704460E469046002722E054
:104D8000384601F0E0FB0546384601F0E3FB81467A
:104D90002046294642580AB1012200E0002282B191
:104DA0004846D4F80413014009B1012100E0002174
:104DB00039B12946204601F0D2FB2846D6E9002128
:104DC0009047781CC7B24745DADBBDE8F0877FB56E
:104DD00005460C4694F8210094F82010CDE9001007
:104DE00004F12602D11E2846E36902F028F800B13A
:104DF0007FBD94F8230048BB207B022802D0207B93
:104E0000032823D1E169206981421FD16069E061F3
:104E1000E07B84F82000207EC0F3401084F821005D
:104E2000207B03280AD194F82100009094F82030C8
:104E300029462046E26902F095F830E094F82030E7
:104E400029462046E26901F061FF28E0D4E9041216
:104E5000E06801AB07C394F8230088B1284601F04D
:104E600085FB064606F0020018B101208DF800000F
:104E700005E006F0040010B102208DF8000002E009
:104E800000208DF80000002084F82400207E00F02F
:104E9000040018B96846D4E90021904700BF00BF5C
:104EA000A6E7000010B50848007850B1002405E0DE
:104EB000022C02D02046FFF743F9641C042CF7D3E0
:104EC00001E0FFF781F910BDC40B002010B50446C6
:104ED0000448007800F0010018B103480078FFF79B
:104EE0007FFA10BDC00B0020BC0B00202DE9F04163
:104EF000064600274748D0F8008078E016B13446CF
:104F0000E66947E04448007800EB40014248001D54
:104F100000EBC105001F0078401C3F49087008469F
:104F200000788978884202D100203B4908706C687B
:104F3000287801281AD0022802D0032817D107E0C8
:104F4000686801F079FD00B10127002020744EE06F
:104F500007E030490868002101742E4AC1691160D8
:104F600000BF2C4800680028F3D140E000E03EE09C
:104F700000BF207C00B13AE0A8686060E868A060EB
:104F80002869E0606869A0612448007808B10020C1
:104F9000606000BF224960680968401A20F07F40C5
:104FA0002049884208D21E496068096801F0D7FC90
:104FB000A168084420600FE019486168006801F0AA
:104FC000CEFC0546A068A84203D9A068401B20601B
:104FD00001E00020206000BF00206060A060012090
:104FE00020740020E061204601F0F2FC00BF002E9A
:104FF00084D109480078084949788842F8D11FB916
:1050000004480068404502D00120BDE8F08100203E
:10501000FBE70000F40B0020640D0020070C0020CB
:10502000F80B0020FFFF7F0070B5002400BF25466D
:1050300025B100BF2846FEF7F9FE00BF00BF70BDD6
:105040002DED0E8B96B00B2001210A4600231D4644
:105050001E4600BF4FF0A04C674641EA420C4CEAA6
:10506000830C4CEA052C4CEA064807F5E06C4CF83A
:10507000208000BF00BF01F00FF89FEDFE0AF0EEA8
:10508000409AFFF7D1FFFFF745FE01F023FB02F046
:1050900065F801F01DFCFEF7A3FD0322082103A81B
:1050A000FDF717F903AA08210020C7DF04460B20EB
:1050B00000F0C5FF00BFF048006801287BD1002048
:1050C000EE490860CBE110A8FEF7F9FE044600BFE8
:1050D000264626B100BF3046FEF7A8FE00BF00BF3F
:1050E000BDF94400FDF78FFA41EC1C0B9FEDE40B7A
:1050F00053EC102BFDF718FA41EC1B0B9FEDE20B64
:1051000053EC102BFDF7F7F841EC1A0BFDF79FFA63
:105110000B90BDF94200FDF776FA41EC1C0B9FEDB8
:10512000D80B53EC102BFDF7FFF941EC1B0B9FED57
:10513000D80B53EC102BFDF77FF941EC1A0BFDF760
:1051400086FA0A90BDF94000FDF75DFA41EC1C0BB0
:105150009FEDCB0B53EC102BFDF7E6F941EC1B0B4D
:105160009FEDCD0B53EC102BFDF766F941EC1A0BBC
:10517000FDF76DFA0990BDF8440040B9BDF8420052
:1051800028B9BDF8400010B90B2000F085FF0CA82D
:10519000FEF7B2FE044600BF264626B100BF3046E9
:1051A000FEF744FE00BF00BFBDF93400FDF72BFA47
:1051B00041EC1E0B00E0D8E19FEDB90B53EC102B36
:1051C000FDF7B2F941EC1D0B9FEDB70B53EC102B23
:1051D000FDF738F941EC1C0B9FEDB50B53EC102B90
:1051E000FDF7A2F941EC1B0B9FEDB30B53EC102B19
:1051F000FDF781F841EC1A0BFDF729FA0890BDF98B
:105200003200FDF700FA41EC1E0B9FEDA50B53ECAD
:10521000102BFDF789F941EC1D0B9FEDA30B53EC0F
:10522000102BFDF70FF941EC1C0B9FEDA10B53EC7C
:10523000102BFDF779F941EC1B0B9FEDA10B53EC03
:10524000102BFDF7F9F841EC1A0BFDF700FA079067
:10525000BDF93000FDF7D7F941EC1E0B9FED900B27
:1052600053EC102BFDF760F941EC1D0B9FED8E0BFD
:1052700053EC102BFDF7E6F841EC1C0B9FED8C0B6B
:1052800053EC102BFDF750F941EC1B0B9FED8E0BEF
:1052900053EC102BFDF72FF841EC1A0BFDF7D7F963
:1052A0000690BDF8340040B9BDF8320028B9BDF809
:1052B000300010B90B2000F0EFFE00210EA8FEF721
:1052C00038FE044600BF264626B100BF3046FEF732
:1052D000ADFD00BF00BFBDF93800FDF794F941EC0A
:1052E0001D0B9FED7B0B53EC102BFDF7ABF841EC46
:1052F0001C0B9FED790B53EC102BFCF7FCFF41ECE2
:105300001B0B9FED770B53EC102BFDF79BF841EC3B
:105310001A0BFDF79CF908EE100ABDF93A00FDF7EB
:1053200072F941EC1D0B9FED6A0B53EC102BFDF74E
:1053300089F841EC1C0B9FED6C0B53EC102BFDF727
:105340007BF841EC1B0B9FED6A0B53EC102BFDF728
:1053500079F841EC1A0BFDF77AF908EE900ABDF9DD
:105360003C00FDF750F941EC1D0B9FED590B53EC40
:10537000102BFDF767F841EC1C0B9FED5F0B53EC16
:10538000102BFDF759F841EC1B0B9FED5D0B53EC17
:10539000102BFDF757F841EC1A0BFDF758F909EE01
:1053A000100A05A9002000F0CFFC044600BF2646E5
:1053B00026B100BF3046FEF739FD00BF00BF9DEDAE
:1053C000063AF0EE432A9DED073AB0EE432A9DEDF2
:1053D000083AF0EE431A9DED093AB0EE431A9DEDFE
:1053E0000A3AF0EE430A9DED0B3AB0EE430AF0EEB6
:1053F000694AB0EE494AF0EE683AB0EE483AFDF735
:105400002BFC414890ED000ADFED400A20EE200A17
:105410008DED120A90ED010ADFED3C0A20EE200A24
:105420008DED130A90ED020ADFED380A20EE200A16
:105430008DED140A90ED030ADFED340A20EE200A08
:105440008DED150A19264FF47A7116FB01F000F064
:105450009DF800BF09480068401C084908600748DB
:1054600000680428FFF62FAE29480068401C284930
:1054700008604FE0CDCCCC3CAC0B0020B40B00203E
:10548000000000000000B040EDB658DF8C2D653FF5
:105490002401F4DF084B843F3BD9F60BB06E943FF8
:1054A000C3F5285C8F62504000000060FB2109407A
:1054B00000000000008066401516405F5811923FC2
:1054C000D3BF515FD06A913FD1871580081F743FC9
:1054D000333333333333C33F812C9F4033332F4037
:1054E0001280459F0B6AF03F7FD360BFCC4C2840B1
:1054F00021BC154033B3EF3FC069B05F66662740FB
:10550000034ACE7FCB80EF3F980B00200000FE4285
:10551000A80B0020BDF9140040F2052190FBF1F02A
:1055200000EBC0004500124800689DED150ABDEE75
:10553000C00A8DED000A01909DED140ABDEEC00A6F
:1055400010EE103A9DED130ABDEEC00A10EE102ABF
:105550009DED120ABDEEC00A10EE101A2846FEF7A5
:105560009BFB0B2000F06BFD00BF00F04BFEA2E5A3
:10557000A80B002030B502460B46D40802F0070203
:10558000012090401D5D284030BD000000B97047EB
:1055900000BF00BF00BF00BF00BF00BF00BF00BF13
:1055A00000BF1F4909681F4A914200D130E000BF87
:1055B00000BF00BF00BF00BF00BF00BF00BF00BFF3
:1055C00000BF00BF00BF00BF00BF00BF00BF00BFE3
:1055D00000BF00BF00BF00BF00BF00BF00BF00BFD3
:1055E00000BF00BF00BF00BF00BF00BF00BF00BFC3
:1055F00000BF00BF00BF00BF00BF00BF00BF00BFB3
:1056000000BF00BF00BF00BF00BF00BF00BF00BFA2
:1056100001460139084600D0BBE700BFB7E70000EC
:10562000140C00200024F40000B9704700BF00BF34
:1056300000BF00BF00BF00BF00BF00BF00BF1F49C9
:1056400009681F4A914200D130E000BF00BF00BF8F
:1056500000BF00BF00BF00BF00BF00BF00BF00BF52
:1056600000BF00BF00BF00BF00BF00BF00BF00BF42
:1056700000BF00BF00BF00BF00BF00BF00BF00BF32
:1056800000BF00BF00BF00BF00BF00BF00BF00BF22
:1056900000BF00BF00BF00BF00BF00BF00BF00BF12
:1056A00000BF00BF00BF00BF00BF00BF01460139FF
:1056B000084600D0BBE700BFB7E70000140C00208D
:1056C0000024F40000B9704700BF00BF00BF00BF56
:1056D00000BF00BF00BF00BF00BF1F4909681F4ACD
:1056E000914200D130E000BF00BF00BF00BF00BF4B
:1056F00000BF00BF00BF00BF00BF00BF00BF00BFB2
:1057000000BF00BF00BF00BF00BF00BF00BF00BFA1
:1057100000BF00BF00BF00BF00BF00BF00BF00BF91
:1057200000BF00BF00BF00BF00BF00BF00BF00BF81
:1057300000BF00BF00BF00BF00BF00BF00BF00BF71
:1057400000BF00BF00BF00BF01460139084600D0BE
:10575000BBE700BFB7E70000140C00200024F400F2
:1057600070B50B4601461A46002907DA5407260E83
:10577000104C01F00F052D1F665503E05407250E50
:105780000D4C655400BF00BF00F01F020121914085
:105790000A4A440942F8241000BF00BF00F01F026B
:1057A000012191404209920002F1E022C2F8001169
:1057B00000BF70BD18ED00E000E400E080E200E012
:1057C0000146C1F3073250B2704700002DE9F0479F
:1057D00006460D46304600F0F7FEE0B13046FFF7D2
:1057E0001DF8083822490F5CBC11032C08D1304643
:1057F00000F046FC08B1032000E00220804605E0EE
:10580000012C01D1022000E00320804641463046B1
:1058100000F0FCFB2AE0304600F0E2FE30B33046F8
:10582000FEF7FCFF0446A00000F5807087B220461A
:10583000104951F8201041F001020E4941F8202092
:1058400000BF384600F076FC7DB13046FEF7E6FF3B
:105850008146FEF79BFF8046B8F1000F04D001217E
:1058600001FA04F000F080FC00BF00BFBDE8F08743
:10587000D80C0020106500402DE9FC4704460E4678
:1058800017464FF00008204600F090FE10B14FF090
:10589000080855E0F27839462046FEF77FFF0546B6
:1058A000681C002849D0B07880B100BF00BF4FF01D
:1058B000A042104600F5E06252F8242022F00201D6
:1058C00000F5E06242F8241000BF0CE096F8019069
:1058D000002000904B46024601460190204600F011
:1058E00081FB00BF00BFF078D0B13078164951F885
:1058F0002510164A1140144A42F82510114651F855
:1059000025104FF4F85202EA04224FF4403303EA20
:1059100000431A4311430C4A42F8251000BF0EE021
:10592000A5F108000A49085C317840EA811042B2CA
:10593000A5F1080006490A5401E04FF0040800BF31
:105940004046BDE8FC87000010650040FFE0FCFF1A
:10595000D80C002010B50446204600F091FB08B199
:10596000012010BD0020FCE770B5164890F85400E7
:1059700010B10825284670BD002404E0204600F040
:105980003FFE601CC4B2202CF8DB002404E020465B
:10599000FEF7ECFE601CC4B20C2CF8DB07210620DD
:1059A000FFF7DEFE4FF4BE7000F0C4FB4FF0004086
:1059B00000F0DAFB0120034981F854000025284655
:1059C000D9E70000880C0020034890F8540008B183
:1059D000012070470020FCE7880C00201FB50A4B0F
:1059E0000FCB8DE80F000023084A6946084800F0F5
:1059F00047FA044614B1204604B010BD044800F034
:105A00002DFA0020F8E70000D47101001D5B0100B1
:105A1000CC710100F7B582B00E46174642F2107401
:105A20000020012302AA0C210090184800F08AFAF5
:105A3000054615B1284605B0F0BD00BF14480078F2
:105A400010B9601E041EF9D10CB90D20F3E7002037
:105A50000F490870FBB232460C210C4800F05CFA8A
:105A600005460DB12846E6E742F2107400BF09482A
:105A7000007810B9601E041EF9D10CB90D20DAE7C8
:105A80000020044908702846D5E70000CC710100C9
:105A9000B90B0020BA0B0020F7B582B00E461746AE
:105AA00042F210740020012302AA682100901848D5
:105AB00000F048FA054615B1284605B0F0BD00BF14
:105AC0001448007810B9601E041EF9D10CB90D20DD
:105AD000F3E700200F490870FBB2324668210C48FA
:105AE00000F01AFA05460DB12846E6E742F21074B6
:105AF00000BF0948007810B9601E041EF9D10CB926
:105B00000D20DAE70020044908702846D5E7000098
:105B1000CC710100B90B0020BA0B0020027822B131
:105B2000012A1ED0022A1ED11CE0027932B1012ABC
:105B30000CD0022A0ED0032A10D103E001220B4B15
:105B40001A700CE00122094B1A7008E00122084B80
:105B50001A7004E00122064B1A7000E000BF00BF7B
:105B600002E001E000E000BF00BF7047B90B002079
:105B7000BA0B00202DE9FC4104460D4642F2107795
:105B80008DF804408DF805500020022301AA0C2155
:105B900000900B4800F0D6F9064616B13046BDE835
:105BA000FC8100BF0748007810B9781E071EF9D1A4
:105BB0000FB90D20F3E70020024908703046EEE7E8
:105BC000CC710100B90B00202DE9FC4104460D46C3
:105BD00042F210778DF804408DF805500020022322
:105BE00001AA682100900B4800F0ACF9064616B1F6
:105BF0003046BDE8FC8100BF0748007810B9781E28
:105C0000071EF9D10FB90D20F3E7002002490870F3
:105C10003046EEE7CC710100B90B002070B50546A7
:105C20000C461E48007C10B11126304670BD20790C
:105C300010B12079012805D100BF00201849086063
:105C400000BF00BF15481C3010F8150030B91348CC
:105C500090F82D00401C114981F82D00E1790F4882
:105C60001C3000F81510217A00EB450041702146E8
:105C7000284600F01BFB227AE179284600F04EFB13
:105C8000207910B12079012805D100BF01200449F5
:105C9000086000BF00BF00263046C7E7140D002093
:105CA0000075004070B504460E46244890F82C005C
:105CB00010B10825284670BD16B907252846FAE711
:105CC00004B91F4C1D48066020781E49086000BFBB
:105CD0006078091D086000BFE078184981F82E003F
:105CE000012081F82C000020087481F82D00486103
:105CF00081F82F006FF0004000F032FB4FF482700B
:105D000000F022FB4FF4807000F01EFBA17807200A
:105D1000FFF726FD022000F029FB084890F82E002E
:105D200010B1012000F022FB00BF01200549F0392D
:105D3000086000BF00252846BDE70000140D0020C4
:105D400098720100F07500402DE9F0410546884643
:105D50003548007C18B111263046BDE8F08101209D
:105D600031490874032000F0FBFA0121404600F09D
:105D700095FA2D4890F82D00012809DD002405E052
:105D8000E0B20022114600F0C9FA641C082CF7D3D7
:105D900025481C3000EB4500427823481C3010F8A1
:105DA0001510284600F0BAFA002000F0E5FA0420A9
:105DB00000F0E2FA42F2107700E07F1E4FF48270AA
:105DC00000F0B8FA08B9002FF7D14FF4807000F056
:105DD000BBFA4FF4827000F0B7FA134890F82D0028
:105DE000012810DD00240CE00F4B1C3303EB4403AF
:105DF0005A780D4B1C3313F81410E0B200F08EFAF1
:105E0000641C082CF0D3084890F82E0018B1032029
:105E100000F0ACFA02E0022000F0A8FA00200249EB
:105E200008740026304698E7140D002070B504462B
:105E30000D46601E074931F81000A843611E054A4F
:105E400022F81100601E044951F8202029462046FE
:105E5000904770BDDC0B0020D80B0020027902EBCC
:105E60008202064B03EBC201026800BF0523C2F8A1
:105E7000003500BF022281F822207047E00C00208C
:105E80002DE9F04706460C4690469946307900EBDE
:105E900080001F4901EBC00595F8220018B10827C2
:105EA0003846BDE8F087083545F8088C45F8049C6D
:105EB0000020286068772877A07BE877083D607B22
:105EC00010B1204600F09EFE40F20C61114822689D
:105ED00040F82210626840F822103068D4E90012BD
:105EE000C0F80815C0F80C2500BFA168C0F824153B
:105EF00000BF286830B13068FFF762FC8246217B22
:105F0000FFF72EFC012085F8220000273846C8E75D
:105F1000E00C002000070050FEB507460C46154671
:105F20001E46074A07CA8DE807008DF801408DF824
:105F30000260019500226946384600F021F8FEBD56
:105F40008C7201002DE9FE4307460C4615461E469D
:105F5000DDF8288000200090019002908DF801402B
:105F60008DF802600195B8F1000F01D0202000E00B
:105F7000002002466946384600F002F8BDE8FE837C
:105F80002DE9F04104460E4615460027207900EB26
:105F90008000094901EBC00805F0030018B106278D
:105FA0003846BDE8F0812B4632464046216801F074
:105FB00051F807463846F4E7E00C0020F0B5DDE97B
:105FC000054500BF4FF0A0473E4641EA420747EA79
:105FD000830747EA042747EA054C06F5E06747F8D8
:105FE00020C0F0BDF0B5DDE9054500BF4FF0A0478A
:105FF0003E4641EA420747EA830747EA042747EA61
:10600000054C06F5E06747F820C0F0BD10B50A461C
:1060100000BF4FF0A043194601F5E06353F820306C
:1060200023F4403401F5E06343F8204053F8203076
:1060300043EA024401F5E06343F8204010BD00BF8D
:106040004FF0A0410A46012303FA00F1C2F80C15F3
:1060500000BF704700BF4FF0A0410A46012303FA7A
:1060600000F1C2F80C1500BF704700BF4FF0A0410F
:106070000A46012303FA00F1C2F80C1500BF70476D
:10608000014600BF4FF0A040024600BFD2F8100505
:10609000C84000F00100704700BF4FF0A0410A4621
:1060A000012303FA00F1C2F8081500BF704700BFD2
:1060B0004FF0A0410A46012303FA00F1C2F8081587
:1060C00000BF704710B561B900BF00BF4FF0A042DC
:1060D0001346012404FA00F2C3F80C2500BF00BFE8
:1060E0000CE000BF00BF4FF0A0421346012404FAA9
:1060F00000F2C3F8082500BF00BF00BF10BD0000BC
:1061000038B50B46074C24680094014606E05DF85C
:106110002140D4F810551560121D491CC4188C423A
:10612000F5D838BD1872010001460148084470478F
:106130000060004038B504462046FFF7F5FF002117
:1061400001602046FFF7F0FF0068009000BF38BDF7
:1061500010B504462046FFF7E7FF0068012800D18C
:1061600010BD0020FCE700000149086070470000F6
:10617000046300402DE9F04100201D49087000BF74
:106180001C49086000BF00BF00BF00BFBFF35F8FA6
:1061900000BF00BF00BF00BF1749184800F09BF9BF
:1061A00000BF1748006840F010001549086000BFA4
:1061B00000BF1820FFF759FF182001210A460024CC
:1061C0002546234600BF4FF0A0473E4641EA42071E
:1061D00047EA840747EA052747EA034C06F5E067E4
:1061E00047F820C000BF00BF00BF0020BDE8F0811D
:1061F000100C00200C0C0020787301007C0E002095
:1062000010ED00E038B500BF002000906846FDF7B3
:1062100055FF00BFF1EE100A044624F09F00E1EEA6
:10622000100A00BF00BF00BF00BF00BFBFF35F8FF9
:1062300000BF00BF00BF262000F01F0201219140D7
:10624000154A430942F8231000BF9DF80000FDF7EE
:106250003BFF00BF002000906846FDF72FFF18208D
:1062600000BF4FF0A0410A46012303FA00F1C2F833
:10627000081500BF00BF00F025F910B141DF04464A
:1062800002E020BF40BF20BF1820FFF7EEFE9DF8C0
:106290000000FDF719FF38BD80E200E0024A1060FF
:1062A000121D1160704700002C76004010B50A786E
:1062B00002F003024B78302404EA03131A438B786C
:1062C0004FF4E06404EA03231A43CB784FF480547C
:1062D00004EA03331A430B794FF4E02404EA03433E
:1062E0001A434B794FF4801404EA03531A438B7911
:1062F000240104EA03631343074A02EB001293608C
:10630000CA790B7A044C04EB00146360024C04EB72
:106310000014226000BF10BD10750040044B03EB59
:1063200000135A60024B03EB001319607047000022
:106330001075004001460348085808B10120704715
:106340000020FCE70070004008B50021034A81509E
:1063500011464158009100BF08BD00000070004088
:106360000149086070470000087300400149086057
:1063700070470000047300400121014A81507047BA
:10638000007000403EB5044A07CA8DE80700684621
:10639000FADF044620463EBDF8730100F0B58FB029
:1063A00007461BE003AA0DF139010EA8C1DF044620
:1063B00004B114E00F49684600F08DF809E000BF11
:1063C000029805462E6803A86968B047684600F041
:1063D000A3F800BF02980028F1D100BFE2E700BF98
:1063E000052C04D000BF2046FDF720FD00BF0FB0F4
:1063F000F0BD0000EC73010038B51748007808B113
:10640000082038BD012015490870002000F028FA46
:10641000112801D10020F4E7002000F03FFA1048D5
:10642000006800900FA21949684610DF04460CB1BD
:106430002046E6E701200849087000200749087057
:106440001349087000F06DFA00F05CFA012000F0CA
:1064500025FA0020D5E70000110C0020130C0020C5
:10646000D8730100333833312D353231642D376420
:1064700066392D323464382D656666332D343637EF
:10648000622D323235662D6130306500D53D010018
:10649000120C00203EB50A49684600F01CF809E0DD
:1064A000684600F015F8044625686068A847684605
:1064B00000F032F8684600F00BF80028F0D13EBD3D
:1064C000CC7301000148007870470000110C0020D7
:1064D00001468868704770B504460D4625602868F7
:1064E0006060204600F001F870BD14E0D0E90021A2
:1064F0005268914202D10021816070474168096869
:1065000042685268914203D0416809688160F4E7AB
:10651000416808314160E9E710B50446A06800B958
:1065200010BD2168A06889680844A060D4E9011002
:106530004968884205D16068083060602046FFF7EE
:10654000D4FF00BFECE701464FF4A07000EB8100E0
:1065500080B2704701464FF480308840704708B5DC
:10656000002242504258009200BF08BD0146D1F8B7
:10657000C404C1F8C40470470246505808B1012051
:1065800070470020FCE708B50022425042580092B4
:1065900000BF08BDC0F808137047C0F80413704767
:1065A000C0F800127047012242507047014605486A
:1065B0004056012202EBE07008B101207047002034
:1065C000FCE70000B80C00200146044840560828AB
:1065D00001DB012070470020FCE70000B80C002020
:1065E000014606484056002805DB04484056082866
:1065F00001DA012070470020FCE70000B80C002001
:10660000FF2201490A547047B80C00200149086074
:1066100070470000401501400148006870470000C5
:106620000415014010B504460348046007211120F9
:10663000FCF77EFF10BD00000815014010B54FF4B7
:1066400080300A4908600A49C1F804031120FCF7A8
:106650004BFF1120FCF754FF0120054908602F2053
:10666000FFF730F801200349087010BD44130140C2
:1066700000100140060C002010B5112001218140BE
:106680000E4A430942F8231000BF4FF480300C49F2
:1066900008600C49C1F80803012048602F20FFF76B
:1066A00011F80120074988600020074908602F2061
:1066B000FFF708F800200549087010BD80E100E0F0
:1066C0004813014000100140F80B0020060C002088
:1066D000704700003EB5104A07CA8DE807000F4911
:1066E0000020FFF7DFFA044600BF254625B100BFB2
:1066F0002846FDF79BFB00BF00BF69460020FFF75F
:106700008DFA044600BF254625B100BF2846FDF797
:106710008DFB00BF00BF3EBDB4710100D16601001A
:1067200070B504462046FDF7F3F910B942F20100B6
:1067300070BD2046002806DA184900F00F02121F2B
:10674000895C490902E01649095C49090D46284659
:10675000FDF700FA10B942F20200E9E7114880683B
:1067600068B160090F4951F8200004F01F020121AF
:106770009140084361090B4A42F821000CE000BF38
:1067800004F01F01012088406109890001F1E02126
:10679000C1F8000100BF00BF0020C9E718ED00E00C
:1067A00000E400E0700E002070B504460D4620465F
:1067B000FDF7AEF910B942F2010070BD2846FDF7B1
:1067C000C9F910B942F20200F7E72046294600282D
:1067D00007DA4A07160E064A00F00F031B1FD654AD
:1067E00003E04A07130E034A135400BF0020E4E7F6
:1067F00018ED00E000E400E070B50446FDF7A4F9F0
:10680000054614488068D8B90120124988601248AA
:106810000068124908400F49086010484FF0E02115
:10682000C1F880010C488038D0F8840009494860DC
:106830004FF0FF310848001D01600020207001E08A
:10684000012020701DB900BF62B600BF00BF00204C
:1068500070BD0000700E002080E100E0FC06FFBD6E
:10686000FEB505460C496846FFF735FE0DE0684663
:10687000FFF72EFE0446266828466168B04708B92F
:106880001120FEBD6846FFF747FE6846FFF720FE71
:106890000028ECD100BFF4E794730100FEB5054673
:1068A0000A496846FFF717FE0AE06846FFF710FE40
:1068B0000446266828466168B0476846FFF72CFE04
:1068C0006846FFF705FE0028EFD1FEBDB07301005A
:1068D00070B5FFF791FD044600BF254625B100BF06
:1068E0002846FDF7A3FA00BF00BFFFF74BFD0446A3
:1068F00000BF254625B100BF2846FDF797FA00BF27
:1069000000BF70BD70B51620FFF70AFF044600BF38
:10691000254625B100BF2846FDF788FA00BF00BF15
:1069200070BD70B507211620FFF73EFF044600BF7B
:10693000254625B100BF2846FDF778FA00BF00BF05
:1069400007211520FFF730FF044600BF254625B17B
:1069500000BF2846FDF76AFA00BF00BF70BD0246BF
:10696000501A20F07F40704710B50446D4E9051056
:10697000884710BD2DE9FC410020019000260E48FB
:1069800004680E4807686846FDF7DCFF05462DB130
:1069900001AA21460098FEF751F901260198FEF759
:1069A000A5FA00B1012616B13846FDF73DFF0020DB
:1069B00003490870BDE8FC81F80B0020F40B0020AF
:1069C000070C002010B51420FCF7A6FD10BD000038
:1069D00010B51849096811B91649086028E0154A28
:1069E00001681268126891420DD812490968096855
:1069F0000268891A0F4A126811600E490968C1615C
:106A00000C49086014E002680A4C2368216803E01E
:106A10000C68121B0B46C96911B10C689442F7D37C
:106A200011B10C68A41A0C600260C161D86100BF8A
:106A300010BD0000F40B00202DE9F04106461C4873
:106A4000D0F8008005682C4604E0B44200D103E091
:106A50002546E469002CF8D100BF14B90020BDE838
:106A6000F081A54213D112480068C069104908603E
:106A70000846006858B901200E49886000200E4978
:106A8000086001200D4908702F20FEF71BFE2768C3
:106A9000E069E861EC6914B120683844206004487A
:106AA0000068804501D00120D9E70020D7E7000029
:106AB000F40B002000100140F80B0020070C002010
:106AC0002DE9FC4705460E46174698464FF000094B
:106AD000002000906846FDF7F1FA01A800F01AFBCB
:106AE000044614B94FF004090DE0012020706560E0
:106AF000FFF792FDA060E6602761C4F814809DF85E
:106B0000040000F025FB9DF80000FDF7DDFAB9F167
:106B1000000F01D1FFF756FF4846BDE8FC872DE97D
:106B2000FC4105460E460027002000906846FDF710
:106B3000C5FA01A800F0EEFA04460CB9042705E0F6
:106B4000267065609DF8040000F002FB9DF80000CF
:106B5000FDF7BAFA0FB9FFF735FF3846BDE8FC81FB
:106B60002DE9F0411F480068002838D00027FFF7C2
:106B700053FD80461C4801684046FFF7F0FE06467C
:106B80001848056810E02868B04200D90EE028686F
:106B9000361A286807442C46ED69207C20B1002075
:106BA00020742046FFF7E0FE002DECD100BF0F4817
:106BB00000780F490978884209D10D480078401CB7
:106BC000C0B20B490870022801D1002008700948A2
:106BD0000749097840F82170FFF7F4FE00BFBDE8CF
:106BE000F0810000F40B0020F80B0020040C0020C2
:106BF000050C0020FC0B002010B51120FCF78CFCCC
:106C000010BD000070B5044640F20C6122482268B5
:106C100040F82210626840F822102068FFF747FA17
:106C20006068FFF744FA40F20D611B48226840F8A3
:106C30002210626840F822100420FEF7F5FC0025BF
:106C40001BE0606800BF4FF0A042114600BFD1F8C2
:106C50001025C24002F0010212B105B970BD0EE06C
:106C60002068FFF7F7F90420FEF7DEFC2068FFF745
:106C70001EFA0420FEF7D8FC6D1C092DE1DB00BFD5
:106C80006068FFF7E7F90420FEF7CEFC6068FFF7C5
:106C90000EFA00BFE2E700000007005001460320A3
:106CA00001F001020AB14FF4024001F002020AB100
:106CB00048F2012001F004020AB148F202207047B4
:106CC0002DE9F04106460F4615461C462078A8429D
:106CD0001ADA00BFD6F81805C0B2217878542078A7
:106CE000401C20702178681E814204D10221304668
:106CF000FFF756FC04E02078A84201D1BDE8F081FE
:106D000020213046FFF74FFC00BFF7E72DE9FE4397
:106D100004460D4617461E464FF0000942F2107019
:106D200002904FF482712846FFF72DFC4FF49271C8
:106D30002846FFF728FC4FF48E712846FFF723FC06
:106D40004FF484712846FFF71EFC002084F82600CB
:106D500084F82300012E04D102212846FFF720FCED
:106D600003E001212846FFF71BFC20212846FFF7FE
:106D70001AFC00212846FFF716FC206838B140F2C3
:106D80008620A060A1682846FFF707FC30E002E0FB
:106D90000298401E0290029800280BDD00203B461E
:106DA00004F12602D11ECDE90060284600F047F824
:106DB0000028EDD194F8230058B12846FFF7D6FB00
:106DC0008046B8F1000F03D04046FFF767FF8146C9
:106DD00000BF029800280BDC00BF0020C5F80005AA
:106DE00000BF00BF0520C5F8000500BF4FF0030934
:106DF0004846BDE8FE832DE9F04105460E4617469C
:106E00001C46DDF818802078B84208DA2178705CDA
:106E1000C5F81C0500BF2078401C20700DE0B8F1BB
:106E2000000F06D01C212846FFF7BDFB0020BDE85F
:106E3000F08114212846FFF7B6FB0120F7E72DE982
:106E4000F84F80460C4615461E46DDE90A79207843
:106E500010B92878B84201D1012000E00020824614
:106E6000207878B14FF492714046FFF78CFB4FF4D5
:106E70008E714046FFF787FB4FF484714046FFF761
:106E800082FB5DE04FF492714046FFF775FB58B10D
:106E90004FF492714046FFF776FB14214046FFF70E
:106EA00082FB012020704BE04FF48E714046FFF7CB
:106EB00063FB10B34FF48E714046FFF764FB4FF451
:106EC00092714046FFF758FB58B14FF4927140461B
:106ED000FFF759FB14214046FFF765FB01202070A6
:106EE0002EE02B463A4631464046CDF80090FFF75B
:106EF00082FF28BB0020BDE8F88F4FF48471404624
:106F0000FFF73AFBE0B14FF484714046FFF73BFBDB
:106F10004FF492714046FFF72FFB58B14FF4927136
:106F20004046FFF730FB14214046FFF73CFB0120B1
:106F3000207005E02B463A4631464046FFF7C0FE3A
:106F4000BAF1000F0CD04FF482714046FFF714FBEA
:106F500030B14FF482714046FFF715FB0020CAE7BD
:106F60000120C8E72DE9FE4F04460D4616461F4690
:106F7000DDF830804FF0000A42F2107002904FF4BA
:106F800082712846FFF7FFFA4FF492712846FFF707
:106F9000FAFA4FF48E712846FFF7F5FA4FF4847130
:106FA0002846FFF7F0FA00212846FFF7F9FA0020FB
:106FB00084F8260084F8230020212846FFF7F3FAFE
:106FC00008212846FFF7EFFA04F126033A46314636
:106FD0002846CDF80080FFF70EFF206838B140F258
:106FE0008620A060A1682846FFF7D7FA2FE002E0CC
:106FF0000298401E0290029800280ADD334604F1F0
:107000002602D11E2846CDE90078FFF718FF002898
:10701000EED194F8230058B12846FFF7A7FA81462D
:10702000B9F1000F03D04846FFF738FE824600BF93
:10703000029800280BDC00BF0020C5F8000500BF47
:1070400000BF0520C5F8000500BF4FF0030A5046F9
:10705000BDE8FE8F2DE9F84304460F4615461E464F
:107060004FF000084FF0FF313846FFF793FA94F8DD
:10707000240040B1A1683846FFF78FFA4FF011089D
:107080004046BDE8F88306F0040008B9012000E09E
:10709000002084F8240006F0080018B14FF006081C
:1070A0004046EEE7A66195E80700C4E90412E060F7
:1070B000A87884F820006868E0616878C7F88805D7
:1070C00000BF2878012814D0287810B906F02000D5
:1070D00008B1012000E0002084F8210094F821008C
:1070E0000090AB78394620466A68FFF73BFF804640
:1070F00009E0002084F82100AB78394620466A6810
:10710000FFF704FE8046206810B9002084F82400B0
:107110004046B6E710B502460C484078401CC1B264
:107120000A488078884200D10021084800788842C7
:1071300001D1002010BD11700448407800EB4004DC
:107140000248001D00EBC4031846F3E7640D00205D
:107150000149487070470000640D002070B5FCF7CD
:107160003DFF044600BF254625B100BF2846FCF779
:107170005DFE00BF00BF00210120FDF7DBF80446E3
:1071800000BF254625B100BF2846FCF74FFE00BFD3
:1071900000BFFEF7EFFF044600BF254625B100BF44
:1071A0002846FCF743FE00BF00BF70BDDB0F49401F
:1071B000920A863F0000000002000001000000006B
:1071C000002000420202020044040000003000409F
:1071D000000000000C0000000D0000000000680628
:1071E000020000000708090A030405061C0C002021
:1071F0003C0C0020680C0020030003001542010035
:1072000004000300154201000500030015420100BF
:107210000600030015420100000000506E72665F18
:107220006472765F6770696F74655F696E69740018
:107230006E72665F6472765F6770696F74655F6FA8
:1072400075745F696E6974006E72665F6472765FF2
:107250006770696F74655F696E5F696E697400005D
:107260006E72665F6472765F7477695F696E697467
:10727000007477695F78666572006E72665F64722B
:10728000765F7477695F78666572000001000000C0
:107290000000000000000000000007016E72665F41
:1072A0006472765F73616164635F696E6974006EB6
:1072B00072665F6472765F73616164635F63686165
:1072C0006E6E656C5F696E6974006E72665F647283
:1072D000765F73616164635F6368616E6E656C5F46
:1072E000756E696E6974006E72665F6472765F7344
:1072F000616164635F73616D706C655F636F6E760F
:10730000657274006E72665F6472765F7361616449
:10731000635F6275666665725F636F6E76657274D1
:10732000006E72665F6472765F73616164635F733F
:10733000616D706C65006E72665F6472765F73611A
:107340006164635F63616C6962726174655F6F66DB
:107350006673657400000000440D00200300000007
:10736000000000000000000000000000000000001D
:10737000000000000000000060730100787301004D
:1073800004000000000000000000000000000000F9
:1073900000000000847301009473010008000000E5
:1073A00000000000000000000000000000000000DD
:1073B000A0730100B0730100080000002C740100EC
:1073C000347401000000000000000000BC730100E4
:1073D000CC7301000800000001000007000000005D
:1073E00000000000247401002C740100DC73010013
:1073F000EC7301000800000001002000880E00204E
:107400008000000034740100800B00209C0000000C
:10741000F03A0100D07401001C0C0020EC220000A6
:10742000003B0100253C0100000000009D630100BD
:10743000000000000000000000000000000000004C
:107440000000000000000000000000000000803F7D
:10745000000000000000000000000000000000002C
:10746000000000000000000000000000000000001C
:10747000000000000000000000000000000000000C
:1074800000000000000000000000000000000000FC
:1074900000000000000000000000000000000000EC
:1074A00000000000000000000000000000000000DC
:1074B00000000000000000000000000000000000CC
:1074C00000000000000000000090D0030000000059
:0400000500012201D3
:00000001FF
