:020000040000FA
:100000000820002019020000210200002302000045
:100010002502000027020000290200000000000065
:100020000000000000000000000000002B020000A3
:100030002D020000000000002F020000310200002D
:1000400033020000330200003302000033020000DC
:1000500033020000330200003302000033020000CC
:100060005D0500003302000033020000330200008F
:1000700033020000330200003302000033020000AC
:10008000330200003302000033020000330200009C
:10009000330200003302000033020000330200008C
:1000A000330200003302000033020000330200007C
:1000B00033020000330200000000000000000000D6
:1000C000330200003302000033020000330200005C
:1000D0003302000033020000330200000000000081
:1000E0000000000000000000000000000000000010
:1000F0000000000000000000000000000000000000
:1001000000000000000000000000000000000000EF
:1001100000000000000000000000000000000000DF
:1001200000000000000000000000000000000000CF
:1001300000000000000000000000000000000000BF
:1001400000000000000000000000000000000000AF
:10015000000000000000000000000000000000009F
:10016000000000000000000000000000000000008F
:10017000000000000000000000000000000000007F
:10018000000000000000000000000000000000006F
:10019000000000000000000000000000000000005F
:1001A000000000000000000000000000000000004F
:1001B000000000000000000000000000000000003F
:1001C000000000000000000000000000000000002F
:1001D000000000000000000000000000000000001F
:1001E000000000000000000000000000000000000F
:1001F00000000000000000000000000000000000FF
:10020000DFF810D000F01AF800480047AD050000F4
:10021000AFF30080082000200648804706480047CA
:10022000FEE7FEE7FEE7FEE7FEE7FEE7FEE7FEE7A6
:10023000FEE7FEE76102000001020000064C074DE8
:1002400006E0E06840F0010394E8070098471034A6
:10025000AC42F6D3FFF7D8FF1406000034060000C6
:10026000F0B5AE480023021D01780125101D4FF0A6
:10027000805406290BD11678360708D10678C6F3C4
:100280000316032E06D0042E04D0052E02D0062914
:1002900007D00EE0B4F82463A14FC6F304263E60F5
:1002A00002E01678360704D10678C6F30316032E4B
:1002B00002D0062904D00FE09B4F9A4E7E670EE0D5
:1002C0001678360708D10678C6F30316032E06D033
:1002D000042E04D0052E02D0062907D00EE0D4F853
:1002E0004462924FC6F342363E6002E0167836070B
:1002F00004D10678C6F30316032E02D0062906D0D1
:1003000011E08B4E376827F0807737600EE0167863
:10031000360708D10678C6F30316032E06D0042E3E
:1003200004D0052E02D006290AD011E04FF08046F5
:10033000C6F80C31C6F810317C4E361F336002E02F
:100340001678360704D10678C6F30316032E02D0BA
:10035000062905D00CE0754F032664373E600AE09D
:100360001678360704D10678C6F30316032E02D09A
:1003700006290DD014E06F4F05263E606D4E78368D
:1003800035606C4E083633603F263F1D3E6002E00C
:100390001678360704D10678C6F30316052E02D068
:1003A000062957D062E0644E3668644F3E60624E64
:1003B000361D36683F1D3E605F4E083636683F1D6D
:1003C0003E605D4E0C3636683F1D3E605A4E10361C
:1003D00036683F1D3E60584E143636683F1D3E60FD
:1003E000554E18363668554F20373E60524E1C36F3
:1003F00036683F1D3E60504E203636683F1D3E60D9
:100400004D4E243636683F1D3E604B4E28363668CA
:100410003F1D3E60484E2C3636683F1D3E60464EBE
:1004200030363668454F40373E60434E3436366886
:100430003F1D3E60404E383636683F1D3E603E4EA2
:100440003C3636683F1D3E603B4E403636683F1DA9
:100450003E6002E01678360708D10678C6F3031628
:10046000032E06D0042E04D0052E02D0062907D074
:1004700019E0D4F85812324A01F04F01116002E03D
:10048000117809070FD10078C0F30310032803D0B7
:10049000042801D0052806D12A480168C90702D0DE
:1004A0006FF00101016022487438016841F4700165
:1004B0000160BFF34F8FBFF36F8F4FF01021D1F862
:1004C0000002002803DBD1F80402002822DA1E4AC9
:1004D00015601E480468002CFCD01524C1F80042A9
:1004E0000568002DFCD0C1F8044201680029FCD049
:1004F000136001680029FCD0BFF34F8F0C48F0381F
:100500000168134A01F4E06111430160BFF34F8FAA
:1005100000BFFDE710490F480860F0BDE00F00F094
:10052000403501400DF0ADBA00C007403C05004029
:10053000FCED00E0105600400404001020C500400F
:10054000E40E00400004004004E5014000E40140E6
:100550000400FA050090D003000000200A48D0F8FB
:10056000401100290FD00021C0F840114FF0A040E9
:10057000D0F804154FF400628A43C0F8082501F44E
:100580000061C0F80C1570470080004002E008C808
:10059000121F08C1002AFAD170477047002001E0FD
:1005A00001C1121F002AFBD170470000064A032137
:1005B0004FF0A040C2F800174FF40061C0F80C15CE
:1005C00000F004F8FEE700002C0000500F48012165
:1005D00041600F4B00221A6002221B1D1A600C4B57
:1005E00008220C331A60C160094B4FF224423C339D
:1005F0001A600A04C0F80423C0F800124FF0E02388
:100600008215C3F80021016070470000008000409F
:1006100004850040340600000000002004000000B3
:100620008C050000380600000400002004200000B3
:080630009C0500000090D003BE
:0400000500000201F4
:00000001FF
