:020000040001F9
:1020000020350020852301008D23010019220100C5
:10201000912301009323010095230100000000009B
:1020200000000000000000000000000097230100F5
:1020300099230100000000009B2301009D23010063
:102040009F2301009F230100413B0100F133010068
:102050009F2301009F230100412A01007D320100DE
:102060009F2301009F2301009F2301009F23010064
:102070009F2301009F2301009F2301009F23010054
:102080009F230100E13101009F2301009F230100F4
:10209000D934010099370100B13701009F230100B5
:1020A0009F2301009F2301009F2301009F23010024
:1020B0009F2301009F23010000000000000000009A
:1020C0009F2301009F2301009F2301009F23010004
:1020D0009F2301009F2301009F23010000000000B7
:1020E00000000000000000000000000000000000F0
:1020F00000000000000000000000000000000000E0
:1021000000000000000000000000000000000000CF
:1021100000000000000000000000000000000000BF
:1021200000000000000000000000000000000000AF
:10213000000000000000000000000000000000009F
:10214000000000000000000000000000000000008F
:10215000000000000000000000000000000000007F
:10216000000000000000000000000000000000006F
:10217000000000000000000000000000000000005F
:10218000000000000000000000000000000000004F
:10219000000000000000000000000000000000003F
:1021A000000000000000000000000000000000002F
:1021B000000000000000000000000000000000001F
:1021C000000000000000000000000000000000000F
:1021D00000000000000000000000000000000000FF
:1021E00000000000000000000000000000000000EF
:1021F00000000000000000000000000000000000DF
:10220000DFF810D000F0DEFB00480047F54C01007D
:10221000AFF3008020350020094B1EF0040F1CBFD7
:10222000EFF309801847EFF308800649064A884211
:1022300001D8904202D88D464FF0000018470000A8
:10224000F52B0100203500202015002030B4044675
:1022500054E8000F0D4644E80053002BF8D11560F8
:1022600030BC704730B4044654E8000F40EA010522
:1022700044E80053002BF7D1156030BC704730B4F0
:10228000044654E8000F00EA010544E80053002B1F
:10229000F7D1156030BC704730B4044654E8000FE5
:1022A00080EA010544E80053002BF7D1156030BCEB
:1022B000704730B4044654E8000F00EB010544E8D1
:1022C0000053002BF7D1156030BC704730B4044682
:1022D00054E8000FA0EB010544E80053002BF7D1B0
:1022E000156030BC7047000030B4044654E8000F5D
:1022F0000D4644E80053002BF8D1156030BC704700
:1023000030B4044654E8000F40EA010544E80053A5
:10231000002BF7D1156030BC704730B4044654E848
:10232000000F00EA010544E80053002BF7D11560C7
:1023300030BC704730B4044654E8000F80EA010511
:1023400044E80053002BF7D1156030BC704730B41F
:10235000044654E8000F00EB010544E80053002B4D
:10236000F7D1156030BC704730B4044654E8000F14
:10237000A0EB010544E80053002BF7D1156030BCF9
:10238000704700000648804706480047FEE7FEE722
:10239000FEE7FEE7FEE7FEE7FEE7FEE7FEE7FEE715
:1023A000E5370100012201000048704784790100EF
:1023B00040EA01039B0703D009E008C9121F08C0C7
:1023C000042AFAD203E011F8013B00F8013B521E47
:1023D000F9D27047D2B201E000F8012B491EFBD2BE
:1023E00070470022F6E710B513460A460446194620
:1023F000FFF7F0FF204610BD421C10F8011B00291A
:10240000FBD1801A70472DE9FE4F804681EA030018
:10241000C00F0C46009021F0004123F00045B8EBBE
:102420000200A94105D24046214690461C460B4673
:10243000024623F00040104347D0270DC7F30A009F
:10244000C3F30A510290401A019040286BDAC3F39B
:10245000130040F4801B0098924620B10023D2EB79
:10246000030A63EB0B0B01985946C0F1400250463A
:1024700000F091F906460D4650465946019A00F083
:10248000A9F910EB08006141002487EA115284EA9F
:10249000E7731A4340D0009A62B3019A012A4FEAC7
:1024A000075215DC001B61EB02014FF0004202EA0B
:1024B0000752CDE90042001C41F5801132462B46FF
:1024C00000F0E0F903B0BDE8F08F40462146F9E79F
:1024D000001B61EB0201001C41F5801300185B41F9
:1024E0002018A2F5001747EB030140EAD570B61992
:1024F0006D4111E06D084FEA360645EAC0754FEAB6
:102500000752001B61EB0201001C41F580114908D4
:102510004FEA30000019514132462B4603B0BDE866
:10252000F04F00F0A0B90098012240000023D0EB4A
:10253000020263EBE073009821464FEAE074B8EBC7
:10254000000061EB0401E9E783F000435BE781F001
:10255000004158E72DE9FE4F81EA030404F00044EE
:1025600021F0004100944FF0000B23F0004350EAAB
:1025700001045ED052EA03045BD0C3F30A54C1F3F2
:102580000A552C44A4F2F3340194A0FB0254C1F385
:10259000130141F48011C3F3130343F4801301FBCF
:1025A000024400FB034E840A970A44EA815447EA36
:1025B0008357A4FB076802958D0A05FB07854FEA40
:1025C000932C04FB0C542705029D4FEA065847EA5A
:1025D0001637B5EB08056EEB070C870E920E47EA2F
:1025E000811742EA8312A7FB0201B6EB0B0164EBF1
:1025F00000042B0D43EA0C335E1844EB1C50DA4602
:102600005146E7FB0201C5F313044FEA0B3343EADB
:1026100014534FEA0432019C43EA0603A4F10C046C
:102620000294009CCDE900B400F02CF903B0BDE8A1
:10263000F08F00200146F9E72DE9F04D81EA03040F
:1026400004F0004B21F0004514464FF0000A23F03F
:10265000004150EA050220D054EA01021DD0C5F322
:102660000A570246C5F31303C1F31300C1F30A5618
:1026700040F4801543F48013A7EB0608101BD646E0
:1026800008F2FD3873EB050002D308F1010801E000
:1026900092185B41B8F1000F03DA00200146BDE853
:1026A000F08D00204FF48011064684460EE0171B83
:1026B00073EB050705D3121B63EB050306434CEAD6
:1026C000010C49084FEA300092185B4150EA0107BB
:1026D000EDD152EA030012D082EA040083EA050138
:1026E000084305D0101BAB4106D20122002306E0AF
:1026F00000224FF0004302E06FF0010253101AEB8A
:1027000006004CEB085110EB0A0041EB0B01BDE851
:10271000F04D00F0A8B80EB5C10F80EAE070084493
:10272000CA07002140F233438DE80E000A460B46EB
:1027300000F0A8F803B000BD00F0004230F0004007
:102740000AD0C10D01F56071C0F3160042EA0151D3
:10275000C20840071143704700200146704701F04E
:10276000004330B421F0004150EA010206D00A0DC6
:10277000A2F56072C1F31301002A02DC30BC002014
:102780007047440F44EAC104C100E01830BC00EBBC
:10279000C25000F031B8202A04DB203A00FA02F1DE
:1027A000002070479140C2F1200320FA03F319433F
:1027B00090407047202A04DB203A21FA02F00021E1
:1027C000704721FA02F3D040C2F120029140084341
:1027D00019467047202A06DBCB17203A41FA02F04F
:1027E00043EAE07306E041FA02F3D040C2F120026E
:1027F00091400843194670470029A8BF7047401C04
:10280000490008BF20F00100704710B4B0FA80FC06
:1028100000FA0CF050EA010404BF10BC704749B143
:10282000CCF1200421FA04F411FA0CF118BF0121B3
:1028300021430843A3EB0C01CB1D4FEA00614FEA93
:10284000102042BF002010BC704700EBC350104462
:102850000029A4BF10BC7047401C490008BF20F0ED
:10286000010010BC704710B5141E73F1000408DAA3
:10287000401C41F1000192185B411A4301D120F044
:10288000010010BD2DE9F04D92469B4611B1B1FA01
:1028900081F202E0B0FA80F220329046FFF77BFF2F
:1028A00004460F4640EA0A0041EA0B0153465A46E5
:1028B000084313D0114653EA010019D0C8F1400271
:1028C0005046FFF777FF05460E46504659464246AA
:1028D000FFF761FF084305D0012004E02046394698
:1028E000BDE8F08D0020054346EAE0762C433743EF
:1028F0000A986305E40AA0EB08000022FD0A44EAF6
:1029000047540A3002D500200146E9E701051019B5
:102910006941DDE9084500196941BDE8F04DA2E7CC
:102920002DE9F04D00231A461B1A8A4103DB0020D3
:102930000146BDE8F08DC1F30A52C1F3130141F421
:1029400080154FF0000BD10702D100186D41521EC7
:102950000027044640F2FF11384601EB620A3E466A
:102960008046024600204FF48011FFF723FFC21972
:102970007141BB1846EB0100B4EB030C75EB000C86
:1029800004D3E41A65EB000517460E46241908F136
:1029900001006D4180463428E3DDF91946EB06005D
:1029A000091BA84103D24FF0FF32134601E0002279
:1029B00013461BEB070046EB0A51BDE8F04DFFF74D
:1029C00052BF0000064C074D06E0E06840F00103EE
:1029D00094E8070098471034AC42F6D3FFF714FC94
:1029E000487A0100687A010070B58C1810F8015B14
:1029F00015F0070301D110F8013B2A1106D110F898
:102A0000012B03E010F8016B01F8016B5B1EF9D19B
:102A10002B0705D40023521E0DD401F8013BFAE721
:102A200010F8013BCB1A921C03E013F8015B01F88C
:102A3000015B521EF9D5A142D8D3002070BD000021
:102A40002DE9F04F00268DB00122664CB0464FF4C0
:102A5000807033461746089600F1804101F5C04169
:102A6000D1F800C0BCF1010F09D1D4F804C31CEAAD
:102A7000020F04D0C1F80080096816430391001DBD
:102A800052005B1C80B2082BE6D35748DFF85CB1DC
:102A9000016801290AD1C0F8008000680090DBF8C5
:102AA000000046F00046D0F810050890504D16F092
:102AB000FF0F1CBF4FF00109002419D019EA060FBF
:102AC00011D0A00000F1804101F5C041D1F81005FE
:102AD000D1F81015C0F3042055F82420C1F30141AA
:102AE000002A18BF90474FEA4909641C082CE5D317
:102AF00016F0004F19BF4FF0FF30CDE90A800DB03E
:102B0000BDE8F08F002634462A1992F850104AB2D8
:102B100021F0C000B2F1FF3F3AD00BABC20800F089
:102B2000070C9B5C07FA0CFA1AEA030F30D02B183B
:102B3000890993F9303055F823C0BCF1000F02D059
:102B4000032902D008E0032922D10AAB13F802803E
:102B500048EA0A0803F802804FF0A04303EB800321
:102B6000D3F800870DF12009C8F3014819F80220B5
:102B70001AEA020F03D0B8F1020F03D008E0B8F14F
:102B8000030F05D1032919D0BCF1000F18BFE0478E
:102B9000641C042CB8D3002E04BF0DB0BDE8F08F28
:102BA000DBF80000D0F810050899884204BF0DB08A
:102BB000BDE8F08F08900A980B90A3E7B8F1020FD8
:102BC00014BF02220322D3F8008728F44038C3F848
:102BD0000087D3F8008748EA0242C3F80027721C36
:102BE000D6B2D1E7006000407C610040F47701007C
:102BF000680D002010B5044603F012FD03F00AFB37
:102C00000028FBD1204600F001F810BDBFF34F8F24
:102C100005480168054A01F4E06111430160BFF312
:102C20004F8F00BFFDE700000CED00E00400FA0547
:102C300010B520217F2002F021FB0221BDE81040C9
:102C4000142002F01BBB10B520217F2002F016FBE0
:102C50000221BDE81040012002F010BB10B5002198
:102C60007F2002F00BFB0021BDE81040072002F09E
:102C700005BB10B500217F2002F000FB8021BDE8DC
:102C80001040062002F0FABA08B50121322002F005
:102C9000CFFA01226946322002F03EFA08BD10B593
:102CA00000217F2002F0EAFA0121BDE81040062051
:102CB00002F0E4BA10B5044620217F2002F0DEFACB
:102CC000C4F30321102002F0D9FA04F00F01BDE88B
:102CD0001040112002F0D2BA70B5054620217F20A5
:102CE00002F0CCFA04462946002002F0C7FA20463A
:102CF00070BD00000000000010B52DED0A0B2DED99
:102D0000108BF0EE60AA9EB0F0EE64EAB0EE43BA2B
:102D1000B0EE62FAF0EE42FAB0EE41AA9FEDFCEAA4
:102D20009FEDFD0B01F050F8FD4CB0EE000AD4ED24
:102D3000009A94ED019AD4ED028A94ED038A69EE2B
:102D4000800A69EE00CA28EE80CA28EE000ACDED9E
:102D5000060ACDED100A8DED140A20EEA80A29EE20
:102D600009DA68EEA8BA8DED0A0A2CEE080A68EEB8
:102D700008DA8DED0C0A29EEA90A8DED110A29EE6B
:102D8000890A8DED150A29EEA80A8DED090A29EEAA
:102D9000880A8DED180A29EE280A8DED170A29EE0A
:102DA000080A8DED080A28EE880A8DED160A9DEDB9
:102DB0002E0A60EE000A4AEEAA0A4AEE0A0AB1EEAC
:102DC000E00AB4EE400AF1EE10FA1CBFB0EE600A61
:102DD00001F037F8B5EEC00AF1EE10FA01BF1EB0EF
:102DE000BDEC108B0AB010BDB7EE001AC1EE000AA0
:102DF0009DED2E0A20EE200A8DED2E0A2AEEA00A65
:102E00008DED2F0A2AEE200A8DED300A2BEE0B0AEB
:102E1000DDED350A00EEA00ADDED360A00EEA00A6F
:102E2000F0EE400AB1EEE00AB4EE400AF1EE10FA1C
:102E30001CBFB0EE600A01F004F8B5EEC00AF1EE76
:102E400010FA7CD0B7EE001AC1EE000A9DED350AEB
:102E500060EE20AA9DED360A2BEE20BA20EE20AAC5
:102E60009DED060A60EE0B1A20EE2A0ACDED071A38
:102E70008DED050A9DED060A20EE0A1AB0EE6C0AE9
:102E800060EE0B1ACDED041A9DED110ADDED071A67
:102E90006BEE000A9DED050A40EE480A2CEEAA0AE8
:102EA00041EE280A4BEE0D0A40EE280A2CEE8A0A63
:102EB00040EE080A21EE880ADDED111A0AEEA10A99
:102EC000DDED041A4BEE6B0A01EE490A2CEE0A1AEC
:102ED0004BEE6D0A01EEA80A60EEA00A0AEECD0ADA
:102EE0000AEEAB0A01EE080A0AEEED0A40EE000A0D
:102EF00010EE900AFFF720FC41EC100B00F064FF8D
:102F000051EC100BFFF72BFC9DED050ADDED071AC8
:102F10009DED111A20EE090A00EE900A01EEE80A72
:102F2000DDED041A0AEE010A2CEE2A1A01EE880AD7
:102F30000AEE4D0A01EE080A0AEE6B0A00E04AE1C9
:102F40000AEE2D0AB0EE001ADDED151A60EE814A88
:102F5000B0EE001AB0EE002A20EE015A9DED0C1AD8
:102F6000DDED082AB0EE003A01EE821A9DED0A2A44
:102F7000B6EE004ADDED093A12EE832ADDED2E2A87
:102F80009DED083ADDED2F1ADDED186A33EE633A58
:102F900032EE622A74EE6B2ADDED173A71EE611A99
:102FA0009DED167A72EEED2A73EEE63ADDED156AC6
:102FB00021EEAC1A62EEA02A63EEA03A76EE876AA2
:102FC0000CEE421A40EE032A20EE093A60EE285A2F
:102FD00040EE263ADDED086AB0EE436A72EECB2A87
:102FE00000EEC86A34EE4D4A73EEEA3A05EEE21A94
:102FF00034EE6B4A06EE231A9DED096A36EE266A18
:10300000F0EE006A26EE206A00EE046A36EE4A4AC6
:1030100020EEA86A06EE041A00EE296AB0EE41AA74
:103020009DED141A62EE01AA9DED101A41EE21AA3F
:10303000B7EE001A0DEE661AF0EE006A0BEEE61A15
:10304000DDED306A31EE661AF1EE006A29EE267A7D
:1030500047EE41AA20EE087A47EE22AA46EE23AABE
:1030600020EE886A05EE496A46EE04AA9DED146AD0
:1030700062EE2CBA04EEC83A21EE86BA9DED106AD3
:103080004CEE21BA40EEE95A06EE42BA28EEA66AA4
:1030900043EE22BA06EE41BA24EEE81A45EEA3BA90
:1030A00000EE691A01EE22BA20EE891AB0EE416AEA
:1030B00041EE04BA00EE086A20EEA90A6AEE0A0A96
:1030C00005EE680A06EE23BA4AEEAA0A00EE04BA32
:1030D0004BEE0B0A4BEEAB0AB1EEE00AB4EE400A3F
:1030E000F1EE10FA1CBFB0EE600A00F0AAFEB7EED7
:1030F00000CA8CEE001A6AEE011A2AEE810A6BEE03
:10310000010A2BEE812A9DED311A69EE412A09E070
:10311000CDCCCC3D00000000000000000000E83FE6
:10312000C00B002048EEEF2AB6EE001A9DED313AB2
:1031300048EE4F2A62EE812A4EEE612ADDED311A09
:1031400069EEA11A48EE8F1A48EE6F1A61EE811AE5
:103150004EEE401A29EEAF0A09EE4F0A08EE030AB6
:1031600020EE010A0EEE600A69EE8F0A42EEAE9A78
:1031700049EE2F0A01EEAE9A48EEC30A40EE2E8ABF
:1031800060EE810A4EEE420A00EEAE8A69EEA90AAE
:1031900049EE090A48EEA80A48EE080AB1EEE00A2C
:1031A000B4EE400AF1EE10FA1CBFB0EE600A00F077
:1031B00048FECCEE000A29EEA00A84ED000A29EEB2
:1031C000200A84ED010A28EEA00A84ED020A28EE06
:1031D000200A84ED030A1EB0BDEC108B0AB010BDAE
:1031E0002DE9F04121484FF00008C0F84081C0F8B7
:1031F0004481C0F84881C0F84C81C0F80081C0F813
:1032000004811B4F7C68002C08BFBDE8F0810026BC
:1032100018480068B968401A20F07F452068A84225
:103220000CD821462D1A0644E469087C20B181F8A7
:103230001080886949698847002CEFD139787878FF
:10324000814206D1401CC0B27870022808BF87F8BE
:1032500001800948797840F821604FF0E0214FF46F
:103260008010C1F80002BDE8F081000000100140AC
:103270000C0C002004150140180C00202DE9F0432F
:10328000544C85B0D4F80401DFF84C810026534D2E
:10329000012718B3C8F80060D8F80000009095F82E
:1032A0002E2012B195F82F00D8B18DF80060686813
:1032B00001902889ADF80800E868002808BF2E743E
:1032C00007D0298B698368602981EE60002A08BFD6
:1032D000276068462968884785F82F6095F82E0092
:1032E00088B3D4F8000170B33D48066000680090D0
:1032F0006A8B95F82D003B4B824203F1040C0DD9EB
:10330000A2EB000189B269832A89A2EB01016A68F4
:1033100002EB41011960CCF800000EE008D1E96829
:1033200031B185F82F706E831960CCF8000004E08D
:10333000824204BF85F82F706E83C8F80060D8F809
:10334000000000906760D4F8100150B12648066074
:10335000006803902E7402208DF8000029686846EA
:103360008847D4F8140138B12048066000680090FE
:103370002E7405B0BDE8F0836C69002C19BF4FF0C6
:1033800000484FF48C7905B0BDE8F083B4FA84F0BE
:1033900028FA00F18C4309EB800000F1804101F52F
:1033A000E0410A6882B10E6009680391A0F58C7053
:1033B000C1088DF8041027EA90008DF800708DF890
:1033C0000500296868468847002CDFD105B0BDE8B4
:1033D000F08300000070004004710040080E0020DF
:1033E000007100402C7600401071004014710040C4
:1033F00030B5384C85B0364894F8212094F8201028
:10340000CDE9001204F126020546D11EE36904F05D
:1034100049F800281CBF05B030BD94F8230048BB14
:10342000207B022818BF032824D12169E069884243
:1034300020D16069E061E07B84F82000207EC0F349
:10344000401084F82100217B032909D094F8203012
:10345000E26905B029462046BDE8304003F0B4BF1C
:10346000009094F8203029462046E26904F0A4F840
:1034700005B030BDD4E9030162690392CDE90101D1
:1034800094F823000021002808BF8DF800100BD00D
:10349000D5F8C404C5F8C40410F0020F18BF012009
:1034A00010D000BF8DF8000084F82410207E10F0AA
:1034B000040F1CBF05B030BDD4E900216846904719
:1034C00005B030BD10F0040F18BF0220EAD1EBE7C1
:1034D00000300040C00D00202DE9F04F83B0A74E12
:1034E00000270097D6E9011430787278B8469042E8
:1034F0002FD0401CC0B23070022808BF86F8008070
:103500009F48327850F82220101920F07F40002385
:10351000B060E1B170680168914202D9891A016016
:1035200015E0C0F80080C5697560521AD0F80C909B
:103530000B440146B9F1000F07D004EB030A2AF04F
:103540007F4AC0E901A9CF610746002DE2D10120E1
:10355000009070684FF0000901909BE089490A785B
:1035600002EB4200521CD2B20A7001EBC0008B7811
:10357000001D9A4208BF81F8008001784468012943
:103580003DD0022902D0032977D12DE0D6F804B02E
:1035900021465D465FEA050A23D08D4204D0AA4643
:1035A000ED69002DF9D11CE0DDB1AA450CD1DBF8A5
:1035B0001C00706040B9744901208860C6F808801A
:1035C000F0702F2001F028FD2968E869CAF81C0076
:1035D00010B10268114401607068834518BF4FF054
:1035E000010984F810805AE07068002857D000BFA5
:1035F00080F81080C069011EFAD171604FE0217C13
:1036000000294CD181686160C168A1600169E160F5
:103610004069A061F078002818BFC4F80480616890
:10362000B0685A4B0A1A22F07F429A423CBFA06807
:10363000104409D3401AA16820F07F4081428CBF1A
:10364000081AC4F8008000D92060C4F80480012062
:10365000C4F808802074C4F81C807068002808BF73
:10366000746017D021680268914288BF024609D869
:10367000511A0160E06174600CE010E00246C0691C
:10368000C91A20B103688B42F8D35B1A036021602A
:10369000E061D461002F1CBF3C46FF69BFD13948AF
:1036A0000178407881427FF459AFB9F1000F06D11B
:1036B00071680198814204BF0098002858D0716851
:1036C0004FF480304FF400354FF0E027D9B3D1F8F4
:1036D00000A02F490C68D6F808B0A4EB0B0121F02C
:1036E0007F4101F10309B17889B92749C1F8440341
:1036F000C1F80403C7F88052C7F800514FF0010029
:1037000008604FF02F0001F087FC0120B070D14518
:1037100038BFD14609EB0B0020F07F411D48016006
:103720001B4B1A68091B121B22F07F4221F07F41BC
:10373000D21C8A421CD9196801602F2001F06CFC50
:10374000C7F8005214E0FFE70124C7F880510E4D7E
:10375000C5F84803C5F808036C602F2001F05CFC35
:10376000AC602F20C6F8088001F056FC86F8028075
:1037700086F8038003B0BDE8F08F00000C0C002039
:10378000180C0020380E002000100140FFFF7F00C1
:1037900004150140401501400449044A00230988EA
:1037A00001201380921C126810470000060C0020B4
:1037B00000B583B00A49684603F0E0FA0298002891
:1037C00004BF03B000BD00BFD0E9001088476846C1
:1037D00003F0E5FA02980028F6D103B000BD00001E
:1037E000AC78010070B4AE480023021D0178101DB2
:1037F0004FF080544FF0010C062904BF157815F0E6
:103800000F0F06D0062904BF157815F00F0F13D13E
:103810000DE0057805F0F005302D1CBF402D502D32
:10382000F0D1B4F824539F4EC5F3042535600578D4
:1038300005F0F005302D0CD0062904BF157815F0E1
:103840000F0F0AD0062904BF157815F00F0F17D1F6
:1038500011E0964E944D756707E0057805F0F00588
:10386000302D1CBF402D502DECD1D4F84452904E39
:10387000C5F342353560057805F0F005302D0CD0E4
:10388000062904BF157815F00F0F0CD0062904BFC8
:10389000157815F00F0F1BD115E0864D2E6826F018
:1038A00080762E6007E0057805F0F005302D1CBF0E
:1038B000402D502DEAD14FF08045C5F80C31C5F8A8
:1038C00010317D4D2B60057805F0F005302D06D0C8
:1038D000062904BF157815F00F0F0AD104E0774EC2
:1038E0004FF0030535600BE0057805F0F005302D4D
:1038F00006D0062904BF157815F00F0F13D10DE07F
:103900006F4E4FF0050535606E4DC5F800C06E4D29
:103910002B6006F104064FF03F053560057805F091
:10392000F005502D0CD0062904BF157815F00F0FA7
:1039300058D0062904BF117811F00F0F70D15FE045
:10394000624D2D68624E3560624D2D6806F10406A9
:103950003560614D2D6806F1040635605F4D2D68B8
:1039600006F1040635605E4D2D6806F104063560EB
:103970005C4D2D6806F1040635605B4D2D685B4E8D
:1039800035605B4D2D6806F104063560594D2D6894
:1039900006F104063560584D2D6806F104063560C1
:1039A000564D2D6806F104063560554D2D6806F11B
:1039B00004063560534D2D68534E3560534D2D68C8
:1039C00006F104063560524D2D6806F10406356097
:1039D000504D2D6806F1040635604F4D2D6806F1F7
:1039E00004063560057805F0F005302D1CBF402D2C
:1039F000502D9ED1D4F85812484A01F04F01116061
:103A0000007800F0F00030281CBF4028502807D173
:103A10004348016811F0010F1CBF6FF00101016004
:103A20004048016841F470010160BFF34F8FBFF35C
:103A30006F8F4FF01022D2F8000210F0004F04BF39
:103A4000D2F8040210F0004F24D0374CC4F800C064
:103A5000364801680029FCD04FF0150CC2F800C2AE
:103A600001680029FCD0C2F804C201680029FCD01A
:103A7000236001680029FCD0BFF34F8F2C480168F8
:103A80002C4A01F4E06141EA02010160BFF34F8F6B
:103A900000BFFDE729492848086070BC7047000056
:103AA000E00F00F0403501400DF0ADBA00C0074016
:103AB0003C050040FCED00E038050040A00500405A
:103AC000105600408856004018560040040400106C
:103AD00020C50040080400100C0400101004001061
:103AE00014040010180400101C04001040C500400D
:103AF0002004001024040010280400102C040010DE
:103B0000300400103404001060C500403804001078
:103B10003C0400104004001044040010E40E004077
:103B20000004004088ED00E004E5014000E40140AD
:103B30000CED00E00400FA050090D003940C002086
:103B4000F0B59F4D02209F4C297F0026012785B0AC
:103B500000297CD0D4F8242129460968BAB1C4F8D8
:103B60002461D4F8242104928DF80000D4F8800454
:103B7000C4F880040390D4F83C058DF80800E86888
:103B80000190EE752E766A68684690472EE0D4F86C
:103B9000100100B3C4F81061D4F810010090D4F8FB
:103BA0003C05EA7DC0B2824220D12A7EA2B1EA68F9
:103BB000D4F8003223F02003C4F800322B7EEB75DA
:103BC0002B69EB602E768DF800708DF8080001925D
:103BD0006A686846904709E0EE75EA688DF80070FB
:103BE0008DF8080001926A6868469047D4F844014D
:103BF00098B1C4F84461D4F844010090E87D60B104
:103C0000EE75D4F83C05E9688DF808008DF8007071
:103C10000191D5E9001268469047D4F820010028A8
:103C200004BF05B0F0BDC4F82061D4F820010090B5
:103C3000A87D002804BF05B0F0BDD4F84C058DF870
:103C400000608DF80800A8680190AE7500E005E0FE
:103C5000D5E900126846904705B0F0BD584DD4F83C
:103C6000041311F4007F1CBFD4F8241100291FD0C5
:103C7000C4F82461D4F8241104914FF40171C4F8FC
:103C80000813A97E002908BF67608DF80000D4F8EA
:103C90008004C4F880040390E87D8DF80800E8688B
:103CA0000190EE752E76D5E900126846904743E004
:103CB000D4F8040310F0040F1CBFD4F80801002846
:103CC0003AD0E87DC4F808610028D4F808010090D3
:103CD000D4F8180505D0697EEA685054687E401C07
:103CE0006876E87D697E884226D12A7E82B1687E28
:103CF000E968EA752A69EA602E766E768DF8080022
:103D00008DF800700191D5E900126846904713E0E4
:103D1000A87E002808BF67604FF40170C4F808034C
:103D2000EE75687EE9688DF808008DF800700191E5
:103D3000D5E9001268469047D4F81C01F0B1A88A72
:103D4000A97DC4F81C618842D4F81C01009008D2F7
:103D5000A98AA868405CA98A491CA982C4F81C05E4
:103D60000CE0A87D50B18DF800608DF80800A868BF
:103D70000190AE75D5E9001268469047D4F8440129
:103D8000002804BF05B0F0BDC4F84461D4F8440174
:103D90000090A87E002818BF2760E87D002804BF97
:103DA00005B0F0BDEE75687EE9688DF808008DF805
:103DB00000700191D5E900126846904705B0F0BD4A
:103DC000E80D00200020004000B52DED048BB0EE82
:103DD000409AF0EE609A83B051EC190BFEF7A0FD0B
:103DE00041EC180B18EE100A18EE901A8DED008BAE
:103DF000002818BF0120084320F00040C0F17F6078
:103E000000F1E040C00F14D019EE101A19EE900A1C
:103E10008DED009B002918BF0121084320F00040D0
:103E2000C0F17F6000F1E040C00F04BF012000F04E
:103E300035F8B0EE480A03B0F0EE680ABDEC048B2A
:103E400000BD10B52DED028BB1EEC08A18EE100A40
:103E500020F00040C0F1FF40C00F0AD010EE100A61
:103E600020F00040C0F1FF40C00F04BF012000F06F
:103E700015F8B0EE480ABDEC028B10BD02E008C890
:103E8000121F08C1002AFAD170477047002001E0D4
:103E900001C1121F002AFBD17047000001490860D0
:103EA00070470000980C002030B404468378827A72
:103EB00041780078C2DF00281CBF30BC70472379EE
:103EC0006279E1882078D3DF00281CBF30BC7047BE
:103ED000E1782078CDDF002807BFA17811F0010F2D
:103EE00030BC7047218900291CBF2078D1DF30BC4D
:103EF000704700002DE9F047044690F82C008CB084
:103F000000281CBF0CB0BDE8F087504D6869002840
:103F100007BF94F82D0080280CB0BDE8F0876078CA
:103F20004E2807BFE07800280CB0BDE8F087A07AE3
:103F3000DFF81C914FF0A0474FF0030A4FF0000646
:103F40004FF00108802813D1AE600001C7F80805C2
:103F500000210846CADFB9F800003EA14AEA004045
:103F600002F064FAE07800281CBF0CB0BDE8F087CE
:103F7000A07AB8B9B9F8000040A14AEA004002F0BE
:103F800055FA00210846CADF4FF40060C7F80C0557
:103F90006E60EE60C5F80880E07800281CBF0CB0A9
:103FA000BDE8F087A07AFF2807BF286900280CB079
:103FB000BDE8F087C5F81080AE6000F011FB4FF44B
:103FC0008934204602F0E8FC314D002105F10C0354
:103FD00003F10C006A4600F10C0C01E0022907DC39
:103FE00005EB810696ED000A02EB810686ED000ADC
:103FF000CE1E022E07D803EB810616ED030A02EB54
:10400000810686ED000A8E1F022E07D800EB81067E
:1040100016ED060A02EB810686ED000AA1F10906FB
:10402000022E07D80CEB810616ED090A02EB810679
:1040300086ED000A491C0B29D0DD0C22694620467A
:1040400002F0C2FC0CB0BDE8F0870000800B00203D
:10405000FC0C0020526963657675746F206D657382
:1040600073616767696F2064692073746F70206182
:104070006371756973697A696F6E6500496E697AF3
:10408000696F20616371756973697A696F6E650024
:10409000D00B002070B582B000240D46DDE9061C6F
:1040A0000326019400948DF804208DF800608DF8AB
:1040B00001008DF805308DF806108DF802408DF85E
:1040C00003508DF807C06A4608212046C7DF041E4A
:1040D00018BF00F065F8054823462A46008804A169
:1040E00046EA004002F0ADF902B070BDFC0C0020C1
:1040F0004D657373616767696F206E756D65726F6B
:104100002025642C2072657420636F646520616EC5
:10411000742062726F6164636173743A2025640075
:1041200010B502F07DFA00BF02F074F80028FBD150
:10413000104C0121208841EA00400FA102F076F9DD
:104140001048006810F0010F00D000BE2088022146
:1041500041EA00400CA102F069F9BFF34F8F0E480D
:1041600001680E4A01F4E06111430160BFF34F8F13
:1041700000BFFDE7FC0C0020466174616C20657295
:10418000726F7200F0ED00E053797374656D207208
:1041900065736574000000000CED00E00400FA0592
:1041A00000B583B000210091CDE901106A4644F2C8
:1041B0000100FFF7B5FF03B000BD00F091BF38B5B7
:1041C000044600217F2001F059F8012269460F20A2
:1041D00000F0DEFF002818BF38BD9DF80000002168
:1041E00040F002008DF800007F2001F047F89DF8B4
:1041F00000100F2001F042F8002818BF38BD2178C8
:10420000312001F015F838BD10B5044682B0002108
:104210007F2001F033F8062269462D2000F0B8FF18
:1042200000281CBF02B010BD611E002003226B4697
:10423000C0F1050C13F80CC081F801C0C0F1040CEA
:10424000801C13F80CC001F802CF521EF0D102B04E
:10425000002010BD10B5044682B000217F2001F07F
:104260000DF806226946332000F092FF00281CBF9B
:1042700002B010BD611E002003226B46C0F1050C88
:1042800013F80CC081F801C0C0F1040C801C13F8B5
:104290000CC001F802CF521EF0D102B0002010BDB8
:1042A00038B50C4601460622112000F035FF0028E3
:1042B00018BF38BD4FF001022CB12146BDE838408F
:1042C000182000F029BF6946182000F025FF38BDEE
:1042D000401A20F07F407047014800687047000096
:1042E000041501400A4B9B783BB1002A12BF0028FD
:1042F000072070470068037C13B14FF00800704737
:104300004FF0000303744174426118467047000087
:10431000380E00202DE9F041012778044FF0E02607
:104320000024C6F88001174D4010C5F84803C5F8B1
:1043300008036F602F2006F5C07600F06DFEAF60B9
:10434000114D2F20AC6000F067FE1048AC700B21BF
:104350000470447081706C602C706C703805C6F805
:1043600000010B4AE02182F8001446F8800C09484D
:104370000460D01E80F8001407480068A860002080
:10438000BDE8F081001001400C0C0020380E002028
:1043900014E000E008150140041501402DE9F84340
:1043A000284CA378002B18BF002841D005293CBF1A
:1043B0000720BDE8F8834369002B39D0437C012BEB
:1043C0000CBF0F46002781464FF000080D461646E9
:1043D0008DF80080684600F039F86078411C01F0E3
:1043E000FF0CA178614508BF4FF0000C21786145B2
:1043F00021D000EB400004EBC000031D1BD00120C6
:1044000018701148C3F804900068C3E90205C3E9B5
:10441000047684F801C09DF8000000F045F84FF0E4
:10442000E0214FF48010C1F800024046BDE8F88357
:104430000820BDE8F8834FF004089DF8000000F064
:1044400033F8F2E7380E00200415014010B4EFF302
:10445000108172B6124AD2F808C00123BCF1000FD5
:1044600018BF037006D000291CBF10BC704762B68D
:1044700010BC704793604FF0E023D3F88041DFF821
:1044800024C004EA0C041460C3F880C1D3F884C1CA
:10449000C2F804C05A17C3F8842100220270E2E770
:1044A000440F0020FC06FFBD0C498A68002A08BFA3
:1044B0007047002818BF7047EFF3108072B60B6882
:1044C0004FF0E022C2F800314B68C2F804310022FC
:1044D0008A60002818BF704762B67047440F0020FA
:1044E0002DE9F04387B0861C00208DF80C000D46A6
:1044F000012703A8FFF7AAFF384C20682860D4E9F9
:104500000001401AA168B51C081A401C854288BFEA
:104510004FF003084ED900BF04F5836001216A46BD
:10452000FDF7EEFE04F2144001216A46FDF7E8FEB5
:10453000D4E9011301EA030004EB800212F80C0F26
:1045400010F0030F0FD1481C1168C1F3891202EB60
:104550009151014401EA030004EB800212F80C0FB0
:1045600010F0030FEFD001EA030004EB800001F12B
:104570000209C06800F00301012904BFC0F38310E1
:10458000814405D0022904BF08EB905009EB900943
:1045900004F21440002101AAFDF7BFFE002818BF55
:1045A000C4F80490D4E90001401AA168081A401C1C
:1045B0008542B1D82068084004EB8000C16841F012
:1045C0000301C1602068304420609DF80C00FFF7B3
:1045D0006BFF07B03846BDE8F08300003C100020B8
:1045E0002DE9F04FDFF8089401202DED0A8B83B000
:1045F000C9F814004FF0000A9FEDFE0A09F16801A6
:1046000001F10C0081ED000A80ED000A81ED010A44
:1046100080ED010A81ED020A80ED020A9FEDF6BBF2
:104620009FEDF78B9FEDF89B9FEDF9ABFA48FFF7F5
:10463000EBFDC9F82800002818BFFFF7B1FDDFF82F
:10464000D8B3BBF90400FEF766F853EC1B2BFDF75B
:1046500081FF0BF13C0841EC1C0B98ED000A10EEB9
:10466000100AFEF769F853EC1C2BFDF7CCFEFEF7A1
:1046700076F800EE100A88ED000ABBF90200FEF79A
:104680004AF853EC1B2BFDF765FF98ED010A41EC4E
:104690001C0B10EE100AFEF74FF853EC1C2BFDF725
:1046A000B2FEFEF75CF800EE100A88ED010ABBF9D5
:1046B0000000FEF730F853EC1B2BFDF74BFF98ED95
:1046C000020A41EC1C0B10EE100AFEF735F853EC11
:1046D0001C2BFDF798FEFEF742F800EE100AA8F139
:1046E000300088ED020AFFF7B5FDC9F82800002860
:1046F00018BFFFF755FDDFF824B3BBF90400FEF740
:104700000AF853EC182BFDF797FF53EC192BFDF724
:1047100021FF53EC1A2BFDF78FFF0BF13C0841EC06
:104720001C0B98ED000A10EE100AFEF705F853EC8A
:104730001C2BFDF768FEFEF712F800EE100A88ED5C
:10474000000ABBF90200FDF7E6FF53EC182BFDF75A
:1047500073FF53EC192BFDF7FDFE53EC1A2BFDF7FD
:104760006BFF98ED010A41EC1C0B10EE100AFDF7EF
:10477000E3FF53EC1C2BFDF746FEFDF7F0FF00EEC8
:10478000100A88ED010ABBF90000FDF7C4FF53ECE5
:10479000182BFDF751FF53EC192BFDF7DBFE53EC03
:1047A0001A2BFDF749FF98ED020A41EC1C0B10EEA5
:1047B000100AFDF7C1FF53EC1C2BFDF724FEFDF79B
:1047C000CEFF00EE100A4FF0A04088ED020AD0F8AC
:1047D00004154FF400628A43C0F8082501F4006113
:1047E000C0F80C158E49DFF83CB246F2A8100A68F2
:1047F0000AF1010A00BF00BF00BF00BF00BF00BF39
:1048000000BF00BF5A452FD000BF00BF00BF00BF90
:1048100000BF00BF00BF00BF00BF00BF00BF00BFA0
:1048200000BF00BF00BF00BF00BF00BF00BF00BF90
:1048300000BF00BF00BF00BF00BF00BF00BF00BF80
:1048400000BF00BF00BF00BF00BF00BF00BF00BF70
:1048500000BF00BF00BF00BF00BF00BF00BF00BF60
:1048600000BF00BF00BF00BF0138C3D140F2AA5053
:104870008245FFF6DBAEC3064FF40062C3F80C2599
:10488000694AD2ED000A9FED690A4FF0000880EEF8
:10489000801A82ED001AD2ED010A80EE801A82EDB4
:1048A000011AD2ED020A80EE801A82ED021A0C3251
:1048B000D2ED000A80EE801A82ED001AD2ED010AD4
:1048C00080EE801A82ED011AD2ED020A80EE801A83
:1048D00082ED021A4FF40062C3F80825DFF850A1F8
:1048E00000215348FFF7DCFCC9F82800002818BF56
:1048F000FFF756FCB8F1000F1AD0BAF90000B04229
:10490000D6BF019906468842B8BF0190BAF90200A5
:10491000A842D6BF009905468842B8BF0090BAF9B0
:104920000400A042CCBF0446B842B8BF074608E026
:10493000BAF900600196BAF902500095BAF904403C
:104940002746374946F2A81008F10108096800BF58
:1049500000BF00BF00BF00BF00BF00BF00BF594580
:104960002FD000BF00BF00BF00BF00BF00BF00BF0F
:1049700000BF00BF00BF00BF00BF00BF00BF00BF3F
:1049800000BF00BF00BF00BF00BF00BF00BF00BF2F
:1049900000BF00BF00BF00BF00BF00BF00BF00BF1F
:1049A00000BF00BF00BF00BF00BF00BF00BF00BF0F
:1049B00000BF00BF00BF00BF00BF00BF00BF00BFFF
:1049C00000BF0138C3D140F2AA50804588DB01986E
:1049D000DFF86080304400EBD070401000EE100A29
:1049E000B8EEC00A88ED000A98ED000A24E0000045
:1049F000800B002000000000000000000000103FBD
:104A0000C3F5285C8F62504000000060FB21094024
:104A10000000000000806640AC0B0020B80B0020B6
:104A2000940C00200024F400E80B00200040B54462
:104A3000B20B0020D00B002010EE100AFDF77CFE18
:104A40009FED3F8B53EC182BFDF784FDFDF787FEA0
:104A500000EE100A88ED000A0098284400EBD070A0
:104A6000401000EE100AB8EEC00A88ED010A98ED79
:104A7000010A10EE100AFDF75FFE53EC182BFDF74C
:104A800069FDFDF76CFE00EE100AE01900EBD07036
:104A900088ED010A401000EE100AB8EEC00A88ED59
:104AA000020A98ED020A10EE100AFDF745FE53ECDB
:104AB000182BFDF74FFDFDF752FE00EE100AF0EE49
:104AC000082A88ED020A01984FF0A041301A00EB45
:104AD000D070401000EE100A0098281A00EBD07039
:104AE000F8EEC00A401000EE100AE01B00EBD07098
:104AF000B8EEC01A401000EE100A08F10C00F8EEF3
:104B0000C01A30EE810A30EE212A82EE220A80EEAF
:104B1000202AC0EE010A80ED002AC0ED010AC0EE95
:104B2000210AC0ED020A4FF40060C1F80C05002014
:104B3000C9F8140003B0BDEC0A8BBDE8F08F00008B
:104B4000333333333333C33F38B5FFF736FB0028F5
:104B500018BFFFF725FBFEF78CF8FEF7A0F8FEF76D
:104B60007DF8FEF765F8FEF76EF81520FEF7B4F84D
:104B70001520FEF79FF8FEF787F808208DF8000053
:104B80006846FFF71CFB040008BF38BD0648032138
:104B90002246008841EA004004A101F04BFC204677
:104BA000FFF7FEFA38BD0000FC0C002052657420AF
:104BB000636F6465206D61676E65746F6D65747297
:104BC0006F3A2025640000002DE9F04198B04FF4C1
:104BD0008930012269464FF00C0C00BF50F8043BAD
:104BE00041F8043BB3F1FF3F08BF0022BCF1010CC8
:104BF000F4D13F4F002A07F10C0404F10C0504F135
:104C000018061CBF0020694602D131E0022807DCEB
:104C100001EB800292ED000A07EB800282ED000AB0
:104C2000C21E022A07D801EB800292ED000A04EBB3
:104C3000800202ED030A821F022A07D801EB8002DC
:104C400092ED000A05EB800202ED060AA0F10902CE
:104C5000022A07D801EB800292ED000A06EB8002DF
:104C600002ED090A401C0B28D0DD18B0BDE8F08128
:104C70004FF48938404601F08FFE00210CAA01E074
:104C8000022907DC07EB810090ED000A02EB8100AE
:104C900080ED000AC81E022807D804EB810010ED41
:104CA000030A02EB810080ED000A881F022807D862
:104CB00005EB810010ED060A02EB810080ED000A91
:104CC000A1F10900022807D806EB810010ED090ABE
:104CD00002EB810080ED000A491C0B29D0DD0C227B
:104CE0000CA9404601F070FE18B0BDE8F08100004C
:104CF000D00B002067488AB003244FF0A047C0F8CB
:104D000000474FF40060C7F80805002001F02AFCB6
:104D1000002818BFFFF744FA01F06EFA01F08CFF8B
:104D2000002818BFFFF73CFA01F050FF002818BF19
:104D3000FFF736FA584DD5E907016A6ACDE9000157
:104D400002926846FFF7B0F8002818BFFFF728FA6C
:104D500000210846C4DF002818BFFFF721FAFFF73B
:104D60002CFA002818BFFFF71BFAFDF782FFFDF7AA
:104D700096FFFDF773FFFDF75BFFFDF764FF15205E
:104D8000FDF7AAFF1520FDF795FFFDF77DFF082031
:104D90008DF800006846FFF712FADFF80081060080
:104DA0000AD0B8F80000324644EA00403C4901F01D
:104DB00041FB3046FFF7F4F9D5E90101EA68CDE996
:104DC000000102923749002000F0B8FA002818BF0D
:104DD000FFF7E6F96946002000F076FA002818BFD0
:104DE000FFF7DEF9D5E90401AA69CDE906010892C9
:104DF00006A9012000F068FA002818BFFFF7D0F9D3
:104E0000B8F8000028A144EA004001F00FFBB8F810
:104E10000000032244EA004026A101F00BFB00221F
:104E200004211046CFDF0322082104A8FDF7D2FA9F
:104E30002849012000F0D2FA2648082104AA007867
:104E40008DF817000020C7DFFFF764FA224A01211E
:104E50001148FFF747FA002818BFFFF7A1F94FF4F0
:104E60000060C7F80C05FFF7AFFE01F0D3FD002886
:104E700018BFFFF795F9002240F233312868FFF799
:104E80008DFA00BF01F0C6F9002808BF01F002FE4C
:104E9000F8E700002C000050B4770100FC0C002063
:104EA000AC4B0100D17201001B5B324A1B5B3B48DB
:104EB00000000000446973706F73697469766F2035
:104EC000524553504952484F27206E756D65726F99
:104ED00020256400800B0020D96D010038B5044600
:104EE00000258DF800506846FFF7B0FA2068626828
:104EF000016891420ED9491E01600878238AE26850
:104F000000FB0325227A2068511AC9B20279914226
:104F100088BF01719DF80000FFF7C6FA284638BD2A
:104F200038B5054600208DF800000C466846FFF7AE
:104F30008DFAE868298A201AB0FBF1F029680A681E
:104F4000531C0B6010709DF80000FFF7ADFA38BDE0
:104F5000002804BF0E207047027A41680368521A85
:104F6000D2B21960511EC9B209D30268136803F1A5
:104F7000010CC2F800C01970491EC9B2F5D2006810
:104F80000021017108467047002808BF704720497A
:104F9000204A096800BF00BF00BF00BF00BF00BFBC
:104FA00000BF00BF91422FD000BF00BF00BF00BFB5
:104FB00000BF00BF00BF00BF00BF00BF00BF00BFF9
:104FC00000BF00BF00BF00BF00BF00BF00BF00BFE9
:104FD00000BF00BF00BF00BF00BF00BF00BF00BFD9
:104FE00000BF00BF00BF00BF00BF00BF00BF00BFC9
:104FF00000BF00BF00BF00BF00BF00BF00BF00BFB9
:1050000000BF00BF00BF00BF0138C3D17047000020
:10501000940C00200024F400002808BF70472049A9
:10502000204A096800BF00BF00BF00BF00BF00BF2B
:1050300000BF00BF91422FD000BF00BF00BF00BF24
:1050400000BF00BF00BF00BF00BF00BF00BF00BF68
:1050500000BF00BF00BF00BF00BF00BF00BF00BF58
:1050600000BF00BF00BF00BF00BF00BF00BF00BF48
:1050700000BF00BF00BF00BF00BF00BF00BF00BF38
:1050800000BF00BF00BF00BF00BF00BF00BF00BF28
:1050900000BF00BF00BF00BF0138C3D17047000090
:1050A000940C00200024F4004907090E0028BDBF1D
:1050B00000F00F0202F1E02282F8141D00F1E0225C
:1050C000A8BF82F8001400F01F020121914040099E
:1050D000800000F1E020C0F88012C0F80011704795
:1050E00000B50A4A85B00FCA8DE80F000023084AB0
:1050F0006946084800F01EFA00281CBF05B000BD34
:10510000044800F007FA05B0002000BDE477010074
:1051100009520100DC7701002DE9F74181B0174603
:10512000884600264FF6FF75012301AA0C21164878
:10513000009600F0B5FA00280EBF144C04B0BDE88C
:10514000F0812078B8B1DDB12670FBB242460C2167
:105150000D4800F08FFA00280EBF4FF6FF7104B023
:10516000BDE8F08162784AB1002918BF667007D0A7
:1051700004B0BDE8F0816D1EE3D101E0491EF1D11C
:1051800004B00D20BDE8F081DC770100000C0020A8
:105190002DE9F74181B01746884600264FF6FF7586
:1051A000012301AA68211648009600F079FA002828
:1051B0000EBF144C04B0BDE8F0812078B8B1DDB169
:1051C0002670FBB2424668210D4800F053FA0028D1
:1051D0000EBF4FF6FF7104B0BDE8F08162784AB1AE
:1051E000002918BF667007D004B0BDE8F0816D1EBD
:1051F000E3D101E0491EF1D104B00D20BDE8F081FA
:10520000DC770100000C00200178002918BF7047EE
:105210000279012005493AB1012A12BF022A4870D9
:105220007047032A18BF704708707047000C0020B1
:1052300030B583B000258DF804008DF805104FF6C9
:10524000FF74022301AA0C210A48009500F028FAF5
:1052500000280EBF084903B030BD0A782AB1002CDF
:1052600018BF0D7003D003B030BD641EF5D103B07C
:105270000D2030BDDC770100000C002030B583B07C
:1052800000258DF804008DF805104FF6FF740223F9
:1052900001AA68210A48009500F002FA00280EBF12
:1052A000084903B030BD0A782AB1002C18BF0D7030
:1052B00003D003B030BD641EF5D103B00D2030BD66
:1052C000DC770100000C002070B50C46194905463A
:1052D000087C00281CBF112070BD2079164E0028C4
:1052E00012BF01280020306001EB4500027F2AB97F
:1052F00091F82D2002F1010281F82D20E17901774A
:10530000217A41772146284601F02AFC2A0102F140
:10531000804202F5E042E079217AC2F81415C2F821
:1053200010052079002812BF0128012030604FF0BD
:10533000000070BD080E002000750040F8B5204C3C
:1053400094F82C20002A1CBF0820F8BD002904BFB7
:105350000720F8BD002808BF1A4821601A4A0178C2
:105360001160121D41781160C17884F82E10012659
:1053700084F82C600021217484F82D10134D616194
:1053800084F82F106FF00042C5F80823104A11600E
:10539000126800920F4A116011680091817807200D
:1053A000FFF782FE0220C5F8040394F82E000028BF
:1053B0001CBF0120C5F80403074806600020F8BDA3
:1053C000080E002004780100F075004000700040D5
:1053D000047100400071004000750040F8B4414D78
:1053E0000346287C00281EBF1120F8BC704701240A
:1053F0002C7403203C4AC2F808033C480160001D9D
:10540000046095F82DC00020BCF1010F26D9C2F828
:105410001405C2F810053649C1F81405C1F8100585
:105420003449C1F81405C1F810053349C1F8140511
:10543000C1F810053149C1F81405C1F8100530490B
:10544000C1F81405C1F810052E49C1F81405C1F8BA
:1054500010052D49C1F81405C1F8100505EB4301ED
:105460000E7F4F7F190101F1804101F5E041C1F844
:105470001475C1F810651460546042F2107100BFD9
:10548000D2F804311BB9002918BF491EF8D11F49B1
:105490000860096800911E49086009680091BCF124
:1054A000010F88BF002112D94FEA016C05EB4104BE
:1054B0004FEA1C5C0CF1804C237F0CF5E04C647FC0
:1054C000CCF81445CCF81035491C0829ECD395F8D4
:1054D0002E10002914BF03210221C2F804132874DE
:1054E000F8BC7047080E0020007000402C76004089
:1054F000107000402070004030700040407000404C
:1055000050700040607000407070004000710040BA
:10551000047100400179064A01EB8101006802EB49
:10552000C1010522C0F80025022081F82200704741
:10553000C00D00202DE9F04782460C4600794C4909
:1055400000EB800001EBC00898F8220000281CBF87
:105550000820BDE8F0870020C8E90023C8F808004B
:1055600088F8250088F82400A07B88F82700607B55
:10557000012740F20C69002853D02068800000F118
:10558000A040C0F800976068800000F1A040C0F81B
:10559000009720784FF0A04507FA00F0C5F80805FD
:1055A000207907FA00F0C5F80805216840F20D607F
:1055B000890001F1A041C1F800076168890001F18B
:1055C000A041C1F800070420FFF7DEFC0026207987
:1055D000D5F8101521FA00F010F0010F01D006B334
:1055E00012E0207807FA00F0C5F80C050420FFF758
:1055F000CBFC207807FA00F0C5F808050420FFF777
:10560000C3FC761C092EE2DB207907FA00F0C5F80E
:105610000C050420FFF7B8FC207907FA00F0C5F864
:1056200008052068800000F1A040C0F8009760687D
:10563000800000F1A040C0F80097D4E90012DAF829
:105640000000C0F80815C0F80C25A168C0F82415A2
:10565000D8F8000030B1DAF80000217B000B40B22E
:10566000FFF722FD88F822700020BDE8F0870000D7
:10567000C00D002010B5094C84B0D4F800C0A46857
:10568000CDF800C08DF80110019202948DF802301F
:105690000022694600F01AF804B010BDF877010046
:1056A00010B584B00024DDF818C000948DF8011006
:1056B00002948DF802300192BCF1000F14BF202239
:1056C0000022694600F002F804B010BD38B5037935
:1056D000DFF8A0C003EB83030CEBC30412F0030F4D
:1056E00014D100684FF0FF33C0F8083394F8243029
:1056F00023B1A168C0F80413112038BD012323EAA7
:10570000920384F8243012F0080F01D0062038BD2F
:10571000A261D1E90035D1F808C0C4F814C0C4E9C9
:1057200003358B7884F820304B68E3614B78C0F800
:1057300088350B780025012B0ED002F020021A4389
:1057400018BF012284F8212000928B784A68014614
:10575000204601F031FF07E084F821508B784A6839
:105760000146204601F030FE2168002908BF84F878
:10577000245038BDC00D00202DE9F84F04460079B3
:10578000DFF8E08108EB4016F07E00281CBF0820FF
:10579000BDE8F88F487F3077D1F800C04FF00303A1
:1057A000BCF1FF3F4FF0A0404FF0010709D007FACE
:1057B0000CFCC0F808C5D1F800C000EB8C0CCCF88C
:1057C0000037D1F804C04FF00005BCF1FF3F1CBF0B
:1057D00000EB8C0CCCF8005794F804C008EB4C1C80
:1057E0009CF81CC0BCF1000F69D0D4F800C0D1F8FF
:1057F0001890CCF8249591F815A091F81490D4F84D
:1058000000C04AEA0909CCF86C95D1E9009AD4F8AD
:1058100000C0CCF80C95CCF814A591F814C0BCF1DC
:10582000010F1ED1D1F808C0BCF1FF3F1CBF00EB37
:105830008C0CCCF80057D1F80CC0BCF1FF3F09D05C
:1058400007FA0CFCC0F808C5D1F80CC000EB8C00BE
:10585000C0F80037D1E9023C2068C0F808C5C0F89C
:105860001035726008693060002A68D02079097F9D
:1058700008EB4010007F002820684CD0C0F8105181
:10588000D0F8100100902068C0F82051D0F8200115
:1058900000902068C0F82451D0F8240100902068BE
:1058A000C0F84451D0F84401009020682E4AC0F856
:1058B00004232068000B40B2FFF7F6FB3FE0D4F86A
:1058C0000090D1F818C0C9F824C591F815A091F836
:1058D0001490D4F800C04AEA0909CCF86C95D1E9D3
:1058E000009AD4F800C0CCF814A5CCF80C9591F827
:1058F00014C0BCF1010FB4D1D1F808C0BCF1FF3F16
:105900001CBF00EB8C0CCCF80057D1F80CC0BCF1DC
:10591000FF3F9FD094E7C0F81C51D0F81C010090C5
:105920002068C0F84451D0F84401009020680F4A24
:10593000C0F804232068000B40B2FFF7B5FB2079C4
:1059400008EB4010007F0028206814BF08210421C4
:10595000C0F80015F5753576B575F7762846B57635
:10596000BDE8F88FE80D002010030200800002005F
:1059700078B403794E4D4FF0010C05EB431400232E
:10598000267F002E1FBF01F06046B6F1005F102099
:1059900078BC18BF7047A67D002E1EBF112078BCB2
:1059A0007047A275A160A38201794FF0000405EB56
:1059B00041110A7F002A02682ED0C2F82031D2F8A5
:1059C000202100920268C2F85831D2F85821009282
:1059D00002688D7D8E68C2F84465C2F84855026839
:1059E000C2F808C04A68002A08BF02682CD100BF6C
:1059F000D2F82001002814BF4FF0010C4FF0000C2A
:105A0000D2F85801002818BF01205CEA000CEFD042
:105A100000284AD18B7517E0C2F81C31D2F81C213E
:105A200000920268C2F808C00268C2F81C31D2F8BD
:105A30001C5100958E8A8D68AD5D8E8A761C8E8293
:105A4000C2F81C554A6812B1204678BC70478A8A51
:105A50008D7DAA421CD20268D2F81C511DB98D8AD4
:105A6000B5F5807FF7D18D8AB5F5807F0CD0C2F86F
:105A70001C31D2F81C5100958E8A8D68AD5D8E8ADE
:105A8000761C8E82C2F81C558A8A8D7DAA42E2D38A
:105A90008A8AB2F5807F18BF006806D0D0F81C2132
:105AA000002AFBD0C0F80CC0B4E70F24B2E7000016
:105AB000E80D00202DE9F00101793F4A002602EBB4
:105AC00041150168C1F80065696851B30179012386
:105AD00002EB4111097F0029016811D0DFF8DCC019
:105AE000C1F808C30168090B49B201F01F0C03FAA1
:105AF0000CF34909890001F1E021C1F8803110E07F
:105B0000DFF8BCC0C1F808C30168090B49B201F055
:105B10001F0C03FA0CF34909890001F1E021C1F8D7
:105B20008031017902EB4111097F00290168D1F828
:105B30000C45D1F814C5D1F80835D1F810250BD093
:105B40004FF0FF38C1F80C85C1F814850068C0F823
:105B50000885C0F810850AE04FF0FF37C1F81475CA
:105B6000C1F80C750068C0F80875C0F81075B4F17C
:105B7000FF3F4FF0A0404FF002011CBF00EB840438
:105B8000C4F80017BCF1FF3F1CBF00EB8C0CCCF835
:105B90000017B2F1FF3F1CBF00EB8202C2F80017F2
:105BA000B3F1FF3F1CBF00EB8300C0F80017EE7697
:105BB0006E60BDE8F0017047E80D002010030200A0
:105BC000840202000FB408B50399002904BF01B094
:105BD0005DF814FB04AA00926A4600F011F801B0C7
:105BE0005DF814FB8268002A08BF704710B50446B0
:105BF0000168D4E9040398470020A06010BD0000AC
:105C0000002908BF70472DE9F04FDFF8DCA385B00D
:105C100091460E4604464FF0000B00BF16F8011BDC
:105C2000A9B1252904BF002001221CD0A268236845
:105C300002F1010C2046C4F808C09954D0E90112C1
:105C40008A4228BFFFF7CEFF30780028E6D1207BBC
:105C5000002804BF05B0BDE8F08F204605B0BDE8C0
:105C6000F04FFFF7BFBF31782B2904BF40F004008D
:105C7000761C0AD02D2908BF40F0010004D030293D
:105C800008BF40F0020002D1761C002AEBD10025AB
:105C90002A290CD03178A1F130020A2A0FD205EB63
:105CA000850201EB4202A2F13005761CF0E7D9F83B
:105CB00000100A1DC9F800200968761C0D443178CF
:105CC00000232E2908BF761C0CD13178A1F13002B7
:105CD0000A2A07D203EB830201EB4201A1F1300350
:105CE000761CF2E76C2914BF682916F8011FF9D059
:105CF00069292BD00ADA252900F0648158297BD044
:105D000063290ED0642921D000F06CB9702900F00D
:105D10002B81732971D0752970D078296CD000F04F
:105D200061B9D9F80000011DC9F80010A268017816
:105D3000236802F1010C2046C4F808C09954D0E948
:105D400001128A42C0F04E8100F04AB9D9F8001021
:105D500007460A1DC9F800200968CDE90213002989
:105D6000B4BF484208464FF001080A2809DB00BFCB
:105D70008AFB00108110A1EBE07008F101080A28ED
:105D8000F6DA1846434588BF804635B102980028A8
:105D9000A8BF17F0040F18BF6D1E17F0020F00D038
:105DA000BBB117F0010F14D19DB1A84511D2A16864
:105DB000236801F1010C20462022C4F808C05A547F
:105DC000D0E901126D1E8A4228BFFFF70BFF002D9C
:105DD000EBD10298002812DA40420290A1682368B1
:105DE00001F1010C20462D22C4F808C05A54D0E914
:105DF00001128A4215D312E044E050E037E017F078
:105E0000040F0ED0A168236801F1010C20462B225B
:105E1000C4F808C05A54D0E90112914201D8FFF7E2
:105E2000E1FE07F00300022804BF0398002814D104
:105E30009DB1A84511D2A168236801F1010C20464B
:105E40003022C4F808C05A54D0E901126D1E8A42AB
:105E500028BFFFF7C7FE002DEBD1CDE90057DDE9E4
:105E600002130A22204600BF01F028FCBAE0D9F84C
:105E700000100A1DC9F800200968CDE900500A2267
:105E80002046F1E7D9F800100A1DC9F8002009687A
:105E9000CDE900501022204601F010FCA2E0D9F814
:105EA00000104FF000080A1DC9F800200F6810F01C
:105EB000010F2AD0397821B3A268236802F1010CBE
:105EC0002046C4F808C09954D0E901127F1C08F19B
:105ED00001088A4228BFFFF785FE39780029EBD1F7
:105EE0000FE0A268236802F1010C20462021C4F8CB
:105EF00008C09954D0E901126D1E8A4228BFFFF7ED
:105F000071FE45456ED975B3EBE7A7B13846FCF78E
:105F100073FA80460FE0A168236801F1010C204666
:105F20002022C4F808C05A54D0E901126D1E8A42DA
:105F300028BFFFF757FE454501D9002DEBD1397831
:105F400089B1A268236802F1010C2046C4F808C098
:105F50009954D0E901127F1C8A4228BFFFF742FE04
:105F600039780029EDD13DE0D9F80000011DC9F8CC
:105F70000010A2680568236802F1010C2046302158
:105F8000C4F808C09954D0E901128A4228BFFFF72B
:105F900029FE2046A268236802F1010C7821C4F88A
:105FA00008C09954D0E901128A4228BFFFF71AFEAF
:105FB0000820CDE9000B034610222946204601F0B7
:105FC0007DFB0FE0A268236802F1010C2046252129
:105FD000C4F808C09954D0E901128A4202D300BF24
:105FE000FFF700FE761C2FE66766666610B4154C58
:105FF00003460020D4F810C45FEA0C010CD00A7AE2
:10600000824206D1401C0A28F6DB10BC4FF0FF305C
:10601000704749680029F2D1B0F1FF3F04BF10BCBE
:1060200070471872D4F8101431B149685960D4F827
:1060300010144B6010BC70470021C4F81034596034
:1060400010BC70473C1000202DE9F04194B01D4673
:1060500016460F460846DDF8688000F0D5FB0024A0
:10606000CDE90C48CDE908650A942346082202A927
:1060700038460B9400F0FAFB049805908DF81C400C
:1060800003980299ADF81800082601F003000128D2
:1060900002D002281AD036E0C1F3C2008DF81A00EF
:1060A000C1F38000C1F383148D0A8DF81B00A20098
:1060B00033460EA9384600F0D9FB08A8009005AB7E
:1060C00022460EA9284600F0C1FA1CE0C1F3C20026
:1060D0008DF81A00C1F380008C0D8DF81B00082C80
:1060E00034BF2546082533462A460EA9384600F017
:1060F000BDFB2E44641B08AB05AA29460EA800F080
:10610000ABF9002CEBD1384600F087FB14B0BDE8AA
:10611000F081704710B50F4A88B00124D2E904011C
:10612000D269CDE9040110200090A01E01900290D8
:1061300003904FF0EB70CDE90602074A6946074825
:10614000FFF71AFB002818BFFEF72AF8044844702E
:1061500008B010BD60780100B1760100440C002049
:10616000400C002010B588B01048FFF7A3FC104A7F
:106170000024D2E90401D269CDE904011020009085
:10618000601E0190029003904FF0EB70CDE9060283
:10619000224669460548FFF7EFFA002818BFFDF7C9
:1061A000FFFF0448447008B010BD0000440C0020FC
:1061B00060780100400C002008B5034A009240239B
:1061C000024AFFF741FF08BDD57201005C140020B0
:1061D000084A012902EBC00018BF022907D0032991
:1061E00004BF00797047042904BF4079704700203C
:1061F00070470000687A010010B5FFF78BFF04219B
:106200000348FFF7F3FE02490120487210BD000069
:106210004C0C00202DE9F04F824E8BB0D6E90001E6
:10622000814202BF00200BB0BDE8F08F4FF00008A4
:10623000C6F81884BFF34F8FD6E9011701EA0700AB
:1062400006EB800212F80C0F10F0030F0FD110684C
:10625000491CC0F3891202EB9050014401EA070087
:1062600006EB800212F80C0F10F0030FEFD001EADA
:10627000070006EB8000C0680890481C00EA070190
:1062800006EB8101451CC9680898099100F00301DB
:1062900002290DD001295BD04FF0030131EA000043
:1062A00001BFD6F8180400280BB0BDE8F08FADE0B0
:1062B0004FEA90544FF05001A246B1EB905F98BF67
:1062C000502464F39F50089004F10801564800F0F0
:1062D00051FA5FEA00097CD000F096FA0023082208
:1062E00008A9484600F010FB05EA0701781A80006B
:1062F000001D84421ED940B100F0FF0B06EB810166
:10630000201A06F10C070C3105E0002706F10C01FC
:1063100004F0FF0B3846C4B208235A46484600F042
:10632000F3FA0BF1080377B122463946484600F0EC
:10633000EBFA08E006EB810000F10C01082322468D
:10634000484600F0E1FA0AF1030005EB900538E059
:10635000C0F38311062928BF062161F38910089034
:10636000C0F38310801C81002F4800F003FA5FEA1D
:1063700000094BD000F048FA0023082208A948463B
:1063800000F0C2FA08980024C0F383104FF0080A06
:10639000002816D905EA070006EB800000F10C0181
:1063A0005346042248466D1C00F0AEFA0898641C5F
:1063B000C0F383100AF1040AA042EBD8B9F1000F30
:1063C00024D0D6F81044D6F8180418B1484600F086
:1063D00024FA1BE04CB1607A20B12268204649467D
:1063E000126890476468002CF5D1484600F015FA11
:1063F0008DF800806846FEF729F8D6F818040028C2
:1064000008BF75609DF80000FEF74EF8D6E9000160
:1064100081420CBF0120002080F001000BB0BDE8DC
:10642000F08F00003C1000204078010000231A4645
:1064300000F066BF08B5012300926A4600F060FFD5
:1064400008BD00B583B0CDE9002302236A4600F001
:1064500057FF03B000BD0000082988BF70472DE931
:10646000F05F804693F80C9000201873D079DFF825
:10647000C8A01E4615460F46C0B9287A48B1A9796A
:10648000A888FFF7A5FE5AF820202C493046FFF7D0
:1064900099FBA888002100F09FF8A979284A0346B3
:1064A000304652F821202749FFF78CFB0024BC42DC
:1064B00006D218F8042024A13046FFF783FB03E03E
:1064C00023A13046FFF77EFB641C082CEFD321A1EB
:1064D0003046FFF777FB0024BC4211D218F804B015
:1064E000FBF762FF006810F80B0010F03E0F08BFCA
:1064F0004FF02E0B5A4618A13046FFF763FB03E01E
:1065000016A13046FFF75EFB641C082CE4D3E87943
:1065100038B9287A28B109493046DAF80020FFF75F
:1065200051FB0F493046FFF74DFB3046FFF75AFB52
:1065300086F80C90BDE8F09F6C0C00205C670100B1
:10654000580C0020646701002025303278000000DC
:10655000202020007C0000002563000020000000B7
:106560007067010010B51748FF2100240460C0E9DE
:106570000141C0F81844C0F8144480F81C44124883
:1065800000F049F9002818BF10BD10481049401A02
:10659000C20815D012F001001CBF0E490C809042B9
:1065A00038BF0C4B0CD200BF00EB400103EB810164
:1065B00000F1010C0880801CA1F80CC09042F3D3BC
:1065C000002010BD3C10002040780100C07A01007E
:1065D000687A01009C0C002010B40E4C81B10E4969
:1065E0004FF00002091BC90818BFDFF830C00ED0F9
:1065F00002EB42030CEB83035B88834204D1104619
:1066000054F8300010BC7047521C8A42F0D310BCC2
:1066100000207047687A0100C07A01009C0C0020BD
:1066200070B509480125D0F8104480F81C54002C9E
:1066300008BF70BD65722168204649688847646854
:10664000002CF7D170BD00003C1000202DE9F04770
:1066500084B082460C9E0020DFF8FC9096F80C80F7
:106660003073D8791D4617460C46C0B9287A48B110
:10667000A979A888FFF7ACFD59F8202037A130464A
:10668000FFF7A0FAA8880021FFF7A6FFA979344AEE
:106690000346304652F8212032A1FFF793FA072F24
:1066A00043D2DFE807F004090F161F2A37005146CE
:1066B0003046FFF787FA38E0514630462268FFF748
:1066C00081FA32E0D4E9002351463046FFF77AFAE6
:1066D0002BE0A0680090D4E9002351463046FFF734
:1066E00071FA22E0D4E90201CDE90001D4E90023E6
:1066F00051463046FFF766FA17E0D4E902012269F5
:10670000CDE900010292D4E9002351463046FFF75B
:1067100059FA0AE004F108000FC88DE80F00D4E927
:10672000002351463046FFF74DFAE87958B9287AE8
:1067300028B10AA13046D9F80020FFF743FA0CA18E
:106740003046FFF73FFA3046FFF74CFA86F80C80E8
:1067500004B0BDE8F08700006C0C00202573000039
:10676000580C00203C25733E2025733A2000000081
:106770000D0A00002DE9F0410646008A051F481960
:10678000C01CB0FBF5F0C7B23046FEF7A7FB041EF5
:1067900008BFBDE8F0810020207101206071E58014
:1067A000B7F1010825464FF0000726600CD03046AF
:1067B000FEF794FB58B161797F1C491C6171286018
:1067C000054606604745F2D32046BDE8F08165796D
:1067D0002146681E09D010F0010F18BF0C68400850
:1067E00003D02268401E1468FBD127680024002DC6
:1067F00007D938460E68FEF793FB641C3146A54264
:10680000F7D80020BDE8F08108B501216A46001DD7
:10681000FBF74FFD08BDFEF79BBBF8B50446001D16
:1068200001216A46FBF752FD009810F0FF0F18BFD8
:10683000F8BD25466679701E09D010F0010F18BF0B
:106840002C68400803D02168401E0C68FBD12768E3
:1068500000242946002E98BFF8BD38460D68FEF783
:106860005FFB641C2946A642F7D8F8BD2DE9F04726
:10687000C7880446181D89461546B0FBF7F1B0FBE2
:10688000F7F207FB12005A193A44D21CB2FBF7F296
:106890004FF0010A71B1B1F1004F31D2002909DD89
:1068A00011F0010F18BF2468491003D02268491E57
:1068B0001468FBD13E1A4FF00008AE4288BF2E4646
:1068C0002DB9BDE8F08700BFBAF1000F05D0204414
:1068D000011D09EB0800324604E0204409EB0801E1
:1068E0003246001DFBF764FD00202468AD1BB04458
:1068F000AF428CBF2E463E46002DE5D1BDE8F08765
:106900002468491EFCD1D5E72DE9F0478846C788A1
:10691000191D1546B1FBF7F20446B1FBF7F007FB72
:10692000121C59193944C91CB1FBF7F170B1B0F10F
:10693000004F2CD2002809DD10F0010F18BF246889
:10694000401003D02168401E0C68FBD1A7EB0C0659
:106950004FF00009AE4288BF2E46002D08BFBDE8AB
:10696000F08700BF04EB0C0008EB09013246001D64
:10697000FBF71EFD2468AD1B4FF0000CB144AF4285
:106980008CBF2E463E46002DECD1BDE8F087246832
:10699000401EFCD1DAE70000094A02211160BFF372
:1069A0006F8FBFF34F8F111D0860064801680029E3
:1069B000FCD000201060BFF36F8FBFF34F8F704784
:1069C00004E5014000E4014030B4104D01232B6088
:1069D000BFF36F8FBFF34F8F0023002A88BFDFF80C
:1069E00030C00AD951F8234040F82340DCF8004079
:1069F000002CFBD05B1C9342F4D300202860BFF333
:106A00006F8FBFF34F8F30BC7047000004E501402B
:106A100000E4014070B516480321008841EA0040B7
:106A200014A1FFF703FD154D0024281D6C700460B0
:106A3000BFF35F8F1249134800F0A0F912480168B4
:106A400041F010010160AC60EC60AC700F4A0121B4
:106A50000F48FDF747FC002818BF70BD00220C4806
:106A60004FF400410068BDE87040FDF797BC00009E
:106A7000F00C0020496E697400000000200C00201A
:106A800024780100700F002010ED00E0096B010078
:106A90002078010038B500248DF800406846FDF7E5
:106AA000D5FCF1EE100A20F09F00E1EE100ABFF3D2
:106AB0005F8F13494020C1F880029DF80000FDF768
:106AC000F3FC8DF800406846FDF7C0FCFDF704FCC0
:106AD000044600F04DF908B141DF02E020BF40BF9D
:106AE00020BFFDF7F9FB2146FDF7F2FB05498A6857
:106AF000104488609DF80000FDF7D6FC38BD00000A
:106B000004E000E0200C002070B5FDF7E5FB0E4C22
:106B10000646E168FDF7DCFBA1686422411A514397
:106B2000B1FBF0F0C5B2094803212A46008841EACA
:106B3000004007A1FFF77EFCA078A84238BFA570EF
:106B40000020C4E9020670BD200C0020F00C0020DB
:106B50004350552055736167653A202575252500FA
:106B60000A784B784FF0300C02F003020CEA031362
:106B70001A438B784FF4E06C0CEA03231A43CB786A
:106B80004FF4805C0CEA03331A430B794FF4E02C8A
:106B90000CEA03431A434B794FF4801C0CEA03536D
:106BA0001A438B794FF0807C0CEA03631A4300018F
:106BB00000F1804000F5E040C0F81825CA79097A54
:106BC000C0F81415C0F8102570470000054A84B0BD
:106BD000D2E903015269CDE9000102926846FADF69
:106BE00004B07047E878010010B590B06C4604F12D
:106BF0002D016A46481EC1DF40B1052804BF10B010
:106C000010BD10B0BDE81040FDF7CABA09490CA884
:106C100000F0B4F80E980028E9D000BFD0E90021B8
:106C2000684690470CA800F0BAF80E980028F5D1F5
:106C3000DDE70000E8780100F0B53C4D85B028782C
:106C400000281EBF082005B0F0BD0124AC7000264E
:106C5000374901A800F092F8039868B102684168CA
:106C600030469047002804BF05B0F0BD01A800F0F1
:106C700096F803980028F1D1002637462D4901A83F
:106C800000F07CF8039848B10268416838469047A4
:106C900001A800F084F803980028F5D1264827A21F
:106CA000304900680090684610DF00281CBF05B01E
:106CB000F0BD2C702C48AE706E70E0224FF4800155
:106CC00080F80024431E83F8002490F80004400953
:106CD000082812D204FA00F010F0EC0F0DD023486F
:106CE0008268002A04BF4FF0E020C0F8001108D0ED
:106CF000016841F48001016003E042F20200FDF707
:106D00004FFA01240B4901A800F038F8039848B164
:106D1000026841682046904701A800F040F80398B7
:106D20000028F5D105B00020F0BD0000900C002037
:106D300094780100A0780100907801003338333155
:106D40002D353231642D376466392D323464382D57
:106D5000656666332D343637622D323235662D61E5
:106D6000303065002141010016E000E0440F0020B2
:106D70000148007870470000900C002001600A680C
:106D800042604B689A4208BF002106D0D2E9003C1D
:106D9000634508BF0832F3D011688160704781688D
:106DA000002908BF7047026893680B4483604168FC
:106DB000D1F804C0634518BF70470831416053687B
:106DC000994208BF002104D0D1E9003C6345F4D0CA
:106DD00019468160704700002DE9F04FFE4C2DED03
:106DE000088B83B0606900281EBF03B0BDEC088B20
:106DF000BDE8F08FF948FDF707FAA062002818BF38
:106E0000FDF7CEF9DFF8D88398ED000A10EE100AEE
:106E1000FBF792FCA8F13C0641EC190BB6F90470A3
:106E20003846FBF778FC9FEDF08B53EC182BFBF703
:106E300091FB53EC192BFBF7E6FAFBF790FCEC4DBA
:106E4000A86098ED010A10EE100AFBF775FC41EC02
:106E5000190BB6F902008146FBF75DFC53EC182BC9
:106E6000FBF778FB53EC192BFBF7CDFAFBF777FC1C
:106E7000686098ED020A10EE100AFBF75DFC41EC29
:106E8000190BB6F900008046FBF745FC53EC182BB4
:106E9000FBF760FB53EC192BFBF7B5FAFBF75FFC34
:106EA0004FF0A0462860002F08BFB9F1000F06D1AF
:106EB000B8F1000F04BF4FF40060C6F80805CD48D4
:106EC000FDF7C8F9A062002818BFFDF769F9DFF8DF
:106ED00028A39AED000A10EE100AFBF72DFCAAF188
:106EE0003C0941EC180BB9F904804046FBF713FC50
:106EF0009FEDC3BB53EC1B2BFBF79EFB9FEDC29B8F
:106F000053EC192BFBF726FB9FEDC1AB53EC1A2B6F
:106F1000FBF792FB53EC182BFBF775FAFBF71FFC02
:106F2000BD4DA8609AED010A10EE100AFBF704FCB3
:106F300041EC180BB9F902000746FBF7ECFB53ECE8
:106F40001B2BFBF779FB53EC192BFBF703FB53ECE3
:106F50001A2BFBF771FB53EC182BFBF754FAFBF7DA
:106F6000FEFB68609AED020A10EE100AFBF7E4FBE4
:106F700041EC180BB9F900008146FBF7CCFB53EC50
:106F80001B2BFBF759FB53EC192BFBF7E3FA53ECE4
:106F90001A2BFBF751FB53EC182BFBF734FAFBF7DA
:106FA000DEFB2860B8F1000F08BF002F06D1B9F151
:106FB000000F04BF4FF40060C6F808050021974891
:106FC000FDF76EF9A062002818BFFDF7E9F8DFF8B9
:106FD000509299ED000A10EE100AFBF7ADFBA9F1F3
:106FE0000C0A41EC180B9AED000A10EE100AFBF7A0
:106FF000A3FBA9F12A0841EC1A0BB8F90070384636
:10700000FBF789FB9FED889B53EC192BFBF7A2FA4A
:1070100053EC1A2BFBF7F7F953EC182BFBF79AFA02
:10702000FBF79DFB00EE100A84ED070A99ED010ABB
:1070300010EE100AFBF780FB9AED010A41EC1A0BE7
:1070400010EE100AFBF778FB41EC180BB8F90200C0
:107050008346FBF760FB53EC192BFBF77BFA53ECF1
:10706000182BFBF7D0F953EC1A2BFBF773FAFBF74D
:1070700076FB00EE100A84ED080A99ED020A10EE84
:10708000100AFBF759FB9AED020A41EC180B10EEBF
:10709000100AFBF751FB41EC1A0BB8F904008046CB
:1070A000FBF739FB53EC192BFBF754FA53EC1A2B73
:1070B000FBF7A9F953EC182BFBF74CFAFBF74FFB46
:1070C00000EE100A002F84ED090A08BFBBF1000F83
:1070D00006D1B8F1000F04BF4FF40060C6F80805F0
:1070E0003D490020FEF77AF9A062002818BFFDF79D
:1070F00057F8D5ED002A3E4895ED012AD5ED021A44
:1071000090ED001AD0ED010A90ED020ADFED484A39
:1071100094ED094AD4ED083A94ED073AFBF7ECFDFB
:107120004448D0ED000A9FED440A444D60EE800AC9
:10713000C5ED000AD0ED010A60EE800AC5ED010A36
:10714000D0ED020A60EE800AC5ED020AD0ED030A16
:1071500020EE800A85ED030AA068DFF8E49000279E
:107160004FF0030848B9A06938B1B9F8000035A15B
:1071700048EA0040FFF75AF9A761E068401CE06068
:10718000E0680328CCBF0020E068E060A068012828
:1071900004BFE06800281ED194F800C0D4F804A011
:1071A00095ED000ABDEEC00A10EE102A95ED010A19
:1071B000BDEEC00A10EE101A95ED020ABDEEC00A2F
:1071C00010EE100A95ED030A00970197BDEEC00A74
:1071D00010EE103A4AE073E0800B0020AC0B002068
:1071E000E80B002000000000000000000000303F1D
:1071F000500D0020B80B0020F40B00200000000010
:10720000C3F5285C8F62504000000060FB210940FC
:1072100000000000008066405C0D0020B20B0020E2
:10722000DC0B002000000000333333333333C33F23
:10723000CDCCCC3CC00B00200000FE42400D002015
:10724000FC0C0020417474657361206D657373617B
:107250006767696F20646920696E697A696F206168
:1072600071756973697A696F6E6500008DF8042025
:107270008DF805108DF800808DF801C08DF806009E
:107280008DF802708DF803A08DF807306A464FF034
:1072900008014FF00000C7DF051E18BFFCF780FF94
:1072A000B9F800002B4648EA004052460749FFF76C
:1072B000C8F86068401C60604FF40060C6F80C05B8
:1072C00003B0BDEC088BBDE8F08F0000F04001007A
:1072D0007047000010B5094C0020D2B22070201D6C
:1072E000FEF746FB002818BFFCF75AFF607800281D
:1072F00008BF10BD21780029F9D010BD400C002036
:107300002DE9F84F2F4E8946804615461F4669469F
:107310001846B468FDF7E4F8002846D0DDF800A070
:107320000AF1020017B32A1F002517F0010F07D03A
:1073300000EA040306EB830352F8041F0125D96019
:107340005FEA570C12D0411901EA040B06EB8B0BD4
:10735000491C53682140CBF80C3006EB810152F8F0
:10736000083FAD1CCB60BCF1010CECD10AF101016E
:10737000214006EB81014FEA1840C8600AEA040088
:1073800006EB800018F0100F50F80C1F14BF41F0EE
:10739000040121F0040168F3C50167F3891169F361
:1073A0009F2121F00301491C016096F81C0400286C
:1073B00008BFBDE8F88F00BFFEF72CFF0028FBD107
:1073C000BDE8F88F3C1000202DE9F04383B005465E
:1073D0004FF0000842F2107002901E4691460C4693
:1073E0004746C1F80481D1F804010090C1F8248116
:1073F000D1F824010090C1F81C81D1F81C01009043
:10740000C1F80881D1F80801009085F8268085F838
:107410002380012E0CBF02200120C4F800020120AD
:1074200020622060286858B140F28620A860A868D1
:10743000C4F8040332E00298401E029000280ADDDE
:1074400005F126024B46D11E2046CDE9006700F02B
:1074500029F80028EFD195F82300A8B1D4F8C40486
:10746000C4F8C40480B14FF0030810F0010F18BF36
:107470004FF4024810F0020F18BF48F2012810F034
:10748000040F18BF48F202280298002806DCC4F84E
:1074900000750520C4F800054FF0030803B040460E
:1074A000BDE8F0832DE9F80191F800C0DDE9065749
:1074B000BCF1000F04D11478AC4218BF002600D1F3
:1074C00001260024BCF1000F0FD0C0F82441D0F8F1
:1074D00024110091C0F81C41D0F81C110091C0F893
:1074E0000841D0F80811009152E0D0F824814FF003
:1074F000010CB8F1000F2CD1D0F81C81B8F1000FAD
:107500001CD0C0F81C41D0F81C81CDF80080D0F808
:107510002481B8F1000F1CD11178A94206D2595C20
:10752000C0F81C151178491C117031E0002F14BFF0
:10753000C0F81CC0C0F814C039D129E0D0F80871D7
:1075400037B3C0F80841D0F808710097D0F824711B
:107550004FB1C0F82441D0F824210092C0F814C0E3
:1075600081F800C014E01178A94211D2D0F8187542
:107570005F541178491CC9B211706A1E914204BF50
:107580000221C0F8001201D0A94201D0C0F820C0E9
:10759000002E19BFD0F8041100290120BDE8F80120
:1075A00008BF7047C0F80441D0F804010090BDE85E
:1075B000F8014FF0000070472DE9F04784B0054610
:1075C000002742F21070DDF8309002909846924603
:1075D0000C463E46C1F80471D1F804010090C1F890
:1075E0002471D1F824010090C1F81C71D1F81C015C
:1075F0000090C1F80871D4F808010090C4F8007236
:1076000085F8267085F8237001212162A16095F824
:10761000262005F1260042450FD21AF80210C4F8C0
:107620001C150178491C0170286888B140F2862039
:10763000A860A868C4F8040336E0B9F1000F14BFCD
:10764000E1616161F0E70298401E029000280ADDC6
:1076500005F126025346D11E2046CDE90089FFF7E9
:1076600021FF0028EFD195F82300A0B1D4F8C4047D
:10767000C4F8C40478B1032710F0010F18BF4FF409
:10768000024710F0020F18BF48F2012710F0040F54
:1076900018BF48F202270298002805DCC4F80065EC
:1076A0000520C4F80005032704B03846BDE8F0877C
:1076B0000149012008707047400C00202DE9F05F5F
:1076C0009146DDE90A6A04469B460D4608464FF09E
:1076D0000108494506D300BFB0FBF9F008F10108E5
:1076E0004845F9D2C34588BF98461AF0010F1AD110
:1076F000CEB11AF0020F04D0BBF1000F08BF302743
:1077000000D02027B0450ED2A16822684B1C20462D
:10771000A3605754D0E90112761E8A4228BFFEF7B3
:1077200061FA002EEED10127BBF1010F96BFB5FB28
:10773000F7F0ABF1010B484528BF07FB09F7F3D27F
:10774000DFF86CB0B5FBF7F101FB1755A2682368B1
:107750001BF8011002F1010C2046C4F808C099542E
:10776000D0E901128A4228BFFEF73CFAB7FBF9F7CD
:10777000002FE7D11AF0010F14BF002EBDE8F09FD3
:10778000464598BFBDE8F09F2046A268236802F1F5
:10779000010C2021C4F808C09954D0E90112761ECA
:1077A0008A4228BFFEF71EFA002EE9D1BDE8F09FFD
:1077B00030780100200D00200000000005000001CD
:1077C00000000000000000000500000900000000AB
:1077D0000020004202020200440400000030004089
:1077E000000000000D0000000C00000000009801E7
:1077F0000201000000000050010000000000000035
:107800000000000000000701000000000000000070
:107810000000000000000000000000000000000068
:10782000500F0020087801002078010004000000BB
:1078300030313233343536373839414243444546A6
:10784000380C0020300C0020380C00207C0F002069
:1078500018000000B96101006561010013610100B9
:10786000FFFFFFFFFFFFFFFFFFFFFFFFFFFFFFFF28
:1078700000000000000000000000D6010701000029
:1078800000000000000000000000000000000000F8
:1078900001000006807801009078010008000000D7
:1078A000B8780100C878010008000000C87801001D
:1078B000D87801000800000000000000000000006F
:1078C0000000000000000000C87A0100D07A01002A
:1078D00000000000000000000000000000000000A8
:1078E000C07A0100C87A0100D8780100E878010068
:1078F00008000000010020009C140020800000000F
:1079000000404040404040404040414141414140B2
:107910004040404040404040404040404040404067
:1079200040050202020202020202020202020202F6
:1079300002202020202020202020200202020202FB
:107940000202909090909090101010101010101053
:10795000101010101010101010101010020202025F
:1079600002028888888888880808080808080808A3
:10797000080808080808080808080808020202029F
:1079800040000000017901007761726E696E670046
:1079900064656275670000001B5B313B33306D002E
:1079A0001B5B306D000000001B5B313B33316D0011
:1079B0001B5B313B33326D001B5B313B33336D005E
:1079C0001B5B313B33346D001B5B313B33356D004A
:1079D0001B5B313B33366D001B5B313B33376D0036
:1079E000696E666F000000006572726F72000000C1
:1079F0006770696F74650000737769007477690058
:107A000075617274000000007361616463000000BE
:107A1000686172646661756C7400000062616C6C10
:107A20006F6300007077725F6D676D740000000017
:107A3000617070006E72665F736468006E72665F7C
:107A40007364685F616E7400D07A0100800B00205F
:107A5000A0010000E8290100447B0100200D002066
:107A6000002800008C3E0100F079010000000000B9
:107A7000F879010000000300FC790100000000001B
:107A8000007A010000000000087A010000000000F8
:107A9000107A0100000003001C7A010000000000C1
:107AA000247A010000000300307A01000000030086
:107AB000347A0100000003003C7A0100000003005A
:107AC000F53E010000000000E96B0100000000002D
:107AD0000118022901C3803F0031459A9979416616
