:020000040000FA
:100000001820002019020000210200002302000035
:100010002502000027020000290200000000000065
:100020000000000000000000000000002B020000A3
:100030002D020000000000002F020000310200002D
:1000400033020000330200003302000033020000DC
:1000500033020000330200003302000033020000CC
:100060005D0500003302000033020000330200008F
:1000700033020000330200003302000033020000AC
:10008000330200003302000033020000330200009C
:10009000330200003302000033020000330200008C
:1000A000330200003302000033020000330200007C
:1000B00033020000330200000000000000000000D6
:1000C000330200003302000033020000330200005C
:1000D0003302000033020000330200000000000081
:1000E0000000000000000000000000000000000010
:1000F0000000000000000000000000000000000000
:1001000000000000000000000000000000000000EF
:1001100000000000000000000000000000000000DF
:1001200000000000000000000000000000000000CF
:1001300000000000000000000000000000000000BF
:1001400000000000000000000000000000000000AF
:10015000000000000000000000000000000000009F
:10016000000000000000000000000000000000008F
:10017000000000000000000000000000000000007F
:10018000000000000000000000000000000000006F
:10019000000000000000000000000000000000005F
:1001A000000000000000000000000000000000004F
:1001B000000000000000000000000000000000003F
:1001C000000000000000000000000000000000002F
:1001D000000000000000000000000000000000001F
:1001E000000000000000000000000000000000000F
:1001F00000000000000000000000000000000000FF
:10020000DFF810D000F01AF800480047850600001B
:10021000AFF30080182000200648804706480047BA
:10022000FEE7FEE7FEE7FEE7FEE7FEE7FEE7FEE7A6
:10023000FEE7FEE76102000001020000064C074DE8
:1002400006E0E06840F0010394E8070098471034A6
:10025000AC42F6D3FFF7D8FF7C0800009C080000F2
:10026000F0B5AE480023021D01780125101D4FF0A6
:10027000805406290BD11678360708D10678C6F3C4
:100280000316032E06D0042E04D0052E02D0062914
:1002900007D00EE0B4F82463A14FC6F304263E60F5
:1002A00002E01678360704D10678C6F30316032E4B
:1002B00002D0062904D00FE09B4F9A4E7E670EE0D5
:1002C0001678360708D10678C6F30316032E06D033
:1002D000042E04D0052E02D0062907D00EE0D4F853
:1002E0004462924FC6F342363E6002E0167836070B
:1002F00004D10678C6F30316032E02D0062906D0D1
:1003000011E08B4E376827F0807737600EE0167863
:10031000360708D10678C6F30316032E06D0042E3E
:1003200004D0052E02D006290AD011E04FF08046F5
:10033000C6F80C31C6F810317C4E361F336002E02F
:100340001678360704D10678C6F30316032E02D0BA
:10035000062905D00CE0754F032664373E600AE09D
:100360001678360704D10678C6F30316032E02D09A
:1003700006290DD014E06F4F05263E606D4E78368D
:1003800035606C4E083633603F263F1D3E6002E00C
:100390001678360704D10678C6F30316052E02D068
:1003A000062957D062E0644E3668644F3E60624E64
:1003B000361D36683F1D3E605F4E083636683F1D6D
:1003C0003E605D4E0C3636683F1D3E605A4E10361C
:1003D00036683F1D3E60584E143636683F1D3E60FD
:1003E000554E18363668554F20373E60524E1C36F3
:1003F00036683F1D3E60504E203636683F1D3E60D9
:100400004D4E243636683F1D3E604B4E28363668CA
:100410003F1D3E60484E2C3636683F1D3E60464EBE
:1004200030363668454F40373E60434E3436366886
:100430003F1D3E60404E383636683F1D3E603E4EA2
:100440003C3636683F1D3E603B4E403636683F1DA9
:100450003E6002E01678360708D10678C6F3031628
:10046000032E06D0042E04D0052E02D0062907D074
:1004700019E0D4F85812324A01F04F01116002E03D
:10048000117809070FD10078C0F30310032803D0B7
:10049000042801D0052806D12A480168C90702D0DE
:1004A0006FF00101016022487438016841F4700165
:1004B0000160BFF34F8FBFF36F8F4FF01021D1F862
:1004C0000002002803DBD1F80402002822DA1E4AC9
:1004D00015601E480468002CFCD01524C1F80042A9
:1004E0000568002DFCD0C1F8044201680029FCD049
:1004F000136001680029FCD0BFF34F8F0C48F0381F
:100500000168134A01F4E06111430160BFF34F8FAA
:1005100000BFFDE710490F480860F0BDE00F00F094
:10052000403501400DF0ADBA00C007403C05004029
:10053000FCED00E0105600400404001020C500400F
:10054000E40E00400004004004E5014000E40140E6
:100550000400FA050090D003040000202DE9F843C0
:1005600000250F4C04274FF4A078BE034FEA05097D
:1005700008EB850006FA05F122585AB1D4F8042395
:100580000A4207D044F800902158064A0091516869
:10059000126890476D1CEDB2BD42E9D3BDE8F88307
:1005A000008000400800002002E008C8121F08C1B7
:1005B000002AFAD170477047002001E001C1121FE4
:1005C000002AFBD17047000009480068C00700D02E
:1005D00000BEBFF34F8F0648E4380168054A01F4B6
:1005E000E06111430160BFF34F8F00BFFDE70000E2
:1005F000F0ED00E00400FA050EB500210091CDE910
:1006000001106A4644F20100FFF7DEFF0EBD000054
:1006100007490B5C4FF0A041D1F804250120984018
:1006200020EA0203C1F808351040C1F80C057047F4
:10063000740800000249085C012100F0F7B80000CE
:10064000740800007CB50024084E25460122305D68
:10065000009500231146019500F0D6F8641C042C87
:10066000F4D3BDE87C4000F003B80000740800003B
:1006700010B500242046FFF7DDFF641C042CF9D3DD
:1006800010BD00000EB5FFF7DDFF0F490F4AD1E99D
:100690000201CDE9010101A90B4800F06DF808B194
:1006A000FFF7AAFF08480068D0F81005084A0021A3
:1006B000C240012003460090034800F047F802487A
:1006C00000F036F830BFFDE7640800004508000080
:1006D00000127A004907090E002806DA00F00F021E
:1006E00002F1E02282F8141D03E000F1E02282F81A
:1006F000001400F01F02012191404009800000F128
:10070000E020C0F88012C0F80011704730B54FF4F7
:10071000803405688C4013B1C5F8044301E0C5F886
:100720000843006800EB8100C0F8402530BD0000A0
:10073000016801220A600079034A00EB400002EBE5
:10074000800002210172704708000020F0B40468A4
:10075000049E40F20115D4F800728D40AF43C4F8F6
:1007600000720468D4F800521D43C4F800523346A6
:10077000F0BCFFF7CBBF0000F8B504460D4600798A
:10078000204900EB400001EB8006307A08B10820D8
:10079000F8BD3AB1326068687060002003464FF4DB
:1007A000A07709E00720F8BD226807EB80015350CD
:1007B0005158401CC0B2009161798142F4D8206840
:1007C000E978000B40B2FFF785FF20686978D0F820
:1007D000042561F30102C0F804252068A978D0F847
:1007E000082561F30102C0F8082520682978D0F8AF
:1007F000102561F30302C0F810250120307200209B
:10080000F8BD00000800002070B541EA4201DDE9B2
:1008100004564FF0A04441EA830141EA052104EB6C
:10082000800041EA0641C0F8001770BD01224FF078
:10083000A043824011B1C3F808257047C3F80C25C6
:1008400070470000064A0346116801F00300491C86
:100850001160B3F5A07F01D1FFF7DABE7047000049
:10086000000000200080004000040000000003079A
:1008700000000000111213140D0E0F109C08000050
:100880000000002008000000A8050000A4080000E7
:100890000800002010200000B80500000000000043
:0408A0000090D003F1
:0400000500000201F4
:00000001FF
