:020000040001F9
:10200000C02C00204D2201005522010019220100A0
:10201000592201005B2201005D2201000000000046
:102020000000000000000000000000005F2201002E
:10203000612201000000000063220100652201000E
:102040006722010067220100672201006722010068
:102050006722010067220100672201006722010058
:102060006722010067220100672201006722010048
:102070006722010067220100672201006722010038
:102080006722010067220100672201006722010028
:102090006722010067220100092301006722010075
:1020A0006722010067220100672201006722010008
:1020B000672201006722010000000000000000000C
:1020C00067220100672201006722010067220100E8
:1020D0006722010067220100672201000000000062
:1020E00000000000000000000000000000000000F0
:1020F00000000000000000000000000000000000E0
:1021000000000000000000000000000000000000CF
:1021100000000000000000000000000000000000BF
:1021200000000000000000000000000000000000AF
:10213000000000000000000000000000000000009F
:10214000000000000000000000000000000000008F
:10215000000000000000000000000000000000007F
:10216000000000000000000000000000000000006F
:10217000000000000000000000000000000000005F
:10218000000000000000000000000000000000004F
:10219000000000000000000000000000000000003F
:1021A000000000000000000000000000000000002F
:1021B000000000000000000000000000000000001F
:1021C000000000000000000000000000000000000F
:1021D00000000000000000000000000000000000FF
:1021E00000000000000000000000000000000000EF
:1021F00000000000000000000000000000000000DF
:10220000DFF810D000F058F800480047D927010047
:10221000AFF30080C02C0020094B1EF0040F1CBF40
:10222000EFF309801847EFF308800649064A884211
:1022300001D8904202D88D464FF0000018470000A8
:10224000DD220100C02C0020C00C00200648804781
:1022500006480047FEE7FEE7FEE7FEE7FEE7FEE78B
:10226000FEE7FEE7FEE7FEE71D2301000122010075
:1022700040EA01039B0703D009E008C9121F08C008
:10228000042AFAD203E011F8013B00F8013B521E88
:10229000F9D27047D2B201E000F8012B491EFBD2FF
:1022A00070470022F6E710B513460A460446194661
:1022B000FFF7F0FF204610BD064C074D06E0E06832
:1022C00040F0010394E8070098471034AC42F6D37D
:1022D000FFF79AFF542901007429010010B500F09E
:1022E00001F810BDBFF34F8F05480168054A01F49E
:1022F000E06111430160BFF34F8F00BFFDE70000B5
:102300000CED00E00400FA0508B502E0009800F0CA
:10231000C3F968464BDF0528F8D108BDF0B5AE48D3
:102320000023021D01780125101D4FF0805406295D
:102330000BD11678360708D10678C6F30316032E9C
:1023400006D0042E04D0052E02D0062907D00EE0B8
:10235000B4F82463A14FC6F304263E6002E0167869
:10236000360704D10678C6F30316032E02D00629D9
:1023700004D00FE09B4F9A4E7E670EE0167836072A
:1023800008D10678C6F30316032E06D0042E04D017
:10239000052E02D0062907D00EE0D4F84462924FF1
:1023A000C6F342363E6002E01678360704D106785E
:1023B000C6F30316032E02D0062906D011E08B4E79
:1023C000376827F0807737600EE01678360708D137
:1023D0000678C6F30316032E06D0042E04D0052E6D
:1023E00002D006290AD011E04FF08046C6F80C3121
:1023F000C6F810317C4E361F336002E0167836077F
:1024000004D10678C6F30316032E02D0062905D0A0
:102410000CE0754F032664373E600AE016783607F5
:1024200004D10678C6F30316032E02D006290DD078
:1024300014E06F4F05263E606D4E783635606C4E69
:10244000083633603F263F1D3E6002E016783607AF
:1024500004D10678C6F30316052E02D0062957D0FC
:1024600062E0644E3668644F3E60624E361D3668E8
:102470003F1D3E605F4E083636683F1D3E605D4E34
:102480000C3636683F1D3E605A4E103636683F1D8A
:102490003E60584E143636683F1D3E60554E183625
:1024A0003668554F20373E60524E1C3636683F1D09
:1024B0003E60504E203636683F1D3E604D4E2436FD
:1024C00036683F1D3E604B4E283636683F1D3E60E5
:1024D000484E2C3636683F1D3E60464E30363668D4
:1024E000454F40373E60434E343636683F1D3E60B0
:1024F000404E383636683F1D3E603E4E3C363668AC
:102500003F1D3E603B4E403636683F1D3E6002E058
:102510001678360708D10678C6F30316032E06D0C0
:10252000042E04D0052E02D0062907D019E0D4F8D5
:102530005812324A01F04F01116002E01178090788
:102540000FD10078C0F30310032803D0042801D072
:10255000052806D12A480168C90702D06FF0010199
:10256000016022487438016841F470010160BFF3D2
:102570004F8FBFF36F8F4FF01021D1F8000200286A
:1025800003DBD1F80402002822DA1E4A15601E4837
:102590000468002CFCD01524C1F800420568002D09
:1025A000FCD0C1F8044201680029FCD01360016826
:1025B0000029FCD0BFF34F8F0C48F0380168134A54
:1025C00001F4E06111430160BFF34F8F00BFFDE7ED
:1025D00010490F480860F0BDE00F00F040350140A1
:1025E0000DF0ADBA00C007403C050040FCED00E036
:1025F000105600400404001020C50040E40E0040C6
:102600000004004004E5014000E401400400FA0534
:102610000090D003840B002002E008C8121F08C1FC
:10262000002AFAD170477047002001E001C1121F53
:10263000002AFBD1704700000121202803DA8140E5
:102640000548014003E0402802DA2038814009B102
:102650000120704700207047FC06FFBD082806D205
:102660000121814011F0EC0F01D0012070470020C2
:102670007047000010B5FF228021FFF70BFE054CCC
:10268000012020707F2028DF002802D12178002936
:10269000FCD110BD800B0020022801D0032802D1FC
:1026A0000149002008707047800B002010B5064CCF
:1026B0000121217001462022044829DF002802D18F
:1026C00021780029FCD110BD800B002080FF07007D
:1026D00038B510B16FF0030001E06FF00100074C56
:1026E00000900120207002466946054829DF002835
:1026F00002D120780028FCD138BD0000800B0020DA
:10270000FCFF07001FB525A0D0E90010CDE900109F
:1027100024A1D1E90001CDE9020169460020CCDF06
:1027200008B100F04EF800231A4610211846C2DF07
:1027300008B100F046F84FF08050006E052381B2DA
:1027400020220020D3DF08B100F03BF84FF4005105
:102750000020D1DF08B100F034F832210020CDDFB5
:1027600008B100F02EF8002203211046CFDF08B197
:1027700000F027F8082102AA0020C7DFA0F5804159
:10278000153902D008B100F01CF800210846C4DF5A
:10279000002801D000F015F81FBD0000E8E4213B3F
:1027A000557A67C10100000000C0FFEE0EB5034A74
:1027B00007CA8DE807006846FADF0EBD4829010008
:1027C000FEE70EB500210091CDE901106A4644F202
:1027D0000100FFF7F5FF0EBD0EB5304830A23A49B3
:1027E00000680090684610DF08B1FFF7EAFF162086
:1027F0000727FFF721FF42F20104344E651C38B170
:102800003846FFF72BFF28B1E02086F8000404E0EB
:10281000204600E02846FFF7D4FF1620FFF70CFF04
:1028200078B196F800044009FFF718FF58B128481E
:1028300082684FF4800162B3016841F48001016055
:1028400004E0204600E02846FFF7BBFFFFF7AEFF9D
:1028500008B1FFF7B6FFFFF755FF1E4C41DF08B187
:10286000FFF7AFFF1B4A01A902A8C1DF0028F5D17D
:102870009DF804008028F5D160784E2801D04F28BB
:10288000F0D1E078A17A0228ECD10129EAD100F058
:1028900023F84FF0E020C0F80011D7E738290100F5
:1028A000333833312D353231642D376466392D326A
:1028B0003464382D656666332D343637622D3232F6
:1028C00035662D61303065003529010016E000E0E5
:1028D000B40C0020080C00201248FFF7CBFE08B112
:1028E000FFF76FFF0F480B220F496830FFF7C0FC5E
:1028F0000C494FF6FF7048660846FFF7D7FE08B14F
:10290000FFF75FFF0120FFF7E3FEBFF34F8F07489C
:102910000168074A01F4E06111430160BFF34F8F82
:1029200000BFFDE7880B00203C2901000CED00E012
:102930000400FA05FEE700000100000742464D31A1
:102940002E3030423031000001002000340C0020D5
:102950008000000074290100800B002008000000A6
:10296000182601007C290100880B00203821000076
:0C29700028260100000000000090D003A9
:0400000500012201D3
:00000001FF
