:020000040000FA
:1000000070280020ED030000F5030000F703000056
:10001000F9030000FB030000FD03000000000000E6
:10002000000000000000000000000000FF030000CE
:1000300001040000000000000304000005040000AB
:100040000D07000007040000890A000007040000F3
:100050000704000007040000350500000704000045
:100060000704000007040000070400000704000064
:100070000704000007040000070400000704000054
:1000800007040000650700000704000007040000E3
:1000900089070000070400000704000007040000AF
:1000A0000704000007040000070400000704000024
:1000B000070400000704000000000000000000002A
:1000C0000704000007040000070400000704000004
:1000D00007040000070400000704000000000000FF
:1000E0000000000000000000000000000000000010
:1000F0000000000000000000000000000000000000
:1001000000000000000000000000000000000000EF
:1001100000000000000000000000000000000000DF
:1001200000000000000000000000000000000000CF
:1001300000000000000000000000000000000000BF
:1001400000000000000000000000000000000000AF
:10015000000000000000000000000000000000009F
:10016000000000000000000000000000000000008F
:10017000000000000000000000000000000000007F
:10018000000000000000000000000000000000006F
:10019000000000000000000000000000000000005F
:1001A000000000000000000000000000000000004F
:1001B000000000000000000000000000000000003F
:1001C000000000000000000000000000000000002F
:1001D000000000000000000000000000000000001F
:1001E000000000000000000000000000000000000F
:1001F00000000000000000000000000000000000FF
:10020000DFF810D000F084F900480047B919000069
:10021000AFF300807028002030B4044654E8000F8B
:100220000D4644E80053002BF8D1156030BC7047F0
:1002300030B4044654E8000F40EA010544E8005396
:10024000002BF7D1156030BC704730B4044654E839
:10025000000F00EA010544E80053002BF7D11560B8
:1002600030BC704730B4044654E8000F80EA010502
:1002700044E80053002BF7D1156030BC704730B410
:10028000044654E8000F00EB010544E80053002B3E
:10029000F7D1156030BC704730B4044654E8000F05
:1002A000A0EB010544E80053002BF7D1156030BCEA
:1002B0007047000030B4044654E8000F0D4644E88F
:1002C0000053002BF8D1156030BC704730B40446A1
:1002D00054E8000F40EA010544E80053002BF7D131
:1002E000156030BC704730B4044654E8000F00EA93
:1002F000010544E80053002BF7D1156030BC70476E
:1003000030B4044654E8000F80EA010544E8005385
:10031000002BF7D1156030BC704730B4044654E868
:10032000000F00EB010544E80053002BF7D11560E6
:1003300030BC704730B4044654E8000FA0EB010510
:1003400044E80053002BF7D1156030BC7047000023
:1003500030B4044654E8000F0D4644E80053002B27
:10036000F8D1156030BC704730B4044654E8000F33
:1003700040EA010544E80053002BF7D1156030BC7A
:10038000704730B4044654E8000F00EA010544E821
:100390000053002BF7D1156030BC704730B40446D1
:1003A00054E8000F80EA010544E80053002BF7D120
:1003B000156030BC704730B4044654E8000F00EBC1
:1003C000010544E80053002BF7D1156030BC70479D
:1003D00030B4044654E8000FA0EB010544E8005394
:1003E000002BF7D1156030BC7047000006488047ED
:1003F00006480047FEE7FEE7FEE7FEE7FEE7FEE70A
:10040000FEE7FEE7FEE7FEE78D07000001020000C1
:100410002DE9F05F0546002092469B468846064639
:10042000814640241BE0284641464746224600F0CC
:100430005FF853465A46C01A914110D311461846E8
:10044000224600F046F82D1A67EB01084F46224677
:100450000120002100F03DF817EB00094E41201E5D
:10046000A4F10104DFDC484631462A464346BDE894
:10047000F09F0000004870471439000040EA010373
:100480009B0703D009E008C9121F08C0042AFAD24A
:1004900003E011F8013B00F8013B521EF9D270470E
:1004A000D2B201E000F8012B491EFBD270470022B6
:1004B000F6E710B513460A4604461946FFF7F0FF63
:1004C000204610BD421C10F8011B0029FBD1801AE8
:1004D0007047202A04DB203A00FA02F1002070471E
:1004E0009140C2F1200320FA03F319439040704772
:1004F000202A04DB203A21FA02F00021704721FA79
:1005000002F3D040C2F120029140084319467047DF
:10051000064C074D06E0E06840F0010394E8070050
:1005200098471034AC42F6D3FFF76EFEB0390000A6
:10053000D03900002DE9F04700268CB0DFF860913B
:10054000B0464FF48075012437460696284601F0E0
:10055000A1FF38B1D9F80403204203D0284601F0A6
:100560008FFF26432D1D64007F1CADB2082FEDD3F5
:100570004FF4BE74204601F08DFF48B1204601F0D3
:100580007FFF46F0004606AA0121002001F064FF2B
:10059000444D16F0FF0F15D00127002437420DD02F
:1005A00009EB8401D1F81005D1F81015C0F304202F
:1005B00055F82420C1F3014102B190477F00641C2B
:1005C000082CEBD3002E67DA4FF0FF30CDE908801E
:1005D00000263446281910F8507F90F9000027F0C3
:1005E000C008401C44D009A9404601F0CAFA58B3DB
:1005F0004FEA9719404600F06DFF55F820701FB183
:10060000B9F1030F03D00FE0B9F1030F30D108A8FF
:100610004FEAD80208F00703815C4FF0010C0CFA96
:1006200003FC41EA0C0181544FF0A04101EB88002A
:10063000D0F8000706A9C0F3014A404601F0A1FA2C
:1006400018B1BAF1020F03D012E0BAF1030F0FD1C3
:10065000B9F1030F08D1BAF1020F1BD002214046B5
:1006600001F0DDFE761CF6B217B149464046B847A8
:10067000641C042CAED3002E0ED06A46012100204B
:1006800001F0EAFE06990098884205D00690089885
:1006900009909DE70321E2E70CB0BDE8F087000078
:1006A000006000408001002000F01F020121914005
:1006B0004009800000F1E020C0F88012704700F08F
:1006C0001F02012191404009800000F1E020C0F8A4
:1006D0000011704700F01F02012191404009800085
:1006E00000F1E020C0F8001270474907090E002809
:1006F00006DA00F00F0000F1E02080F8141D7047CA
:1007000000F1E02080F80014704700002DE9F0416E
:100710004FF48077384601F03CFA0124104EA507CB
:1007200048B1384601F03CFA0120C5F8080374705E
:10073000002000F0D7FE4FF48277384601F029FA06
:1007400000280BD0384601F02BFA0220C5F8080328
:10075000B470BDE8F041012000F0C4BEBDE8F081F6
:100760006C01002007480021C0F84011C0F8441176
:10077000C0F84811C0F84C11C0F80011C0F80411BD
:1007800002F02ABE0010014002F078BDF0B5AE487C
:100790000023021D01780125101D4FF08054062909
:1007A0000BD11678360708D10678C6F30316032E48
:1007B00006D0042E04D0052E02D0062907D00EE064
:1007C000B4F82463A14FC6F304263E6002E0167815
:1007D000360704D10678C6F30316032E02D0062985
:1007E00004D00FE09B4F9A4E7E670EE016783607D6
:1007F00008D10678C6F30316032E06D0042E04D0C3
:10080000052E02D0062907D00EE0D4F84462924F9C
:10081000C6F342363E6002E01678360704D1067809
:10082000C6F30316032E02D0062906D011E08B4E24
:10083000376827F0807737600EE01678360708D1E2
:100840000678C6F30316032E06D0042E04D0052E18
:1008500002D006290AD011E04FF08046C6F80C31CC
:10086000C6F810317C4E361F336002E0167836072A
:1008700004D10678C6F30316032E02D0062905D04C
:100880000CE0754F032664373E600AE016783607A1
:1008900004D10678C6F30316032E02D006290DD024
:1008A00014E06F4F05263E606D4E783635606C4E15
:1008B000083633603F263F1D3E6002E0167836075B
:1008C00004D10678C6F30316052E02D0062957D0A8
:1008D00062E0644E3668644F3E60624E361D366894
:1008E0003F1D3E605F4E083636683F1D3E605D4EE0
:1008F0000C3636683F1D3E605A4E103636683F1D36
:100900003E60584E143636683F1D3E60554E1836D0
:100910003668554F20373E60524E1C3636683F1DB4
:100920003E60504E203636683F1D3E604D4E2436A8
:1009300036683F1D3E604B4E283636683F1D3E6090
:10094000484E2C3636683F1D3E60464E303636687F
:10095000454F40373E60434E343636683F1D3E605B
:10096000404E383636683F1D3E603E4E3C36366857
:100970003F1D3E603B4E403636683F1D3E6002E004
:100980001678360708D10678C6F30316032E06D06C
:10099000042E04D0052E02D0062907D019E0D4F881
:1009A0005812324A01F04F01116002E01178090734
:1009B0000FD10078C0F30310032803D0042801D01E
:1009C000052806D12A480168C90702D06FF0010145
:1009D000016022487438016841F470010160BFF37E
:1009E0004F8FBFF36F8F4FF01021D1F80002002816
:1009F00003DBD1F80402002822DA1E4A15601E48E3
:100A00000468002CFCD01524C1F800420568002DB4
:100A1000FCD0C1F8044201680029FCD013600168D1
:100A20000029FCD0BFF34F8F0C48F0380168134AFF
:100A300001F4E06111430160BFF34F8F00BFFDE798
:100A400010490F480860F0BDE00F00F0403501404C
:100A50000DF0ADBA00C007403C050040FCED00E0E1
:100A6000105600400404001020C50040E40E004071
:100A70000004004004E5014000E401400400FA05E0
:100A80000090D003B40000200448017F04480029EE
:100A9000024901D002F0B5BD02F024BDD80100200A
:100AA0000020004002E008C8121F08C1002AFAD145
:100AB00070477047002001E001C1121F002AFBD1DE
:100AC0007047022000F0C8B970B50024084D05E059
:100AD000686810F8340001F02DF9641C287884420D
:100AE000F6D304480068BDE8704000F021B900006A
:100AF000140000201038000070B50024064D06E0F8
:100B00006868012110F8340001F038F9641C287875
:100B10008442F5D3002070BD14000020F8B51546BE
:100B20000C460646052A01D20720F8BD01F00CFA52
:100B300018B901F0DBF90028F7D1104900204E6008
:100B40000C70C1E902500E4D08610DE006EBC400C7
:100B50006968009181788DF801100078094A69462A
:100B600001F05EF90028E0D1641EE4B2EED2BDE8E7
:100B7000F840054A0021024800F05CB8140000204B
:100B80001038000059160000B915000010B501F02A
:100B9000EFFE00BF01F054FD0028FBD1104C0121F5
:100BA000208801EB00400FA101F03AFE10480068D8
:100BB000C00700D000BE2088022101EB00400DA13B
:100BC00001F02EFEBFF34F8F0948E43801680D4A4B
:100BD00001F4E06111430160BFF34F8F00BFFDE7F7
:100BE000F4000020466174616C206572726F7200BF
:100BF000F0ED00E053797374656D20726573657470
:100C0000000000000400FA050EB500210091CDE9B6
:100C100001106A4644F20100FFF7B8FF0EBD401A0A
:100C200020F07F40704700000148006870470000D6
:100C300004150140084B9B7823B12AB120B100680C
:100C4000037C1BB108207047072070470023037402
:100C500041744261184670471802002070B502F0D6
:100C60003BF9104800240B21047044700E4D817034
:100C700014206C602C706C70FFF716FD0721142097
:100C8000FFF733FD1420FFF71AFD08480460072121
:100C90001120FFF72AFD0548001F0068A86000200A
:100CA00070BD000018020020280000200815014037
:100CB0002DE9F843DFF8709099F802305BB350B338
:100CC000052902D20720BDE8F88343691BB3437CA2
:100CD000012B22D0002704460025884616462846C8
:100CE00000F042F8684602F05FFDC0B101210170DA
:100CF0000E4944600968C0E90218C0E904769DF80D
:100D0000000089F80100002000F030F81420FFF7FF
:100D1000E1FC2846D7E70820D5E70F46DBE70425A6
:100D2000002000F023F8F4E7180200200415014029
:100D30000649897839B130B1416921B10021017486
:100D4000022102F029BB0820704700001802002091
:100D50000448807818B10321002002F01DBB082050
:100D6000704700001802002000F002B800F008B838
:100D700072B602480168491C016070473C000020BF
:100D800003490868401E086000D162B67047000041
:100D90003C0000202DE9F041064608680C46411C45
:100DA0004FF0A0474FF0010506D005FA00F1C7F853
:100DB0000815206801F018FB6068411C02D0002172
:100DC00001F009FB3079204901EB4010A169007F57
:100DD00000283068C0F8241525D0607D227D316858
:100DE0001043C1F86C05D4E900123068C0F80C1546
:100DF000C0F8142524E0A068411C02D0002101F0B5
:100E0000EAFAE068411C05D08540C7F80855E0685B
:100E100001F0EAFAD4E902123068C0F80825C0F8F7
:100E20001015BDE8F081607D217D32680843C2F86D
:100E30006C05D4E900123068C0F81425C0F80C1510
:100E4000207D0128D7D0ECE7D80100200149085CBB
:100E500070470000DC37000007490B5C4FF0A041F1
:100E6000D1F804250120984020EA0203C1F8083592
:100E70001040C1F80C057047D83700000249085CE3
:100E8000012101F0DDBA0000D83700000249085CFA
:100E9000002101F0D5BA0000D83700000649095CEE
:100EA0004FF0A040D0F80405C84010F0010000D079
:100EB000012080F001007047D83700007CB5002485
:100EC000084E25460122305D00950023114601950C
:100ED00001F042FA641C042CF4D3BDE87C4000F01D
:100EE00003B80000D837000010B500242046FFF7F3
:100EF000C5FF641C042CF9D310BD10B50024204696
:100F0000FFF7C4FF641C042CF9D310BD10B50246D2
:100F1000064B4FF0FF3000215C5C944201D1084643
:100F200010BD491C0429F7D310BD0000DC370000B8
:100F30002DE9F0470D468146FFF7E8FF04460428F7
:100F400036D2DFF874801B481C4EA8F10C0725B37D
:100F5000012D0ED0022D2BD104EB440030444578F6
:100F6000002D25D0B968002922D02846BDE8F047D9
:100F7000084704EB4401755C0E44717849B10E4A90
:100F80004FF40041093A8068FFF792FE08B987F8EC
:100F90000390B17808F80410E2E78068FFF7C8FE14
:100FA00004EB4401314418F804008D78A842D7D0EE
:100FB000BDE8F087E037000010000020400100206D
:100FC000FFF782BD10B51949022000F0C1F808B141
:100FD000FFF71AFE0C220221012000F029F808B1C7
:100FE000FFF712FE0A220021012000F021F808B1CB
:100FF000FFF70AFE00220121104600F019F808B19F
:10100000FFF702FE00210E22084600F011F808B199
:10101000FFF7FAFD09220021022000F009F800285C
:1010200003D0BDE81040FFF7EFBD10BD7510000004
:1010300070B50023042810D20D4D00EB4004012AA6
:1010400002D101290CD00022094E00EB40003044AF
:1010500061B1012906D0022906D00723184670BDC8
:101060000E30C2B22A55F9E74270F7E78270F5E711
:10107000400100202DE9F041074601F057FD1B4DCE
:1010800003261BA1288806EB004001F0C9FB092FAD
:1010900029D01D4C0A2F1FD001200C2F19D00E2F44
:1010A00018D1617831B100206070288817A106EB53
:1010B000004004E0607028881DA106EB004001F0AC
:1010C000AFFBA078002805D06078002802D004206B
:1010D00005E02070BDE8F081207800B10120BDE876
:1010E000F04101F0A9BD0320F9E70000F400002061
:1010F000506F776572206D616E6167656D656E74A6
:1011000020666564000000000000002053797374BD
:10111000656D206973206E6F74207265616479203B
:10112000666F722073687574646F776E00000000DC
:1011300053797374656D20697320726561647920D9
:10114000666F722073687574646F776E00000000BC
:1011500070B506461E480024C0E90161B00720D5DD
:101160000025012211462846FFF762FF6D1C044648
:10117000042D02D2002CF4D013E094B940F2666240
:1011800004211448FFF7CAFC04000AD1FFF7B4FC9D
:10119000040006D10F48104A0021001FFFF74AFD46
:1011A0000446F00701D0FFF789FE74B909480B4ADD
:1011B00000210C38FFF73EFD040006D10548084A1F
:1011C00001210838FFF736FD0446204670BD0000B7
:1011D00004000020EC37000069140000191800001A
:1011E000C30A00002DE9F05F6A4C054600266078CE
:1011F000B34618B184F801B000F0F6FA664F4FF428
:101200007A694FF4C87A4FF00108182D62D2DFE8EE
:1012100005F0AC0C0C31404D62676B746B74BE7D95
:101220007D7D7D7DACAFB2B5BEBE0020FFF736FE42
:1012300000284FF0000008D0FFF720FE022D02D159
:101240004FF4E16008E0484606E0FFF71FFE022D7C
:1012500001D1C82000E05046410CC0034FF4FA729F
:10126000801841F10001257052000023FFF7D0F8EB
:1012700001462AE00020FFF711FE00284FF0000091
:1012800004D0FFF7FBFD4FF44870E5E7FFF7FEFDE4
:10129000DFE70020FFF702FE00284FF0000002D039
:1012A000FFF7ECFDCFE7FFF7F1FDD4E70020FFF7F4
:1012B000F5FD00284FF0000002D0FFF7DFFD01E050
:1012C000FFF7E4FD257041F69A1100223868FFF718
:1012D000EFFC064646E00020FFF7BEFD257008E063
:1012E000002051E025703DE084F801800120FFF7E7
:1012F000B3FD002240F6CD41E8E784F801800120EB
:10130000FFF7AAFD00224FF48041DFE77868FFF77E
:101310000FFD0646D5F1110000D02EB10220FFF7D7
:10132000ADFD84F802B01DE0012816D980B2C821B5
:101330004843C117C90341EA5041C0034FF4FA7250
:10134000801841F1000152000023FFF761F80146C7
:1013500000227868FFF7ACFC06460220FFF796FDF6
:1013600084F802803046BDE8F09F00F03DFAB9E70E
:1013700000F03AFAB4E700F037FA04E000F034FA8B
:101380000020FFF783FD0120FFF780FDAAE7FFF7AC
:10139000B4FDA7E704000020E037000010B50020EE
:1013A000FFF7E2FC05480078400702D1044901201C
:1013B00088600020FFF7DAFC002010BD10540040C8
:1013C0000050004010B5FFF741FD032101F016F871
:1013D000002010BD2DE9F041871C0E46012500209C
:1013E000FFF7C2FC124C20683060D4E90001401ABB
:1013F000A168091ABE1C06E000F094FAD4E90001C5
:10140000401AA168091A491C8E42F5D8A1682068C3
:10141000084004EB8000C16841F00301C16020680E
:10142000384420600020FFF7A1FC2846BDE8F08189
:101430005004002030B482680468531C8360A154B7
:10144000D0E901128A4202D330BC00F08CBE30BC1D
:1014500070470000034803C8814201D10120704752
:10146000002070475004002000780221FFF760BD83
:1014700005494FF0FF32082841F8202002D30844E4
:1014800080F848207047000080010020F0B54FF040
:10149000FF3512B10023082601E008230C260C4C6E
:1014A00005E000BF54F823707F1C04D05B1CB342DE
:1014B000F8D32846F0BD26185DB286F8305044F8BF
:1014C0002310002AF5D1E11881F84800F1E7000067
:1014D000800100200249084490F930007047000064
:1014E0008001002070B5084C050009D01034216837
:1014F000002907D008682060496828468847F6E731
:101500000834F4E770BD00006C0100202DE9F05FA5
:1015100026484168F1B3DFF898B00E688146DBF8E1
:10152000004087688078E11B21F07F45ED1CB0B951
:10153000DFF880804FF48030C8F84403C8F8040313
:101540001120FFF7B1F81120FFF7B9F84FF0010AA9
:10155000C8F800A02F2000F02BFB89F802A0B542AC
:1015600000D23546124BE8193C3320F07F4018601A
:10157000DBF800105A46091B21F07F41001B20F0C8
:101580007F40C91C81420FD9106818602F2000F0DD
:101590000FFB00E004E0BDE8F05F1120FFF79AB810
:1015A000BDE8F05F01F098BCBDE8F09F2800002086
:1015B00004150140001001402DE9F04100260125ED
:1015C000144C22E06068226900EBC607387805FAFF
:1015D00000F1114217D08A43226100F07DFC0246DF
:1015E0003878E36805FA00F1194002FA00F39942ED
:1015F00009D17978012901D0012100E00021514071
:101600007A6802B19047761CF6B220788642D9D328
:10161000BDE8F081140000200E4910B50A784C781E
:101620000023A24212D0521CD2B20A70022A00D168
:101630000B70084A0B780C3252F82320026088683D
:10164000104420F07F408860012010BD036000201E
:1016500010BD0000280000202DE9F041124E074681
:101660000125BD403068FFF763FB00280DD10F4C0A
:101670002069284207D1384600F02EFC0028E06897
:1016800005D0284304E0A8432061BDE8F081A843C9
:10169000E060206928432061A1683068BDE8F0411E
:1016A0000022FFF705BB00001038000014000020E6
:1016B0002DE9FC5F0E008346DDE90C47C6F1000012
:1016C00098469246814600D40846012503E000BFB3
:1016D00090FBFAF06D1C5045FADAA84500D9454652
:1016E00024B1002E01DB780700D5641EB80702D5AF
:1016F000B8F1000F0AD0F80708D13CB1A54205D2D5
:1017000020215846641EFFF795FEF6E7002E02DA08
:101710004E462D2102E0780703D52B215846FFF7CE
:1017200089FE07F0030002280BD1B8F1000F08D1A1
:101730003CB1A54205D230215846641EFFF77AFE1F
:10174000F6E7CDE90047434652463146584601F098
:10175000D1FFBDE8FC9F000070B50E46044600793D
:1017600018494FF4A27501EB4010017F2068A1B128
:101770004FF4887101F009FB4FF49071206801F07B
:1017800004FB4FF49271206801F0FFFA29462068AB
:1017900001F0FBFA0C49206809E04FF48E7101F06A
:1017A000E3FA2946206801F0DFFA08492068C0F80A
:1017B0000413206800F0BBFA3146BDE8704000F029
:1017C0009ABA0000D8010020100302008000020035
:1017D0000268134602E08A4204D01268002AFAD155
:1017E0000B600160704700000A4810B5807860B156
:1017F000002401E0022C06D02046FFF73FFB641CCA
:10180000042CF7D310BD0324F6E7BDE81040FFF722
:101810006BBB00000400002003480179C90702D017
:101820000078FFF7DFBC7047040000202DE9F04787
:10183000394E002780463D46DFF8E090D6F804A0F8
:1018400057E003D00446D0F81C8035E099F800201A
:1018500002EB4201521CD2B289F8002009EBC1010F
:1018600099F80230091D9A4201D189F80050486860
:101870000A780446012A12D0022A02D0032A3BD158
:1018800008E001F059FD00B10127257434E005742A
:10189000C06900E070680028F9D170602CE0207CFD
:1018A00050BB88686060C868A0600869E0604869EB
:1018B000A061F07800B165606268B168184B501A99
:1018C00020F07F40984202D2A168084406E0881ABE
:1018D000A16820F07F40814202D9081A206000E010
:1018E000256065600120A56020742046E56101F057
:1018F00005FDB8F10000A4D199F8001099F8010095
:101900008142A3D117B97168514502D00120BDE8C9
:10191000F0870020FBE700002800002018020020CC
:10192000FFFF7F0070B588B0214800F0D7F820484D
:10193000001F064600F0D2F81E4DD5E9014105E032
:10194000C0F3891202EB9050641C044404EA0100C5
:1019500005EB8000C0688207F2D000200DF108027C
:1019600004EA010305EB8303641CDB6842F82030C2
:10197000401C0228F4D3029800F00300012808D08C
:1019800002280AD10298032101EB905004EB900445
:1019900003E00298C0F3831004443046002101AAFA
:1019A000FEF7EFFC002800D06C6008B070BD0000AE
:1019B0006808002050040020002000F093FF08B1C8
:1019C000FFF722F900F02EFE11480321008801EBF9
:1019D000004010A100F024FF00F030F908B1FFF73B
:1019E00013F9002000F04CF9FFF738F908B1FFF7C0
:1019F0000BF9FFF7E7FA01F0AFF808B1FFF704F9C8
:101A000000F01EFE0028FBD101F0E8F8F8E7000026
:101A1000F4000020506F776572204D616E6167653C
:101A20006D656E74206578616D706C6500000000F6
:101A30002DE9F047C7880446181D16468946B0FBB5
:101A4000F7F1B0FBF7F207FB12009A193A44D21CE7
:101A5000B2FBF7F2DDF820A001E02468491E00295E
:101A6000FBD13D1A8846B54216D818E0BAF1000FEE
:101A700005D0211809EB08002A46091D04E020447E
:101A800009EB08012A46001DFEF7F8FC0020246837
:101A9000761BA844B74201D9354600E03D46002EEA
:101AA000E4D1BDE8F087000030B5024669B100F02E
:101AB00047FF0021084C0BE001EB410304EB8303DB
:101AC00015685B88AB4202D11160002030BD491C13
:101AD0008142F1D3052030BDB800002008B50121B6
:101AE0006A46FEF741FC009808BD70B50446002523
:101AF0002846FFF739F921686268086890420ED9D4
:101B0000401E08600178238AE26801FB0325227ADF
:101B10002168101AC0B20A79824200D208710020EE
:101B2000FFF724F9284670BD70B505460C46002025
:101B3000FFF71AF9E868298A201AB0FBF1F12A6840
:101B40001068431C13600170BDE870400020FFF76F
:101B50000DB910B530B1017A42680368891AC9B26B
:101B60001A6006E00E2010BD03681A68541C1C6041
:101B70001170491EC9B2F7D20068002101710846F0
:101B800010BDC20800F007030120895C984008409E
:101B9000704700F180400068002800D001207047A5
:101BA00008B500F18040002101600068009008BD88
:101BB00000283ED01F49204A096800BF00BF00BF6F
:101BC00000BF00BF00BF00BF00BF91422FD000BFC9
:101BD00000BF00BF00BF00BF00BF00BF00BF00BF0D
:101BE00000BF00BF00BF00BF00BF00BF00BF00BFFD
:101BF00000BF00BF00BF00BF00BF00BF00BF00BFED
:101C000000BF00BF00BF00BF00BF00BF00BF00BFDC
:101C100000BF00BF00BF00BF00BF00BF00BF00BFCC
:101C200000BF00BF00BF00BF00BF00BF00BF013842
:101C3000C3D17047B40000200024F40070B50E4CEE
:101C40000025207808B1852513E00021A16061609E
:101C50002161E1604FF0E020D0F80001012610F092
:101C6000010F03D10721002000F045F8034806606A
:101C70002670284670BD00006C0100201805004049
:101C800070B5154D0446A87838B114B161680120CB
:101C900088470020FFF768F815E00020FFF764F898
:101CA00024B10D4821461030FFF792FDE86850B985
:101CB0004FF48270FFF774FF02204107C1F804035C
:101CC000064901200860E868401CE860BDE87040F3
:101CD0000020FFF74BB800006C0100200800004016
:101CE00000F01F02012191404009800000F1E02036
:101CF000C0F8801170474907090E002806DA00F085
:101D00000F0202F1E02282F8141D03E000F1E0224C
:101D100082F8001400F01F02012191404009800068
:101D200000F1E020C0F88012C0F800117047000BED
:101D300040B2704710B5044601F02EF828B1204695
:101D4000BDE81040002100F06ABB204601F030F8E9
:101D500000280FD02046FFF7BDFB074A02EB8001A9
:101D6000D1F8103523F00103C1F81035012181406D
:101D7000C2F8081310BD0000006000402DE9F041DA
:101D80008846054601F008F8234E002828461AD058
:101D9000FFF7A0FB304490F848008009032802D0E8
:101DA00001280ED007E04FF0A040D0F81005E84021
:101DB00010F0010F05D003212846BDE8F04100F0E6
:101DC0002EBB0221F8E700F0F3FF002822D02846BE
:101DD000FFF780FB04464FF4807000EB84000F4F48
:101DE00081B207EB8400D0F8102542F00102C0F860
:101DF0001025084600F044FBB8F1000F0AD0284631
:101E0000FFF768FB56F82000002803D00120A0400F
:101E1000C7F80403BDE8F0818001002000600040A5
:101E20002DE9FC41DFF8A480044608EB04000027FC
:101E300090F930001346C0170E46401C01D0082709
:101E400041E0F27819462046FFF720FB0546401C8A
:101E500038D0B07850B14FF0A04000EB8400D0F8FB
:101E6000001721F00201C0F8001707E00021737885
:101E7000204600910A46019100F080FAF078C0B146
:101E80001348317800EB8500D0F81025114B1A402B
:101E9000C0F810254FF4F8524FF4403302EA042200
:101EA00003EA01410A43D0F810150A43C0F810258F
:101EB00009E008EB0500327810F8481F41EA82116A
:101EC000017000E004273846BDE8FC818001002055
:101ED00000600040FFE0FCFF4FF0A041D1F810157A
:101EE000C14011F0010000D00120704770B5144DC1
:101EF00095F8540008B1082070BD0020411E2A1832
:101F0000401CC0B282F830102028F8D300242046AC
:101F1000FFF7AEFA641CE4B20C2CF8D307210620BC
:101F2000FFF7E9FE4FF4BE7000F0AAFA05494FF042
:101F30000040C1F80403012085F85400002070BD62
:101F40008001002000600040034890F85400002801
:101F500000D0012070470000800100200121B1EB7A
:101F6000507F01D101207047002070472DE9F041DA
:101F700005460079164F904607EB40140E46E07E6A
:101F800010B10820BDE8F081707F20772846FEF769
:101F900001FF5FEA080060603169216003D0317F92
:101FA0002846FFF7D9FB287907EB4010007F00286F
:101FB000286801D0082100E00421C0F800150020A5
:101FC000E0752076A0750121E176A076DAE70000C1
:101FD000D80100202DE9F047054600793F4E904694
:101FE00006EB40140F46207F18B10846FFF7B6FFF6
:101FF00030B1284600F074F820B11120BDE8F08718
:102000001020FBE784F81680A7600027A7822879B4
:102010004FF0010806EB40143E46207F0028286858
:1020200025D04FF49079494600F0AFFE4FF4AC7ADA
:102030005146286800F0A9FE2868A17DA268C0F872
:102040004425C0F848152868C0F808806068F0B9D1
:102050004946286800F094FE80465146286800F002
:102060008FFE58EA0001F3D058BBA7750FE04FF47C
:102070008E7A514600F078FE2868C0F80880214624
:10208000286801F0E3F961684FF4807089B1304647
:10209000B4E75146286800F062FE10B9A08A4845AE
:1020A000F7D1A08A484505D02146286801F0CEF92D
:1020B00000E08146A08AA17D8842EAD3A08A4845F3
:1020C00001D10F26D1E75146286800F048FE0028CC
:1020D000F9D02868C0F80C80C7E70000D8010020BC
:1020E0000079044901EB4010807D002800D00120D8
:1020F00070470000D801002070B5044600791149EE
:10210000002601EB401520682A7FC0F8006568684A
:1021100088B1207901EB4010007F0028206801D0B1
:10212000094901E008498C39C0F808132068FFF715
:10213000FEFDFFF7D5FD204600F046FEEE766E6010
:1021400070BD0000D8010020100302000FB408B5D4
:102150000399002904D004AA00926A4600F00FF8FF
:1021600001B05DF814FB10B582680446002A05D062
:10217000D4E90403216898470020A06010BD2DE930
:10218000FC4791460C00804676D014F8011B39B10B
:1021900025290ED04046FFF74DF920780028F4D1CC
:1021A00098F80C00002867D04046BDE8FC47FFF7D0
:1021B000DABF0020012221782B291BD02D2902D043
:1021C000302908D102E040F0010001E040F00200B7
:1021D000641C002AEFD100252A290ED02178A1F114
:1021E00030020A2A11D205EB850201EB4205641C7C
:1021F000303DF1E740F00400EAE7D9F800100B1D8C
:10220000C9F800300968641C0D44217800232E2988
:102210000BD114F8011FA1F130020A2A05D203EBF9
:10222000830201EB4203303BF3E76C290DD06829B0
:102230000BD0692921D00BDC252918D0582931D0A1
:1022400063290ED0642915D117E014F8011FECE7BB
:10225000702969D0732932D075291BD0782909D10A
:1022600020E0D9F80000011DC9F8001001784046AF
:10227000FFF7E0F8641C90E76CE0D9F800100A1D45
:10228000C9F800200968CDE900500A224046FFF74E
:102290000FFAEFE7D9F800100A1DC9F80020096805
:1022A0000A2206E0D9F800100A1DC9F800200968C2
:1022B0001022CDE90050404601F01CFADAE7D9F8C7
:1022C000001000270A1DC9F800200E68C00705D1BC
:1022D00012E04046761C7F1CFFF7ACF831780029ED
:1022E000F7D104E0202140466D1EFFF7A3F8BD4260
:1022F000C0D9002DF6D1BDE74EB13046FEF7E2F869
:10230000074604E0202140466D1EFFF793F8BD42CA
:1023100006D9002DF6D103E04046761CFFF78AF877
:1023200031780029F8D1A5E7D9F80000011DC9F8D6
:102330000010056830214046FFF77CF878214046C0
:10234000FFF778F808200021CDE9000103461022AC
:102350002946B0E7BDE8FC8770B541EA4201DDE9F6
:1023600004564FF0A04441EA830141EA052104EB01
:10237000800041EA0641C0F8001770BD70B541EA1F
:102380004201DDE904564FF0A04441EA830141EAED
:10239000052104EB800041EA0641C0F8001770BD3A
:1023A00070B541EA4201DDE904564FF0A04441EA2C
:1023B000830141EA052104EB800041EA0641C0F8AF
:1023C000001770BD1CB5002100910B460122019140
:1023D000FFF7E6FF1CBD1CB500220B46009211461C
:1023E0000192FFF7DDFF1CBD1CB5002100910B46DB
:1023F000012201911146FFF7D3FF1CBD4FF0A0420F
:1024000002EB8000D0F8002722F44032C0F8002709
:10241000D0F8002742EA0141C0F8001770474FF09A
:10242000A04202EB8000D0F8002722F44032C0F82E
:102430000027D0F8002742EA0141C0F80017704792
:1024400001224FF0A043824011B1C3F80825704724
:10245000C3F80C257047000018B5084B6C460144C2
:102460001B68009306E000BF54F82030D3F8103505
:10247000401C08C28142F7D818BD00000C3800008B
:10248000034908B50844002101600068009008BDB8
:102490000060004002494058012800D000207047E9
:1024A0000060004030B5124B01460020D3F81044C4
:1024B000224609E0157A854205D1401C0A28F7DB3F
:1024C0004FF0FF3030BD5268002AF3D1421CF9D0E2
:1024D0000872D3F810242AB152684A60D3F8102445
:1024E000516030BD0022C3F810144A6030BD0000B6
:1024F00050040020F0B595B01C4615460E4608461F
:102500001A9F00F0EDFA182109A8FDF7D0FF0E97E9
:10251000CDE909540023082203A9304600F0FAFA55
:10252000059806900498ADF81C0000208DF8200056
:102530000399082501F00300012802D002281AD0CF
:1025400037E0C1F3C2008DF81E00C1F38000C1F373
:1025500083178C0A8DF81F00BA002B460FA930464E
:1025600000F0D8FA09A8009006AB3A460FA9204619
:1025700000F012FA1DE0C1F3C2008DF81E00C1F395
:1025800080008C0D8DF81F00082C01D2274600E03A
:1025900008272B463A460FA9304600F0BBFA3D44C7
:1025A000E41B09AB06AA39460FA800F045F9002C38
:1025B000EAD1304600F09DFA15B0F0BD7047012019
:1025C00000F068BF10B50448FFF796FDBDE8104065
:1025D000002000F05FBF00005800002008B5034A4B
:1025E00000924023024AFFF785FF08BD612F0000DB
:1025F000500300200A4A012902EBC00007D002293B
:1026000007D0032907D0042907D0002070470220F3
:102610007047042070470079704740797047000088
:10262000D039000010B5FFF7CAFF04210348FFF7B7
:1026300039FF02490120487210BD000060000020EF
:102640002DE9FE4FFEF706FF10B10020BDE8FE8F1A
:1026500071480021C0F81814BFF34F8FD0E901452D
:1026600004EA050100EB81014FF000090AE000BF18
:10267000C1F3891202EB9151641C0C4404EA050178
:1026800000EB8101C9688A07F2D000216A468046C2
:1026900004EA050008EB8000641CC06842F82100D1
:1026A000491C43460229F3D3009800F00301022994
:1026B00005D001294ED0C04380077DD0A7E0810D11
:1026C00050228A46B2EB905F00D850210E4666F346
:1026D0009F5000900831514800F0B9F907006CD0C4
:1026E00000F0FEF94B4608226946384600F018FA19
:1026F00004EA0501681A8000001D09F1080B8642F2
:1027000021D9454D0C3530B1C2B208EB8101301AE8
:1027100091460C3104E02946F2B200259146284644
:10272000C6B25B46384600F0FBF90BEB09032DB14E
:10273000324629464FEA070000F0F2F90AF1030099
:1027400004EB90043BE008EB81015B4632463846DF
:102750000C31F1E7C0F38311062900D3062161F3A0
:1027600089100090C0F38310801C81002B4800F07A
:102770006EF907004BD000F0B3F94B4608226946CA
:10278000384600F0CDF909F1080900260EE000BF37
:1027900004EA050008EB80014B46042238460C3160
:1027A000641C00F0BDF909F10409761C0098C0F31F
:1027B0008310B042ECD801E00BE028E03FB3D8F83A
:1027C0001054D8F81804464690B1384600F091F9F4
:1027D0001DE0D3F8180400283FF438AF17E0687AFA
:1027E000012804D12A6828463946126890476D6846
:1027F000002DF4D1384600F07CF90020FEF7B4FA41
:10280000D6F8180400B974600020FEF7AFFAFEF79E
:1028100021FE80F0010019E7500400207C38000000
:1028200000231A4600F0E2BC08B5012300926A4674
:1028300000F0DCFC08BD00002DE9F0470E468046A4
:102840001C46924608293ED894F80C90002020732C
:102850001946104600F012FB0025B54206D218F8C2
:1028600005201AA12046FFF771FC03E019A12046BC
:10287000FFF76CFC6D1C082DEFD317A12046FFF766
:1028800065FC0025B54210D218F80570FDF7F2FD81
:102890000068C05D10F03E0F01D03A4600E02E22E5
:1028A0000EA12046FFF752FC03E00DA12046FFF7E2
:1028B0004DFC6D1C082DE5D301222146504600F049
:1028C000BFFA84F80C90BDE8F08700002025303274
:1028D00078000000202020007C000000256300001C
:1028E00020000000114810B5FF2181600021016027
:1028F0004160C0F81814C0F8141480F81C140C4877
:1029000000F0F5F800280FD10A480B490B4B401A8C
:10291000C108002005E000BF00EB400223F82200C0
:10292000401C8842F8D3002010BD00005004002055
:102930007C380000003A0000D0390000B8000020C8
:1029400002480349401AC00870470000003A0000DE
:10295000D039000013B56846FFF7A6F808B100208B
:102960001CBD0248009950F831001CBDD039000050
:1029700070B508480125D0F8104480F81C5405E0D3
:10298000657221682046496888476468002CF7D141
:1029900070BD0000500400202DE9FF4781460C9DCA
:1029A00000200C462F7B2873984616462946184669
:1029B00000F064FA072E42D2DFE806F004090F1691
:1029C0001F2A360049462846FFF7C0FB37E0494634
:1029D00028462268FFF7BAFB31E0D4E900234946D4
:1029E0002846FFF7B3FB2AE0A0680090D4E9002353
:1029F00049462846FFF7AAFB21E0D4E90201CDE9C8
:102A00000001D4E9002349462846FFF79FFB16E062
:102A100004F1080007C88DE80700D4E900234946FF
:102A20002846FFF793FB0AE004F108000FC88DE881
:102A30000F00D4E9002349462846FFF787FB002210
:102A40002946404600F0FCF92F73BDE8FF872DE9C9
:102A5000F041058A80462D1F4819C01CB0FBF5F0D7
:102A6000C6B24046FFF741F8041E19D0002020717D
:102A700001206071E58000272546761EC4F800809D
:102A80000BE04046FFF731F860B16179491C617194
:102A9000286005467F1CC0F80080B742F1D320466D
:102AA000BDE8F081204600F002F80020F8E72DE9AB
:102AB000F041457901466B1E002201E00968521C75
:102AC0009A42FBD30F680146002605E038460C68A1
:102AD000FFF72AF82146761CAE42F7D3BDE8F08115
:102AE00008B501216A46001DFDF7C9FB08BDFFF7C7
:102AF00030B838B50446001D01216A46FDF7CCFB0D
:102B0000009810F0FF0F04D12046BDE83840FFF7D1
:102B1000CEBF38BD38B501240094FEF789FF38BD1B
:102B200038B500240094FEF783FF38BD064810B581
:102B30000088042101EB004004A1FFF771FE054964
:102B40000020888010BD0000E80000204665656414
:102B5000000000004000002070B5184803210088E4
:102B600001EB004016A1FFF75BFE174D002405F1B5
:102B700008006C700460BFF35F8F1449144800F0C4
:102B8000C7F81448016841F010010160AC80EC60A6
:102B90000E482C61AC70104A0121001FFEF74AF864
:102BA000002809D109480022001F4FF400410068A5
:102BB000BDE87040FEF77CB870BD0000E800002062
:102BC000496E697400000000400000204438000095
:102BD0004403002010ED00E0A12C000010B50020FF
:102BE000FEF7C2F8F1EE100A20F09F00E1EE100AA5
:102BF000BFF35F8F0E494020C1F880020020FEF72E
:102C0000B5F80020FEF7B0F8FEF70EF8044620BF36
:102C100040BF20BFFEF708F82146FEF700F805493F
:102C2000CA681044C860BDE810400020FEF79EB896
:102C300004E000E040000020F8B5044611480121FE
:102C40006A46FDF737FBBFF35F8F002500280AD1E6
:102C500001210C4E042C09D0A6F1080042781AB1CB
:102C6000BFF35F8F3560F8BD0470417006480321E3
:102C70002246008801EB004004A1FFF7D5FD00F0DB
:102C80000FFAEDE748000020E80000205368757453
:102C9000646F776E207265717565737420256400AA
:102CA00070B5FDF7C1FF144C06462169FDF7B7FF6B
:102CB000E1686422411A5143B1FBF0F0C5B20F48FC
:102CC00003212A46008801EB00400DA1FFF7ACFD6F
:102CD000A078A84200D2A5700020C4E90306A0880D
:102CE000032802D2401CA08070BD60780028FBD170
:102CF000BDE87040FFF7A0BF40000020E8000020C2
:102D00004350552055736167653A20257525250088
:102D1000016009684160AFF3008010B5D0E900217F
:102D20005368994201D1002104E0D1E90034A34263
:102D300002D01946816010BD08314160F0E781681A
:102D400000290BD0026892680A44826041684B688F
:102D50009A4203D108314160FFF7DFBF7047405806
:102D6000002800D00120704708B50022425040588A
:102D7000009008BDD0F80403084000D0012070473F
:102D80004058002800D00120704708B5002242506A
:102D90004058009008BD00000449084490F93000F4
:102DA000082801DB012070470020704780010020C7
:102DB0000449084490F93000082801D201207047E6
:102DC000002070478001002070B5034600791B4940
:102DD00001EB40101968027F4FF0FF30002AD1F854
:102DE0000C25D1F81465D1F80855D1F8104504D058
:102DF000C1F80C05C1F8140503E0C1F81405C1F8C9
:102E00000C051968C1F80805C1F81005501C02D05E
:102E10001046FFF7D7FA701C02D03046FFF7D2FAFF
:102E2000601C02D02046FFF7CDFA681C04D028466B
:102E3000BDE87040FFF7C6BA70BD0000D8010020A1
:102E400010B50C46C17949B11AB109A12046FFF766
:102E50007DF92046BDE81040FFF785B9007A0028CB
:102E6000F3D0044804A102682046FFF76FF9ECE7AD
:102E70000D0A0000900000202573000070B5044684
:102E8000C0790D4600281CD1207A50B1A179A088C4
:102E9000FFF7B0FB0B4951F820200BA12846FFF7A4
:102EA00055F9A0880021FFF755FD03460549A07993
:102EB000143951F820202846BDE8704003A1FFF7DF
:102EC00045B970BD90000020257300003C25733E7D
:102ED0002025733A2000000070B5012670044FF0E1
:102EE000E0210025C1F88001084C4010C4F84803D7
:102EF000C4F8080366602F20FEF75AFEA660044C53
:102F00002F20A560FEF754FEA57070BD0010014093
:102F10002800002070B50546C87D0C4600284FF4F7
:102F2000847128460AD0FFF71FFFD5F81805627E86
:102F3000E1688854607E401C607670BDFFF714FF26
:102F4000D5F8180570BD1FB501238DF800308DF838
:102F500008100192D0E90012684690471FBD00009A
:102F600010B5084C0020D2B22070201DFFF732F8B7
:102F700008B1FDF749FE6078002802D021780029C9
:102F8000FAD010BD540000201F4910B54A78012323
:102F900062B11E490322098802EB0142A8B101284F
:102FA00007D002281DD0032826D121E08B700020F5
:102FB00010BD104616A1FFF733FCFEF701F80028FC
:102FC0001AD000BFFDF720FE16E0104618A1FFF74B
:102FD00027FCFDF7F5FF0120FEF7F4F9FEF7DEF917
:102FE0000AE003EB01401AA1FFF71AFC9020E9E781
:102FF000104623A1FFF714FCFDF7AAFE08B1FDF768
:1030000003FE012010BD000000000020F40000209D
:103010004E52465F5057525F4D474D545F45565490
:103020005F505245504152455F5359534F464600F9
:103030004E52465F5057525F4D474D545F45565470
:103040005F505245504152455F57414B45555000E6
:10305000456E746572696E67204446552069732019
:103060006E6F7420737570706F727465642062790E
:103070002074686973206578616D706C652E00003E
:103080004E52465F5057525F4D474D545F45565420
:103090005F505245504152455F52455345540000E0
:1030A0002DE9F041284C294F032520883A7805EB7B
:1030B000004027A1FFF7B8FBDFF8B0800EE03168D1
:1030C0003878884700282088326805EB004029D0EE
:1030D00027A1FFF7A9FB2548FFF731FED8F80860C4
:1030E000002EECD12088BA7805EB004028A1FFF72C
:1030F0009BFB20882CA105EB0040FFF791FBFFF71D
:1031000037FC00BFFFF79CFA0028FBD13878032872
:103110000DD002280BD0294901200860BFF34F8F42
:1031200020BFFDE7BDE8F04125A1FFF77DBBBFF360
:103130004F8F2C4801682C4A01F4E0611143016073
:10314000BFF34F8F00BFFDE7E800002040000020E4
:1031500053687574646F776E2073746172746564FC
:103160002E2054797065202564000000440300205F
:103170005379734F66662068616E646C65722030A7
:103180007825303858203D3E207265616479000012
:103190004D6178696D756D20435055207573616779
:1031A000653A20257525250053687574646F776E20
:1031B00020636F6D706C6574652E00000005004023
:1031C0005379734F66662068616E646C6572203057
:1031D0007825303858203D3E20626C6F636B696EF5
:1031E000670000000CED00E00400FA052DE9F8434B
:1031F000214C8846054691461F4669461846A668F2
:10320000FEF7E8F870B30098811C00220AE000BFC6
:1032100001EA060C59F8223004EB8C0C491C521CB4
:10322000CCF80C30BA42F3D30246401C304004EBD9
:1032300080002B0CC36002EA060004EB8002E80663
:1032400052F80C0F02D540F0040001E020F0040019
:1032500065F3C50067F3891068F39F2020F0030031
:10326000401C106094F81C0402E000BFFFF7E8F96E
:103270000028FBD1BDE8F883500400202DE9F84F69
:103280001D4C00256846D4E901A6FEF7C5F90027C4
:1032900038B30023009A61681CE0D1F800C00846EA
:1032A000944503D9ACEB02020A6015E0A2EB0C02D4
:1032B00063440760D0F80CC0C1698146BCF1000FBF
:1032C00008D006EB030828F07F48C0E9018CC9F854
:1032D0001C5005460029E0D128466160FEF7A6FA99
:1032E00003E02846FEF7A2FA10B15046FEF70EF9A9
:1032F000E770BDE8F88F0000280000200D4B10B5E6
:10330000596831B102680C68A24204D8A21A0A6056
:10331000C161586010BD0B4603E00B46C969121B22
:1033200021B10C689442F8D3A41A0C600260C16108
:10333000D86110BD280000202DE9F041144E7768B7
:103340003D462C4603E0844204D02546E469002C27
:10335000F9D11BE0D4B1A5420BD1F869706040B936
:103360000C49012088600021B160F0702F20FEF729
:103370001FFC2168E069E86110B102681144016036
:103380007068874202D00120BDE8F0810020FBE791
:103390002800002000100140F8B5064600240D4624
:1033A0002046FDF7E1FC684600F0FEF968B10570C3
:1033B000084946609DF8000048700020FDF7D6FCE3
:1033C0001420FDF787F92046F8BD04240020FDF7FE
:1033D000CDFCF8E7180200202DE9F041194D6C688A
:1033E000002C2CD0184800270068A968B846401A5D
:1033F00020F07F462068B0420CD82146361A074498
:10340000E469087C20B181F810808869496988479F
:10341000002CEFD129786878814206D1401CC0B2D7
:103420006870022801D185F80180064869780C305F
:1034300040F82170BDE8F0411420FDF74BB9BDE81C
:10344000F0810000280000200415014070B50C46F2
:1034500005464FF48E71FFF787FCA18AA068415C96
:10346000A08A401CA082C5F81C1570BD1FB50022A3
:103470008DF800208DF80810816801918275D0E9DF
:103480000012684690471FBD01490120087070472F
:103490005400002010B588B0044620220E4968462A
:1034A000FCF7ECFF142000904FF0FF3001900290E9
:1034B00003904FF0EB7006900CB1084A00E0002238
:1034C00069460748FEF752FD08B1FDF79DFB044829
:1034D000001F447008B010BD5C3800008934000043
:1034E000580000202DE9FF470C4605464FF40071B7
:1034F000FFF740FC01274FF40178002618B34FF482
:10350000927949462846FFF72AFCE0B14946284609
:10351000FFF72AFCC5F80883A07E00B96F6002207F
:103520008DF80000D5F88004C5F880040390E07D94
:103530008DF80800E0680190E6752676D4E900125F
:103540006846904727E004212846FFF713FC10B394
:103550004FF484712846FFF702FCE0B1214628466B
:10356000FFF7D8FCE07D617E884214D1207E38B11F
:10357000617EE268E0752069E0602676667607E0A5
:10358000A07E00B96F60C5F80883E675617EE268C9
:103590002046FFF7D8FC4FF48E7841462846FFF7C7
:1035A000DEFB88B1A08AA17D884204D2214628464C
:1035B000FFF74CFF08E041462846FFF7D5FBA17D09
:1035C00011B12046FFF752FF4FF4A278414628463A
:1035D000FFF7C5FB002812D041462846FFF7C4FB81
:1035E000A07E00B12F60E07D002808D0E675617EE6
:1035F000E26804B02046BDE8F047FFF7A4BCBDE890
:10360000FF872DE9FF410C464FF492770546394676
:10361000FFF7B6FB0026C0B139462846FFF7B5FBD9
:1036200002208DF80000D5F88004C5F880040390CE
:10363000D5F83C058DF80800E0680190E67526761F
:10364000D4E900126846904724E04FF48877394661
:103650002846FFF795FBE8B139462846FFF795FB6A
:10366000D5F83C05C1B2E07D884213D1207E60B11F
:10367000E268D5F8000220F02000C5F80002207EA4
:10368000E0752069E060267601E0E675E268204694
:10369000FFF759FC4FF4A27739462846FFF770FB35
:1036A00068B139462846FFF770FBE07D38B1E67512
:1036B000D5F83C05E268C1B22046FFF744FC4FF460
:1036C000907631462846FFF75BFB00280FD0314645
:1036D0002846FFF75AFBA07D002808D0D5F84C05F6
:1036E00004B0C1B22046BDE8F041FFF7BFBEBDE85F
:1036F000FF8100002DE9F05F8346DDE90A4A994623
:1037000090460D460846012703E000BFB0FBF8F0E5
:103710007F1C4045FAD2B94500D94F465FEACA70CE
:1037200012D18CB15FEA8A7002D5B9F1000F01D0D5
:10373000202607E0302605E031465846641EFDF796
:1037400079FE0CB1A742F7D35FF00106B9F1010F82
:1037500002D9A9F1010903E0B5FBF6F0404502D317
:1037600006FB08F6F2E7DFF83C9000BFB5FBF6F089
:1037700000FB165519F800105846FDF75BFEB6FB26
:10378000F8F6002EF2D15FEACA7009D0002C07D0FB
:10379000A74205D220215846641EFDF74BFEF5E7EF
:1037A000BDE8F09F183800000A494A788B78521C0F
:1037B000D2B2934200D100220B78934201D1002073
:1037C00070470270487800EB400001EBC000001D1C
:1037D0007047000018020020111213140D0E0F1074
:1037E00000010020200100204C0100200D000300FA
:1037F000310F00000E000300310F00000F00030026
:10380000310F000010000300310F000000000050D5
:10381000F8010020030000003031323334353637F0
:103820003839414243444546003A0000043A00001A
:103830000000000000000000000000000000000088
:103840002403002028380000403800000400000055
:10385000DD250000C5250000BD250000FFFFFFFF9E
:10386000FFFFFFFFFFFFFFFFFFFFFFFF0000000064
:10387000000000000000D6010701000074000020D5
:103880006C0000207400002090030020180000004D
:103890000040404040404040404041414141414063
:1038A0004040404040404040404040404040404018
:1038B00040050202020202020202020202020202A7
:1038C00002202020202020202020200202020202AC
:1038D0000202909090909090101010101010101004
:1038E0001010101010101010101010100202020210
:1038F0000202888888888888080808080808080854
:10390000080808080808080808080808020202024F
:1039100040000000913800007761726E696E6700A8
:1039200064656275670000001B5B313B33306D00DE
:103930001B5B306D000000001B5B313B33316D00C1
:103940001B5B313B33326D001B5B313B33336D000E
:103950001B5B313B33346D001B5B313B33356D00FA
:103960001B5B313B33366D001B5B313B33376D00E6
:10397000696E666F000000006572726F7200000071
:10398000636C6F636B0000006770696F74650000A3
:10399000756172740000000062616C6C6F630000FE
:1039A0007077725F6D676D74000000006170700069
:1039B000043A00000000002000010000A40A0000FA
:1039C000043B00000001002070270000B40A000042
:1039D000803900000000000088390000000000006D
:1039E000903900000000000098390000000000003D
:1039F000A039000000000400AC3900000000040001
:103A0000892F0000000000000000000000000000FE
:103A100000000000000000000000000000000000A6
:103A20000000000000000000000000000000000096
:103A30000000000000000000000000000000000086
:103A40000000000000000000000000000000000076
:103A50000000000000000000000000000020004006
:103A600000000000503800000000000000000000CE
:103A70000000000000000000000000000000000046
:103A8000000000007839000018390000703900008B
:103A90002039000030390000283900003839000092
:103AA0004039000048390000503900005839000002
:103AB00060390000683900000090D0030000000069
:103AC00000000000000000000000000000000000F6
:103AD00000000000000000000000000000000000E6
:103AE00000000000000000000000000000000000D6
:103AF00000000000000000000000000000000000C6
:043B000000000000C1
:0400000500000201F4
:00000001FF
