:020000040001F9
:1020000040350020852301008D23010019220100A5
:10201000912301009323010095230100000000009B
:1020200000000000000000000000000097230100F5
:1020300099230100000000009B2301009D23010063
:102040009F2301009F230100F53B01001939010086
:102050009F2301009F230100A52A01004D370100A5
:10206000DD3B01009F2301009F2301009F2301000E
:102070009F2301009F2301009F2301009F23010054
:102080009F230100193701009F2301009F230100B6
:102090002D390100353901009F2301009F230100E4
:1020A0009F2301009F2301009F2301009F23010024
:1020B0009F2301009F23010000000000000000009A
:1020C0009F2301009F2301009F2301009F23010004
:1020D0009F2301009F2301009F23010000000000B7
:1020E00000000000000000000000000000000000F0
:1020F00000000000000000000000000000000000E0
:1021000000000000000000000000000000000000CF
:1021100000000000000000000000000000000000BF
:1021200000000000000000000000000000000000AF
:10213000000000000000000000000000000000009F
:10214000000000000000000000000000000000008F
:10215000000000000000000000000000000000007F
:10216000000000000000000000000000000000006F
:10217000000000000000000000000000000000005F
:10218000000000000000000000000000000000004F
:10219000000000000000000000000000000000003F
:1021A000000000000000000000000000000000002F
:1021B000000000000000000000000000000000001F
:1021C000000000000000000000000000000000000F
:1021D00000000000000000000000000000000000FF
:1021E00000000000000000000000000000000000EF
:1021F00000000000000000000000000000000000DF
:10220000DFF810D000F010FC00480047055701002F
:10221000AFF3008040350020094B1EF0040F1CBFB7
:10222000EFF309801847EFF308800649064A884211
:1022300001D8904202D88D464FF0000018470000A8
:10224000DD2C0100403500204015002030B404464C
:1022500054E8000F0D4644E80053002BF8D11560F8
:1022600030BC704730B4044654E8000F40EA010522
:1022700044E80053002BF7D1156030BC704730B4F0
:10228000044654E8000F00EA010544E80053002B1F
:10229000F7D1156030BC704730B4044654E8000FE5
:1022A00080EA010544E80053002BF7D1156030BCEB
:1022B000704730B4044654E8000F00EB010544E8D1
:1022C0000053002BF7D1156030BC704730B4044682
:1022D00054E8000FA0EB010544E80053002BF7D1B0
:1022E000156030BC7047000030B4044654E8000F5D
:1022F0000D4644E80053002BF8D1156030BC704700
:1023000030B4044654E8000F40EA010544E80053A5
:10231000002BF7D1156030BC704730B4044654E848
:10232000000F00EA010544E80053002BF7D11560C7
:1023300030BC704730B4044654E8000F80EA010511
:1023400044E80053002BF7D1156030BC704730B41F
:10235000044654E8000F00EB010544E80053002B4D
:10236000F7D1156030BC704730B4044654E8000F14
:10237000A0EB010544E80053002BF7D1156030BCF9
:10238000704700000648804706480047FEE7FEE722
:10239000FEE7FEE7FEE7FEE7FEE7FEE7FEE7FEE715
:1023A00059390100012201002DE9F05F05460020A6
:1023B00092469B4688460646814640241BE02846B6
:1023C00041464746224600F027FA53465A46C01A6D
:1023D000914110D311461846224600F00EFA2D1AEC
:1023E00067EB01084F4622460120002100F005FA64
:1023F00017EB00094E41201EA4F10104DFDC484622
:1024000031462A464346BDE8F09F00000048704729
:10241000B493010040EA01039B0703D009E008C917
:10242000121F08C0042AFAD203E011F8013B00F899
:10243000013B521EF9D27047D2B201E000F8012BE5
:10244000491EFBD270470022F6E710B513460A4634
:1024500004461946FFF7F0FF204610BD421C10F855
:10246000011B0029FBD1801A70472DE9FE4F8046E1
:1024700081EA0300C00F0C46009021F0004123F0D8
:102480000045B8EB0200A94105D2404621469046DE
:102490001C460B46024623F00040104347D0270D50
:1024A000C7F30A00C3F30A510290401A0190402872
:1024B0006BDAC3F3130040F4801B0098924620B1FE
:1024C0000023D2EB030A63EB0B0B01985946C0F1D2
:1024D0004002504600F091F906460D4650465946D6
:1024E000019A00F0A9F910EB08006141002487EA85
:1024F000115284EAE7731A4340D0009A62B3019AFA
:10250000012A4FEA075215DC001B61EB02014FF074
:10251000004202EA0752CDE90042001C41F5801159
:1025200032462B4600F0E0F903B0BDE8F08F40469C
:102530002146F9E7001B61EB0201001C41F5801305
:1025400000185B412018A2F5001747EB030140EA91
:10255000D570B6196D4111E06D084FEA360645EAAF
:10256000C0754FEA0752001B61EB0201001C41F5E8
:10257000801149084FEA30000019514132462B467C
:1025800003B0BDE8F04F00F0A0B900980122400070
:102590000023D0EB020263EBE073009821464FEA80
:1025A000E074B8EB000061EB0401E9E783F000435D
:1025B0005BE781F0004158E72DE9FE4F81EA030413
:1025C00004F0004421F0004100944FF0000B23F090
:1025D000004350EA01045ED052EA03045BD0C3F327
:1025E0000A54C1F30A552C44A4F2F3340194A0FB1D
:1025F0000254C1F3130141F48011C3F3130343F4F4
:10260000801301FB024400FB034E840A970A44EA4C
:10261000815447EA8357A4FB076802958D0A05FB9E
:1026200007854FEA932C04FB0C542705029D4FEAC3
:10263000065847EA1637B5EB08056EEB070C870E10
:10264000920E47EA811742EA8312A7FB0201B6EB1A
:102650000B0164EB00042B0D43EA0C335E1844EBD2
:102660001C50DA465146E7FB0201C5F313044FEA5A
:102670000B3343EA14534FEA0432019C43EA060346
:10268000A4F10C040294009CCDE900B400F02CF9F4
:1026900003B0BDE8F08F00200146F9E72DE9F04DC9
:1026A00081EA030404F0004B21F0004514464FF08A
:1026B000000A23F0004150EA050220D054EA01024A
:1026C0001DD0C5F30A570246C5F31303C1F3130027
:1026D000C1F30A5640F4801543F48013A7EB0608B3
:1026E000101BD64608F2FD3873EB050002D308F143
:1026F000010801E092185B41B8F1000F03DA0020F5
:102700000146BDE8F08D00204FF480110646844656
:102710000EE0171B73EB050705D3121B63EB0503D4
:1027200006434CEA010C49084FEA300092185B411D
:1027300050EA0107EDD152EA030012D082EA040008
:1027400083EA0501084305D0101BAB4106D20122E4
:10275000002306E000224FF0004302E06FF0010288
:1027600053101AEB06004CEB085110EB0A0041EB3A
:102770000B01BDE8F04D00F0A8B80EB5C10F80EA1E
:10278000E0700844CA07002140F233438DE80E0090
:102790000A460B4600F0A8F803B000BD00F0004266
:1027A00030F000400AD0C10D01F56071C0F3160091
:1027B00042EA0151C2084007114370470020014618
:1027C000704701F0004330B421F0004150EA0102AB
:1027D00006D00A0DA2F56072C1F31301002A02DCD3
:1027E00030BC00207047440F44EAC104C100E01827
:1027F00030BC00EBC25000F031B8202A04DB203A94
:1028000000FA02F1002070479140C2F1200320FA43
:1028100003F3194390407047202A04DB203A21FA41
:1028200002F00021704721FA02F3D040C2F12002E9
:102830009140084319467047202A06DBCB17203AFF
:1028400041FA02F043EAE07306E041FA02F3D040B5
:10285000C2F1200291400843194670470029A8BFE1
:102860007047401C490008BF20F00100704710B4B9
:10287000B0FA80FC00FA0CF050EA010404BF10BC6E
:10288000704749B1CCF1200421FA04F411FA0CF19B
:1028900018BF012121430843A3EB0C01CB1D4FEAD4
:1028A00000614FEA102042BF002010BC704700EBCF
:1028B000C35010440029A4BF10BC7047401C4900FD
:1028C00008BF20F0010010BC704710B5141E73F152
:1028D000000408DA401C41F1000192185B411A43E0
:1028E00001D120F0010010BD2DE9F04D92469B462C
:1028F00011B1B1FA81F202E0B0FA80F220329046D2
:10290000FFF77BFF04460F4640EA0A0041EA0B014D
:1029100053465A46084313D0114653EA010019D0D2
:10292000C8F140025046FFF777FF05460E46504675
:1029300059464246FFF761FF084305D0012004E0F5
:1029400020463946BDE8F08D0020054346EAE07692
:102950002C4337430A986305E40AA0EB08000022E1
:10296000FD0A44EA47540A3002D500200146E9E74F
:10297000010510196941DDE9084500196941BDE803
:10298000F04DA2E72DE9F04D00231A461B1A8A41AB
:1029900003DB00200146BDE8F08DC1F30A52C1F30C
:1029A000130141F480154FF0000BD10702D100183C
:1029B0006D41521E0027044640F2FF11384601EBDC
:1029C000620A3E468046024600204FF48011FFF71F
:1029D00023FFC2197141BB1846EB0100B4EB030C95
:1029E00075EB000C04D3E41A65EB000517460E46A0
:1029F000241908F101006D4180463428E3DDF919FE
:102A000046EB0600091BA84103D24FF0FF321346E4
:102A100001E0002213461BEB070046EB0A51BDE81C
:102A2000F04DFFF752BF0000064C074D06E0E0688E
:102A300040F0010394E8070098471034AC42F6D305
:102A4000FFF7E2FB8C940100AC94010070B58C1888
:102A500010F8015B15F0070301D110F8013B2A11B2
:102A600006D110F8012B03E010F8016B01F8016B9F
:102A70005B1EF9D12B0705D40023521E0DD401F89B
:102A8000013BFAE710F8013BCB1A921C03E013F864
:102A9000015B01F8015B521EF9D5A142D8D3002099
:102AA00070BD00002DE9F04F89B04FF00008002004
:102AB00008904FF4807007900126002413E00798D7
:102AC00004F0A6FA48B100BF81480068304020B148
:102AD000079804F08FFA48EA060876000798001D68
:102AE00080B20790641C082CE9D34FF4BE7004F048
:102AF0008FFA50B14FF4BE7004F07CFA48F00048F1
:102B000008AA0121002004F05BFA08F0FF0000B3DE
:102B1000012600241BE006EA0800B0B100BF6D48A2
:102B200050F82400C0F30420074600BF694850F85D
:102B30002400C0F301408146204602F05DF80546BE
:102B400015B149463846A84700BF7600641C082CDA
:102B5000E1D308F0004000287ED0002006900590C8
:102B6000002505E04FF0FF3004A941F825006D1C59
:102B7000002DF7D000BF0020069000246FE05648DB
:102B8000005D0390039820F0C00753480057401C95
:102B9000002863D004A9384603F07EF900285DD0F0
:102BA00003984FEA901A384602F06EF8814602F018
:102BB00023F80290029810B9BAF1030F4BD1BAF181
:102BC000030F11D1394605A80246CB0801F00701D1
:102BD00012F803C04FF0010E0EFA01FE4CEA0E0C83
:102BE00002F803C000BF00BF00BF00BF4FF0A0410C
:102BF000084600F5E06151F82710C1F3014900BF14
:102C000008A9384603F048F98346BBF1000F02D00B
:102C1000B9F1020F05D0BBF1000F1BD1B9F1030FC1
:102C200018D1BAF1030F0FD1B9F1020F01D103206E
:102C300000E0022001903846019904F03DF9069821
:102C4000401CC0B2069000BF029818B151463846E9
:102C5000029A904700BF00E036E000BF641C042CDD
:102C60008DD3069858B3012703AA0121002004F050
:102C7000A7F900250AE003A850F8250008A951F893
:102C80002510884201D0002702E06D1C002DF2D0F3
:102C900000BF17B10020069010E000250CE003A84B
:102CA00050F8250008A941F8250005A850F825008E
:102CB00004A941F825006D1C002DF0D000BF069836
:102CC00000287FF458AF00BF09B0BDE8F08F0000C6
:102CD0000463004010650040CC0D002010B5044690
:102CE00000BF04F0BDFC00BF00BF04F097FA00284D
:102CF000FBD100BF00BF204600F002F810BD00006D
:102D000000BF00BF00BF00BF00BFBFF34F8F00BFB9
:102D100000BF00BF0948006800F4E06008490843AC
:102D2000001D0649086000BF00BF00BFBFF34F8F02
:102D300000BF00BF00BF00BF00BFFDE70CED00E01B
:102D40000000FA0510B5022001F053FA0221142008
:102D500003F0F0FB04460CB1204610BD0020FCE758
:102D600010B5022001F045FA0221012003F0E2FB38
:102D700004460CB1204610BD0020FCE710B5002031
:102D800001F037FA0021072003F0D4FB04460CB110
:102D9000204610BD0020FCE710B5002001F029FA04
:102DA0008021062003F0C6FB04460CB1204610BD6E
:102DB0000020FCE738B50121322003F091FB01220D
:102DC0006946322003F0DCFA0446204638BD10B5CF
:102DD000002001F00EFA0121062003F0ABFB0446AF
:102DE0000CB1204610BD0020FCE72DE9F04104465F
:102DF000022001F0FEF9C4F303263146102003F04F
:102E000099FB054604F00F073946112003F092FBA9
:102E1000054615B12846BDE8F0810020FBE770B5F6
:102E20000446022001F0E5F905462146002003F0A2
:102E300081FB0DB1284670BD0020FCE710B52DEDDB
:102E40000A0B2DED108BA4B0F0EE60FAF0EE43CA41
:102E5000F0EE63BAB0EE44CA9FEDFE0A8DED220A91
:102E60009FEDFD0A10EE104A2046FFF797FC9FEDFC
:102E7000FB0BCDE9020100F0CFFE8DED000B9DEDC7
:102E8000020B53EC102B9DED000B51EC100BFFF7D8
:102E900093FBCDE904019DED040B51EC100BFFF702
:102EA00090FC2190EF4890ED000AB0EE40BA90ED12
:102EB000010AB0EE40AA90ED020AB0EE408A90ED11
:102EC000030AF0EE408AB0EE000A2BEE000A8DED08
:102ED000100AB0EE000A2AEE000A8DED0F0AB0EEDD
:102EE000000A28EE000A8DED0E0AB0EE000A28EE68
:102EF000800A8DED0D0AB0EE000A2BEE000A20EEDE
:102F0000080A8DED0C0AB0EE000A28EE000A20EE49
:102F1000280A8DED0B0A2BEE0B0A8DED0A0A2BEE1B
:102F20000A0AF0EE40EA2BEE080AB0EE40FA2BEE69
:102F3000280A8DED090A2AEE0A0AB0EE40EA2AEEC6
:102F4000080A8DED080A2AEE280AF0EE40DA28EE8B
:102F5000080AB0EE40DA28EE280A8DED070A28EEBE
:102F6000A80A8DED060ADDED340A60EEA00A4FEEE8
:102F7000AF0A9DED361A41EE010AB0EE600A00F08C
:102F800088FEF0EE40AAF5EEC0AAF1EE10FA04D1E8
:102F900024B0BDEC108B0AB010BDB7EE000AC0EE35
:102FA0002A0AF0EE60AA9DED340A20EE2A0A8DED81
:102FB000340A2FEEAA0AF0EE40FA9DED360A20EE12
:102FC0002A0A8DED360A6CEEAC0A4BEEAB0A4CEEDB
:102FD0000C0AB0EE600A00F05CFEF0EE40AAF5EEDE
:102FE000C0AAF1EE10FA00D1D2E7B7EE000AC0EEA7
:102FF0002A0AF0EE60AA2CEEAA0AF0EE40CA2BEEE6
:10300000AA0AF0EE40BA2CEE2A0AB0EE40CAB0EEA0
:10301000000A2BEE000A20EE2C0A8DED160AB0EE07
:10302000000A2BEE000A20EE2B0A8DED150AB0EEF9
:10303000000A2BEE000A20EE0C0A8DED140AB0EE09
:10304000000A2AEE000A20EE2C0A8DED130A9DEDEF
:103050000A0A2CEE800ADDED150A00EEE80ADDED25
:10306000140A00EE880A0CEE8E0ADDED0F0A60EEFF
:10307000AB0A00EE880ADDED0F0A60EE8C0A00EE66
:10308000A80A0CEECD0ADDED060A0CEEE00A8DED85
:10309000200A9DED160A20EE280ADDED0A0A0BEE45
:1030A000A00ADDED140A00EECA0ADDED130A00EEF7
:1030B000880A0BEECE0A0BEE8D0ADDED0E0A60EEED
:1030C0008C0A00EEA80ADDED060A0BEEE00A8DED93
:1030D0001F0A9DED200A60EE000A9DED1F0A40EEDA
:1030E000000A10EE901A0846FFF758FBCDE90201DE
:1030F0009DED020B00F090FD8DED040B9DED040B9A
:1031000051EC100BFFF75DFB09EE100A9DED160A5E
:10311000B1EE400A60EE080A9DED150A40EE0A0A7B
:103120009DED0A0A4CEE000A9DED130A40EE280AB6
:103130004CEE4E0A9DED0E0A20EE2B0A40EE280AB8
:103140004CEE4D0A9DED060AF0EE609A4CEE009AA8
:10315000B0EE000A29EE000A8DED120AB0EE000A68
:1031600029EE800A8DED110A9DED0C0AF0EE000AA1
:1031700010EEAD0ADDED340A70EE600A9DED0E0A28
:10318000B1EE400A60EE800A9DED0B0AB0EE001A27
:1031900001EE2E0A70EE6F1A9DED0F1AB0EE600A66
:1031A00001EE210AF6EE000A30EECD1ADDED060A38
:1031B00071EE600A60EE890A3DEECF1A49EE810A8F
:1031C00070EEEC0A29EE881A01EE600AF1EE490A67
:1031D00060EEA80A49EE8A0A9DED081ADDED091A8B
:1031E00031EE611A21EE091ADDED071A7EEEA11A01
:1031F00009EEA11A31EE6B1A00EE810A7FEE2D0A5C
:1032000060EE890AB6EE001A31EE4E1A31EE4D1A12
:1032100049EE810A70EECC0A29EE081A01EE200A66
:103220008DED1E0A9DED0C0AF0EE000A10EEAD0ABF
:10323000DDED340A70EE600A9DED0D0A60EE800A45
:103240009DED0B0AB0EE001A01EE2E0A70EE6F1A19
:103250000AE00000CDCCCC3D36FA8E3C00000000E8
:103260000000E83F980B00209DED101AB0EE600AB8
:1032700001EE210AF7EE000AB0EE001A41EE4E0A06
:10328000B0EE001A41EE4D0A9DED361A70EEC10AFD
:10329000B1EE001A2AEE011A01EE600AF6EE000AFB
:1032A00030EECD1ADDED060A71EE600A60EE890A95
:1032B0003DEECF1A49EE810A70EEEC0A29EEA81A0B
:1032C00001EE200A69EE080A49EE8B0A9DED081A04
:1032D000DDED091A31EE611A21EE091ADDED071A4A
:1032E0007EEEA11A09EEA11A31EE6B1A00EE810AE8
:1032F00029EE281ADDED110A00EECA1A7FEE2D0A1A
:1033000060EE890AF6EE001A71EECE1A71EECD1A51
:1033100049EEA10A70EECC0A01EE200A8DED1D0ADD
:103320009DED0C0AF0EE000A10EEAD0ADDED340A58
:1033300070EE600A9DED100AB1EE400A60EE800A60
:103340009DED0B0AB0EE001A01EE2E0A70EE6F1A18
:103350009DED0D1AB0EE600A01EE210AF7EE000AAB
:10336000B0EE001A41EE4E0AB0EE001A41EE4D0AE0
:103370009DED361A70EEC10AB1EE001A28EE011A60
:1033800001EE600ADDED120AF1EE600A60EE880AD5
:1033900049EECB0AB6EE001A71EE4D1A9DED061AF3
:1033A00031EEC11A21EE091A7DEECF1A09EEA11AEB
:1033B00031EE6C1A00EE810A69EE0A0A49EEA80A9B
:1033C0009DED081ADDED091A31EE611A21EE091A98
:1033D000DDED071A7EEEA11A09EEA11A31EE6B1A85
:1033E00000EE810A29EE0B1ADDED110A00EEC81A73
:1033F0007FEE2D0A60EE890AF6EE001A71EECE1A03
:1034000071EECD1A49EEA10A70EECC0A01EE200A47
:103410008DED1C0A9DED0C0AF0EE000A10EEAD0ACF
:10342000DDED340A70EE600A9DED0F0A60EE800A51
:103430009DED0B0AB0EE001A01EE2E0A70EE6F1A27
:103440009DED0E1AB0EE600A01EE210ADDED120AC2
:10345000F1EE600A60EEA80A49EE8A0AB6EE001A9A
:1034600071EE4D1A9DED061A31EEC11A21EE091AC0
:103470007DEECF1A09EEA11A31EE6C1A00EE810A28
:10348000F1EE490A60EE8B0A49EE880A9DED081AB2
:10349000DDED091A31EE611A21EE091ADDED071A88
:1034A0007EEEA11A09EEA11A31EE6B1A00EE810A26
:1034B0007FEE2D0A60EE890AB6EE001A31EE4E1A42
:1034C00031EE4D1A49EE810A70EECC0A29EE0A1A45
:1034D00001EE200A8DED1B0ADDED1E0A20EEA01A7A
:1034E000DDED1D0A00EEA01ADDED1C0A00EEA01AAB
:1034F000DDED1B0A00EEA01AB0EE410A00F0C9FB98
:10350000F0EE40AAB7EE000AC0EE2A0AF0EE60AA7A
:103510009DED1E0A20EE2A0A8DED1E0A9DED1D0A64
:1035200020EE2A0A8DED1D0A9DED1C0A20EE2A0AC6
:103530008DED1C0A9DED1B0A20EE2A0A8DED1B0A5B
:10354000F1EE4A0A9DED370A20EE800ADDED380AD9
:1035500008EE600ADDED390A08EEE00AF6EE000A30
:1035600020EE200A9DED221ADDED1E0A01EE600A12
:103570008DED1A0A9DED370A2BEE000ADDED390AB2
:1035800008EE200ADDED380A08EEE00AF6EE000A41
:1035900020EE200ADDED220A9DED1D1A00EEC10A83
:1035A0008DED190A9DED380A2BEE000ADDED390A82
:1035B0000AEE600ADDED370A08EEA00AF6EE000A10
:1035C00020EE200ADDED220A9DED1C1A00EEC10A54
:1035D0008DED180A9DED390A2BEE000ADDED380A53
:1035E0000AEE200ADDED370A08EE600AF6EE000A60
:1035F00020EE200ADDED220A9DED1B1A00EEC10A25
:103600008DED170A9DED1A0ADDED3D0AB0EE4B1A5D
:1036100000EE201AB0EE41BA9DED190ADDED3D0A2B
:10362000B0EE4A1A00EE201AB0EE41AA9DED180A3B
:10363000DDED3D0AB0EE481A00EE201AB0EE418AE8
:103640009DED170ADDED3D0AB0EE681A00EE201A76
:10365000F0EE418A6BEE0B0A4AEE0A0A48EE080ABF
:1036600048EEA80AB0EE600A00F013FBF0EE40AAA4
:10367000B7EE000AC0EE2A0AF0EE60AA2BEE2A0A84
:10368000084880ED000A2AEE2A0A80ED010A28EE99
:103690002A0A80ED020A28EEAA0A80ED030A00BF7A
:1036A00076E40000980B002000F01F0201219140F9
:1036B000024A430942F823107047000080E200E00C
:1036C00000F01F02012191404209920002F1E02224
:1036D000C2F800117047000000F01F020121914064
:1036E000024A430942F823107047000000E200E05C
:1036F00010B5002807DA4A07140E054A00F00F0338
:103700001B1FD45403E04A07130E024A135410BD82
:1037100018ED00E000E400E010B500200949086061
:1037200000210948C0F84411C0F84811C0F84C11F4
:1037300000200549C1F8000102493C39086004F045
:103740009DFF10BD4011014000100140FEB54FF437
:10375000827004F089F9002837D04FF4827004F0A9
:103760008DF96C4890F82E0018B16A4890F82F0037
:1037700058B300208DF80000664840680190654805
:103780000189ADF80810C06818B9002061490874B3
:1037900012E06048008B5F4948830846C068486073
:1037A0000846008B08810020C860084690F82E006B
:1037B00010B9002004F07AF9564801686846884735
:1037C0000020544981F82F0000BF524890F82E0085
:1037D000002852D04FF4807004F046F900284CD0F5
:1037E0004FF4807004F04AF94A48408B494991F8F7
:1037F0002D10884216DD4748408B464991F82D1020
:10380000401A444948830A4612890B465B8BD21AF8
:103810000B465B6803EB42000A4692F82D1004F059
:10382000D7F823E03B48408B3A4991F82D10884265
:103830000FD13848C06860B10120364981F82F00A7
:10384000002048830A4692F82D10D06804F0C0F892
:103850000CE03048408B2F4991F82D10884205D15B
:1038600001202C4981F82F00002048834FF48270FA
:1038700004F004F9042004F019F94FF4887004F0FE
:10388000F3F870B14FF4887004F0F8F80020214983
:10389000087402208DF800000846016868468847D1
:1038A00000BF4FF48A7004F0DFF838B14FF48A702B
:1038B00004F0E4F80020174908742AE01548456927
:1038C00024E0B5FA85F64FF00040F0408543B000A3
:1038D00000F58C74204604F0C7F8B8B1204604F017
:1038E000CDF801208DF80000A4F58C70C0F3C7005E
:1038F0008DF80400A4F58C70012121EA90018DF867
:103900000510044801686846884700BF002DD8D1DB
:1039100000BFFEBD280E002010B50249024801F08C
:103920004DFD10BDD40D00200030004010B504F056
:10393000AFFD10BD10B503480188012002F02CFF37
:1039400010BD0000D80B00200148024908607047F4
:103950000090D003780C002010B501F085FA28B152
:103960008E480088C0F304208D49086001F0D0FA29
:1039700010B18C488C49486701F0E2FA30B18748B1
:10398000E0380068C0F342308849086001F002FB6B
:1039900028B18748006820F080708549086001F0F0
:1039A00011FB48B10020834908604FF08041C1F805
:1039B00010017E49091F086001F02EFB18B1032099
:1039C0007A496431086001F03FFB68B105207A490B
:1039D0000860012078497831086000207649083174
:1039E00008603F20091F086001F046FB002855D001
:1039F0006A48E0300068714908606848E43000684F
:103A0000091D08606548E8300068091D08606348C2
:103A1000EC300068091D08606048F0300068091D3E
:103A200008605E48F4300068091D08605B48F830A3
:103A300000686249203108605848FC300068091D60
:103A400008605F480068091D08605D48001D006847
:103A5000091D08605A4808300068091D0860584868
:103A60000C300068091D0860554810300068534943
:103A700040310860524814300068091D0860504801
:103A800018300068091D08604D481C300068091D89
:103A900008604B4820300068091D086001F0BAF941
:103AA00030B13E48CC38006800F04F00454908600E
:103AB00001F004FA40B14448006800F0010018B178
:103AC0006FF001004049086039487438006840F4DC
:103AD000700037497439086000BF00BF00BFBFF3F2
:103AE0004F8F00BF00BF00BF00BF00BF00BFBFF3CC
:103AF0006F8F00BF00BF00BF3448006800F0004077
:103B000028B93248001D006800F00040F0B30120E1
:103B10002F49086000BF2F4800680028FBD01520FF
:103B20002A49086000BF2B4800680028FBD01521F7
:103B30002648001D016000BF264800680028FBD011
:103B400000202349086000BF224800680028FBD0FD
:103B500000BF00BF00BF00BF00BFBFF34F8F00BF5B
:103B600000BF00BF1248F038006800F4E0601A4956
:103B70000843001D0E49F039086000BF00BF00BFB8
:103B8000BFF34F8F00BF00BF00BF00E002E000BFE7
:103B900000BFFDE7FFF7D8FE10BD000024030010B2
:103BA000403501400DF0ADBA00C007403C05004073
:103BB000FCED00E00C0100401056004020C5004024
:103BC00024040010E40E0040000400400012001025
:103BD00004E5014000E401400000FA0510B50422AC
:103BE0000249034801F0BCFB10BD0000FC0D0020A1
:103BF0000080004010B50648007F20B10449054808
:103C000005F013F903E00249024805F06DF810BD14
:103C1000080E00200020004000B52DED048BB0EE12
:103C2000409AF0EE609A83B051EC190BFEF7AAFEB1
:103C300041EC180B18EE100A18EE901A8DED008B5F
:103C4000002818BF0120084320F00040C0F17F6029
:103C500000F1E040C00F14D019EE101A19EE900ACE
:103C60008DED009B002918BF0121084320F0004082
:103C7000C0F17F6000F1E040C00F04BF012000F000
:103C800063F8B0EE480A03B0F0EE680ABDEC048BAE
:103C900000BD10B52DED028BB1EEC08A18EE100AF2
:103CA00020F00040C0F1FF40C00F0AD010EE100A13
:103CB00020F00040C0F1FF40C00F04BF012000F021
:103CC00043F8B0EE480ABDEC028B10BD02E008C814
:103CD000121F08C1002AFAD170477047002001E086
:103CE00001C1121F002AFBD17047000001462029A4
:103CF00008DA012088400A4A104008B101207047C4
:103D00000020FCE7402909DAA1F12000012202FA93
:103D100000F008B10120F2E70020F0E70120EEE713
:103D2000FC06FFBD00BFEFF31081084672B6704776
:103D30000146082904D20120884000F0EC0008B9AF
:103D4000002070470120FCE701490860704700002F
:103D50007C0C002010B50446022000F0ABFB10BD27
:103D600070B50446A378A27A61782078C2DF054650
:103D700000BF0DB1284670BD00BF23796279E1888C
:103D80002078D3DF054600BF0DB12846F3E700BF1A
:103D9000E1782078CDDF054600BF0DB12846EAE77F
:103DA00000BFA07800F0010028B9208918B121894E
:103DB0002078D1DF05462846DDE700003EB50F4AF2
:103DC00007CA8DE807006846FFF7CAFF044600BF30
:103DD000254625B100BF284600F072F900BF00BF9C
:103DE00000210846C4DF044600BF254625B100BFB8
:103DF000284600F065F900BF00BF3EBD9C90010061
:103E000070B504460E4694F82C00002852D194F860
:103E10002D0080284CD160784E2848D1E0780028C9
:103E200045D1A07A802837D1002515E00B2000BFAE
:103E30004FF0A0431946D1F8042501238340934352
:103E4000C1F80835012383401340C1F80C3500BF89
:103E5000642002F02CF86D1C142DE7DB00BF00BFBE
:103E600000BF00BF00BFBFF34F8F00BF00BF00BF48
:103E70001148006800F4E06010490843001D0E4935
:103E8000086000BF00BF00BFBFF34F8F00BF00BF7F
:103E900000BF00BF00BFFDE70B2003F026F80020A5
:103EA000074908600749086001200749086000E0E9
:103EB00000BF00BF70BD00000CED00E00000FA057F
:103EC000A80B0020B00B0020AC0B00202DE9FC5FFC
:103ED00004460D4616461F46DDE90CAB0020009057
:103EE000019002208DF80000E0B28DF80100002062
:103EF0008DF802000BF0FF008DF80300E8B28DF89A
:103F00000400F0B28DF80500F8B28DF806000AF052
:103F1000FF008DF807006A4608210020C7DF8046B1
:103F200000BFC146B9F1000F04D000BF484600F001
:103F3000C7F800BF00BFBDE8FC9F000010B500241B
:103F400007E00749096811F83400012102F0EAF896
:103F5000641C044800788442F3D3002010BD0000A4
:103F6000DC0B0020E00B00202DE9F84306460C4650
:103F70001746052F02D20720BDE8F88302F0D0F9DA
:103F800038B902F09DF9054600BF0DB12846F3E7A8
:103F900000BF1648066016480470164807600020E7
:103FA000154908601549086015E006EBC408144877
:103FB0000068009098F802008DF8010098F8000061
:103FC000104A694602F004F9054600BF0DB12846C3
:103FD000D2E700BF00BF201EA4F10101CCB2E4D1A2
:103FE000094A0021094800F01FF9C5E7DC0B002051
:103FF000E00B0020E40B0020E80B0020EC0B00207D
:104000003892010001510100254D01003492010058
:1040100010B500BF03F024FB00BF00BF03F0FEF8A3
:104020000028FBD100BF00BF1B490988012242EADA
:1040300001401AA103F052FA00BF1B48006800F0CB
:10404000010000B100BE00BF13490988022242EA04
:10405000014016A103F042FA00BF00BF00BF00BF3D
:1040600000BFBFF34F8F00BF00BF00BF0E48E43852
:10407000006800F4E06011490843001D0A49E43972
:10408000086000BF00BF00BFBFF34F8F00BF00BF7D
:1040900000BF00BF00BFFDE7EC0C0020466174616B
:1040A0006C206572726F7200F0ED00E053797374EA
:1040B000656D207265736574000000000000FA05EC
:1040C0003EB50446002000900190029002946A469A
:1040D000002144F20100FFF79BFF3EBD10B502F046
:1040E00033F904460CB1204610BD0020FCE770B542
:1040F00004462546002000F07CF829780F2002F0C5
:1041000019FA70BDF8B50446002000F072F80122DB
:1041100069460F2002F076F905460DB12846F8BD34
:104120009DF8000020F00200801C00906846FFF718
:10413000DEFF05460DB12846F1E7264631783120ED
:1041400002F0CEF9EBE77CB50646002000F051F80E
:10415000062269462D2002F055F905460DB1284684
:104160007CBD3446002007E0C0F105011DF80110B8
:104170002170641C411CC8B20628F5DB0020EFE763
:104180007CB50646002000F034F80622694633204C
:1041900002F038F905460DB128467CBD34460020B2
:1041A00007E0C0F105011DF801102170641C411CDD
:1041B000C8B20628F5DB0020EFE7F8B504460D4647
:1041C00006222146112002F0DBF806460EB13046E9
:1041D000F8BD35B901226946182002F0D1F806462B
:1041E00005E001222946182002F0CAF806463046AA
:1041F000EEE770B50446002634B1012C06D0022C3F
:1042000006D0032C08D105E0002605E0102603E0C7
:10421000202601E0302600BF00BF31467F2002F09B
:1042200089F90546284670BD10B503460C4600BF07
:104230000B48807808B9082010BD00BF0AB90720D4
:10424000FAE70BB90720F7E71868007C08B10820E7
:10425000F2E71968002008744C744A6100BFEBE76C
:10426000780E002010B503F0A3FE00200F4908705F
:1042700048700B20887000200D4908600D490870B7
:104280000D4908701420FFF70FFA07211420FFF7DB
:104290002FFA1420FFF714FA002003F05FFE03F05A
:1042A00057FE06490860002010BD0000780E00206F
:1042B000F00B0020000C0020010C0020F40B00206B
:1042C0002DE9F04104460E461746254600BF10482A
:1042D000807810B90820BDE8F08100BF0CB9082033
:1042E000F9E7052E01D20720F5E7686908B908202B
:1042F000F1E7687C012801D1304600E000208046CB
:104300003B4642463146284604F068F9E3E70000A0
:10431000780E002070B50446254600BF0848807816
:1043200008B9082070BD00BF0CB1686908B9082041
:10433000F8E7002028740221284604F07EF9F1E70E
:10434000780E002010B50446204603F01FFF10BD74
:1043500070B5044625460E488068B0B1ADB9FFF788
:10436000E1FC06460A4800680A49086008484068B7
:104370004FF0E021C1F804010020054988601EB912
:1043800000BF62B600BF00BF00BF00BF70BD00002D
:10439000840F002000E100E070B505460C4620685F
:1043A000401C28B1206802F0E3FD206802F078FD8F
:1043B0006068401C18B10021606802F064FD287933
:1043C0002D4901EB4010007F50B32868A169C0F867
:1043D000241500BF617D227D286841EA0203C0F8F0
:1043E0006C3500BFD4E90012286803F0B9FC207DC9
:1043F00001283FD1A068401C18B10021A06802F03C
:1044000042FDE068401C28B1E06802F0B1FDE068C0
:1044100002F046FDD4E90221286803F08DFC29E072
:104420002868A169C0F8241500BF617D227D286835
:1044300041EA0203C0F86C3500BFD4E900122868D5
:1044400003F061FC207D012814D1A068401C18B144
:104450000021A06802F017FDE068401C28B1E06868
:1044600002F086FDE06802F01BFDD4E90221286815
:1044700003F032FC70BD0000080E0020002112E0A5
:104480000B48D0F81024012306E000BF107A8842C0
:1044900001D1002302E05268002AF6D100BF0BB11F
:1044A00008467047491C0A29EADB4FF0FF30F8E75D
:1044B0005C10002010B502460949885C00BF4FF02F
:1044C000A0442146D1F80435012484409C43C1F81E
:1044D0000845012484401C40C1F80C4500BF10BDB4
:1044E000C090010010B504460249085D012102F0A8
:1044F0004AFD10BDC090010010B504460249085D98
:10450000002102F040FD10BDC090010010B5014631
:10451000094B585C00BF4FF0A044234600BFD3F8BE
:104520000445C44004F001040CB1012000E0002067
:10453000024682F0010010BDC09001007CB500244D
:104540000CE00948055D0020009003460122114659
:104550000190284602F04FFC00BF641C042CF0D3ED
:1045600000F004F87CBD0000C090010010B50024EC
:1045700003E02046FFF7B6FF641C042CF9D310BDFE
:1045800010B5002403E02046FFF7B6FF641C042C9E
:10459000F9D310BD02464FF0FF30002106E0054B75
:1045A0005B5C934201D1084602E0491C0429F6D322
:1045B00000BF7047C49001002DE9F04106460F4648
:1045C0004FF0000800243046FFF7E4FF0446042CB7
:1045D0003ED20FB3012F02D0022F38D130E004EBCE
:1045E0004400214911F8008004EB4400084440785D
:1045F00050B11E4A4FF400411D480068FFF760FEAD
:1046000005460DB91948067004EB440016490844E4
:104610008078184908551AE015480068FFF77AFEB7
:104620001448005D04EB44010F4A11448978884224
:1046300005D104EB44001146084490F8028006E0DE
:1046400004EB44000849084490F8018000BF00BF13
:10465000B8F1000F06D00848006818B14046064976
:1046600009688847BDE8F081500D0020C80B002084
:10467000D0900100C90B0020C40B002030B50346C8
:104680000020042B23D2012A07D1012903D103F1F1
:104690000E04E4B200E00024224679B1012902D0E0
:1046A000022911D104E003EB43040A4D2A550DE021
:1046B00003EB4304074D2C44627007E003EB430413
:1046C000044D2C44A27001E0072000BF00E0072049
:1046D00030BD0000500D00202DE9F04105460F4689
:1046E00000241F4805601F48076005F0020000B362
:1046F000002606E0012211463046FFF7BFFF0446C0
:10470000761C042E01D2002CF4D034B940F266623B
:1047100004211548FFF728FC044614B9FFF70EFCE6
:1047200004462CB9114A00211148FFF77DFD0446CB
:1047300000BF05F0010008B1FFF700FF2CB90D4ADA
:1047400000210D48FFF770FD04462CB90B4A0121EA
:104750000B48FFF769FD04462046BDE8F0810000E4
:10476000BC0B0020C40B0020D4900100C94B0100F9
:10477000D0900100B9540100C8900100553D0100DE
:10478000CC9001002DE9F047044600260025D748CB
:10479000007820B10020D549087000F079FE182C6F
:1047A00079D2DFE804F00C11124579ADF1FFEEED9E
:1047B000ECEBEAE9E8E7E6E5E4E3E2E1E0DF00F07C
:1047C00067FECB4804708DE100BF0020FFF79EFE1E
:1047D00058B10020FFF786FE022C02D14FF4E160B1
:1047E00001E04FF47A60054609E00020FFF784FEFF
:1047F000022C01D1C82001E04FF4C8700546BC4826
:1048000004704FF40040A5FB00204FF4FA73D71852
:1048100040F100015A0000233846FDF7C5FD8146EE
:1048200000224946B3480068FFF74AFD064659E1B1
:104830000020FFF76BFE58B10020FFF753FE032C5A
:1048400002D14FF4487001E04FF47A60054609E068
:104850000020FFF751FE032C01D1C82001E04FF4E6
:10486000C8700546A24804704FF40040A5FB002024
:104870004FF4FA73D71840F100015A00002338466C
:10488000FDF792FD8146002249469A480068FFF7ED
:1048900017FD064626E124E10020FFF737FE58B158
:1048A0000020FFF71FFE042C02D14FF47A6001E0D4
:1048B0004FF47A6005460AE00020FFF71DFE042C45
:1048C00002D14FF4C87001E04FF4C8700546884823
:1048D00004704FF40040A5FB00104FF4FA73CF189A
:1048E00040F100015A0000233846FDF75DFD814686
:1048F000002249467F480068FFF7E2FC0646F1E0E7
:104900000020FFF703FE50B10020FFF7EBFD052C60
:1049100001D1C82001E04FF47A60054609E000208B
:10492000FFF7EAFD052C01D1C82001E04FF4C87063
:1049300005466F4804704FF40040A5FB00204FF47B
:10494000FA73D71840F100015A0000233846FDF7EA
:104950002BFD81460022494666480068FFF7B0FCFF
:104960000646BFE0B8E0B6E0AAE0A1E098E092E039
:104970005FE05DE05BE059E057E051E042E033E0AA
:1049800024E015E00EE0FFE70020FFF793FD584814
:104990000470002240F6CD4156480068FFF790FCB5
:1049A00006469FE00020FFF7A7FD5148047099E0FC
:1049B00001204E490870FFF77DFD002240F6CD41F1
:1049C0004C480068FFF77CFC06468BE00120474915
:1049D0000870FFF76FFD00224FF4804145480068E2
:1049E000FFF76EFC06467DE0012040490870FFF7A6
:1049F00061FD002240F6CD413E480068FFF760FCB3
:104A000006466FE0012039490870FFF753FD002288
:104A10004FF4804137480068FFF752FC064661E0DA
:104A2000FFF7AEFD324804705CE000BF00BF00BF7E
:104A300000BF31480068FFF76DFC0646C4F1110560
:104A400015B30EBB012D18D9A8B2C82148434FF4A5
:104A5000004180FB01304FF4FA729F1840F10001D1
:104A6000520000233846FDF79FFC8146002249464C
:104A700021480068FFF724FC06460220FFF73CFDB2
:104A800001201E49087005E00220FFF72BFD0020E1
:104A90001A49087026E000F0FBFC1548047021E07C
:104AA00000F0F6FC0020FFF727FD1148047019E024
:104AB00000F0EEFC0120FFF71FFD0D48047011E02F
:104AC00000F0E6FC0020FFF717FD0120FFF714FDC2
:104AD0000748047006E000BFFFF752FD0448047069
:104AE00000E000BF00BF3046BDE8F087B90B0020F2
:104AF000B80B0020C8900100CC900100C00B002032
:104B00002DE9F84F05460E46AF1C4FF002084FF056
:104B10000109002000906846FFF714FC1B4800685C
:104B200030601A48006819494968411A1748806876
:104B3000401CA0EB010A07EB080B0BE000F07CFD2A
:104B40001248006811494968411A10488068401CA1
:104B5000A0EB010AD345F1D80C4800680B498968DD
:104B600008400A490C3101EB8004206820F0030062
:104B7000C01C20600548006838440C3908609DF866
:104B80000000FFF7E5FB4846BDE8F88F5C10002009
:104B900070B504460D46A168481CA06020684554C5
:104BA000D4E90110884202D3204602F01EF870BDFD
:104BB0000448406803490968884201D101207047D0
:104BC0000020FCE75C10002010B50446207802218C
:104BD000FFF7F2FC10BD00004FF0FF31054A42F82C
:104BE0002010082804DBFF23A0F1080150325354A1
:104BF000704700007C0D00200146024850F821005B
:104C0000704700007C0D00202DE9F04F03460C4654
:104C10004FF0FF390AB1002000E0082084460AB1B5
:104C2000082000E00C208046614624E0154850F83A
:104C30002100401CF0B91D460846274616464FFA8B
:104C400080FBDFF840A00AF1300A0AF805B0DFF86F
:104C500034A04AF820704EB94FFA85FBA0F1080A3B
:104C6000DFF820E00EF1500E0EF80AB000BF4FFA48
:104C700081F902E0491C4145D8D300BF4846BDE850
:104C8000F08F00007C0D002001460148405670471F
:104C9000AC0D00202DE9F04782461F48006800282F
:104CA00036D01D480068056803F052F907461B48D6
:104CB00004682146384603F0DFFBC61C184800781C
:104CC00008B903F057F9AE4201D2284600E0304659
:104CD000044424F07F44204603F034F903F038F90B
:104CE00080463946404603F0C7FB00F103093946C8
:104CF000204603F0C1FB814509D903F029F981461B
:104D000003F020F92F2001F077F903F003FD01E013
:104D100003F04EF9BDE8F087F00B0020F40B002003
:104D2000020C00202DE9F0478146002532E01C48A6
:104D3000006800EBC5042178012000FA01F619484B
:104D40000068304020B317480068B0431549086038
:104D5000207801F0ABFA07462178012088401249FB
:104D600009680840217807FA01F188420FD160787C
:104D7000012800D100E00020784080F00108606840
:104D800020B108F0FF0120786268904700BF00BFA3
:104D9000681CC5B2054800788542C8DBBDE8F087CD
:104DA000DC0B0020EC0B0020E80B0020E00B0020C7
:104DB000014614480078144A127890421DD01148D8
:104DC0000078401C0F4A107010460078022801D16C
:104DD000002010700D480B4A127850F8220008602D
:104DE0000B4A086812681044094A106010460068AF
:104DF00020F07F401060012070470020086000BF55
:104E0000FAE70000000C0020010C0020F80B002045
:104E1000F40B002013480078062820D11148001D0B
:104E2000007800F00F00D0B90E480830007800F08C
:104E3000F000302801D1012070470A48083000787E
:104E400000F0F000402801D10120F5E705480830C6
:104E5000007800F0F000502801D10120ECE700209C
:104E6000EAE70000E00F00F013480078062820D1A0
:104E70001148001D007800F00F00D0B90E4808302E
:104E8000007800F0F000302801D1012070470A4876
:104E90000830007800F0F000402801D10120F5E74B
:104EA00005480830007800F0F000502801D10120BA
:104EB000ECE70020EAE70000E00F00F0134800787C
:104EC000062820D11148001D007800F00F00D0B94D
:104ED0000E480830007800F0F000302801D10120A1
:104EE00070470A480830007800F0F000402801D1EF
:104EF0000120F5E705480830007800F0F000502860
:104F000001D10120ECE70020EAE70000E00F00F00B
:104F10000A48007806280ED10848001D007800F0E5
:104F20000F0040B905480830007800F0F000302844
:104F300001D1012070470020FCE70000E00F00F0E5
:104F400013480078062820D11148001D007800F091
:104F50000F00D0B90E480830007800F0F00030287B
:104F600001D1012070470A480830007800F0F000B5
:104F7000402801D10120F5E705480830007800F00D
:104F8000F000502801D10120ECE70020EAE7000002
:104F9000E00F00F00A48007806280ED10848001DEE
:104FA000007800F00F0040B905480830007800F0A4
:104FB000F000302801D1012070470020FCE70000FC
:104FC000E00F00F013480078062820D11148001D9A
:104FD000007800F00F00D0B90E480830007800F0DB
:104FE000F000302801D1012070470A4808300078CD
:104FF00000F0F000402801D10120F5E70548083015
:10500000007800F0F000502801D10120ECE70020EA
:10501000EAE70000E00F00F00A48007806280ED109
:105020000848001D007800F00F0040B9054808301E
:10503000007800F0F000302801D1012070470020F6
:10504000FCE70000E00F00F00A48007806280ED1C7
:105050000848001D007800F00F0040B905480830EE
:10506000007800F0F000302801D1012070470020C6
:10507000FCE70000E00F00F00A48007806280ED197
:105080000848001D007800F00F0040B905480830BE
:10509000007800F0F000502801D101207047002076
:1050A000FCE70000E00F00F0F0B5034600241FE02D
:1050B000124E306806689E4203D90668F61A0660EA
:1050C0001AE006689B1B06683444002606600B4EF7
:1050D00035680A4FC6693E60C66846B10E1926F0AB
:1050E0007F464660C66886601668C661156000BF68
:1050F000024800680028DBD100BFF0BDF00B0020A3
:105100002DE9F04105460F46012000FA05F4184844
:105110000068FFF7FFF806460EB1BDE8F0811548BC
:1051200000682040E0B9284601F0C0F828B11248D4
:10513000006820431049086004E00F480068A0435D
:105140000D4908600B48006820430A4908600022A6
:105150000A48016806480068FFF7B2F8064604E00E
:1051600004480068A0430349086000BFD5E7000079
:1051700034920100EC0B0020E80B0020E40B00202F
:1051800038B5FEF7ABFF044600BF254625B100BF8A
:105190002846FEF795FF00BF00BFFDF7FDFDFDF7B8
:1051A00016FEFDF7EBFDFDF7CDFDFDF7D9FD152052
:1051B000FDF735FE1520FDF718FEFDF7FBFD044653
:1051C000082000906846FEF79DFF044609490988BB
:1051D000032242EA0140224607A102F089F900BFFA
:1051E000254625B100BF2846FEF76AFF00BF00BF75
:1051F00038BD0000EC0C002052657420636F6465BC
:10520000206D61676E65746F6D6574726F3A2025ED
:10521000640000002DE9FC5F83460E4691461F4660
:10522000DDE90C45002E01DA704200E0304682468E
:105230004FF0010803E09AFBF9FA08F10108CA45AA
:10524000F9DA474500D9B84634B1002E03DB05F042
:105250000400042800D1641E05F0020000B167B10B
:1052600005F0010048B944B104E0641E202158460D
:10527000FFF78EFC0CB1A045F7D3002E05DA76427D
:105280002D215846FFF784FC07E005F004000428B0
:1052900003D12B215846FFF77BFC05F002000228C2
:1052A0000DD105F0010050B94FB944B104E0641EBE
:1052B00030215846FFF76CFC0CB1A045F7D33B46B4
:1052C0004A4631465846CDE9004503F035FEBDE873
:1052D000FC9F000070B504460D4620791D4901EB86
:1052E0004010007FF8B14FF48871206802F01DFD76
:1052F0004FF49071206802F018FD4FF4927120680D
:1053000002F013FD4FF4A271206802F00EFD124965
:10531000206802F01AFD206800F0FFFE06462946CC
:1053200000F0C6FE14E04FF48E71206802F0CDFC50
:105330004FF4A271206802F0C8FC0849206802F00E
:10534000D3FC206800F0E9FE0646294600F0B0FED6
:1053500070BD0000080E0020100302008000020053
:105360002DE9F04704460E469046002722E03846D5
:1053700002F06BFC0546384602F06EFC8146204682
:10538000294642580AB1012200E0002282B1484673
:10539000D4F80413014009B1012100E0002139B122
:1053A0002946204602F05DFC2846D6E900219047B8
:1053B000781CC7B24745DADBBDE8F0877FB5054604
:1053C0000C4694F8210094F82010CDE9001004F167
:1053D0002602D11E2846E36903F0BFFA00B17FBD63
:1053E00094F8230048BB207B022802D0207B0328AE
:1053F00023D1E169206981421FD16069E061E07BCE
:1054000084F82000207EC0F3401084F82100207B27
:1054100003280AD194F82100009094F820302946FE
:105420002046E26903F02CFB30E094F82030294656
:105430002046E26903F0F8F928E0D4E90412E068B4
:1054400001AB07C394F8230088B1284602F010FC92
:10545000064606F0020018B101208DF8000005E0B4
:1054600006F0040010B102208DF8000002E00020D8
:105470008DF80000002084F82400207E00F0040055
:1054800018B96846D4E90021904700BF00BFA6E7DD
:1054900010B50848007850B1002405E0022C02D075
:1054A0002046FFF71FF8641C042CF7D301E0FFF738
:1054B0005DF810BDC00B002010B50446044800780C
:1054C00000F0010018B103480078FFF75BF910BD48
:1054D000BC0B0020B80B00202DE9F0410646002748
:1054E0004748D0F8008078E016B13446E66947E0D6
:1054F0004448007800EB40014248001D00EBC10524
:10550000001F0078401C3F490870084600788978E1
:10551000884202D100203B4908706C682878012835
:105520001AD0022802D0032817D107E0686803F0D8
:1055300011F800B10127002020744EE007E0304947
:105540000868002101742E4AC169116000BF2C480F
:1055500000680028F3D140E000E03EE000BF207C7E
:1055600000B13AE0A8686060E868A0602869E0607F
:105570006869A0612448007808B10020606000BF1D
:10558000224960680968401A20F07F40204988421B
:1055900008D21E496068096802F06EFFA1680844DD
:1055A00020600FE019486168006802F065FF054659
:1055B000A068A84203D9A068401B206001E0002039
:1055C000206000BF00206060A060012020740020E7
:1055D000E061204602F08AFF00BF002E84D1094816
:1055E0000078084949788842F8D11FB90448006812
:1055F000404502D00120BDE8F0810020FBE700001B
:10560000F00B0020780E0020030C0020F40B00208B
:10561000FFFF7F0070B5002001F0D2FF044600BFFD
:10562000254625B100BF2846FEF74AFD00BF00BF52
:1056300001F0E2FD70BD00002DE9FF5F2F4800F092
:10564000B3FB2E48001F00F0AFFB2D484468D0F894
:10565000088004EA08002A490C3101EB80090FE0B8
:10566000641CB9F80000C0F38910D9F8001000EBF1
:105670009150044404EA080021490C3101EB8009EF
:1056800099F8000000F003000028E9D000250BE0A5
:105690002046641C00EA080019490C3151F820002A
:1056A00001A941F825006D1C022DF1D3019800F0ED
:1056B0000300012809D002280CD10421019801EB34
:1056C0009050401E04EB900405E00198C0F3831055
:1056D000044400E000BF00BF084F3F1F4FF0000B25
:1056E0006A4659463846FCF718FE824600BF00BF9E
:1056F00056460EB102484460BDE8FF9F7414002076
:105700005C1000202DED0E8B96B00B2001210A4677
:1057100000231D461E4600BF4FF0A04C674641EADD
:10572000420C4CEA830C4CEA052C4CEA064807F57F
:10573000E06C4CF8208000BF00BF01F003FC9FED3F
:10574000FE0AF0EE409AFFF765FFFFF719FD02F041
:105750008BFCFA490988032242EA01400222F8A19F
:1057600001F0C6FE03F068FC02F0A6FDFEF726FB82
:105770000222082103A8FCF75FFE03AA08210020EB
:10578000C7DF04460B2001F0B0FB89E201F046FDC3
:105790000028FAD1F248006801287BD10020F149A5
:1057A000086033E210A8FEF7CEFC044600BF254691
:1057B00025B100BF2846FEF783FC00BF00BFBDF93E
:1057C0004400FCF7DAFF41EC1C0B9FEDE70B53ECB8
:1057D000102BFCF763FF41EC1B0B9FEDE50B53EC2B
:1057E000102BFCF742FE41EC1A0BFCF7EAFF0B9082
:1057F000BDF94200FCF7C1FF41EC1C0B9FEDDA0B39
:1058000053EC102BFCF74AFF41EC1B0B9FEDDA0B1E
:1058100053EC102BFCF7CAFE41EC1A0BFCF7D1FF3E
:105820000A90BDF94000FCF7A8FF41EC1C0B9FED6E
:10583000CE0B53EC102BFCF731FF41EC1B0B9FED13
:10584000D00B53EC102BFCF7B1FE41EC1A0BFCF71C
:10585000B8FF0990BDF8440040B9BDF8420028B92E
:10586000BDF8400010B90B2001F06CFB0CA8FEF74E
:1058700087FC044600BF254625B100BF2846FEF739
:105880001FFC00BF00BFBDF93400FCF776FF41EC00
:105890001E0B00E0FBE19FEDBC0B53EC102BFCF763
:1058A000FDFE41EC1D0B9FEDBA0B53EC102BFCF7EA
:1058B00083FE41EC1C0B9FEDB80B53EC102BFCF757
:1058C000EDFE41EC1B0B9FEDB60B53EC102BFCF7E0
:1058D000CCFD41EC1A0BFCF774FF0890BDF93200C7
:1058E000FCF74BFF41EC1E0B9FEDA70B53EC102B6D
:1058F000FCF7D4FE41EC1D0B9FEDA50B53EC102BD8
:10590000FCF75AFE41EC1C0B9FEDA30B53EC102B44
:10591000FCF7C4FE41EC1B0B9FEDA30B53EC102BCB
:10592000FCF744FE41EC1A0BFCF74BFF0790BDF966
:105930003000FCF722FF41EC1E0B9FED930B53EC64
:10594000102BFCF7ABFE41EC1D0B9FED910B53ECC4
:10595000102BFCF731FE41EC1C0B9FED8F0B53EC31
:10596000102BFCF79BFE41EC1B0B9FED910B53ECB6
:10597000102BFCF77AFD41EC1A0BFCF722FF069086
:10598000BDF8340040B9BDF8320028B9BDF8300088
:1059900010B90B2001F0D6FA00210EA8FEF70DFC7D
:1059A000044600BF254625B100BF2846FEF788FB08
:1059B00000BF00BFBDF93800FCF7DFFE41EC1D0B56
:1059C0009FED7D0B53EC102BFCF7F6FD41EC1C0B0F
:1059D0009FED7B0B53EC102BFCF747FD41EC1B0BB1
:1059E0009FED790B53EC102BFCF7E6FD41EC1A0B05
:1059F000FCF7E7FE08EE900ABDF93A00FCF7BDFEA1
:105A000041EC1D0B9FED6C0B53EC102BFCF7D4FD00
:105A100041EC1C0B9FED6E0B53EC102BFCF7C6FDFD
:105A200041EC1B0B9FED6C0B53EC102BFCF7C4FDF2
:105A300041EC1A0BFCF7C5FE09EE100ABDF93C005B
:105A4000FCF79BFE41EC1D0B9FED5B0B53EC102B09
:105A5000FCF7B2FD41EC1C0B9FED610B53EC102BDE
:105A6000FCF7A4FD41EC1B0B9FED5F0B53EC102BDF
:105A7000FCF7A2FD41EC1A0BFCF7A3FE08EE100A9E
:105A8000BDF8380040B9BDF83A0028B9BDF83C006F
:105A900010B90B2001F056FA05A9002000F00AFE0B
:105AA000044600BF254625B100BF2846FEF708FB87
:105AB00000BF00BF9DED063AF0EE432A9DED073A88
:105AC000B0EE432A9DED083AF0EE431A9DED093AF7
:105AD000B0EE431A9DED0A3AF0EE430A9DED0B3A03
:105AE000B0EE430AF0EE694AB0EE484AF0EE493AA9
:105AF000B0EE683AFDF7A2F93D4890ED000ADFEDFF
:105B00003D0A20EE200A8DED120A90ED010ADFED2C
:105B1000390A20EE200A8DED130A90ED020ADFED1E
:105B2000350A20EE200A8DED140A90ED030ADFED10
:105B3000310A20EE200A5FE0CDCCCC3CEC0C0020FA
:105B4000446973706F73697469766F20524553505E
:105B50004952484F27206E756D65726F202564008D
:105B6000AC0B0020B00B0020000000000000B04093
:105B7000EDB658DF8C2D653F2401F4DF084B843FE0
:105B80003BD9F60BB06E943FC3F5285C8F62504052
:105B900000000060FB21094000000000008066401A
:105BA0001516405F5811923FD3BF515FD06A913FA5
:105BB000D1871580081F743F333333333333C33FEA
:105BC000812C9F4033332F401280459F0B6AF03F5A
:105BD0007FD360BFCC4C284021BC154033B3EF3F8E
:105BE000C069B05F66662740034ACE7FCB80EF3F37
:105BF000980B00200000FE428DED150A192000F0E0
:105C000056F928480068401C264908602548006865
:105C10000428FFF6C7AD244800680A2190FBF1F282
:105C200001FB120010B12048006848B91F490988DB
:105C3000032242EA01401C490A681DA101F058FCF8
:105C400019480068401C18490860084600689DED26
:105C5000150ABDEEC00A8DED000A01909DED140AF3
:105C6000BDEEC00A10EE103A9DED130ABDEEC00A5B
:105C700010EE102A9DED120ABDEEC00A10EE101AA9
:105C8000BDF91400FEF722F90B2001F02EF900BF38
:105C900000BF01F0C3FA0028FBD100BF01F04CFEA9
:105CA00074E50000B00B0020A80B0020EC0C0020D5
:105CB000436F756E743A2025640000002DE9FF5F84
:105CC00007468B46144698460397039FFD88B946BE
:105CD00008F10400B0FBF5F0029008F10400B0FBFD
:105CE000F5F105FB1100019008F10400204428445F
:105CF000401EB0FBF5F0C0B2009004E0D9F800906F
:105D00000298401E029002980028F7D1824601981E
:105D10002E1AA64201D9204600E03046064620E071
:105D20000E9848B109F10402019BD1180BEB0A004F
:105D30003246FCF76FFB08E00BEB0A0109F10402A5
:105D4000019BD0183246FCF765FB00200190D9F882
:105D50000090A41BB244A54201D9204600E0284689
:105D60000646002CDCD1BDE8FF9F000070B503465D
:105D70000C46ACB101F058FC054600220CE002EBE9
:105D80004200084E06EB800148881E68B04202D1EE
:105D90001A60002070BD521CAA42F0D30520F9E71A
:105DA0000020F7E7800C0020F8B5044601256A467C
:105DB00029462046FCF7A4FA06460098F8BDF8B537
:105DC00004460026002000906846FEF7BBFA2068D3
:105DD00000686168884215D920680068401E226802
:105DE00010600178204600F033F80646207A2168DA
:105DF0000978401AC5B220680079A84201DA206803
:105E0000057100BF9DF80000FEF7A2FA3046F8BD0C
:105E10000246D068081A138AB0FBF3F0C0B270478C
:105E2000F8B504460D462E46002000906846FEF761
:105E300089FA31462046FFF7EBFF21680A68511CBA
:105E40002368196010709DF80000FEF781FAF8BD14
:105E50000246138AD06801FB0300704710B5014663
:105E600000BF09B90E2010BD00BF087A0B79C01A17
:105E7000C2B2D1E90030186005E008680368581C18
:105E80000C6820601A70101EA2F10103DAB2F4D17E
:105E90000B68187100BFE6E730B502460B46D40820
:105EA00002F00702012090401D5D284030BD10B572
:105EB00004464FF47A7104FB01F000F001F810BDC4
:105EC00000B9704700BF00BF00BF00BF00BF00BFE8
:105ED00000BF00BF00BF1F4909681F4A914200D19F
:105EE00030E000BF00BF00BF00BF00BF00BF00BF69
:105EF00000BF00BF00BF00BF00BF00BF00BF00BFAA
:105F000000BF00BF00BF00BF00BF00BF00BF00BF99
:105F100000BF00BF00BF00BF00BF00BF00BF00BF89
:105F200000BF00BF00BF00BF00BF00BF00BF00BF79
:105F300000BF00BF00BF00BF00BF00BF00BF00BF69
:105F400000BF00BF01460139084600D0BBE700BFD3
:105F5000B7E70000780C00200024F40000B9704777
:105F600000BF00BF00BF00BF00BF00BF00BF00BF39
:105F700000BF1F4909681F4A914200D130E000BFAD
:105F800000BF00BF00BF00BF00BF00BF00BF00BF19
:105F900000BF00BF00BF00BF00BF00BF00BF00BF09
:105FA00000BF00BF00BF00BF00BF00BF00BF00BFF9
:105FB00000BF00BF00BF00BF00BF00BF00BF00BFE9
:105FC00000BF00BF00BF00BF00BF00BF00BF00BFD9
:105FD00000BF00BF00BF00BF00BF00BF00BF00BFC9
:105FE00001460139084600D0BBE700BFB7E7000013
:105FF000780C00200024F40000B9704700BF00BFF7
:1060000000BF00BF00BF00BF00BF00BF00BF1F49EF
:1060100009681F4A914200D130E000BF00BF00BFB5
:1060200000BF00BF00BF00BF00BF00BF00BF00BF78
:1060300000BF00BF00BF00BF00BF00BF00BF00BF68
:1060400000BF00BF00BF00BF00BF00BF00BF00BF58
:1060500000BF00BF00BF00BF00BF00BF00BF00BF48
:1060600000BF00BF00BF00BF00BF00BF00BF00BF38
:1060700000BF00BF00BF00BF00BF00BF0146013925
:10608000084600D0BBE700BFB7E70000780C00204F
:106090000024F40000BF00F01F0201219140034AD8
:1060A000430942F8231000BF7047000080E100E080
:1060B00070B50B4601461A46002907DA5407260E2A
:1060C000104C01F00F052D1F665503E05407250EF7
:1060D0000D4C655400BF00BF00F01F02012191402C
:1060E0000A4A440942F8241000BF00BF00F01F0212
:1060F000012191404209920002F1E022C2F8001110
:1061000000BF70BD18ED00E000E400E080E200E0B8
:106110000146C1F3073250B270470146C1F307325E
:1061200050B270472DE9F04706460D46304601F063
:106130002DFEE0B13046FEF7A7FD083822490F5C7E
:10614000BC11032C08D1304600F0F0FE08B103204A
:1061500000E00220804605E0012C01D1022000E091
:10616000032080464146304600F0A6FE2AE0304635
:1061700001F018FE30B33046FEF786FD0446A0005D
:1061800000F5807087B22046104951F8201041F088
:1061900001020E4941F8202000BF384600F02AFFD6
:1061A0007DB13046FEF770FD8146FEF725FD804645
:1061B000B8F1000F04D0012101FA04F000F034FF1F
:1061C00000BF00BFBDE8F087CC0D00201065004087
:1061D0002DE9FC4704460E4617464FF000082046BE
:1061E00001F0C6FD10B14FF0080855E0F2783946CD
:1061F0002046FEF709FD0546681C002849D0B07806
:1062000080B100BF00BF4FF0A042104600F5E06231
:1062100052F8242022F0020100F5E06242F8241036
:1062200000BF0CE096F80190002000904B4602461B
:1062300001460190204600F0F2FD00BF00BFF0785B
:10624000D0B13078164951F82510164A1140144A39
:1062500042F82510114651F825104FF4F85202EA81
:1062600004224FF4403303EA00431A4311430C4A1B
:1062700042F8251000BF0EE0A5F108000A49085CAD
:10628000317840EA811042B2A5F1080006490A546B
:1062900001E04FF0040800BF4046BDE8FC87000065
:1062A00010650040FFE0FCFFCC0D002010B5044657
:1062B000204600F03BFE08B1012010BD0020FCE7A5
:1062C00070B5164890F8540010B10825284670BDE6
:1062D000002404E0204601F075FD601CC4B2202CAF
:1062E000F8DB002404E02046FEF776FC601CC4B214
:1062F0000C2CF8DB07210620FFF7DAFE4FF4BE7006
:1063000000F078FE4FF0004000F08EFE01200349BF
:1063100081F8540000252846D9E700007C0D0020B4
:10632000034890F8540008B1012070470020FCE7B2
:106330007C0D0020014601F06040B0F1005F01D10A
:10634000012070470020FCE71FB50A4B0FCB8DE8FA
:106350000F000023084A6946084800F047FA04463F
:1063600014B1204604B010BD044800F02DFA0020FE
:10637000F8E70000B090010089640100A8900100D6
:10638000F7B582B00E4617464FF6FF740020012382
:1063900002AA0C210090184800F08AFA054615B1AF
:1063A000284605B0F0BD00BF1448007810B9601E43
:1063B000041EF9D10CB90D20F3E700200F49087035
:1063C000FBB232460C210C4800F05CFA05460DB1D8
:1063D0002846E6E74FF6FF7400BF0948007810B979
:1063E000601E041EF9D10CB90D20DAE70020044923
:1063F00008702846D5E70000A8900100B40B0020E3
:10640000B50B0020F7B582B00E4617464FF6FF7465
:106410000020012302AA68210090184800F048FAE1
:10642000054615B1284605B0F0BD00BF14480078F8
:1064300010B9601E041EF9D10CB90D20F3E700203D
:106440000F490870FBB2324668210C4800F01AFA76
:1064500005460DB12846E6E74FF6FF7400BF094830
:10646000007810B9601E041EF9D10CB90D20DAE7CE
:106470000020044908702846D5E70000A8900100D4
:10648000B40B0020B50B0020027822B1012A1ED0E7
:10649000022A1ED11CE0027932B1012A0CD0022A54
:1064A0000ED0032A10D103E001220B4B1A700CE02E
:1064B0000122094B1A7008E00122084B1A7004E00F
:1064C0000122064B1A7000E000BF00BF02E001E0AD
:1064D00000E000BF00BF7047B40B0020B50B0020E8
:1064E0002DE9FC4104460D464FF6FF778DF8044038
:1064F0008DF805500020022301AA0C2100900B48C2
:1065000000F0D6F9064616B13046BDE8FC8100BF62
:106510000748007810B9781E071EF9D10FB90D2071
:10652000F3E70020024908703046EEE7A89001002A
:10653000B40B00202DE9FC4104460D464FF6FF77D1
:106540008DF804408DF805500020022301AA68212F
:1065500000900B4800F0ACF9064616B13046BDE895
:10656000FC8100BF0748007810B9781E071EF9D1DA
:106570000FB90D20F3E70020024908703046EEE71E
:10658000A8900100B40B002070B505460C461E48CB
:10659000007C10B11126304670BD207910B12079F1
:1065A000012805D100BF00201849086000BF00BFC6
:1065B00015481C3010F8150030B9134890F82D001C
:1065C000401C114981F82D00E1790F481C3000F87A
:1065D0001510217A00EB450041702146284601F054
:1065E000FFF9227AE179284601F032FA207910B1D8
:1065F0002079012805D100BF01200449086000BFAF
:1066000000BF00263046C7E7280E00200075004076
:1066100070B504460E46244890F82C0010B10825A9
:10662000284670BD16B907252846FAE704B91F4C5D
:106630001D48066020781E49086000BF6078091D6B
:10664000086000BFE078184981F82E00012081F829
:106650002C000020087481F82D00486181F82F007B
:106660006FF0004001F016FA4FF4827001F006FA64
:106670004FF4807001F002FAA1780720FFF718FDAF
:10668000022001F00DFA084890F82E0010B1012008
:1066900001F006FA00BF01200549F039086000BF8B
:1066A00000252846BDE70000280E00207491010057
:1066B000F07500402DE9F041054688463548007CDC
:1066C00018B111263046BDE8F08101203149087427
:1066D000032001F0DFF90121404601F079F92D484E
:1066E00090F82D00012809DD002405E0E0B2002229
:1066F000114601F0ADF9641C082CF7D325481C3075
:1067000000EB4500427823481C3010F8151028464D
:1067100001F09EF9002001F0C9F9042001F0C6F94A
:1067200042F2107700E07F1E4FF4827001F09CF976
:1067300008B9002FF7D14FF4807001F09FF94FF4A2
:10674000827001F09BF9134890F82D00012810DDAC
:1067500000240CE00F4B1C3303EB44035A780D4B21
:106760001C3313F81410E0B201F072F9641C082C09
:10677000F0D3084890F82E0018B1032001F090F9EA
:1067800002E0022001F08CF9002002490874002682
:10679000304698E7280E002070B504460D46601E6E
:1067A000074931F81000A843611E054A22F811007C
:1067B000601E044951F8202029462046904770BDAC
:1067C000D80B0020D40B0020027902EB8202064B8A
:1067D00003EBC201026800BF0523C2F8003500BF09
:1067E000022281F822207047D40D00202DE9F047C5
:1067F00006460C4690469946307900EB80001F49CA
:1068000001EBC00595F8220018B108273846BDE80D
:10681000F087083545F8088C45F8049C002028606E
:1068200068772877A07BE877083D607B10B1204629
:1068300001F076FF40F20C611148226840F8221006
:10684000626840F822103068D4E90012C0F80815D8
:10685000C0F80C2500BFA168C0F8241500BF286847
:1068600030B13068FFF754FC8246217BFFF720FCF3
:10687000012085F8220000273846C8E7D40D002003
:1068800000070050FEB507460C4615461E46074A4F
:1068900007CA8DE807008DF801408DF80260019568
:1068A00000226946384600F021F8FEBD68910100DB
:1068B0002DE9FE4307460C4615461E46DDF82880A6
:1068C00000200090019002908DF801408DF8026048
:1068D0000195B8F1000F01D0202000E00020024611
:1068E0006946384600F002F8BDE8FE832DE9F04124
:1068F00004460E4615460027207900EB8000094922
:1069000001EBC00805F0030018B106273846BDE8C2
:10691000F0812B4632464046216802F029F90746AD
:106920003846F4E7D40D00202DE9F04105460E4627
:10693000174628791C4901EB40144FF00008E07E0F
:1069400020B14FF008084046BDE8F081707F207705
:1069500031462846FDF720FD676030692060606899
:1069600018B1317F2846FEF7B5FC00BF28790E49E3
:1069700001EB4010007F28B128680821C0F80015FD
:1069800000BF05E028680421C0F8001500BF00BF63
:1069900000BF0020E0752076A0750120E076002081
:1069A000A0764046D0E70000080E00202DE9F04117
:1069B00004460D4690462079144901EB4016207993
:1069C00001EB4010007F38B12846FFF7B3FC18B93F
:1069D00010273846BDE8F081204600F09DF810B140
:1069E00011273846F6E786F81680B5600020B08299
:1069F0002079064901EB4010007F18B1204600F0D5
:106A00004DF8E7E7204600F003F8E3E7080E002022
:106A100070B504462079204901EB401500264FF45B
:106A20008E71206801F051F90821206801F068F9A1
:106A30002946206802F0FCF8686858BB12E000BFE5
:106A40004FF48E71206801F039F918B9A88AB0F5B1
:106A5000807FF5D1A88AB0F5807F03D029462068D1
:106A600002F0E6F8A88AA97D8842E8DBA88AB0F59A
:106A7000807F01D10F260BE000BF4FF48E7120689C
:106A800001F01CF90028F8D00C21206801F038F939
:106A90000020A875304670BD080E00202DE9F04199
:106AA000044620791B4901EB40154FF000084FF4D4
:106AB0009071206801F039F94FF4AC71206801F051
:106AC00034F92068AA7DA968C0F844154FF4A96379
:106AD0001A5000BF0821206801F03FF96868A8B982
:106AE00000BF4FF49071206801F018F907464FF489
:106AF000AC71206801F012F906460FB9002EF0D0F3
:106B00000EB14FF00F080020A87500BF4046BDE849
:106B1000F0810000080E002001460879044A02EBCB
:106B20004010807D08B1012070470020FCE7000084
:106B3000080E002070B5044620791F4901EB40156E
:106B400000BF207901EB4010007F28B120680021B0
:106B5000C0F8001500BF05E020680021C0F800154E
:106B600000BF00BF00BF6868F0B100BF20791249C4
:106B700001EB4010007F50B11049206801F0E2F8AD
:106B80002068FFF7CAFA0646FFF784FA0AE00B49C5
:106B90008C39206801F0A5F82068FFF7BEFA064698
:106BA000FFF778FA00BF00BF204601F011F900207E
:106BB000E876686070BD0000080E00201003020037
:106BC0000FB438B50446059810B938BC5DF814FB0D
:106BD0000020009006A800906A462046059900F023
:106BE00012F80020009000BFEFE770B50446A068DF
:106BF00000B970BDD4E90403A26821689847002059
:106C0000A06000BFF5E72DE9FC5F82460D46144603
:106C10000DB9BDE8FC9F00BF2E786D1C06B9E1E000
:106C2000252E70D100274FF0010900BF2E782B2EA2
:106C30000CD02D2E02D0302E0CD103E047F00107EE
:106C40006D1C0AE047F002076D1C06E047F00407E0
:106C50006D1C02E04FF0000900BF00BFB9F1000F4A
:106C6000E4D14FF0000800BF2A2E06D12168081D8C
:106C70002060086880446D1C0DE02E78302E01DB0A
:106C8000392E00DD07E06D1CA6F1300008EB88010D
:106C900000EB4108E8E700BF4FF0000B2E782E2EE6
:106CA00010D16D1C00BF2E78302E01DB392E00DD97
:106CB00007E06D1CA6F130000BEB8B0100EB410BE4
:106CC000F1E700BF2E7800BF6C2E01D0682E02D1F4
:106CD0006D1C2E7800E000E0F6E700BF692E21D0A1
:106CE00008DC252E6DD0582E39D0632E0CD0642EA2
:106CF0006CD116E0702E4CD0732E3ED0752E1FD066
:106D0000782E63D12AE065E02168081D2060D1F863
:106D1000009009F0FF00019050460199FDF738FFFF
:106D200055E000BF2168081D2060D1F800905B4647
:106D30000A2249465046CDE90087FEF76BFA46E045
:106D40002168081D2060D1F800905B460A22494660
:106D50005046CDE9008702F0EFF838E000BF216827
:106D6000081D2060D1F800905B461022494650462D
:106D7000CDE9008702F0E0F829E02168081D2060D5
:106D8000086801903B4642465046019901F01CFBC1
:106D90001DE02168081D2060D1F800903021504688
:106DA000FDF7F6FE78215046FDF7F2FE002008219F
:106DB0000B461022CDE900104946504602F0BCF8BF
:106DC00005E025215046FDF7E3FE00E000BF00BFCF
:106DD0006D1C03E031465046FDF7DAFE28780028A6
:106DE0007FF41AAF00BF9AF80C0010B15046FFF7BD
:106DF000FCFE00BF0DE7F0B5DDE9054500BF4FF033
:106E0000A0473E4641EA420747EA830747EA04278C
:106E100047EA054C06F5E06747F820C0F0BDF0B53D
:106E2000DDE9054500BF4FF0A0473E4641EA420775
:106E300047EA830747EA042747EA054C06F5E06777
:106E400047F820C0F0BDF0B5DDE9054500BF4FF0C3
:106E5000A0473E4641EA420747EA830747EA04273C
:106E600047EA054C06F5E06747F820C0F0BD1CB5C1
:106E7000044600200090034601220146019020466E
:106E8000FFF7E1FF1CBD7CB505460C4600200090D5
:106E900023460246014601902846FFF7D4FF7CBDF9
:106EA0001CB50446002000900346012211460190C3
:106EB0002046FFF7C8FF1CBD10B50A4600BF4FF0C3
:106EC000A043194601F5E06353F8203023F4403421
:106ED00001F5E06343F8204053F8203043EA0244D0
:106EE00001F5E06343F8204010BD00BF4FF0A04122
:106EF0000A46012303FA00F1C2F80C1500BF7047DF
:106F000000BF4FF0A0410A46012303FA00F1C2F886
:106F10000C1500BF704700BF4FF0A0410A46012387
:106F200003FA00F1C2F80C1500BF7047014600BF1C
:106F30004FF0A040024600BFD2F81005C84000F054
:106F40000100704700BF4FF0A0410A46012303FA39
:106F500000F1C2F8081500BF704700BF4FF0A04114
:106F60000A46012303FA00F1C2F8081500BF704772
:106F700000BF4FF0A0410A46012303FA00F1C2F816
:106F8000081500BF704710B561B900BF00BF4FF0D2
:106F9000A0421346012404FA00F2C3F80C2500BFF6
:106FA00000BF0CE000BF00BF4FF0A0421346012419
:106FB00004FA00F2C3F8082500BF00BF00BF10BDEF
:106FC00038B50B46074C24680094014606E05DF88E
:106FD0002140D4F810551560121D491CC4188C426C
:106FE000F5D838BDF49001000146014808447047C7
:106FF0000060004038B504462046FFF7F5FF002149
:1070000001602046FFF7F0FF0068009000BF38BD28
:1070100010B504462046FFF7E7FF0068012800D1BD
:1070200010BD0020FCE70000014908607047000027
:107030000463004070B504460E46FDF71FFA05468E
:10704000681C08B9284670BDE8B2207200BF0A4823
:10705000D0F8100428B90848C0F810440020606037
:1070600008E00548D0F81004406860600248D0F895
:10707000100444602846E6E75C1000202DE9F04F3C
:1070800093B082460E4617469846DDF8709030461B
:1070900000F0C1FB18210DA8FBF7D5F90D97CDF82D
:1070A0003880CDF8489000252B46082207A93046A5
:1070B00000F0DEFB082509980A90089880B2ADF828
:1070C0002C0000208DF83000079800F00300012804
:1070D00020D107984FEA902B0798C0F3C2008DF893
:1070E0002E000798C0F380008DF82F000798C0F39A
:1070F0008314A2002B4601A9304600F0B9FB05EB32
:1071000084050DA80AAB224601A90090584600F05C
:10711000C1FA2CE0079800F00300022827D1079855
:107120004FEA905B0798C0F3C2008DF82E000798D5
:10713000C0F380008DF82F0000BFBBF1080F01D213
:10714000584600E0082004462B46224605A9304652
:1071500000F08EFB2544ABEB040B0DAB0AAA2146D5
:1071600005A800F0D1F9BBF1000FE6D100BF304611
:1071700000F066FB13B0BDE8F08F704710B5012436
:10718000204601F07FFD10BD10B504460348FFF70F
:10719000D1FC002001F076FD10BD0000240C002081
:1071A00038B504460D4604484023044A2946009059
:1071B0002046FFF763FF38BD658201007C14002084
:1071C00010B502460B4C04EBC203012906D002297C
:1071D00006D0032906D0042908D105E0002007E0E5
:1071E000002005E0187903E0587901E0002000BF95
:1071F00000BF10BDAC94010010B54FF0FF34FFF795
:10720000BDFF04210448FFF715FF044600BF01201D
:107210000149487200BF10BD300C00202DE9F04F2D
:107220008BB0FDF7C5FC18B100200BB0BDE8F08FA6
:107230000020A849C1F8180400BF00BF00BFBFF379
:107240004F8F00BF00BF00BF08464468856804EA4E
:1072500005000C3101EB800A002600270020079072
:107260000FE0641CBAF80000C0F38910DAF80010CF
:1072700000EB9150044404EA050096490C3101EBFF
:10728000800A9AF8000000F003000028E9D04FF0CF
:1072900000080BE02046641C28408E490C3151F850
:1072A000200008A941F8280008F10108B8F1020FF0
:1072B000F0D3089800F0030002287CD10898800DD4
:1072C000069050210898B1EB905F02DD0898800D80
:1072D00000E05020834608986BF39F5008900BF114
:1072E000080005900898C0F3C20007907A480599F5
:1072F00000F034FA0646002E5BD0304600F08BFAE0
:107300003B46082208A9304600F0C0FA083704EAD4
:107310000500691C081A4FEA8009CB4536D9B9F136
:10732000000F06D004EA05006A490C3101EB800029
:1073300001E068480C300490B9F1000F01D04846D4
:1073400000E05846C0B20390B9F1000F02D0614886
:107350000C3000E000200290B9F1000F02D0ABEB3E
:10736000090000E00020C0B201903B463046DDE954
:10737000032100F08BFA03980744029828B13B469A
:107380003046DDE9012100F081FA0DE004EA050054
:1073900050490C3101EB800004903B465A46304680
:1073A000049900F073FA00BF0698C01C04EB900427
:1073B00000BF50E0FFE7089800F0030001283FD12C
:1073C0000898C0F38310062803DA0898C0F38310E6
:1073D00000E00620089960F3891108910898C0F32D
:1073E000831000F102090898C0F3C20007904FEA29
:1073F0008901394800F0B2F9064606B3304600F07C
:107400000AFA3B46082208A9304600F03FFA08373E
:107410004FF000080EE02046641C28402D4A0C3234
:1074200002EB80013B460422304600F02FFA3F1D5C
:1074300008F101080898C0F383104045EBD80AE032
:10744000089800F00300032805D12248D0F818045A
:1074500008B90020E9E6C6B31E48D0F81094D0F869
:10746000180418B1304600F0EBF92DE016E04FF0AB
:10747000000B00BF99F80900012800D18346BBF139
:10748000000F08D000BFD9F8000031460268484616
:10749000904700BF00BFD9F8049000BFB9F1000FBA
:1074A000E5D1304600F0CCF90020069006A8FCF7A4
:1074B00049FF0848D0F8180408B9064844609DF808
:1074C0001800FCF745FF00BF00BFFDF771FB80F01F
:1074D0000100AAE65C1000207092010070B504461D
:1074E0000D4600231A462946204600F037FF70BD9E
:1074F000F8B505460E461446009401236A46314607
:10750000284600F02BFFF8BD2DE9F05F07460E4638
:1075100090461D46082E01D9BDE8F09F95F80C90C5
:10752000002028732946404600F0DEFC00240CE0D1
:10753000B44205D23A5D1CA12846FFF741FB03E0A7
:107540001BA12846FFF73CFB641C082CF0D319A1B3
:107550002846FFF735FB00241AE0B44213D217F88F
:1075600004A0FAF753FF006810F80A0000F03E008C
:1075700008B1504600E02E2083465A460EA1284608
:10758000FFF71EFB03E00DA12846FFF719FB641C63
:10759000082CE2D301222946404600F083FC85F8FE
:1075A0000C9000BFB8E700002025303278000000C2
:1075B000202020007C000000256300002000000047
:1075C0002DE9F041074600BFFF20124988600020E6
:1075D00008604860C1F81804C1F8140481F81C045C
:1075E0000D4800F027F9054615B12846BDE8F081A1
:1075F0000A480B49401AC608002406E004EB44017F
:10760000084A02EB81000480641CB442F6D30020D7
:10761000ECE700005C100020709201000C95010066
:10762000AC940100800C002002480349401AC008B5
:10763000704700000C950100AC94010013B50C4696
:1076400021466846FEF792FB28B90448009A00EBF1
:10765000C20108681CBD0020FCE70000AC940100DA
:1076600070B50B48D0F810440120094981F81C047A
:107670000AE000BF0120607200BF2546286841680B
:107680002846884700BF6468002CF2D170BD000016
:107690005C1000202DE9FF4707460C461646984629
:1076A0000C9D95F80C90002028732946404600F068
:1076B0001BFC072E47D2DFE806F004090F161F2A2D
:1076C000370039462846FFF77BFA3DE03946284621
:1076D0002268FFF775FA37E039462846D4E90023D7
:1076E000FFF76EFA30E0A068009039462846D4E9EA
:1076F0000023FFF765FA27E0D4E90201CDE9000194
:1077000039462846D4E90023FFF75AFA1CE0D4E9A9
:1077100002122069CDE90012029039462846D4E9C8
:107720000023FFF74DFA0FE0D4E90223D4E9041057
:10773000CDE90023CDE9021039462846D4E90023DB
:10774000FFF73EFA00E000BF00BF00222946404696
:1077500000F0A8FB85F80C90BDE8FF872DE9F84FF5
:1077600007468A46388AA0F104080AF1040040441A
:10777000401EB0FBF8F0C0B200903846FEF71FFB89
:10778000044614B90020BDE8F88F002020710121C3
:107790006171A4F8068025460098A0F1010B2C46E3
:1077A0002F604FF0000912E03846FEF708FB06464E
:1077B00036B16079401C60712E603760354604E058
:1077C000204600F008F80020DDE709F10109D9455D
:1077D000EAD32046D7E72DE9F05F0446274697F81D
:1077E00005802646A8F1010B002501E036686D1CD6
:1077F0005D45FBD3D6F800A02646002507E0D6F865
:10780000009031465046FEF70BFB4E466D1C454539
:10781000F5D3BDE8F09F2DE9F843044627463D1D0A
:1078200001266A4631462846FAF743FD804600BFE6
:10783000BDE8F88310B504462046FEF70FFB10BDE7
:107840002DE9FC47044627463D1D01266A46314680
:107850002846FAF73BFD8146009801900DF1040897
:1078600098F8000010B92046FFF7B5FFBDE8FC8787
:10787000F8B504460D4616461F4601203B463246E3
:10788000294600902046FEF719FAF8BDF8B50446DF
:107890000D4616461F4600203B46324629460090BC
:1078A0002046FEF70BFAF8BD2DE9F04100201D49F6
:1078B000087000BF1C49086000BF00BF00BF00BFC8
:1078C000BFF35F8F00BF00BF00BF00BF174918485C
:1078D00000F083F900BF1748006840F01000154918
:1078E000086000BF00BF1820FFF715FB182001211A
:1078F0000A4600242546234600BF4FF0A0473E46D7
:1079000041EA420747EA840747EA052747EA034C6A
:1079100006F5E06747F820C000BF00BF00BF0020A9
:10792000BDE8F0810C0C0020080C002054920100EE
:10793000900F002010ED00E038B500BF002000904F
:107940006846FCF7FFFC00BFF1EE100A044624F085
:107950009F00E1EE100A00BF00BF00BF00BF00BFE4
:10796000BFF35F8F00BF00BF00BF262000F01F02E3
:1079700001219140154A430942F8231000BF9DF8A8
:107980000000FCF7E5FC00BF002000906846FCF713
:10799000D9FC182000BF4FF0A0410A46012303FA8A
:1079A00000F1C2F8081500BF00BF00F00DF910B1DA
:1079B00041DF044602E020BF40BF20BF1820FFF790
:1079C000AAFA9DF80000FCF7C3FC38BD80E200E095
:1079D000024A1060121D1160704700002C760040B2
:1079E00010B50A7802F003024B78302404EA03133E
:1079F0001A438B784FF4E06404EA03231A43CB78EC
:107A00004FF4805404EA03331A430B794FF4E02413
:107A100004EA03431A434B794FF4801404EA0353F6
:107A20001A438B79240104EA03631343074A02EBE8
:107A300000129360CA790B7A044C04EB0014636063
:107A4000024C04EB0014226000BF10BD1075004012
:107A5000044B03EB00135A60024B03EB0013196055
:107A6000704700001075004001460348085808B1EF
:107A7000012070470020FCE70070004008B500219D
:107A8000034A815011464158009100BF08BD0000D3
:107A90000070004001490860704700000873004012
:107AA0000149086070470000047300400121014A49
:107AB00081507047007000403EB5044A07CA8DE807
:107AC00007006846FADF044620463EBD24930100C5
:107AD000F0B58FB007461BE003AA0DF139010EA8DF
